{
  "contractName": "AModernWay",
  "abi": [
    {
      "constant": false,
      "inputs": [
        {
          "internalType": "string",
          "name": "itemName",
          "type": "string"
        },
        {
          "internalType": "string",
          "name": "itemDescription",
          "type": "string"
        },
        {
          "internalType": "uint256",
          "name": "itemPrice",
          "type": "uint256"
        }
      ],
      "name": "addItemForSale",
      "outputs": [],
      "payable": false,
      "stateMutability": "nonpayable",
      "type": "function"
    },
    {
      "constant": false,
      "inputs": [
        {
          "internalType": "string",
          "name": "itemName",
          "type": "string"
        },
        {
          "internalType": "string",
          "name": "itemDescription",
          "type": "string"
        },
        {
          "internalType": "string",
          "name": "auctionType",
          "type": "string"
        }
      ],
      "name": "addItemForAuction",
      "outputs": [],
      "payable": false,
      "stateMutability": "nonpayable",
      "type": "function"
    },
    {
      "constant": false,
      "inputs": [
        {
          "internalType": "uint256",
          "name": "itemID",
          "type": "uint256"
        },
        {
          "internalType": "bytes32",
          "name": "hashedBid",
          "type": "bytes32"
        }
      ],
      "name": "bidAtAuction",
      "outputs": [],
      "payable": false,
      "stateMutability": "nonpayable",
      "type": "function"
    },
    {
      "constant": false,
      "inputs": [
        {
          "internalType": "uint256",
          "name": "itemID",
          "type": "uint256"
        }
      ],
      "name": "stopBidding",
      "outputs": [],
      "payable": false,
      "stateMutability": "nonpayable",
      "type": "function"
    },
    {
      "constant": false,
      "inputs": [
        {
          "internalType": "uint256",
          "name": "itemID",
          "type": "uint256"
        },
        {
          "internalType": "string",
          "name": "publicKey",
          "type": "string"
        },
        {
          "internalType": "string",
          "name": "password",
          "type": "string"
        }
      ],
      "name": "payAndVerifyBid",
      "outputs": [],
      "payable": true,
      "stateMutability": "payable",
      "type": "function"
    },
    {
      "constant": false,
      "inputs": [
        {
          "internalType": "uint256",
          "name": "itemID",
          "type": "uint256"
        },
        {
          "internalType": "string",
          "name": "publicKey",
          "type": "string"
        }
      ],
      "name": "buyItem",
      "outputs": [],
      "payable": true,
      "stateMutability": "payable",
      "type": "function"
    },
    {
      "constant": false,
      "inputs": [
        {
          "internalType": "uint256",
          "name": "itemID",
          "type": "uint256"
        }
      ],
      "name": "stopAuction",
      "outputs": [],
      "payable": false,
      "stateMutability": "nonpayable",
      "type": "function"
    },
    {
      "constant": true,
      "inputs": [
        {
          "internalType": "uint256",
          "name": "itemID",
          "type": "uint256"
        }
      ],
      "name": "getBuyerPublicKey",
      "outputs": [
        {
          "internalType": "string",
          "name": "",
          "type": "string"
        }
      ],
      "payable": false,
      "stateMutability": "view",
      "type": "function"
    },
    {
      "constant": false,
      "inputs": [
        {
          "internalType": "uint256",
          "name": "itemID",
          "type": "uint256"
        },
        {
          "internalType": "string",
          "name": "encryptedItem",
          "type": "string"
        },
        {
          "internalType": "string",
          "name": "publicKey",
          "type": "string"
        }
      ],
      "name": "deliverItem",
      "outputs": [],
      "payable": false,
      "stateMutability": "nonpayable",
      "type": "function"
    },
    {
      "constant": true,
      "inputs": [
        {
          "internalType": "uint256",
          "name": "itemID",
          "type": "uint256"
        }
      ],
      "name": "getSellerPublicKey",
      "outputs": [
        {
          "internalType": "string",
          "name": "",
          "type": "string"
        }
      ],
      "payable": false,
      "stateMutability": "view",
      "type": "function"
    },
    {
      "constant": true,
      "inputs": [
        {
          "internalType": "uint256",
          "name": "itemID",
          "type": "uint256"
        }
      ],
      "name": "getItem",
      "outputs": [
        {
          "internalType": "string",
          "name": "",
          "type": "string"
        }
      ],
      "payable": false,
      "stateMutability": "view",
      "type": "function"
    },
    {
      "constant": true,
      "inputs": [],
      "name": "viewItemsForSale",
      "outputs": [
        {
          "internalType": "string",
          "name": "",
          "type": "string"
        }
      ],
      "payable": false,
      "stateMutability": "view",
      "type": "function"
    },
    {
      "constant": true,
      "inputs": [],
      "name": "viewItemsForAuction",
      "outputs": [
        {
          "internalType": "string",
          "name": "",
          "type": "string"
        }
      ],
      "payable": false,
      "stateMutability": "view",
      "type": "function"
    }
  ],
  "bytecode": "0x60806040526000805534801561001457600080fd5b5061498a806100246000396000f3fe6080604052600436106100c15760003560e01c806364096a181161007f578063c06882b211610059578063c06882b2146108cb578063d36244b01461097f578063f510f6ae14610adb578063fc57579d14610b16576100c1565b806364096a18146105b457806365022f1e1461071d578063b583b30514610762576100c1565b80620ad21c146100c6578063021baa1614610156578063082ab3e0146101915780631859dc24146103875780633129e7731461043b5780634e71b35c146104ef575b600080fd5b3480156100d257600080fd5b506100db610ba6565b6040518080602001828103825283818151815260200191508051906020019080838360005b8381101561011b578082015181840152602081019050610100565b50505050905090810190601f1680156101485780820380516001836020036101000a031916815260200191505b509250505060405180910390f35b34801561016257600080fd5b5061018f6004803603602081101561017957600080fd5b81019080803590602001909291905050506115ad565b005b34801561019d57600080fd5b50610385600480360360608110156101b457600080fd5b81019080803590602001906401000000008111156101d157600080fd5b8201836020820111156101e357600080fd5b8035906020019184600183028401116401000000008311171561020557600080fd5b91908080601f016020809104026020016040519081016040528093929190818152602001838380828437600081840152601f19601f8201169050808301925050505050505091929192908035906020019064010000000081111561026857600080fd5b82018360208201111561027a57600080fd5b8035906020019184600183028401116401000000008311171561029c57600080fd5b91908080601f016020809104026020016040519081016040528093929190818152602001838380828437600081840152601f19601f820116905080830192505050505050509192919290803590602001906401000000008111156102ff57600080fd5b82018360208201111561031157600080fd5b8035906020019184600183028401116401000000008311171561033357600080fd5b91908080601f016020809104026020016040519081016040528093929190818152602001838380828437600081840152601f19601f8201169050808301925050505050505091929192905050506117e3565b005b34801561039357600080fd5b506103c0600480360360208110156103aa57600080fd5b8101908080359060200190929190505050611a4d565b6040518080602001828103825283818151815260200191508051906020019080838360005b838110156104005780820151818401526020810190506103e5565b50505050905090810190601f16801561042d5780820380516001836020036101000a031916815260200191505b509250505060405180910390f35b34801561044757600080fd5b506104746004803603602081101561045e57600080fd5b8101908080359060200190929190505050611ce7565b6040518080602001828103825283818151815260200191508051906020019080838360005b838110156104b4578082015181840152602081019050610499565b50505050905090810190601f1680156104e15780820380516001836020036101000a031916815260200191505b509250505060405180910390f35b6105b26004803603604081101561050557600080fd5b81019080803590602001909291908035906020019064010000000081111561052c57600080fd5b82018360208201111561053e57600080fd5b8035906020019184600183028401116401000000008311171561056057600080fd5b91908080601f016020809104026020016040519081016040528093929190818152602001838380828437600081840152601f19601f820116905080830192505050505050509192919290505050611f9c565b005b3480156105c057600080fd5b5061071b600480360360608110156105d757600080fd5b81019080803590602001906401000000008111156105f457600080fd5b82018360208201111561060657600080fd5b8035906020019184600183028401116401000000008311171561062857600080fd5b91908080601f016020809104026020016040519081016040528093929190818152602001838380828437600081840152601f19601f8201169050808301925050505050505091929192908035906020019064010000000081111561068b57600080fd5b82018360208201111561069d57600080fd5b803590602001918460018302840111640100000000831117156106bf57600080fd5b91908080601f016020809104026020016040519081016040528093929190818152602001838380828437600081840152601f19601f8201169050808301925050505050505091929192908035906020019092919050505061223e565b005b34801561072957600080fd5b506107606004803603604081101561074057600080fd5b810190808035906020019092919080359060200190929190505050612496565b005b34801561076e57600080fd5b506108c96004803603606081101561078557600080fd5b8101908080359060200190929190803590602001906401000000008111156107ac57600080fd5b8201836020820111156107be57600080fd5b803590602001918460018302840111640100000000831117156107e057600080fd5b91908080601f016020809104026020016040519081016040528093929190818152602001838380828437600081840152601f19601f8201169050808301925050505050505091929192908035906020019064010000000081111561084357600080fd5b82018360208201111561085557600080fd5b8035906020019184600183028401116401000000008311171561087757600080fd5b91908080601f016020809104026020016040519081016040528093929190818152602001838380828437600081840152601f19601f82011690508083019250505050505050919291929050505061279b565b005b3480156108d757600080fd5b50610904600480360360208110156108ee57600080fd5b8101908080359060200190929190505050612afe565b6040518080602001828103825283818151815260200191508051906020019080838360005b83811015610944578082015181840152602081019050610929565b50505050905090810190601f1680156109715780820380516001836020036101000a031916815260200191505b509250505060405180910390f35b610ad96004803603606081101561099557600080fd5b8101908080359060200190929190803590602001906401000000008111156109bc57600080fd5b8201836020820111156109ce57600080fd5b803590602001918460018302840111640100000000831117156109f057600080fd5b91908080601f016020809104026020016040519081016040528093929190818152602001838380828437600081840152601f19601f82011690508083019250505050505050919291929080359060200190640100000000811115610a5357600080fd5b820183602082011115610a6557600080fd5b80359060200191846001830284011164010000000083111715610a8757600080fd5b91908080601f016020809104026020016040519081016040528093929190818152602001838380828437600081840152601f19601f820116905080830192505050505050509192919290505050612d31565b005b348015610ae757600080fd5b50610b1460048036036020811015610afe57600080fd5b8101908080359060200190929190505050613284565b005b348015610b2257600080fd5b50610b2b6135ba565b6040518080602001828103825283818151815260200191508051906020019080838360005b83811015610b6b578082015181840152602081019050610b50565b50505050905090810190601f168015610b985780820380516001836020036101000a031916815260200191505b509250505060405180910390f35b60608060405180602001604052806000815250905060008090505b6002805490508110156115a55760016004811115610bdb57fe5b60028281548110610be857fe5b90600052602060002090600a020160040160149054906101000a900460ff166004811115610c1257fe5b1461159857816040516020018082805190602001908083835b60208310610c4e5780518252602082019150602081019050602083039250610c2b565b6001836020036101000a038019825116818451168082178552505050505050905001807f49443a2000000000000000000000000000000000000000000000000000000000815250600401915050604051602081830303815290604052915081610cd460028381548110610cbd57fe5b90600052602060002090600a020160000154613cc1565b6040516020018083805190602001908083835b60208310610d0a5780518252602082019150602081019050602083039250610ce7565b6001836020036101000a03801982511681845116808217855250505050505090500182805190602001908083835b60208310610d5b5780518252602082019150602081019050602083039250610d38565b6001836020036101000a038019825116818451168082178552505050505050905001925050506040516020818303038152906040529150816040516020018082805190602001908083835b60208310610dc95780518252602082019150602081019050602083039250610da6565b6001836020036101000a038019825116818451168082178552505050505050905001807f3b204e616d653a2000000000000000000000000000000000000000000000000081525060080191505060405160208183030381529060405291508160028281548110610e3557fe5b90600052602060002090600a02016001016040516020018083805190602001908083835b60208310610e7c5780518252602082019150602081019050602083039250610e59565b6001836020036101000a03801982511681845116808217855250505050505090500182805460018160011615610100020316600290048015610ef55780601f10610ed3576101008083540402835291820191610ef5565b820191906000526020600020905b815481529060010190602001808311610ee1575b5050925050506040516020818303038152906040529150816040516020018082805190602001908083835b60208310610f435780518252602082019150602081019050602083039250610f20565b6001836020036101000a038019825116818451168082178552505050505050905001807f3b204465736372697074696f6e3a200000000000000000000000000000000000815250600f0191505060405160208183030381529060405291508160028281548110610faf57fe5b90600052602060002090600a02016002016040516020018083805190602001908083835b60208310610ff65780518252602082019150602081019050602083039250610fd3565b6001836020036101000a0380198251168184511680821785525050505050509050018280546001816001161561010002031660029004801561106f5780601f1061104d57610100808354040283529182019161106f565b820191906000526020600020905b81548152906001019060200180831161105b575b5050925050506040516020818303038152906040529150816040516020018082805190602001908083835b602083106110bd578051825260208201915060208101905060208303925061109a565b6001836020036101000a038019825116818451168082178552505050505050905001807f3b2053656c6c657249443a200000000000000000000000000000000000000000815250600c019150506040516020818303038152906040529150816111636002838154811061112c57fe5b90600052602060002090600a020160040160009054906101000a900473ffffffffffffffffffffffffffffffffffffffff16613dfa565b6040516020018083805190602001908083835b602083106111995780518252602082019150602081019050602083039250611176565b6001836020036101000a03801982511681845116808217855250505050505090500182805190602001908083835b602083106111ea57805182526020820191506020810190506020830392506111c7565b6001836020036101000a038019825116818451168082178552505050505050905001925050506040516020818303038152906040529150816040516020018082805190602001908083835b602083106112585780518252602082019150602081019050602083039250611235565b6001836020036101000a038019825116818451168082178552505050505050905001807f3b205374617475733a2000000000000000000000000000000000000000000000815250600a01915050604051602081830303815290604052915081600282815481106112c457fe5b90600052602060002090600a020160040160149054906101000a900460ff166040516020018083805190602001908083835b6020831061131957805182526020820191506020810190506020830392506112f6565b6001836020036101000a03801982511681845116808217855250505050505090500182600481111561134757fe5b60ff1660f81b8152600101925050506040516020818303038152906040529150816040516020018082805190602001908083835b6020831061139e578051825260208201915060208101905060208303925061137b565b6001836020036101000a038019825116818451168082178552505050505050905001807f3b2042757965723a2000000000000000000000000000000000000000000000008152506009019150506040516020818303038152906040529150816114446002838154811061140d57fe5b90600052602060002090600a020160050160009054906101000a900473ffffffffffffffffffffffffffffffffffffffff16613dfa565b6040516020018083805190602001908083835b6020831061147a5780518252602082019150602081019050602083039250611457565b6001836020036101000a03801982511681845116808217855250505050505090500182805190602001908083835b602083106114cb57805182526020820191506020810190506020830392506114a8565b6001836020036101000a038019825116818451168082178552505050505050905001925050506040516020818303038152906040529150816040516020018082805190602001908083835b602083106115395780518252602082019150602081019050602083039250611516565b6001836020036101000a038019825116818451168082178552505050505050905001807f0a0000000000000000000000000000000000000000000000000000000000000081525060010191505060405160208183030381529060405291505b8080600101915050610bc1565b508091505090565b806000548110611625576040517f08c379a00000000000000000000000000000000000000000000000000000000081526004018080602001828103825260108152602001807f496e76616c6964206974656d204944210000000000000000000000000000000081525060200191505060405180910390fd5b816002818154811061163357fe5b90600052602060002090600a020160040160009054906101000a900473ffffffffffffffffffffffffffffffffffffffff1673ffffffffffffffffffffffffffffffffffffffff163373ffffffffffffffffffffffffffffffffffffffff1614611705576040517f08c379a00000000000000000000000000000000000000000000000000000000081526004018080602001828103825260188152602001807f596f7520646f206e6f74206f776e20746865206974656d21000000000000000081525060200191505060405180910390fd5b6000600481111561171257fe5b6002848154811061171f57fe5b90600052602060002090600a020160040160149054906101000a900460ff16600481111561174957fe5b1461179f576040517f08c379a000000000000000000000000000000000000000000000000000000000815260040180806020018281038252602d815260200180614851602d913960400191505060405180910390fd5b60028084815481106117ad57fe5b90600052602060002090600a020160040160146101000a81548160ff021916908360048111156117d957fe5b0217905550505050565b6117eb614552565b6000808154809291906001019190505581600001818152505083816020018190525082816040018190525033816080019073ffffffffffffffffffffffffffffffffffffffff16908173ffffffffffffffffffffffffffffffffffffffff168152505060008160a00190600481111561186057fe5b9081600481111561186d57fe5b815250506118796145db565b828160000181905250808261010001819052506040518060800160405280604181526020016148d3604191398260e001819052506002829080600181540180825580915050906001820390600052602060002090600a0201600090919290919091506000820151816000015560208201518160010190805190602001906119019291906145f5565b50604082015181600201908051906020019061191e9291906145f5565b506060820151816003015560808201518160040160006101000a81548173ffffffffffffffffffffffffffffffffffffffff021916908373ffffffffffffffffffffffffffffffffffffffff16021790555060a08201518160040160146101000a81548160ff0219169083600481111561199457fe5b021790555060c08201518160050160006101000a81548173ffffffffffffffffffffffffffffffffffffffff021916908373ffffffffffffffffffffffffffffffffffffffff16021790555060e08201518160060190805190602001906119fc9291906145f5565b50610100820151816007016000820151816000019080519060200190611a239291906145f5565b506020820151816002019080519060200190611a40929190614675565b5050505050505050505050565b6060816000548110611ac7576040517f08c379a00000000000000000000000000000000000000000000000000000000081526004018080602001828103825260108152602001807f496e76616c6964206974656d204944210000000000000000000000000000000081525060200191505060405180910390fd5b60036004811115611ad457fe5b60028481548110611ae157fe5b90600052602060002090600a020160040160149054906101000a900460ff166004811115611b0b57fe5b1480611b575750600480811115611b1e57fe5b60028481548110611b2b57fe5b90600052602060002090600a020160040160149054906101000a900460ff166004811115611b5557fe5b145b611bc9576040517f08c379a00000000000000000000000000000000000000000000000000000000081526004018080602001828103825260178152602001807f4275796572206e6f74206465636c61726564207965742100000000000000000081525060200191505060405180910390fd5b6001600060028581548110611bda57fe5b90600052602060002090600a020160050160009054906101000a900473ffffffffffffffffffffffffffffffffffffffff1673ffffffffffffffffffffffffffffffffffffffff1673ffffffffffffffffffffffffffffffffffffffff1681526020019081526020016000208054600181600116156101000203166002900480601f016020809104026020016040519081016040528092919081815260200182805460018160011615610100020316600290048015611cda5780601f10611caf57610100808354040283529160200191611cda565b820191906000526020600020905b815481529060010190602001808311611cbd57829003601f168201915b5050505050915050919050565b6060816000548110611d61576040517f08c379a00000000000000000000000000000000000000000000000000000000081526004018080602001828103825260108152602001807f496e76616c6964206974656d204944210000000000000000000000000000000081525060200191505060405180910390fd5b8260028181548110611d6f57fe5b90600052602060002090600a020160050160009054906101000a900473ffffffffffffffffffffffffffffffffffffffff1673ffffffffffffffffffffffffffffffffffffffff163373ffffffffffffffffffffffffffffffffffffffff1614611e41576040517f08c379a00000000000000000000000000000000000000000000000000000000081526004018080602001828103825260188152602001807f596f7520646f206e6f74206f776e20746865206974656d21000000000000000081525060200191505060405180910390fd5b83600480811115611e4e57fe5b60028281548110611e5b57fe5b90600052602060002090600a020160040160149054906101000a900460ff166004811115611e8557fe5b14611edb576040517f08c379a00000000000000000000000000000000000000000000000000000000081526004018080602001828103825260418152602001806148d36041913960600191505060405180910390fd5b60028581548110611ee857fe5b90600052602060002090600a02016006018054600181600116156101000203166002900480601f016020809104026020016040519081016040528092919081815260200182805460018160011615610100020316600290048015611f8d5780601f10611f6257610100808354040283529160200191611f8d565b820191906000526020600020905b815481529060010190602001808311611f7057829003601f168201915b50505050509350505050919050565b816000548110612014576040517f08c379a00000000000000000000000000000000000000000000000000000000081526004018080602001828103825260108152602001807f496e76616c6964206974656d204944210000000000000000000000000000000081525060200191505060405180910390fd5b6001600481111561202157fe5b6002848154811061202e57fe5b90600052602060002090600a020160040160149054906101000a900460ff16600481111561205857fe5b146120cb576040517f08c379a000000000000000000000000000000000000000000000000000000000815260040180806020018281038252601c8152602001807f4974656d206e6f7420617661696c61626c6520666f722073616c65210000000081525060200191505060405180910390fd5b600283815481106120d857fe5b90600052602060002090600a020160030154341015612142576040517f08c379a000000000000000000000000000000000000000000000000000000000815260040180806020018281038252602281526020018061482f6022913960400191505060405180910390fd5b600033905060036002858154811061215657fe5b90600052602060002090600a020160040160146101000a81548160ff0219169083600481111561218257fe5b0217905550806002858154811061219557fe5b90600052602060002090600a020160050160006101000a81548173ffffffffffffffffffffffffffffffffffffffff021916908373ffffffffffffffffffffffffffffffffffffffff16021790555082600160008373ffffffffffffffffffffffffffffffffffffffff1673ffffffffffffffffffffffffffffffffffffffff16815260200190815260200160002090805190602001906122379291906146ff565b5050505050565b612246614552565b600080815480929190600101919050558160000181815250508381602001819052508281604001819052508181606001818152505033816080019073ffffffffffffffffffffffffffffffffffffffff16908173ffffffffffffffffffffffffffffffffffffffff168152505060018160a0019060048111156122c557fe5b908160048111156122d257fe5b815250506040518060800160405280604181526020016148d3604191398160e001819052506002819080600181540180825580915050906001820390600052602060002090600a02016000909192909190915060008201518160000155602082015181600101908051906020019061234b9291906145f5565b5060408201518160020190805190602001906123689291906145f5565b506060820151816003015560808201518160040160006101000a81548173ffffffffffffffffffffffffffffffffffffffff021916908373ffffffffffffffffffffffffffffffffffffffff16021790555060a08201518160040160146101000a81548160ff021916908360048111156123de57fe5b021790555060c08201518160050160006101000a81548173ffffffffffffffffffffffffffffffffffffffff021916908373ffffffffffffffffffffffffffffffffffffffff16021790555060e08201518160060190805190602001906124469291906145f5565b5061010082015181600701600082015181600001908051906020019061246d9291906145f5565b50602082015181600201908051906020019061248a929190614675565b50505050505050505050565b81600054811061250e576040517f08c379a00000000000000000000000000000000000000000000000000000000081526004018080602001828103825260108152602001807f496e76616c6964206974656d204944210000000000000000000000000000000081525060200191505060405180910390fd5b6000600481111561251b57fe5b6002848154811061252857fe5b90600052602060002090600a020160040160149054906101000a900460ff16600481111561255257fe5b146125c5576040517f08c379a000000000000000000000000000000000000000000000000000000000815260040180806020018281038252601f8152602001807f4974656d206e6f7420617661696c61626c6520666f722062696464696e67210081525060200191505060405180910390fd5b600283815481106125d257fe5b90600052602060002090600a020160040160009054906101000a900473ffffffffffffffffffffffffffffffffffffffff1673ffffffffffffffffffffffffffffffffffffffff163373ffffffffffffffffffffffffffffffffffffffff1614156126a5576040517f08c379a000000000000000000000000000000000000000000000000000000000815260040180806020018281038252601e8152602001807f53656c6c65722063616e206e6f7420627579207468656972206974656d21000081525060200191505060405180910390fd5b600033905082600285815481106126b857fe5b90600052602060002090600a020160070160010160008373ffffffffffffffffffffffffffffffffffffffff1673ffffffffffffffffffffffffffffffffffffffff168152602001908152602001600020600001819055506002848154811061271d57fe5b90600052602060002090600a02016007016002013390806001815401808255809150509060018203906000526020600020016000909192909190916101000a81548173ffffffffffffffffffffffffffffffffffffffff021916908373ffffffffffffffffffffffffffffffffffffffff1602179055505050505050565b826000548110612813576040517f08c379a00000000000000000000000000000000000000000000000000000000081526004018080602001828103825260108152602001807f496e76616c6964206974656d204944210000000000000000000000000000000081525060200191505060405180910390fd5b836002818154811061282157fe5b90600052602060002090600a020160040160009054906101000a900473ffffffffffffffffffffffffffffffffffffffff1673ffffffffffffffffffffffffffffffffffffffff163373ffffffffffffffffffffffffffffffffffffffff16146128f3576040517f08c379a00000000000000000000000000000000000000000000000000000000081526004018080602001828103825260188152602001807f596f7520646f206e6f74206f776e20746865206974656d21000000000000000081525060200191505060405180910390fd5b6003600481111561290057fe5b6002868154811061290d57fe5b90600052602060002090600a020160040160149054906101000a900460ff16600481111561293757fe5b1461298d576040517f08c379a00000000000000000000000000000000000000000000000000000000081526004018080602001828103825260238152602001806148b06023913960400191505060405180910390fd5b82600160003373ffffffffffffffffffffffffffffffffffffffff1673ffffffffffffffffffffffffffffffffffffffff16815260200190815260200160002090805190602001906129e09291906146ff565b5083600286815481106129ef57fe5b90600052602060002090600a02016006019080519060200190612a139291906146ff565b50600460028681548110612a2357fe5b90600052602060002090600a020160040160146101000a81548160ff02191690836004811115612a4f57fe5b021790555060028581548110612a6157fe5b90600052602060002090600a020160040160009054906101000a900473ffffffffffffffffffffffffffffffffffffffff1673ffffffffffffffffffffffffffffffffffffffff166108fc60028781548110612ab957fe5b90600052602060002090600a0201600301549081150290604051600060405180830381858888f19350505050158015612af6573d6000803e3d6000fd5b505050505050565b6060816000548110612b78576040517f08c379a00000000000000000000000000000000000000000000000000000000081526004018080602001828103825260108152602001807f496e76616c6964206974656d204944210000000000000000000000000000000081525060200191505060405180910390fd5b82600480811115612b8557fe5b60028281548110612b9257fe5b90600052602060002090600a020160040160149054906101000a900460ff166004811115612bbc57fe5b14612c12576040517f08c379a00000000000000000000000000000000000000000000000000000000081526004018080602001828103825260418152602001806148d36041913960600191505060405180910390fd5b6001600060028681548110612c2357fe5b90600052602060002090600a020160040160009054906101000a900473ffffffffffffffffffffffffffffffffffffffff1673ffffffffffffffffffffffffffffffffffffffff1673ffffffffffffffffffffffffffffffffffffffff1681526020019081526020016000208054600181600116156101000203166002900480601f016020809104026020016040519081016040528092919081815260200182805460018160011615610100020316600290048015612d235780601f10612cf857610100808354040283529160200191612d23565b820191906000526020600020905b815481529060010190602001808311612d0657829003601f168201915b505050505092505050919050565b826000548110612da9576040517f08c379a00000000000000000000000000000000000000000000000000000000081526004018080602001828103825260108152602001807f496e76616c6964206974656d204944210000000000000000000000000000000081525060200191505060405180910390fd5b60026004811115612db657fe5b60028581548110612dc357fe5b90600052602060002090600a020160040160149054906101000a900460ff166004811115612ded57fe5b14612e43576040517f08c379a000000000000000000000000000000000000000000000000000000000815260040180806020018281038252603281526020018061487e6032913960400191505060405180910390fd5b60028481548110612e5057fe5b90600052602060002090600a020160070160010160003373ffffffffffffffffffffffffffffffffffffffff1673ffffffffffffffffffffffffffffffffffffffff1681526020019081526020016000206000015482612eaf34613cc1565b6040516020018083805190602001908083835b60208310612ee55780518252602082019150602081019050602083039250612ec2565b6001836020036101000a03801982511681845116808217855250505050505090500182805190602001908083835b60208310612f365780518252602082019150602081019050602083039250612f13565b6001836020036101000a03801982511681845116808217855250505050505090500192505050604051602081830303815290604052805190602001201415612fe6576040517f08c379a000000000000000000000000000000000000000000000000000000000815260040180806020018281038252600b8152602001807f57726f6e6720486173682100000000000000000000000000000000000000000081525060200191505060405180910390fd5b6000151560028581548110612ff757fe5b90600052602060002090600a020160070160010160003373ffffffffffffffffffffffffffffffffffffffff1673ffffffffffffffffffffffffffffffffffffffff16815260200190815260200160002060030160009054906101000a900460ff161515146130ce576040517f08c379a00000000000000000000000000000000000000000000000000000000081526004018080602001828103825260118152602001807f416c72656164792076657269666965642100000000000000000000000000000081525060200191505060405180910390fd5b600033905082600286815481106130e157fe5b90600052602060002090600a020160070160010160008373ffffffffffffffffffffffffffffffffffffffff1673ffffffffffffffffffffffffffffffffffffffff16815260200190815260200160002060010190805190602001906131489291906146ff565b50346002868154811061315757fe5b90600052602060002090600a020160070160010160008373ffffffffffffffffffffffffffffffffffffffff1673ffffffffffffffffffffffffffffffffffffffff168152602001908152602001600020600201819055506001600286815481106131be57fe5b90600052602060002090600a020160070160010160008373ffffffffffffffffffffffffffffffffffffffff1673ffffffffffffffffffffffffffffffffffffffff16815260200190815260200160002060030160006101000a81548160ff02191690831515021790555083600160008373ffffffffffffffffffffffffffffffffffffffff1673ffffffffffffffffffffffffffffffffffffffff168152602001908152602001600020908051906020019061327c9291906146ff565b505050505050565b8060005481106132fc576040517f08c379a00000000000000000000000000000000000000000000000000000000081526004018080602001828103825260108152602001807f496e76616c6964206974656d204944210000000000000000000000000000000081525060200191505060405180910390fd5b816002818154811061330a57fe5b90600052602060002090600a020160040160009054906101000a900473ffffffffffffffffffffffffffffffffffffffff1673ffffffffffffffffffffffffffffffffffffffff163373ffffffffffffffffffffffffffffffffffffffff16146133dc576040517f08c379a00000000000000000000000000000000000000000000000000000000081526004018080602001828103825260188152602001807f596f7520646f206e6f74206f776e20746865206974656d21000000000000000081525060200191505060405180910390fd5b600260048111156133e957fe5b600284815481106133f657fe5b90600052602060002090600a020160040160149054906101000a900460ff16600481111561342057fe5b14613476576040517f08c379a00000000000000000000000000000000000000000000000000000000081526004018080602001828103825260428152602001806149146042913960600191505060405180910390fd5b6002838154811061348357fe5b90600052602060002090600a020160040160009054906101000a900473ffffffffffffffffffffffffffffffffffffffff1673ffffffffffffffffffffffffffffffffffffffff16600284815481106134d857fe5b90600052602060002090600a020160050160009054906101000a900473ffffffffffffffffffffffffffffffffffffffff1673ffffffffffffffffffffffffffffffffffffffff16141561356b5760046002848154811061353557fe5b90600052602060002090600a020160040160146101000a81548160ff0219169083600481111561356157fe5b02179055506135ac565b60036002848154811061357a57fe5b90600052602060002090600a020160040160146101000a81548160ff021916908360048111156135a657fe5b02179055505b6135b583613f49565b505050565b60608060405180602001604052806000815250905060008090505b600280549050811015613cb957600160048111156135ef57fe5b600282815481106135fc57fe5b90600052602060002090600a020160040160149054906101000a900460ff16600481111561362657fe5b1415613cac57816040516020018082805190602001908083835b602083106136635780518252602082019150602081019050602083039250613640565b6001836020036101000a038019825116818451168082178552505050505050905001807f49443a20000000000000000000000000000000000000000000000000000000008152506004019150506040516020818303038152906040529150816136e9600283815481106136d257fe5b90600052602060002090600a020160000154613cc1565b6040516020018083805190602001908083835b6020831061371f57805182526020820191506020810190506020830392506136fc565b6001836020036101000a03801982511681845116808217855250505050505090500182805190602001908083835b60208310613770578051825260208201915060208101905060208303925061374d565b6001836020036101000a038019825116818451168082178552505050505050905001925050506040516020818303038152906040529150816040516020018082805190602001908083835b602083106137de57805182526020820191506020810190506020830392506137bb565b6001836020036101000a038019825116818451168082178552505050505050905001807f3b204e616d653a200000000000000000000000000000000000000000000000008152506008019150506040516020818303038152906040529150816002828154811061384a57fe5b90600052602060002090600a02016001016040516020018083805190602001908083835b60208310613891578051825260208201915060208101905060208303925061386e565b6001836020036101000a0380198251168184511680821785525050505050509050018280546001816001161561010002031660029004801561390a5780601f106138e857610100808354040283529182019161390a565b820191906000526020600020905b8154815290600101906020018083116138f6575b5050925050506040516020818303038152906040529150816040516020018082805190602001908083835b602083106139585780518252602082019150602081019050602083039250613935565b6001836020036101000a038019825116818451168082178552505050505050905001807f3b204465736372697074696f6e3a200000000000000000000000000000000000815250600f01915050604051602081830303815290604052915081600282815481106139c457fe5b90600052602060002090600a02016002016040516020018083805190602001908083835b60208310613a0b57805182526020820191506020810190506020830392506139e8565b6001836020036101000a03801982511681845116808217855250505050505090500182805460018160011615610100020316600290048015613a845780601f10613a62576101008083540402835291820191613a84565b820191906000526020600020905b815481529060010190602001808311613a70575b5050925050506040516020818303038152906040529150816040516020018082805190602001908083835b60208310613ad25780518252602082019150602081019050602083039250613aaf565b6001836020036101000a038019825116818451168082178552505050505050905001807f3b2050726963653a200000000000000000000000000000000000000000000000815250600901915050604051602081830303815290604052915081613b5860028381548110613b4157fe5b90600052602060002090600a020160030154613cc1565b6040516020018083805190602001908083835b60208310613b8e5780518252602082019150602081019050602083039250613b6b565b6001836020036101000a03801982511681845116808217855250505050505090500182805190602001908083835b60208310613bdf5780518252602082019150602081019050602083039250613bbc565b6001836020036101000a038019825116818451168082178552505050505050905001925050506040516020818303038152906040529150816040516020018082805190602001908083835b60208310613c4d5780518252602082019150602081019050602083039250613c2a565b6001836020036101000a038019825116818451168082178552505050505050905001807f0a0000000000000000000000000000000000000000000000000000000000000081525060010191505060405160208183030381529060405291505b80806001019150506135d5565b508091505090565b60606000821415613d09576040518060400160405280600181526020017f30000000000000000000000000000000000000000000000000000000000000008152509050613df5565b600082905060005b60008214613d33578080600101915050600a8281613d2b57fe5b049150613d11565b6060816040519080825280601f01601f191660200182016040528015613d685781602001600182028038833980820191505090505b50905060008290505b60008614613ded576001810390506000600a808881613d8c57fe5b04028703603001905060008160f81b905080848481518110613daa57fe5b60200101907effffffffffffffffffffffffffffffffffffffffffffffffffffffffffffff1916908160001a905350600a8881613de357fe5b0497505050613d71565b819450505050505b919050565b60608060286040519080825280601f01601f191660200182016040528015613e315781602001600182028038833980820191505090505b50905060008090505b6014811015613f3f5760008160130360080260020a8573ffffffffffffffffffffffffffffffffffffffff1681613e6d57fe5b0460f81b9050600060108260f81c60ff1681613e8557fe5b0460f81b905060008160f81c6010028360f81c0360f81b9050613ea78261451e565b858560020281518110613eb657fe5b60200101907effffffffffffffffffffffffffffffffffffffffffffffffffffffffffffff1916908160001a905350613eee8161451e565b856001866002020181518110613f0057fe5b60200101907effffffffffffffffffffffffffffffffffffffffffffffffffffffffffffff1916908160001a9053505050508080600101915050613e3a565b5080915050919050565b806000548110613fc1576040517f08c379a00000000000000000000000000000000000000000000000000000000081526004018080602001828103825260108152602001807f496e76616c6964206974656d204944210000000000000000000000000000000081525060200191505060405180910390fd5b606060028381548110613fd057fe5b90600052602060002090600a020160070160020180548060200260200160405190810160405280929190818152602001828054801561406457602002820191906000526020600020905b8160009054906101000a900473ffffffffffffffffffffffffffffffffffffffff1673ffffffffffffffffffffffffffffffffffffffff168152602001906001019080831161401a575b5050505050905060006002848154811061407a57fe5b90600052602060002090600a020160040160009054906101000a900473ffffffffffffffffffffffffffffffffffffffff169050600080905060008090505b8351811015614266576140ca61477f565b600287815481106140d757fe5b90600052602060002090600a020160070160010160008684815181106140f957fe5b602002602001015173ffffffffffffffffffffffffffffffffffffffff1673ffffffffffffffffffffffffffffffffffffffff16815260200190815260200160002060405180608001604052908160008201548152602001600182018054600181600116156101000203166002900480601f0160208091040260200160405190810160405280929190818152602001828054600181600116156101000203166002900480156141e95780601f106141be576101008083540402835291602001916141e9565b820191906000526020600020905b8154815290600101906020018083116141cc57829003601f168201915b50505050508152602001600282015481526020016003820160009054906101000a900460ff16151515158152505090506001151581606001511515148015614235575082816040015110155b156142585784828151811061424657fe5b60200260200101519350806040015192505b5080806001019150506140b9565b5060008090505b83518110156144965761427e61477f565b6002878154811061428b57fe5b90600052602060002090600a020160070160010160008684815181106142ad57fe5b602002602001015173ffffffffffffffffffffffffffffffffffffffff1673ffffffffffffffffffffffffffffffffffffffff16815260200190815260200160002060405180608001604052908160008201548152602001600182018054600181600116156101000203166002900480601f01602080910402602001604051908101604052809291908181526020018280546001816001161561010002031660029004801561439d5780601f106143725761010080835404028352916020019161439d565b820191906000526020600020905b81548152906001019060200180831161438057829003601f168201915b50505050508152602001600282015481526020016003820160009054906101000a900460ff1615151515815250509050600115158160600151151514801561442457508373ffffffffffffffffffffffffffffffffffffffff1685838151811061440357fe5b602002602001015173ffffffffffffffffffffffffffffffffffffffff1614155b156144885784828151811061443557fe5b602002602001015173ffffffffffffffffffffffffffffffffffffffff166108fc82604001519081150290604051600060405180830381858888f19350505050158015614486573d6000803e3d6000fd5b505b50808060010191505061426d565b5080600286815481106144a557fe5b90600052602060002090600a02016003018190555081600286815481106144c857fe5b90600052602060002090600a020160050160006101000a81548173ffffffffffffffffffffffffffffffffffffffff021916908373ffffffffffffffffffffffffffffffffffffffff1602179055505050505050565b6000600a8260f81c60ff1610156145405760308260f81c0160f81b905061454d565b60578260f81c0160f81b90505b919050565b60405180610120016040528060008152602001606081526020016060815260200160008152602001600073ffffffffffffffffffffffffffffffffffffffff168152602001600060048111156145a457fe5b8152602001600073ffffffffffffffffffffffffffffffffffffffff168152602001606081526020016145d56147ac565b81525090565b604051806040016040528060608152602001606081525090565b828054600181600116156101000203166002900490600052602060002090601f016020900481019282601f1061463657805160ff1916838001178555614664565b82800160010185558215614664579182015b82811115614663578251825591602001919060010190614648565b5b50905061467191906147c6565b5090565b8280548282559060005260206000209081019282156146ee579160200282015b828111156146ed5782518260006101000a81548173ffffffffffffffffffffffffffffffffffffffff021916908373ffffffffffffffffffffffffffffffffffffffff16021790555091602001919060010190614695565b5b5090506146fb91906147eb565b5090565b828054600181600116156101000203166002900490600052602060002090601f016020900481019282601f1061474057805160ff191683800117855561476e565b8280016001018555821561476e579182015b8281111561476d578251825591602001919060010190614752565b5b50905061477b91906147c6565b5090565b60405180608001604052806000801916815260200160608152602001600081526020016000151581525090565b604051806040016040528060608152602001606081525090565b6147e891905b808211156147e45760008160009055506001016147cc565b5090565b90565b61482b91905b8082111561482757600081816101000a81549073ffffffffffffffffffffffffffffffffffffffff0219169055506001016147f1565b5090565b9056fe4d6f6e6579206c657373207468616e20746865206c697374696e6720707269636521496e76616c696420726571756573742c206974656d20776173206e6f7420757020666f722062696464696e6721496e76616c696420726571756573742c206974656d2773206e6f7420757020666f722070617920616e6420766572696679214974656d206e6f7420736f6c64206f7220616c72656164792064656c697665726564214974656d206e6f7420617661696c61626c65207965742c20706c65617365207761697420666f72207468652073656c6c657220746f2064656c6976657220697421496e76616c696420726571756573742c2062696473206e6f74207665726966696564206f722061756374696f6e2077617320616c72656164792073746f7070656421a265627a7a723158209dcfa25abe98fe3ad84b734250be3f0a92540889b1f6b95a579ef1db4a76821464736f6c63430005100032",
  "source": "// SPDX-License-Identifier: GPL-3.0\npragma solidity >=0.4.22 <0.9.0;\n\n/**\n * @title A Modern Way\n * @dev Smart contract to facilitate buying, selling, auction of items securely\n */\ncontract AModernWay {\n    /**\n     * This is an enum which will help to keep the current status of an item.\n     * The status FOR_AUCTION signifies that the buyers can bid at auction to buy the item\n     * The status FOR_SALE signifies that the buyers can buy the item at the price specified by the seller\n     * The status PAY_AND_VERIFY signifies that the bidders can pay to verify their bid\n     * The status SOLD signifies that the item is sold to the buyer \n     * The status DELIVERED signifies that the item is delivered to the buyer\n     */\n    enum status {\n        FOR_AUCTION,\n        FOR_SALE,\n        PAY_AND_VERIFY,\n        SOLD,\n        DELIVERED\n    }\n\n    struct Bid{\n        bytes32 hashedBid;\n        string password;\n        uint256 bidValue;\n        bool isVerified;\n    }\n\n   \n    struct Auction{\n        string auctionType;\n        mapping(address => Bid) addressToBid;\n        address payable[] bidders;\n    }\n\n     /**\n     * This is our main item struct.\n     * listingID is the the unique ID for each item\n     * price is the price set by buyer for sale or paid by the winner of the auction\n     * sellerID is the address of the seller who wants to sell the item\n     * buyerID is the address of the buyer who paid for the item\n     * itemStatus tells the current status of the item. It uses the enum status defined above\n     */\n    struct Item {\n        uint256 listingID;\n        string name;\n        string description;\n        uint256 price;\n        address payable sellerID;\n        status itemStatus;\n        address buyerID;\n        string encryptedString;\n        Auction auction;\n    }\n\n\n    uint256 numOfItems = 0;\n\n    /**\n     * This mapping takes an address of a user as the input and returns the public key of that corresponding user.\n     * The public key will be required by the seller so that he can encrypt the item string and send the encrypted string to the buyer.\n     * The buyer will then decrpyt the encrypted string using their private key.\n     */\n    mapping(address => string) addressToPublicKey;\n\n    /**\n     * This array stores the list of all items\n     */\n    Item[] items;\n\n    /**\n     * This modifier is used by a function to check if the item with ID = itemID is accessed only by the seller of that item\n     * @param itemID is the unique ID of the item\n     */\n    modifier onlyValidItemID(uint256 itemID) {\n        require(\n            itemID < numOfItems,\n            \"Invalid item ID!\"\n        );\n        _;\n    }\n\n    /**\n     * This modifier is used by a function to check if the item with ID = itemID is accessed only by the seller of that item\n     * @param itemID is the unique ID of the item\n     */\n    modifier onlySeller(uint256 itemID) {\n        require(\n            msg.sender == items[itemID].sellerID,\n            \"You do not own the item!\"\n        );\n        _;\n    }\n\n    /**\n     * This modifier is used by a function to check if the item with ID = itemID is accessed only by the buyer of that item\n     * @param itemID is the unique ID of the item\n     */\n    modifier onlyBuyer(uint256 itemID) {\n        require(\n            msg.sender == items[itemID].buyerID,\n            \"You do not own the item!\"\n        );\n        _;\n    }\n\n    /**\n     * This modifier is used by a function to check if the item with ID = itemID is delivered\n     * @param itemID is the unique ID of the item\n     */\n    modifier onlyDeliveredItem(uint256 itemID) {\n        require(\n            items[itemID].itemStatus == status.DELIVERED,\n            \"Item not available yet, please wait for the seller to deliver it!\"\n        );\n        _;\n    }\n\n    /**\n     * This function is used by a seller to add a new item for sale.\n     * @param itemName is the name of the item\n     * @param itemDescription describes the item the seller wants to sell\n     * @param itemPrice is the price of the item with which the seller wants to sell it\n     */\n    function addItemForSale(\n        string memory itemName,\n        string memory itemDescription,\n        uint256 itemPrice\n    ) public {\n        Item memory newItem;\n        newItem.listingID = numOfItems++;\n        newItem.name = itemName;\n        newItem.description = itemDescription;\n        newItem.price = itemPrice;\n        newItem.sellerID = msg.sender;\n        newItem.itemStatus = status.FOR_SALE;\n        newItem.encryptedString = \"Item not available yet, please wait for the seller to deliver it!\";\n        items.push(newItem);\n    }\n\n\n\n    /**\n     * This function is used to convert uint256 to string\n     * Taken from here: https://stackoverflow.com/questions/47129173/how-to-convert-uint-to-string-in-solidity\n     * @param _i is a variable of type uint\n     * @return _uintAsString the string representation of _i\n     */\n    function uint2str(uint256 _i)\n        internal\n        pure\n        returns (string memory _uintAsString)\n    {\n        if (_i == 0) {\n            return \"0\";\n        }\n        uint256 j = _i;\n        uint256 len;\n        while (j != 0) {\n            len++;\n            j /= 10;\n        }\n        bytes memory bstr = new bytes(len);\n        uint256 k = len;\n        while (_i != 0) {\n            k = k - 1;\n            uint8 temp = (48 + uint8(_i - (_i / 10) * 10));\n            bytes1 b1 = bytes1(temp);\n            bstr[k] = b1;\n            _i /= 10;\n        }\n        return string(bstr);\n    }\n\n\n    /**\n     * This function is used by a seller to add a new item for the auction.\n     * @param itemName is the name of the item\n     * @param itemDescription describes the item the seller wants to sell\n     * @param auctionType describes the type of auction\n     */\n    function addItemForAuction(\n        string memory itemName,\n        string memory itemDescription,\n        string memory auctionType\n    ) public {\n        Item memory newItem;\n        newItem.listingID = numOfItems++;\n        newItem.name = itemName;\n        newItem.description = itemDescription;\n        newItem.sellerID = msg.sender;\n        newItem.itemStatus = status.FOR_AUCTION;\n        Auction memory auction;\n        auction.auctionType = auctionType;\n        newItem.auction = auction;\n        newItem.encryptedString = \"Item not available yet, please wait for the seller to deliver it!\";\n        items.push(newItem);\n    }\n\n\n\n\n    /**\n     * This function is called by the bidders to bid on the item.\n     * @param itemID is the id of the item\n     * @param hashedBid is the hashed value of the bid to keep the bid sealed\n     */\n    function bidAtAuction(uint256 itemID, bytes32 hashedBid)\n        public\n        onlyValidItemID(itemID)\n    {\n        require(\n            items[itemID].itemStatus == status.FOR_AUCTION,\n            \"Item not available for bidding!\"\n        );\n        require(\n            msg.sender != items[itemID].sellerID,\n            \"Seller can not buy their item!\"\n        );\n        // require(\n        //     items[itemID].auction.addressToBid[msg.sender].hashedBid == keccak256(abi.encodePacked(\"\")),\n        //     \"Can only bid once!\"\n        // );\n\n        address buyerAddress = msg.sender;\n        items[itemID].auction.addressToBid[buyerAddress].hashedBid = hashedBid;\n        items[itemID].auction.bidders.push(msg.sender);\n    }\n\n\n    /**\n     * This function is used by a seller to stop the bidding.\n     * @param itemID is the id of the item\n     */\n    function stopBidding(uint256 itemID)\n        public\n        onlyValidItemID(itemID)\n        onlySeller(itemID)\n    {\n        require(\n            items[itemID].itemStatus == status.FOR_AUCTION,\n            \"Invalid request, item was not up for bidding!\"\n        );\n        \n        items[itemID].itemStatus = status.PAY_AND_VERIFY;\n    }\n\n\n    //  function checkHash(string memory password)\n    //     public view\n    //     returns (uint256)\n    // {\n    //     // return  keccak256(abi.encodePacked(msg.value));\n    //     return  keccak256(abi.encodePacked(msg.value));\n    // }\n\n    /**\n     * This function is used by the bidders to pay and verify their bidding.\n     * @param itemID is the id of the item\n     * @param publicKey is the public key of the bidder\n     */\n    function payAndVerifyBid(uint256 itemID, string memory publicKey, string memory password)\n        public payable\n        onlyValidItemID(itemID)\n    {\n        require(\n            items[itemID].itemStatus == status.PAY_AND_VERIFY,\n            \"Invalid request, item's not up for pay and verify!\"\n        );\n        require(\n            keccak256(abi.encodePacked(password, uint2str(msg.value))) != items[itemID].auction.addressToBid[msg.sender].hashedBid,\n            \"Wrong Hash!\"\n        );\n        require(\n            items[itemID].auction.addressToBid[msg.sender].isVerified == false,\n            \"Already verified!\"\n        );\n        \n        address buyerAddress = msg.sender;\n        items[itemID].auction.addressToBid[buyerAddress].password = password;\n        items[itemID].auction.addressToBid[buyerAddress].bidValue = msg.value;\n        items[itemID].auction.addressToBid[buyerAddress].isVerified = true;\n        addressToPublicKey[buyerAddress] = publicKey;\n    }\n\n    /**\n     * This function is used by a buyer to buy an item.\n     * @param itemID is the unique ID of the item\n     * @param publicKey is the unique publick key of the buyer\n     */\n    function buyItem(uint256 itemID, string memory publicKey) \n        public payable\n        onlyValidItemID(itemID)\n    {\n        require(\n            items[itemID].itemStatus == status.FOR_SALE,\n            \"Item not available for sale!\"\n        );\n        require(\n            msg.value >= items[itemID].price,\n            \"Money less than the listing price!\"\n        );\n\n        address buyerAddress = msg.sender;\n        items[itemID].itemStatus = status.SOLD;\n        items[itemID].buyerID = buyerAddress;\n        addressToPublicKey[buyerAddress] = publicKey;\n    }\n\n    /**\n     * This function is used to find the winner of the auction and refund the bidders' money.\n     * @param itemID is the id of the item\n     */\n    function declareWinner(uint256 itemID)\n        private\n        onlyValidItemID(itemID)\n    {\n        // require(\n        //     items[itemID].itemStatus == status.PAY_AND_VERIFY,\n        //     \"Auction not stopped or winner already declared!\"\n        // );\n       \n        address payable[] memory bidders = items[itemID].auction.bidders;\n        address winner = items[itemID].sellerID;\n        uint256 maxBidValue = 0;\n        for (uint256 i = 0; i < bidders.length; i++) \n        {\n            Bid memory bid = items[itemID].auction.addressToBid[bidders[i]];\n            if(bid.isVerified == true && bid.bidValue >= maxBidValue) \n            {\n                winner = bidders[i];\n                maxBidValue = bid.bidValue;\n            }\n        }\n        for (uint256 i = 0; i < bidders.length; i++) \n        {\n            Bid memory bid = items[itemID].auction.addressToBid[bidders[i]];\n            if(bid.isVerified == true && bidders[i] != winner) \n            {\n                bidders[i].transfer(bid.bidValue);\n            }\n        }\n        items[itemID].price = maxBidValue;\n        items[itemID].buyerID = winner;\n    }\n    \n    /**\n     * This function is used by a seller to stop the auction and declare the winner.\n     * @param itemID is the id of the item\n     */\n    function stopAuction(uint256 itemID) \n        public\n        onlyValidItemID(itemID)\n        onlySeller(itemID)\n    {\n        require(\n            items[itemID].itemStatus == status.PAY_AND_VERIFY,\n            \"Invalid request, bids not verified or auction was already stopped!\"\n        );\n\n        if (items[itemID].buyerID == items[itemID].sellerID)\n            items[itemID].itemStatus = status.DELIVERED;\n        else\n            items[itemID].itemStatus = status.SOLD;\n        declareWinner(itemID);\n    }\n\n    /**\n     * This function is used to get the public Key of the buyer.\n     * @param itemID is the unique ID of the item\n     * @return Public Key of the buyer who bought item with ID = itemID\n     */\n    function getBuyerPublicKey(uint256 itemID)\n        public\n        view\n        onlyValidItemID(itemID)\n        returns (string memory)\n    {\n        require(\n            items[itemID].itemStatus == status.SOLD || items[itemID].itemStatus == status.DELIVERED,\n            \"Buyer not declared yet!\"\n        );\n        return addressToPublicKey[items[itemID].buyerID];\n    }\n\n    /**\n     * This function is used by a seller to transfer encrypted string to the buyer.\n     * @param itemID is the unique ID of the item\n     * @param encryptedItem is the encrypted Secret key sent by the seller using buyers Public Key\n     * @param publicKey is the public key of the seller\n     */\n    function deliverItem(uint256 itemID, string memory encryptedItem, string memory publicKey)\n        public\n        onlyValidItemID(itemID)\n        onlySeller(itemID)\n    {\n        require(\n            items[itemID].itemStatus == status.SOLD,\n            \"Item not sold or already delivered!\"\n        );\n\n        addressToPublicKey[msg.sender] = publicKey;\n        items[itemID].encryptedString = encryptedItem;\n        items[itemID].itemStatus = status.DELIVERED;\n        items[itemID].sellerID.transfer(items[itemID].price);\n    }\n\n    /**\n     * This function is used to get the public Key of the seller.\n     * @param itemID is the unique ID of the item\n     * @return Public Key of the buyer who bought item with ID = itemID\n     */\n    function getSellerPublicKey(uint256 itemID)\n        public\n        view\n        onlyValidItemID(itemID)\n        onlyDeliveredItem(itemID)\n        returns (string memory)\n    {\n        return addressToPublicKey[items[itemID].sellerID];\n    }\n\n    /**\n     * This function is used by the buyer to get the encrypted Secret string.\n     * @param itemID is the unique ID of the item\n     * @return encryptedString provided by the seller which can be decrypted by the buyer using their Private Key\n     */\n    function getItem(uint256 itemID)\n        public\n        view\n        onlyValidItemID(itemID)\n        onlyBuyer(itemID)\n        onlyDeliveredItem(itemID)\n        returns (string memory)\n    {\n        return items[itemID].encryptedString;\n    }\n\n\n    /**\n     * This function is used by a buyer to view the items up for sale.\n     * @return a string containing list of all available Items for bidding\n     */\n    function viewItemsForSale() public view returns (string memory) {\n        string memory itemList = \"\";\n\n        for (uint256 i = 0; i < items.length; i++) {\n            if (items[i].itemStatus == status.FOR_SALE) {\n                itemList = string(abi.encodePacked(itemList, \"ID: \"));\n                itemList = string(\n                    abi.encodePacked(itemList, uint2str(items[i].listingID))\n                );\n                itemList = string(abi.encodePacked(itemList, \"; Name: \"));\n                itemList = string(abi.encodePacked(itemList, items[i].name));\n                itemList = string(\n                    abi.encodePacked(itemList, \"; Description: \")\n                );\n                itemList = string(\n                    abi.encodePacked(itemList, items[i].description)\n                );\n                itemList = string(abi.encodePacked(itemList, \"; Price: \"));\n                itemList = string(\n                    abi.encodePacked(itemList, uint2str(items[i].price))\n                );\n                itemList = string(abi.encodePacked(itemList, \"\\n\"));\n            }\n        }\n\n        return itemList;\n    }\n\n    function toAsciiString(address x) internal view returns (string memory) {\n    bytes memory s = new bytes(40);\n    for (uint i = 0; i < 20; i++) {\n        bytes1 b = bytes1(uint8(uint(uint160(x)) / (2**(8*(19 - i)))));\n        bytes1 hi = bytes1(uint8(b) / 16);\n        bytes1 lo = bytes1(uint8(b) - 16 * uint8(hi));\n        s[2*i] = char(hi);\n        s[2*i+1] = char(lo);            \n    }\n    return string(s);\n}\n\nfunction char(bytes1 b) internal view returns (bytes1 c) {\n    if (uint8(b) < 10) return bytes1(uint8(b) + 0x30);\n    else return bytes1(uint8(b) + 0x57);\n}\n\n    /**\n     * This function is used by a buyer to view the listing.\n     * @return a string containing list of all available Items for bidding\n     */\n    function viewItemsForAuction() public view returns (string memory) {\n        string memory itemList = \"\";\n\n        for (uint256 i = 0; i < items.length; i++) {\n            if (items[i].itemStatus != status.FOR_SALE) {\n                itemList = string(abi.encodePacked(itemList, \"ID: \"));\n                itemList = string(\n                    abi.encodePacked(itemList, uint2str(items[i].listingID))\n                );\n                itemList = string(abi.encodePacked(itemList, \"; Name: \"));\n                itemList = string(abi.encodePacked(itemList, items[i].name));\n                itemList = string(\n                    abi.encodePacked(itemList, \"; Description: \")\n                );\n                itemList = string(\n                    abi.encodePacked(itemList, items[i].description)\n                );\n                   itemList = string(\n                    abi.encodePacked(itemList, \"; SellerID: \")\n                );\n                itemList = string(\n                    abi.encodePacked(itemList, toAsciiString(items[i].sellerID))\n                );\n                itemList = string(\n                    abi.encodePacked(itemList, \"; Status: \")\n                );\n                itemList = string(\n                    abi.encodePacked(itemList, items[i].itemStatus)\n                );\n                itemList = string(\n                    abi.encodePacked(itemList, \"; Buyer: \")\n                );\n                itemList = string(\n                    abi.encodePacked(itemList, toAsciiString(items[i].buyerID))\n                );\n                itemList = string(abi.encodePacked(itemList, \"\\n\"));\n            }\n        }\n\n        return itemList;\n    }\n}",
  "sourcePath": "/home/manish/blockchain/Blockchain_Auction/2018114005/contracts/AModernWay.sol",
  "compiler": {
    "name": "solc",
    "version": "0.5.16+commit.9c3226ce.Emscripten.clang"
  },
  "schemaVersion": "3.4.3",
  "updatedAt": "2021-10-12T07:48:21.730Z",
  "networkType": "ethereum",
  "devdoc": {
    "details": "Smart contract to facilitate buying, selling, auction of items securely",
    "methods": {
      "addItemForAuction(string,string,string)": {
        "params": {
          "auctionType": "describes the type of auction",
          "itemDescription": "describes the item the seller wants to sell",
          "itemName": "is the name of the item"
        }
      },
      "addItemForSale(string,string,uint256)": {
        "params": {
          "itemDescription": "describes the item the seller wants to sell",
          "itemName": "is the name of the item",
          "itemPrice": "is the price of the item with which the seller wants to sell it"
        }
      },
      "bidAtAuction(uint256,bytes32)": {
        "params": {
          "hashedBid": "is the hashed value of the bid to keep the bid sealed",
          "itemID": "is the id of the item"
        }
      },
      "buyItem(uint256,string)": {
        "params": {
          "itemID": "is the unique ID of the item",
          "publicKey": "is the unique publick key of the buyer"
        }
      },
      "deliverItem(uint256,string,string)": {
        "params": {
          "encryptedItem": "is the encrypted Secret key sent by the seller using buyers Public Key",
          "itemID": "is the unique ID of the item",
          "publicKey": "is the public key of the seller"
        }
      },
      "getBuyerPublicKey(uint256)": {
        "params": {
          "itemID": "is the unique ID of the item"
        },
        "return": "Public Key of the buyer who bought item with ID = itemID"
      },
      "getItem(uint256)": {
        "params": {
          "itemID": "is the unique ID of the item"
        },
        "return": "encryptedString provided by the seller which can be decrypted by the buyer using their Private Key"
      },
      "getSellerPublicKey(uint256)": {
        "params": {
          "itemID": "is the unique ID of the item"
        },
        "return": "Public Key of the buyer who bought item with ID = itemID"
      },
      "payAndVerifyBid(uint256,string,string)": {
        "params": {
          "itemID": "is the id of the item",
          "publicKey": "is the public key of the bidder"
        }
      },
      "stopAuction(uint256)": {
        "params": {
          "itemID": "is the id of the item"
        }
      },
      "stopBidding(uint256)": {
        "params": {
          "itemID": "is the id of the item"
        }
      },
      "viewItemsForAuction()": {
        "return": "a string containing list of all available Items for bidding"
      },
      "viewItemsForSale()": {
        "return": "a string containing list of all available Items for bidding"
      }
    },
    "title": "A Modern Way"
  },
  "userdoc": {
    "methods": {
      "addItemForAuction(string,string,string)": {
        "notice": "This function is used by a seller to add a new item for the auction."
      },
      "addItemForSale(string,string,uint256)": {
        "notice": "This function is used by a seller to add a new item for sale."
      },
      "bidAtAuction(uint256,bytes32)": {
        "notice": "This function is called by the bidders to bid on the item."
      },
      "buyItem(uint256,string)": {
        "notice": "This function is used by a buyer to buy an item."
      },
      "deliverItem(uint256,string,string)": {
        "notice": "This function is used by a seller to transfer encrypted string to the buyer."
      },
      "getBuyerPublicKey(uint256)": {
        "notice": "This function is used to get the public Key of the buyer."
      },
      "getItem(uint256)": {
        "notice": "This function is used by the buyer to get the encrypted Secret string."
      },
      "getSellerPublicKey(uint256)": {
        "notice": "This function is used to get the public Key of the seller."
      },
      "payAndVerifyBid(uint256,string,string)": {
        "notice": "This function is used by the bidders to pay and verify their bidding."
      },
      "stopAuction(uint256)": {
        "notice": "This function is used by a seller to stop the auction and declare the winner."
      },
      "stopBidding(uint256)": {
        "notice": "This function is used by a seller to stop the bidding."
      },
      "viewItemsForAuction()": {
        "notice": "This function is used by a buyer to view the listing."
      },
      "viewItemsForSale()": {
        "notice": "This function is used by a buyer to view the items up for sale."
      }
    }
  }
}