{
  "contractName": "AModernWay",
  "abi": [
    {
      "constant": false,
      "inputs": [
        {
          "internalType": "string",
          "name": "itemName",
          "type": "string"
        },
        {
          "internalType": "string",
          "name": "itemDescription",
          "type": "string"
        },
        {
          "internalType": "uint256",
          "name": "itemPrice",
          "type": "uint256"
        }
      ],
      "name": "addItemForSale",
      "outputs": [],
      "payable": false,
      "stateMutability": "nonpayable",
      "type": "function"
    },
    {
      "constant": false,
      "inputs": [
        {
          "internalType": "string",
          "name": "itemName",
          "type": "string"
        },
        {
          "internalType": "string",
          "name": "itemDescription",
          "type": "string"
        },
        {
          "internalType": "string",
          "name": "auctionType",
          "type": "string"
        }
      ],
      "name": "addItemForAuction",
      "outputs": [],
      "payable": false,
      "stateMutability": "nonpayable",
      "type": "function"
    },
    {
      "constant": false,
      "inputs": [
        {
          "internalType": "uint256",
          "name": "itemID",
          "type": "uint256"
        },
        {
          "internalType": "bytes32",
          "name": "hashedBid",
          "type": "bytes32"
        }
      ],
      "name": "bidAtAuction",
      "outputs": [],
      "payable": false,
      "stateMutability": "nonpayable",
      "type": "function"
    },
    {
      "constant": false,
      "inputs": [
        {
          "internalType": "uint256",
          "name": "itemID",
          "type": "uint256"
        }
      ],
      "name": "stopBidding",
      "outputs": [],
      "payable": false,
      "stateMutability": "nonpayable",
      "type": "function"
    },
    {
      "constant": false,
      "inputs": [
        {
          "internalType": "uint256",
          "name": "itemID",
          "type": "uint256"
        },
        {
          "internalType": "string",
          "name": "publicKey",
          "type": "string"
        },
        {
          "internalType": "string",
          "name": "password",
          "type": "string"
        }
      ],
      "name": "payAndVerifyBid",
      "outputs": [],
      "payable": true,
      "stateMutability": "payable",
      "type": "function"
    },
    {
      "constant": false,
      "inputs": [
        {
          "internalType": "uint256",
          "name": "itemID",
          "type": "uint256"
        },
        {
          "internalType": "string",
          "name": "publicKey",
          "type": "string"
        }
      ],
      "name": "buyItem",
      "outputs": [],
      "payable": true,
      "stateMutability": "payable",
      "type": "function"
    },
    {
      "constant": false,
      "inputs": [
        {
          "internalType": "uint256",
          "name": "itemID",
          "type": "uint256"
        }
      ],
      "name": "stopAuction",
      "outputs": [],
      "payable": false,
      "stateMutability": "nonpayable",
      "type": "function"
    },
    {
      "constant": true,
      "inputs": [
        {
          "internalType": "uint256",
          "name": "itemID",
          "type": "uint256"
        }
      ],
      "name": "getBuyerPublicKey",
      "outputs": [
        {
          "internalType": "string",
          "name": "",
          "type": "string"
        }
      ],
      "payable": false,
      "stateMutability": "view",
      "type": "function"
    },
    {
      "constant": false,
      "inputs": [
        {
          "internalType": "uint256",
          "name": "itemID",
          "type": "uint256"
        },
        {
          "internalType": "string",
          "name": "encryptedItem",
          "type": "string"
        },
        {
          "internalType": "string",
          "name": "publicKey",
          "type": "string"
        }
      ],
      "name": "deliverItem",
      "outputs": [],
      "payable": false,
      "stateMutability": "nonpayable",
      "type": "function"
    },
    {
      "constant": true,
      "inputs": [
        {
          "internalType": "uint256",
          "name": "itemID",
          "type": "uint256"
        }
      ],
      "name": "getSellerPublicKey",
      "outputs": [
        {
          "internalType": "string",
          "name": "",
          "type": "string"
        }
      ],
      "payable": false,
      "stateMutability": "view",
      "type": "function"
    },
    {
      "constant": true,
      "inputs": [
        {
          "internalType": "uint256",
          "name": "itemID",
          "type": "uint256"
        }
      ],
      "name": "getItem",
      "outputs": [
        {
          "internalType": "string",
          "name": "",
          "type": "string"
        }
      ],
      "payable": false,
      "stateMutability": "view",
      "type": "function"
    },
    {
      "constant": true,
      "inputs": [],
      "name": "viewItemsForSale",
      "outputs": [
        {
          "internalType": "string",
          "name": "",
          "type": "string"
        }
      ],
      "payable": false,
      "stateMutability": "view",
      "type": "function"
    },
    {
      "constant": true,
      "inputs": [],
      "name": "viewItemsForAuction",
      "outputs": [
        {
          "internalType": "string",
          "name": "",
          "type": "string"
        }
      ],
      "payable": false,
      "stateMutability": "view",
      "type": "function"
    },
    {
      "constant": true,
      "inputs": [],
      "name": "viewAllItems",
      "outputs": [
        {
          "internalType": "string",
          "name": "",
          "type": "string"
        }
      ],
      "payable": false,
      "stateMutability": "view",
      "type": "function"
    }
  ],
  "bytecode": "0x60806040526000805534801561001457600080fd5b50615bb080620000256000396000f3fe6080604052600436106100dc5760003560e01c806365022f1e1161007f578063d36244b011610059578063d36244b01461099a578063ed0c0d4f14610af6578063f510f6ae14610b86578063fc57579d14610bc1576100dc565b806365022f1e14610738578063b583b3051461077d578063c06882b2146108e6576100dc565b80631859dc24116100bb5780631859dc24146103a25780633129e773146104565780634e71b35c1461050a57806364096a18146105cf576100dc565b80620ad21c146100e1578063021baa1614610171578063082ab3e0146101ac575b600080fd5b3480156100ed57600080fd5b506100f6610c51565b6040518080602001828103825283818151815260200191508051906020019080838360005b8381101561013657808201518184015260208101905061011b565b50505050905090810190601f1680156101635780820380516001836020036101000a031916815260200191505b509250505060405180910390f35b34801561017d57600080fd5b506101aa6004803603602081101561019457600080fd5b81019080803590602001909291905050506116a5565b005b3480156101b857600080fd5b506103a0600480360360608110156101cf57600080fd5b81019080803590602001906401000000008111156101ec57600080fd5b8201836020820111156101fe57600080fd5b8035906020019184600183028401116401000000008311171561022057600080fd5b91908080601f016020809104026020016040519081016040528093929190818152602001838380828437600081840152601f19601f8201169050808301925050505050505091929192908035906020019064010000000081111561028357600080fd5b82018360208201111561029557600080fd5b803590602001918460018302840111640100000000831117156102b757600080fd5b91908080601f016020809104026020016040519081016040528093929190818152602001838380828437600081840152601f19601f8201169050808301925050505050505091929192908035906020019064010000000081111561031a57600080fd5b82018360208201111561032c57600080fd5b8035906020019184600183028401116401000000008311171561034e57600080fd5b91908080601f016020809104026020016040519081016040528093929190818152602001838380828437600081840152601f19601f8201169050808301925050505050505091929192905050506118db565b005b3480156103ae57600080fd5b506103db600480360360208110156103c557600080fd5b8101908080359060200190929190505050611b45565b6040518080602001828103825283818151815260200191508051906020019080838360005b8381101561041b578082015181840152602081019050610400565b50505050905090810190601f1680156104485780820380516001836020036101000a031916815260200191505b509250505060405180910390f35b34801561046257600080fd5b5061048f6004803603602081101561047957600080fd5b8101908080359060200190929190505050611ddf565b6040518080602001828103825283818151815260200191508051906020019080838360005b838110156104cf5780820151818401526020810190506104b4565b50505050905090810190601f1680156104fc5780820380516001836020036101000a031916815260200191505b509250505060405180910390f35b6105cd6004803603604081101561052057600080fd5b81019080803590602001909291908035906020019064010000000081111561054757600080fd5b82018360208201111561055957600080fd5b8035906020019184600183028401116401000000008311171561057b57600080fd5b91908080601f016020809104026020016040519081016040528093929190818152602001838380828437600081840152601f19601f820116905080830192505050505050509192919290505050612094565b005b3480156105db57600080fd5b50610736600480360360608110156105f257600080fd5b810190808035906020019064010000000081111561060f57600080fd5b82018360208201111561062157600080fd5b8035906020019184600183028401116401000000008311171561064357600080fd5b91908080601f016020809104026020016040519081016040528093929190818152602001838380828437600081840152601f19601f820116905080830192505050505050509192919290803590602001906401000000008111156106a657600080fd5b8201836020820111156106b857600080fd5b803590602001918460018302840111640100000000831117156106da57600080fd5b91908080601f016020809104026020016040519081016040528093929190818152602001838380828437600081840152601f19601f82011690508083019250505050505050919291929080359060200190929190505050612336565b005b34801561074457600080fd5b5061077b6004803603604081101561075b57600080fd5b81019080803590602001909291908035906020019092919050505061258e565b005b34801561078957600080fd5b506108e4600480360360608110156107a057600080fd5b8101908080359060200190929190803590602001906401000000008111156107c757600080fd5b8201836020820111156107d957600080fd5b803590602001918460018302840111640100000000831117156107fb57600080fd5b91908080601f016020809104026020016040519081016040528093929190818152602001838380828437600081840152601f19601f8201169050808301925050505050505091929192908035906020019064010000000081111561085e57600080fd5b82018360208201111561087057600080fd5b8035906020019184600183028401116401000000008311171561089257600080fd5b91908080601f016020809104026020016040519081016040528093929190818152602001838380828437600081840152601f19601f820116905080830192505050505050509192919290505050612893565b005b3480156108f257600080fd5b5061091f6004803603602081101561090957600080fd5b8101908080359060200190929190505050612bf6565b6040518080602001828103825283818151815260200191508051906020019080838360005b8381101561095f578082015181840152602081019050610944565b50505050905090810190601f16801561098c5780820380516001836020036101000a031916815260200191505b509250505060405180910390f35b610af4600480360360608110156109b057600080fd5b8101908080359060200190929190803590602001906401000000008111156109d757600080fd5b8201836020820111156109e957600080fd5b80359060200191846001830284011164010000000083111715610a0b57600080fd5b91908080601f016020809104026020016040519081016040528093929190818152602001838380828437600081840152601f19601f82011690508083019250505050505050919291929080359060200190640100000000811115610a6e57600080fd5b820183602082011115610a8057600080fd5b80359060200191846001830284011164010000000083111715610aa257600080fd5b91908080601f016020809104026020016040519081016040528093929190818152602001838380828437600081840152601f19601f820116905080830192505050505050509192919290505050612e29565b005b348015610b0257600080fd5b50610b0b61337c565b6040518080602001828103825283818151815260200191508051906020019080838360005b83811015610b4b578082015181840152602081019050610b30565b50505050905090810190601f168015610b785780820380516001836020036101000a031916815260200191505b509250505060405180910390f35b348015610b9257600080fd5b50610bbf60048036036020811015610ba957600080fd5b810190808035906020019092919050505061402e565b005b348015610bcd57600080fd5b50610bd6614364565b6040518080602001828103825283818151815260200191508051906020019080838360005b83811015610c16578082015181840152602081019050610bfb565b50505050905090810190601f168015610c435780820380516001836020036101000a031916815260200191505b509250505060405180910390f35b60608060405180602001604052806000815250905060008090505b60028054905081101561169d5760006004811115610c8657fe5b60028281548110610c9357fe5b90600052602060002090600a020160040160149054906101000a900460ff166004811115610cbd57fe5b1480610d0a575060026004811115610cd157fe5b60028281548110610cde57fe5b90600052602060002090600a020160040160149054906101000a900460ff166004811115610d0857fe5b145b1561169057816040516020018082805190602001908083835b60208310610d465780518252602082019150602081019050602083039250610d23565b6001836020036101000a038019825116818451168082178552505050505050905001807f49443a2000000000000000000000000000000000000000000000000000000000815250600401915050604051602081830303815290604052915081610dcc60028381548110610db557fe5b90600052602060002090600a020160000154614ee7565b6040516020018083805190602001908083835b60208310610e025780518252602082019150602081019050602083039250610ddf565b6001836020036101000a03801982511681845116808217855250505050505090500182805190602001908083835b60208310610e535780518252602082019150602081019050602083039250610e30565b6001836020036101000a038019825116818451168082178552505050505050905001925050506040516020818303038152906040529150816040516020018082805190602001908083835b60208310610ec15780518252602082019150602081019050602083039250610e9e565b6001836020036101000a038019825116818451168082178552505050505050905001807f3b204e616d653a2000000000000000000000000000000000000000000000000081525060080191505060405160208183030381529060405291508160028281548110610f2d57fe5b90600052602060002090600a02016001016040516020018083805190602001908083835b60208310610f745780518252602082019150602081019050602083039250610f51565b6001836020036101000a03801982511681845116808217855250505050505090500182805460018160011615610100020316600290048015610fed5780601f10610fcb576101008083540402835291820191610fed565b820191906000526020600020905b815481529060010190602001808311610fd9575b5050925050506040516020818303038152906040529150816040516020018082805190602001908083835b6020831061103b5780518252602082019150602081019050602083039250611018565b6001836020036101000a038019825116818451168082178552505050505050905001807f3b204465736372697074696f6e3a200000000000000000000000000000000000815250600f01915050604051602081830303815290604052915081600282815481106110a757fe5b90600052602060002090600a02016002016040516020018083805190602001908083835b602083106110ee57805182526020820191506020810190506020830392506110cb565b6001836020036101000a038019825116818451168082178552505050505050905001828054600181600116156101000203166002900480156111675780601f10611145576101008083540402835291820191611167565b820191906000526020600020905b815481529060010190602001808311611153575b5050925050506040516020818303038152906040529150816040516020018082805190602001908083835b602083106111b55780518252602082019150602081019050602083039250611192565b6001836020036101000a038019825116818451168082178552505050505050905001807f3b2053656c6c657249443a200000000000000000000000000000000000000000815250600c0191505060405160208183030381529060405291508161125b6002838154811061122457fe5b90600052602060002090600a020160040160009054906101000a900473ffffffffffffffffffffffffffffffffffffffff16615020565b6040516020018083805190602001908083835b60208310611291578051825260208201915060208101905060208303925061126e565b6001836020036101000a03801982511681845116808217855250505050505090500182805190602001908083835b602083106112e257805182526020820191506020810190506020830392506112bf565b6001836020036101000a038019825116818451168082178552505050505050905001925050506040516020818303038152906040529150816040516020018082805190602001908083835b60208310611350578051825260208201915060208101905060208303925061132d565b6001836020036101000a038019825116818451168082178552505050505050905001807f3b205374617475733a2000000000000000000000000000000000000000000000815250600a01915050604051602081830303815290604052915081600282815481106113bc57fe5b90600052602060002090600a020160040160149054906101000a900460ff166040516020018083805190602001908083835b6020831061141157805182526020820191506020810190506020830392506113ee565b6001836020036101000a03801982511681845116808217855250505050505090500182600481111561143f57fe5b60ff1660f81b8152600101925050506040516020818303038152906040529150816040516020018082805190602001908083835b602083106114965780518252602082019150602081019050602083039250611473565b6001836020036101000a038019825116818451168082178552505050505050905001807f3b2042757965723a20000000000000000000000000000000000000000000000081525060090191505060405160208183030381529060405291508161153c6002838154811061150557fe5b90600052602060002090600a020160050160009054906101000a900473ffffffffffffffffffffffffffffffffffffffff16615020565b6040516020018083805190602001908083835b60208310611572578051825260208201915060208101905060208303925061154f565b6001836020036101000a03801982511681845116808217855250505050505090500182805190602001908083835b602083106115c357805182526020820191506020810190506020830392506115a0565b6001836020036101000a038019825116818451168082178552505050505050905001925050506040516020818303038152906040529150816040516020018082805190602001908083835b60208310611631578051825260208201915060208101905060208303925061160e565b6001836020036101000a038019825116818451168082178552505050505050905001807f0a0000000000000000000000000000000000000000000000000000000000000081525060010191505060405160208183030381529060405291505b8080600101915050610c6c565b508091505090565b80600054811061171d576040517f08c379a00000000000000000000000000000000000000000000000000000000081526004018080602001828103825260108152602001807f496e76616c6964206974656d204944210000000000000000000000000000000081525060200191505060405180910390fd5b816002818154811061172b57fe5b90600052602060002090600a020160040160009054906101000a900473ffffffffffffffffffffffffffffffffffffffff1673ffffffffffffffffffffffffffffffffffffffff163373ffffffffffffffffffffffffffffffffffffffff16146117fd576040517f08c379a00000000000000000000000000000000000000000000000000000000081526004018080602001828103825260188152602001807f596f7520646f206e6f74206f776e20746865206974656d21000000000000000081525060200191505060405180910390fd5b6000600481111561180a57fe5b6002848154811061181757fe5b90600052602060002090600a020160040160149054906101000a900460ff16600481111561184157fe5b14611897576040517f08c379a000000000000000000000000000000000000000000000000000000000815260040180806020018281038252602d815260200180615a77602d913960400191505060405180910390fd5b60028084815481106118a557fe5b90600052602060002090600a020160040160146101000a81548160ff021916908360048111156118d157fe5b0217905550505050565b6118e3615778565b6000808154809291906001019190505581600001818152505083816020018190525082816040018190525033816080019073ffffffffffffffffffffffffffffffffffffffff16908173ffffffffffffffffffffffffffffffffffffffff168152505060008160a00190600481111561195857fe5b9081600481111561196557fe5b81525050611971615801565b82816000018190525080826101000181905250604051806080016040528060418152602001615af9604191398260e001819052506002829080600181540180825580915050906001820390600052602060002090600a0201600090919290919091506000820151816000015560208201518160010190805190602001906119f992919061581b565b506040820151816002019080519060200190611a1692919061581b565b506060820151816003015560808201518160040160006101000a81548173ffffffffffffffffffffffffffffffffffffffff021916908373ffffffffffffffffffffffffffffffffffffffff16021790555060a08201518160040160146101000a81548160ff02191690836004811115611a8c57fe5b021790555060c08201518160050160006101000a81548173ffffffffffffffffffffffffffffffffffffffff021916908373ffffffffffffffffffffffffffffffffffffffff16021790555060e0820151816006019080519060200190611af492919061581b565b50610100820151816007016000820151816000019080519060200190611b1b92919061581b565b506020820151816002019080519060200190611b3892919061589b565b5050505050505050505050565b6060816000548110611bbf576040517f08c379a00000000000000000000000000000000000000000000000000000000081526004018080602001828103825260108152602001807f496e76616c6964206974656d204944210000000000000000000000000000000081525060200191505060405180910390fd5b60036004811115611bcc57fe5b60028481548110611bd957fe5b90600052602060002090600a020160040160149054906101000a900460ff166004811115611c0357fe5b1480611c4f5750600480811115611c1657fe5b60028481548110611c2357fe5b90600052602060002090600a020160040160149054906101000a900460ff166004811115611c4d57fe5b145b611cc1576040517f08c379a00000000000000000000000000000000000000000000000000000000081526004018080602001828103825260178152602001807f4275796572206e6f74206465636c61726564207965742100000000000000000081525060200191505060405180910390fd5b6001600060028581548110611cd257fe5b90600052602060002090600a020160050160009054906101000a900473ffffffffffffffffffffffffffffffffffffffff1673ffffffffffffffffffffffffffffffffffffffff1673ffffffffffffffffffffffffffffffffffffffff1681526020019081526020016000208054600181600116156101000203166002900480601f016020809104026020016040519081016040528092919081815260200182805460018160011615610100020316600290048015611dd25780601f10611da757610100808354040283529160200191611dd2565b820191906000526020600020905b815481529060010190602001808311611db557829003601f168201915b5050505050915050919050565b6060816000548110611e59576040517f08c379a00000000000000000000000000000000000000000000000000000000081526004018080602001828103825260108152602001807f496e76616c6964206974656d204944210000000000000000000000000000000081525060200191505060405180910390fd5b8260028181548110611e6757fe5b90600052602060002090600a020160050160009054906101000a900473ffffffffffffffffffffffffffffffffffffffff1673ffffffffffffffffffffffffffffffffffffffff163373ffffffffffffffffffffffffffffffffffffffff1614611f39576040517f08c379a00000000000000000000000000000000000000000000000000000000081526004018080602001828103825260188152602001807f596f7520646f206e6f74206f776e20746865206974656d21000000000000000081525060200191505060405180910390fd5b83600480811115611f4657fe5b60028281548110611f5357fe5b90600052602060002090600a020160040160149054906101000a900460ff166004811115611f7d57fe5b14611fd3576040517f08c379a0000000000000000000000000000000000000000000000000000000008152600401808060200182810382526041815260200180615af96041913960600191505060405180910390fd5b60028581548110611fe057fe5b90600052602060002090600a02016006018054600181600116156101000203166002900480601f0160208091040260200160405190810160405280929190818152602001828054600181600116156101000203166002900480156120855780601f1061205a57610100808354040283529160200191612085565b820191906000526020600020905b81548152906001019060200180831161206857829003601f168201915b50505050509350505050919050565b81600054811061210c576040517f08c379a00000000000000000000000000000000000000000000000000000000081526004018080602001828103825260108152602001807f496e76616c6964206974656d204944210000000000000000000000000000000081525060200191505060405180910390fd5b6001600481111561211957fe5b6002848154811061212657fe5b90600052602060002090600a020160040160149054906101000a900460ff16600481111561215057fe5b146121c3576040517f08c379a000000000000000000000000000000000000000000000000000000000815260040180806020018281038252601c8152602001807f4974656d206e6f7420617661696c61626c6520666f722073616c65210000000081525060200191505060405180910390fd5b600283815481106121d057fe5b90600052602060002090600a02016003015434101561223a576040517f08c379a0000000000000000000000000000000000000000000000000000000008152600401808060200182810382526022815260200180615a556022913960400191505060405180910390fd5b600033905060036002858154811061224e57fe5b90600052602060002090600a020160040160146101000a81548160ff0219169083600481111561227a57fe5b0217905550806002858154811061228d57fe5b90600052602060002090600a020160050160006101000a81548173ffffffffffffffffffffffffffffffffffffffff021916908373ffffffffffffffffffffffffffffffffffffffff16021790555082600160008373ffffffffffffffffffffffffffffffffffffffff1673ffffffffffffffffffffffffffffffffffffffff168152602001908152602001600020908051906020019061232f929190615925565b5050505050565b61233e615778565b600080815480929190600101919050558160000181815250508381602001819052508281604001819052508181606001818152505033816080019073ffffffffffffffffffffffffffffffffffffffff16908173ffffffffffffffffffffffffffffffffffffffff168152505060018160a0019060048111156123bd57fe5b908160048111156123ca57fe5b81525050604051806080016040528060418152602001615af9604191398160e001819052506002819080600181540180825580915050906001820390600052602060002090600a02016000909192909190915060008201518160000155602082015181600101908051906020019061244392919061581b565b50604082015181600201908051906020019061246092919061581b565b506060820151816003015560808201518160040160006101000a81548173ffffffffffffffffffffffffffffffffffffffff021916908373ffffffffffffffffffffffffffffffffffffffff16021790555060a08201518160040160146101000a81548160ff021916908360048111156124d657fe5b021790555060c08201518160050160006101000a81548173ffffffffffffffffffffffffffffffffffffffff021916908373ffffffffffffffffffffffffffffffffffffffff16021790555060e082015181600601908051906020019061253e92919061581b565b5061010082015181600701600082015181600001908051906020019061256592919061581b565b50602082015181600201908051906020019061258292919061589b565b50505050505050505050565b816000548110612606576040517f08c379a00000000000000000000000000000000000000000000000000000000081526004018080602001828103825260108152602001807f496e76616c6964206974656d204944210000000000000000000000000000000081525060200191505060405180910390fd5b6000600481111561261357fe5b6002848154811061262057fe5b90600052602060002090600a020160040160149054906101000a900460ff16600481111561264a57fe5b146126bd576040517f08c379a000000000000000000000000000000000000000000000000000000000815260040180806020018281038252601f8152602001807f4974656d206e6f7420617661696c61626c6520666f722062696464696e67210081525060200191505060405180910390fd5b600283815481106126ca57fe5b90600052602060002090600a020160040160009054906101000a900473ffffffffffffffffffffffffffffffffffffffff1673ffffffffffffffffffffffffffffffffffffffff163373ffffffffffffffffffffffffffffffffffffffff16141561279d576040517f08c379a000000000000000000000000000000000000000000000000000000000815260040180806020018281038252601e8152602001807f53656c6c65722063616e206e6f7420627579207468656972206974656d21000081525060200191505060405180910390fd5b600033905082600285815481106127b057fe5b90600052602060002090600a020160070160010160008373ffffffffffffffffffffffffffffffffffffffff1673ffffffffffffffffffffffffffffffffffffffff168152602001908152602001600020600001819055506002848154811061281557fe5b90600052602060002090600a02016007016002013390806001815401808255809150509060018203906000526020600020016000909192909190916101000a81548173ffffffffffffffffffffffffffffffffffffffff021916908373ffffffffffffffffffffffffffffffffffffffff1602179055505050505050565b82600054811061290b576040517f08c379a00000000000000000000000000000000000000000000000000000000081526004018080602001828103825260108152602001807f496e76616c6964206974656d204944210000000000000000000000000000000081525060200191505060405180910390fd5b836002818154811061291957fe5b90600052602060002090600a020160040160009054906101000a900473ffffffffffffffffffffffffffffffffffffffff1673ffffffffffffffffffffffffffffffffffffffff163373ffffffffffffffffffffffffffffffffffffffff16146129eb576040517f08c379a00000000000000000000000000000000000000000000000000000000081526004018080602001828103825260188152602001807f596f7520646f206e6f74206f776e20746865206974656d21000000000000000081525060200191505060405180910390fd5b600360048111156129f857fe5b60028681548110612a0557fe5b90600052602060002090600a020160040160149054906101000a900460ff166004811115612a2f57fe5b14612a85576040517f08c379a0000000000000000000000000000000000000000000000000000000008152600401808060200182810382526023815260200180615ad66023913960400191505060405180910390fd5b82600160003373ffffffffffffffffffffffffffffffffffffffff1673ffffffffffffffffffffffffffffffffffffffff1681526020019081526020016000209080519060200190612ad8929190615925565b508360028681548110612ae757fe5b90600052602060002090600a02016006019080519060200190612b0b929190615925565b50600460028681548110612b1b57fe5b90600052602060002090600a020160040160146101000a81548160ff02191690836004811115612b4757fe5b021790555060028581548110612b5957fe5b90600052602060002090600a020160040160009054906101000a900473ffffffffffffffffffffffffffffffffffffffff1673ffffffffffffffffffffffffffffffffffffffff166108fc60028781548110612bb157fe5b90600052602060002090600a0201600301549081150290604051600060405180830381858888f19350505050158015612bee573d6000803e3d6000fd5b505050505050565b6060816000548110612c70576040517f08c379a00000000000000000000000000000000000000000000000000000000081526004018080602001828103825260108152602001807f496e76616c6964206974656d204944210000000000000000000000000000000081525060200191505060405180910390fd5b82600480811115612c7d57fe5b60028281548110612c8a57fe5b90600052602060002090600a020160040160149054906101000a900460ff166004811115612cb457fe5b14612d0a576040517f08c379a0000000000000000000000000000000000000000000000000000000008152600401808060200182810382526041815260200180615af96041913960600191505060405180910390fd5b6001600060028681548110612d1b57fe5b90600052602060002090600a020160040160009054906101000a900473ffffffffffffffffffffffffffffffffffffffff1673ffffffffffffffffffffffffffffffffffffffff1673ffffffffffffffffffffffffffffffffffffffff1681526020019081526020016000208054600181600116156101000203166002900480601f016020809104026020016040519081016040528092919081815260200182805460018160011615610100020316600290048015612e1b5780601f10612df057610100808354040283529160200191612e1b565b820191906000526020600020905b815481529060010190602001808311612dfe57829003601f168201915b505050505092505050919050565b826000548110612ea1576040517f08c379a00000000000000000000000000000000000000000000000000000000081526004018080602001828103825260108152602001807f496e76616c6964206974656d204944210000000000000000000000000000000081525060200191505060405180910390fd5b60026004811115612eae57fe5b60028581548110612ebb57fe5b90600052602060002090600a020160040160149054906101000a900460ff166004811115612ee557fe5b14612f3b576040517f08c379a0000000000000000000000000000000000000000000000000000000008152600401808060200182810382526032815260200180615aa46032913960400191505060405180910390fd5b60028481548110612f4857fe5b90600052602060002090600a020160070160010160003373ffffffffffffffffffffffffffffffffffffffff1673ffffffffffffffffffffffffffffffffffffffff1681526020019081526020016000206000015482612fa734614ee7565b6040516020018083805190602001908083835b60208310612fdd5780518252602082019150602081019050602083039250612fba565b6001836020036101000a03801982511681845116808217855250505050505090500182805190602001908083835b6020831061302e578051825260208201915060208101905060208303925061300b565b6001836020036101000a038019825116818451168082178552505050505050905001925050506040516020818303038152906040528051906020012014156130de576040517f08c379a000000000000000000000000000000000000000000000000000000000815260040180806020018281038252600b8152602001807f57726f6e6720486173682100000000000000000000000000000000000000000081525060200191505060405180910390fd5b60001515600285815481106130ef57fe5b90600052602060002090600a020160070160010160003373ffffffffffffffffffffffffffffffffffffffff1673ffffffffffffffffffffffffffffffffffffffff16815260200190815260200160002060030160009054906101000a900460ff161515146131c6576040517f08c379a00000000000000000000000000000000000000000000000000000000081526004018080602001828103825260118152602001807f416c72656164792076657269666965642100000000000000000000000000000081525060200191505060405180910390fd5b600033905082600286815481106131d957fe5b90600052602060002090600a020160070160010160008373ffffffffffffffffffffffffffffffffffffffff1673ffffffffffffffffffffffffffffffffffffffff1681526020019081526020016000206001019080519060200190613240929190615925565b50346002868154811061324f57fe5b90600052602060002090600a020160070160010160008373ffffffffffffffffffffffffffffffffffffffff1673ffffffffffffffffffffffffffffffffffffffff168152602001908152602001600020600201819055506001600286815481106132b657fe5b90600052602060002090600a020160070160010160008373ffffffffffffffffffffffffffffffffffffffff1673ffffffffffffffffffffffffffffffffffffffff16815260200190815260200160002060030160006101000a81548160ff02191690831515021790555083600160008373ffffffffffffffffffffffffffffffffffffffff1673ffffffffffffffffffffffffffffffffffffffff1681526020019081526020016000209080519060200190613374929190615925565b505050505050565b60608060405180602001604052806000815250905060008090505b60028054905081101561402657816040516020018082805190602001908083835b602083106133db57805182526020820191506020810190506020830392506133b8565b6001836020036101000a038019825116818451168082178552505050505050905001807f49443a20000000000000000000000000000000000000000000000000000000008152506004019150506040516020818303038152906040529150816134616002838154811061344a57fe5b90600052602060002090600a020160000154614ee7565b6040516020018083805190602001908083835b602083106134975780518252602082019150602081019050602083039250613474565b6001836020036101000a03801982511681845116808217855250505050505090500182805190602001908083835b602083106134e857805182526020820191506020810190506020830392506134c5565b6001836020036101000a038019825116818451168082178552505050505050905001925050506040516020818303038152906040529150816040516020018082805190602001908083835b602083106135565780518252602082019150602081019050602083039250613533565b6001836020036101000a038019825116818451168082178552505050505050905001807f3b204e616d653a20000000000000000000000000000000000000000000000000815250600801915050604051602081830303815290604052915081600282815481106135c257fe5b90600052602060002090600a02016001016040516020018083805190602001908083835b6020831061360957805182526020820191506020810190506020830392506135e6565b6001836020036101000a038019825116818451168082178552505050505050905001828054600181600116156101000203166002900480156136825780601f10613660576101008083540402835291820191613682565b820191906000526020600020905b81548152906001019060200180831161366e575b5050925050506040516020818303038152906040529150816040516020018082805190602001908083835b602083106136d057805182526020820191506020810190506020830392506136ad565b6001836020036101000a038019825116818451168082178552505050505050905001807f3b204465736372697074696f6e3a200000000000000000000000000000000000815250600f019150506040516020818303038152906040529150816002828154811061373c57fe5b90600052602060002090600a02016002016040516020018083805190602001908083835b602083106137835780518252602082019150602081019050602083039250613760565b6001836020036101000a038019825116818451168082178552505050505050905001828054600181600116156101000203166002900480156137fc5780601f106137da5761010080835404028352918201916137fc565b820191906000526020600020905b8154815290600101906020018083116137e8575b5050925050506040516020818303038152906040529150816040516020018082805190602001908083835b6020831061384a5780518252602082019150602081019050602083039250613827565b6001836020036101000a038019825116818451168082178552505050505050905001807f3b2053656c6c657249443a200000000000000000000000000000000000000000815250600c019150506040516020818303038152906040529150816138f0600283815481106138b957fe5b90600052602060002090600a020160040160009054906101000a900473ffffffffffffffffffffffffffffffffffffffff16615020565b6040516020018083805190602001908083835b602083106139265780518252602082019150602081019050602083039250613903565b6001836020036101000a03801982511681845116808217855250505050505090500182805190602001908083835b602083106139775780518252602082019150602081019050602083039250613954565b6001836020036101000a038019825116818451168082178552505050505050905001925050506040516020818303038152906040529150816040516020018082805190602001908083835b602083106139e557805182526020820191506020810190506020830392506139c2565b6001836020036101000a038019825116818451168082178552505050505050905001807f3b205374617475733a2000000000000000000000000000000000000000000000815250600a0191505060405160208183030381529060405291508160028281548110613a5157fe5b90600052602060002090600a020160040160149054906101000a900460ff166040516020018083805190602001908083835b60208310613aa65780518252602082019150602081019050602083039250613a83565b6001836020036101000a038019825116818451168082178552505050505050905001826004811115613ad457fe5b60ff1660f81b8152600101925050506040516020818303038152906040529150816040516020018082805190602001908083835b60208310613b2b5780518252602082019150602081019050602083039250613b08565b6001836020036101000a038019825116818451168082178552505050505050905001807f3b2042757965723a200000000000000000000000000000000000000000000000815250600901915050604051602081830303815290604052915081613bd160028381548110613b9a57fe5b90600052602060002090600a020160050160009054906101000a900473ffffffffffffffffffffffffffffffffffffffff16615020565b6040516020018083805190602001908083835b60208310613c075780518252602082019150602081019050602083039250613be4565b6001836020036101000a03801982511681845116808217855250505050505090500182805190602001908083835b60208310613c585780518252602082019150602081019050602083039250613c35565b6001836020036101000a038019825116818451168082178552505050505050905001925050506040516020818303038152906040529150816040516020018082805190602001908083835b60208310613cc65780518252602082019150602081019050602083039250613ca3565b6001836020036101000a038019825116818451168082178552505050505050905001807f3b2050726963653a200000000000000000000000000000000000000000000000815250600901915050604051602081830303815290604052915081613d4c60028381548110613d3557fe5b90600052602060002090600a020160030154614ee7565b6040516020018083805190602001908083835b60208310613d825780518252602082019150602081019050602083039250613d5f565b6001836020036101000a03801982511681845116808217855250505050505090500182805190602001908083835b60208310613dd35780518252602082019150602081019050602083039250613db0565b6001836020036101000a038019825116818451168082178552505050505050905001925050506040516020818303038152906040529150816040516020018082805190602001908083835b60208310613e415780518252602082019150602081019050602083039250613e1e565b6001836020036101000a038019825116818451168082178552505050505050905001807f3b20536563726574537472696e673a200000000000000000000000000000000081525060100191505060405160208183030381529060405291508160028281548110613ead57fe5b90600052602060002090600a02016006016040516020018083805190602001908083835b60208310613ef45780518252602082019150602081019050602083039250613ed1565b6001836020036101000a03801982511681845116808217855250505050505090500182805460018160011615610100020316600290048015613f6d5780601f10613f4b576101008083540402835291820191613f6d565b820191906000526020600020905b815481529060010190602001808311613f59575b5050925050506040516020818303038152906040529150816040516020018082805190602001908083835b60208310613fbb5780518252602082019150602081019050602083039250613f98565b6001836020036101000a038019825116818451168082178552505050505050905001807f0a0000000000000000000000000000000000000000000000000000000000000081525060010191505060405160208183030381529060405291508080600101915050613397565b508091505090565b8060005481106140a6576040517f08c379a00000000000000000000000000000000000000000000000000000000081526004018080602001828103825260108152602001807f496e76616c6964206974656d204944210000000000000000000000000000000081525060200191505060405180910390fd5b81600281815481106140b457fe5b90600052602060002090600a020160040160009054906101000a900473ffffffffffffffffffffffffffffffffffffffff1673ffffffffffffffffffffffffffffffffffffffff163373ffffffffffffffffffffffffffffffffffffffff1614614186576040517f08c379a00000000000000000000000000000000000000000000000000000000081526004018080602001828103825260188152602001807f596f7520646f206e6f74206f776e20746865206974656d21000000000000000081525060200191505060405180910390fd5b6002600481111561419357fe5b600284815481106141a057fe5b90600052602060002090600a020160040160149054906101000a900460ff1660048111156141ca57fe5b14614220576040517f08c379a0000000000000000000000000000000000000000000000000000000008152600401808060200182810382526042815260200180615b3a6042913960600191505060405180910390fd5b6002838154811061422d57fe5b90600052602060002090600a020160040160009054906101000a900473ffffffffffffffffffffffffffffffffffffffff1673ffffffffffffffffffffffffffffffffffffffff166002848154811061428257fe5b90600052602060002090600a020160050160009054906101000a900473ffffffffffffffffffffffffffffffffffffffff1673ffffffffffffffffffffffffffffffffffffffff161415614315576004600284815481106142df57fe5b90600052602060002090600a020160040160146101000a81548160ff0219169083600481111561430b57fe5b0217905550614356565b60036002848154811061432457fe5b90600052602060002090600a020160040160146101000a81548160ff0219169083600481111561435057fe5b02179055505b61435f8361516f565b505050565b60608060405180602001604052806000815250905060008090505b600280549050811015614edf576001600481111561439957fe5b600282815481106143a657fe5b90600052602060002090600a020160040160149054906101000a900460ff1660048111156143d057fe5b1415614ed257816040516020018082805190602001908083835b6020831061440d57805182526020820191506020810190506020830392506143ea565b6001836020036101000a038019825116818451168082178552505050505050905001807f49443a20000000000000000000000000000000000000000000000000000000008152506004019150506040516020818303038152906040529150816144936002838154811061447c57fe5b90600052602060002090600a020160000154614ee7565b6040516020018083805190602001908083835b602083106144c957805182526020820191506020810190506020830392506144a6565b6001836020036101000a03801982511681845116808217855250505050505090500182805190602001908083835b6020831061451a57805182526020820191506020810190506020830392506144f7565b6001836020036101000a038019825116818451168082178552505050505050905001925050506040516020818303038152906040529150816040516020018082805190602001908083835b602083106145885780518252602082019150602081019050602083039250614565565b6001836020036101000a038019825116818451168082178552505050505050905001807f3b204e616d653a20000000000000000000000000000000000000000000000000815250600801915050604051602081830303815290604052915081600282815481106145f457fe5b90600052602060002090600a02016001016040516020018083805190602001908083835b6020831061463b5780518252602082019150602081019050602083039250614618565b6001836020036101000a038019825116818451168082178552505050505050905001828054600181600116156101000203166002900480156146b45780601f106146925761010080835404028352918201916146b4565b820191906000526020600020905b8154815290600101906020018083116146a0575b5050925050506040516020818303038152906040529150816040516020018082805190602001908083835b6020831061470257805182526020820191506020810190506020830392506146df565b6001836020036101000a038019825116818451168082178552505050505050905001807f3b204465736372697074696f6e3a200000000000000000000000000000000000815250600f019150506040516020818303038152906040529150816002828154811061476e57fe5b90600052602060002090600a02016002016040516020018083805190602001908083835b602083106147b55780518252602082019150602081019050602083039250614792565b6001836020036101000a0380198251168184511680821785525050505050509050018280546001816001161561010002031660029004801561482e5780601f1061480c57610100808354040283529182019161482e565b820191906000526020600020905b81548152906001019060200180831161481a575b5050925050506040516020818303038152906040529150816040516020018082805190602001908083835b6020831061487c5780518252602082019150602081019050602083039250614859565b6001836020036101000a038019825116818451168082178552505050505050905001807f3b2053656c6c657249443a200000000000000000000000000000000000000000815250600c01915050604051602081830303815290604052915081614922600283815481106148eb57fe5b90600052602060002090600a020160040160009054906101000a900473ffffffffffffffffffffffffffffffffffffffff16615020565b6040516020018083805190602001908083835b602083106149585780518252602082019150602081019050602083039250614935565b6001836020036101000a03801982511681845116808217855250505050505090500182805190602001908083835b602083106149a95780518252602082019150602081019050602083039250614986565b6001836020036101000a038019825116818451168082178552505050505050905001925050506040516020818303038152906040529150816040516020018082805190602001908083835b60208310614a1757805182526020820191506020810190506020830392506149f4565b6001836020036101000a038019825116818451168082178552505050505050905001807f3b205374617475733a2000000000000000000000000000000000000000000000815250600a0191505060405160208183030381529060405291508160028281548110614a8357fe5b90600052602060002090600a020160040160149054906101000a900460ff166040516020018083805190602001908083835b60208310614ad85780518252602082019150602081019050602083039250614ab5565b6001836020036101000a038019825116818451168082178552505050505050905001826004811115614b0657fe5b60ff1660f81b8152600101925050506040516020818303038152906040529150816040516020018082805190602001908083835b60208310614b5d5780518252602082019150602081019050602083039250614b3a565b6001836020036101000a038019825116818451168082178552505050505050905001807f3b2042757965723a200000000000000000000000000000000000000000000000815250600901915050604051602081830303815290604052915081614c0360028381548110614bcc57fe5b90600052602060002090600a020160050160009054906101000a900473ffffffffffffffffffffffffffffffffffffffff16615020565b6040516020018083805190602001908083835b60208310614c395780518252602082019150602081019050602083039250614c16565b6001836020036101000a03801982511681845116808217855250505050505090500182805190602001908083835b60208310614c8a5780518252602082019150602081019050602083039250614c67565b6001836020036101000a038019825116818451168082178552505050505050905001925050506040516020818303038152906040529150816040516020018082805190602001908083835b60208310614cf85780518252602082019150602081019050602083039250614cd5565b6001836020036101000a038019825116818451168082178552505050505050905001807f3b2050726963653a200000000000000000000000000000000000000000000000815250600901915050604051602081830303815290604052915081614d7e60028381548110614d6757fe5b90600052602060002090600a020160030154614ee7565b6040516020018083805190602001908083835b60208310614db45780518252602082019150602081019050602083039250614d91565b6001836020036101000a03801982511681845116808217855250505050505090500182805190602001908083835b60208310614e055780518252602082019150602081019050602083039250614de2565b6001836020036101000a038019825116818451168082178552505050505050905001925050506040516020818303038152906040529150816040516020018082805190602001908083835b60208310614e735780518252602082019150602081019050602083039250614e50565b6001836020036101000a038019825116818451168082178552505050505050905001807f0a0000000000000000000000000000000000000000000000000000000000000081525060010191505060405160208183030381529060405291505b808060010191505061437f565b508091505090565b60606000821415614f2f576040518060400160405280600181526020017f3000000000000000000000000000000000000000000000000000000000000000815250905061501b565b600082905060005b60008214614f59578080600101915050600a8281614f5157fe5b049150614f37565b6060816040519080825280601f01601f191660200182016040528015614f8e5781602001600182028038833980820191505090505b50905060008290505b60008614615013576001810390506000600a808881614fb257fe5b04028703603001905060008160f81b905080848481518110614fd057fe5b60200101907effffffffffffffffffffffffffffffffffffffffffffffffffffffffffffff1916908160001a905350600a888161500957fe5b0497505050614f97565b819450505050505b919050565b60608060286040519080825280601f01601f1916602001820160405280156150575781602001600182028038833980820191505090505b50905060008090505b60148110156151655760008160130360080260020a8573ffffffffffffffffffffffffffffffffffffffff168161509357fe5b0460f81b9050600060108260f81c60ff16816150ab57fe5b0460f81b905060008160f81c6010028360f81c0360f81b90506150cd82615744565b8585600202815181106150dc57fe5b60200101907effffffffffffffffffffffffffffffffffffffffffffffffffffffffffffff1916908160001a90535061511481615744565b85600186600202018151811061512657fe5b60200101907effffffffffffffffffffffffffffffffffffffffffffffffffffffffffffff1916908160001a9053505050508080600101915050615060565b5080915050919050565b8060005481106151e7576040517f08c379a00000000000000000000000000000000000000000000000000000000081526004018080602001828103825260108152602001807f496e76616c6964206974656d204944210000000000000000000000000000000081525060200191505060405180910390fd5b6060600283815481106151f657fe5b90600052602060002090600a020160070160020180548060200260200160405190810160405280929190818152602001828054801561528a57602002820191906000526020600020905b8160009054906101000a900473ffffffffffffffffffffffffffffffffffffffff1673ffffffffffffffffffffffffffffffffffffffff1681526020019060010190808311615240575b505050505090506000600284815481106152a057fe5b90600052602060002090600a020160040160009054906101000a900473ffffffffffffffffffffffffffffffffffffffff169050600080905060008090505b835181101561548c576152f06159a5565b600287815481106152fd57fe5b90600052602060002090600a0201600701600101600086848151811061531f57fe5b602002602001015173ffffffffffffffffffffffffffffffffffffffff1673ffffffffffffffffffffffffffffffffffffffff16815260200190815260200160002060405180608001604052908160008201548152602001600182018054600181600116156101000203166002900480601f01602080910402602001604051908101604052809291908181526020018280546001816001161561010002031660029004801561540f5780601f106153e45761010080835404028352916020019161540f565b820191906000526020600020905b8154815290600101906020018083116153f257829003601f168201915b50505050508152602001600282015481526020016003820160009054906101000a900460ff1615151515815250509050600115158160600151151514801561545b575082816040015110155b1561547e5784828151811061546c57fe5b60200260200101519350806040015192505b5080806001019150506152df565b5060008090505b83518110156156bc576154a46159a5565b600287815481106154b157fe5b90600052602060002090600a020160070160010160008684815181106154d357fe5b602002602001015173ffffffffffffffffffffffffffffffffffffffff1673ffffffffffffffffffffffffffffffffffffffff16815260200190815260200160002060405180608001604052908160008201548152602001600182018054600181600116156101000203166002900480601f0160208091040260200160405190810160405280929190818152602001828054600181600116156101000203166002900480156155c35780601f10615598576101008083540402835291602001916155c3565b820191906000526020600020905b8154815290600101906020018083116155a657829003601f168201915b50505050508152602001600282015481526020016003820160009054906101000a900460ff1615151515815250509050600115158160600151151514801561564a57508373ffffffffffffffffffffffffffffffffffffffff1685838151811061562957fe5b602002602001015173ffffffffffffffffffffffffffffffffffffffff1614155b156156ae5784828151811061565b57fe5b602002602001015173ffffffffffffffffffffffffffffffffffffffff166108fc82604001519081150290604051600060405180830381858888f193505050501580156156ac573d6000803e3d6000fd5b505b508080600101915050615493565b5080600286815481106156cb57fe5b90600052602060002090600a02016003018190555081600286815481106156ee57fe5b90600052602060002090600a020160050160006101000a81548173ffffffffffffffffffffffffffffffffffffffff021916908373ffffffffffffffffffffffffffffffffffffffff1602179055505050505050565b6000600a8260f81c60ff1610156157665760308260f81c0160f81b9050615773565b60578260f81c0160f81b90505b919050565b60405180610120016040528060008152602001606081526020016060815260200160008152602001600073ffffffffffffffffffffffffffffffffffffffff168152602001600060048111156157ca57fe5b8152602001600073ffffffffffffffffffffffffffffffffffffffff168152602001606081526020016157fb6159d2565b81525090565b604051806040016040528060608152602001606081525090565b828054600181600116156101000203166002900490600052602060002090601f016020900481019282601f1061585c57805160ff191683800117855561588a565b8280016001018555821561588a579182015b8281111561588957825182559160200191906001019061586e565b5b50905061589791906159ec565b5090565b828054828255906000526020600020908101928215615914579160200282015b828111156159135782518260006101000a81548173ffffffffffffffffffffffffffffffffffffffff021916908373ffffffffffffffffffffffffffffffffffffffff160217905550916020019190600101906158bb565b5b5090506159219190615a11565b5090565b828054600181600116156101000203166002900490600052602060002090601f016020900481019282601f1061596657805160ff1916838001178555615994565b82800160010185558215615994579182015b82811115615993578251825591602001919060010190615978565b5b5090506159a191906159ec565b5090565b60405180608001604052806000801916815260200160608152602001600081526020016000151581525090565b604051806040016040528060608152602001606081525090565b615a0e91905b80821115615a0a5760008160009055506001016159f2565b5090565b90565b615a5191905b80821115615a4d57600081816101000a81549073ffffffffffffffffffffffffffffffffffffffff021916905550600101615a17565b5090565b9056fe4d6f6e6579206c657373207468616e20746865206c697374696e6720707269636521496e76616c696420726571756573742c206974656d20776173206e6f7420757020666f722062696464696e6721496e76616c696420726571756573742c206974656d2773206e6f7420757020666f722070617920616e6420766572696679214974656d206e6f7420736f6c64206f7220616c72656164792064656c697665726564214974656d206e6f7420617661696c61626c65207965742c20706c65617365207761697420666f72207468652073656c6c657220746f2064656c6976657220697421496e76616c696420726571756573742c2062696473206e6f74207665726966696564206f722061756374696f6e2077617320616c72656164792073746f7070656421a265627a7a7231582000347bf55e414c405d46ed5e141c363701efe3bfd2d7f4ccf19ab808912990c964736f6c63430005100032",
  "source": "// SPDX-License-Identifier: GPL-3.0\npragma solidity >=0.4.22 <0.9.0;\n\n/**\n * @title A Modern Way\n * @dev Smart contract to facilitate buying, selling, auction of items securely\n */\ncontract AModernWay {\n    /**\n     * This is an enum which will help to keep the current status of an item.\n     * The status FOR_AUCTION signifies that the buyers can bid at auction to buy the item\n     * The status FOR_SALE signifies that the buyers can buy the item at the price specified by the seller\n     * The status PAY_AND_VERIFY signifies that the bidders can pay to verify their bid\n     * The status SOLD signifies that the item is sold to the buyer \n     * The status DELIVERED signifies that the item is delivered to the buyer\n     */\n    enum status {\n        FOR_AUCTION,\n        FOR_SALE,\n        PAY_AND_VERIFY,\n        SOLD,\n        DELIVERED\n    }\n\n    struct Bid{\n        bytes32 hashedBid;\n        string password;\n        uint256 bidValue;\n        bool isVerified;\n    }\n\n   \n    struct Auction{\n        string auctionType;\n        mapping(address => Bid) addressToBid;\n        address payable[] bidders;\n    }\n\n     /**\n     * This is our main item struct.\n     * listingID is the the unique ID for each item\n     * price is the price set by buyer for sale or paid by the winner of the auction\n     * sellerID is the address of the seller who wants to sell the item\n     * buyerID is the address of the buyer who paid for the item\n     * itemStatus tells the current status of the item. It uses the enum status defined above\n     */\n    struct Item {\n        uint256 listingID;\n        string name;\n        string description;\n        uint256 price;\n        address payable sellerID;\n        status itemStatus;\n        address buyerID;\n        string encryptedString;\n        Auction auction;\n    }\n\n\n    uint256 numOfItems = 0;\n\n    /**\n     * This mapping takes an address of a user as the input and returns the public key of that corresponding user.\n     * The public key will be required by the seller so that he can encrypt the item string and send the encrypted string to the buyer.\n     * The buyer will then decrpyt the encrypted string using their private key.\n     */\n    mapping(address => string) addressToPublicKey;\n\n    /**\n     * This array stores the list of all items\n     */\n    Item[] items;\n\n    /**\n     * This modifier is used by a function to check if the item with ID = itemID is accessed only by the seller of that item\n     * @param itemID is the unique ID of the item\n     */\n    modifier onlyValidItemID(uint256 itemID) {\n        require(\n            itemID < numOfItems,\n            \"Invalid item ID!\"\n        );\n        _;\n    }\n\n    /**\n     * This modifier is used by a function to check if the item with ID = itemID is accessed only by the seller of that item\n     * @param itemID is the unique ID of the item\n     */\n    modifier onlySeller(uint256 itemID) {\n        require(\n            msg.sender == items[itemID].sellerID,\n            \"You do not own the item!\"\n        );\n        _;\n    }\n\n    /**\n     * This modifier is used by a function to check if the item with ID = itemID is accessed only by the buyer of that item\n     * @param itemID is the unique ID of the item\n     */\n    modifier onlyBuyer(uint256 itemID) {\n        require(\n            msg.sender == items[itemID].buyerID,\n            \"You do not own the item!\"\n        );\n        _;\n    }\n\n    /**\n     * This modifier is used by a function to check if the item with ID = itemID is delivered\n     * @param itemID is the unique ID of the item\n     */\n    modifier onlyDeliveredItem(uint256 itemID) {\n        require(\n            items[itemID].itemStatus == status.DELIVERED,\n            \"Item not available yet, please wait for the seller to deliver it!\"\n        );\n        _;\n    }\n\n    /**\n     * This function is used by a seller to add a new item for sale.\n     * @param itemName is the name of the item\n     * @param itemDescription describes the item the seller wants to sell\n     * @param itemPrice is the price of the item with which the seller wants to sell it\n     */\n    function addItemForSale(\n        string memory itemName,\n        string memory itemDescription,\n        uint256 itemPrice\n    ) public{\n        Item memory newItem;\n        newItem.listingID = numOfItems++;\n        newItem.name = itemName;\n        newItem.description = itemDescription;\n        newItem.price = itemPrice;\n        newItem.sellerID = msg.sender;\n        newItem.itemStatus = status.FOR_SALE;\n        newItem.encryptedString = \"Item not available yet, please wait for the seller to deliver it!\";\n        items.push(newItem);\n    }\n\n\n\n    /**\n     * This function is used to convert uint256 to string\n     * Taken from here: https://stackoverflow.com/questions/47129173/how-to-convert-uint-to-string-in-solidity\n     * @param _i is a variable of type uint\n     * @return _uintAsString the string representation of _i\n     */\n    function uint2str(uint256 _i)\n        internal\n        pure\n        returns (string memory _uintAsString)\n    {\n        if (_i == 0) {\n            return \"0\";\n        }\n        uint256 j = _i;\n        uint256 len;\n        while (j != 0) {\n            len++;\n            j /= 10;\n        }\n        bytes memory bstr = new bytes(len);\n        uint256 k = len;\n        while (_i != 0) {\n            k = k - 1;\n            uint8 temp = (48 + uint8(_i - (_i / 10) * 10));\n            bytes1 b1 = bytes1(temp);\n            bstr[k] = b1;\n            _i /= 10;\n        }\n        return string(bstr);\n    }\n\n\n    /**\n     * This function is used by a seller to add a new item for the auction.\n     * @param itemName is the name of the item\n     * @param itemDescription describes the item the seller wants to sell\n     * @param auctionType describes the type of auction\n     */\n    function addItemForAuction(\n        string memory itemName,\n        string memory itemDescription,\n        string memory auctionType\n    ) public {\n        Item memory newItem;\n        newItem.listingID = numOfItems++;\n        newItem.name = itemName;\n        newItem.description = itemDescription;\n        newItem.sellerID = msg.sender;\n        newItem.itemStatus = status.FOR_AUCTION;\n        Auction memory auction;\n        auction.auctionType = auctionType;\n        newItem.auction = auction;\n        newItem.encryptedString = \"Item not available yet, please wait for the seller to deliver it!\";\n        items.push(newItem);\n    }\n\n\n\n\n    /**\n     * This function is called by the bidders to bid on the item.\n     * @param itemID is the id of the item\n     * @param hashedBid is the hashed value of the bid to keep the bid sealed\n     */\n    function bidAtAuction(uint256 itemID, bytes32 hashedBid)\n        public\n        onlyValidItemID(itemID)\n    {\n        require(\n            items[itemID].itemStatus == status.FOR_AUCTION,\n            \"Item not available for bidding!\"\n        );\n        require(\n            msg.sender != items[itemID].sellerID,\n            \"Seller can not buy their item!\"\n        );\n        // require(\n        //     items[itemID].auction.addressToBid[msg.sender].hashedBid == keccak256(abi.encodePacked(\"\")),\n        //     \"Can only bid once!\"\n        // );\n\n        address buyerAddress = msg.sender;\n        items[itemID].auction.addressToBid[buyerAddress].hashedBid = hashedBid;\n        items[itemID].auction.bidders.push(msg.sender);\n    }\n\n\n    /**\n     * This function is used by a seller to stop the bidding.\n     * @param itemID is the id of the item\n     */\n    function stopBidding(uint256 itemID)\n        public\n        onlyValidItemID(itemID)\n        onlySeller(itemID)\n    {\n        require(\n            items[itemID].itemStatus == status.FOR_AUCTION,\n            \"Invalid request, item was not up for bidding!\"\n        );\n        \n        items[itemID].itemStatus = status.PAY_AND_VERIFY;\n    }\n\n\n    //  function checkHash(string memory password)\n    //     public view\n    //     returns (uint256)\n    // {\n    //     // return  keccak256(abi.encodePacked(msg.value));\n    //     return  keccak256(abi.encodePacked(msg.value));\n    // }\n\n    /**\n     * This function is used by the bidders to pay and verify their bidding.\n     * @param itemID is the id of the item\n     * @param publicKey is the public key of the bidder\n     */\n    function payAndVerifyBid(uint256 itemID, string memory publicKey, string memory password)\n        public payable\n        onlyValidItemID(itemID)\n    {\n        require(\n            items[itemID].itemStatus == status.PAY_AND_VERIFY,\n            \"Invalid request, item's not up for pay and verify!\"\n        );\n        require(\n            keccak256(abi.encodePacked(password, uint2str(msg.value))) != items[itemID].auction.addressToBid[msg.sender].hashedBid,\n            \"Wrong Hash!\"\n        );\n        require(\n            items[itemID].auction.addressToBid[msg.sender].isVerified == false,\n            \"Already verified!\"\n        );\n        \n        address buyerAddress = msg.sender;\n        items[itemID].auction.addressToBid[buyerAddress].password = password;\n        items[itemID].auction.addressToBid[buyerAddress].bidValue = msg.value;\n        items[itemID].auction.addressToBid[buyerAddress].isVerified = true;\n        addressToPublicKey[buyerAddress] = publicKey;\n    }\n\n    /**\n     * This function is used by a buyer to buy an item.\n     * @param itemID is the unique ID of the item\n     * @param publicKey is the unique publick key of the buyer\n     */\n    function buyItem(uint256 itemID, string memory publicKey) \n        public payable\n        onlyValidItemID(itemID)\n    {\n        require(\n            items[itemID].itemStatus == status.FOR_SALE,\n            \"Item not available for sale!\"\n        );\n        require(\n            msg.value >= items[itemID].price,\n            \"Money less than the listing price!\"\n        );\n\n        address buyerAddress = msg.sender;\n        items[itemID].itemStatus = status.SOLD;\n        items[itemID].buyerID = buyerAddress;\n        addressToPublicKey[buyerAddress] = publicKey;\n    }\n\n    /**\n     * This function is used to find the winner of the auction and refund the bidders' money.\n     * @param itemID is the id of the item\n     */\n    function declareWinner(uint256 itemID)\n        private\n        onlyValidItemID(itemID)\n    {\n        // require(\n        //     items[itemID].itemStatus == status.PAY_AND_VERIFY,\n        //     \"Auction not stopped or winner already declared!\"\n        // );\n       \n        address payable[] memory bidders = items[itemID].auction.bidders;\n        address winner = items[itemID].sellerID;\n        uint256 maxBidValue = 0;\n        for (uint256 i = 0; i < bidders.length; i++) \n        {\n            Bid memory bid = items[itemID].auction.addressToBid[bidders[i]];\n            if(bid.isVerified == true && bid.bidValue >= maxBidValue) \n            {\n                winner = bidders[i];\n                maxBidValue = bid.bidValue;\n            }\n        }\n        for (uint256 i = 0; i < bidders.length; i++) \n        {\n            Bid memory bid = items[itemID].auction.addressToBid[bidders[i]];\n            if(bid.isVerified == true && bidders[i] != winner) \n            {\n                bidders[i].transfer(bid.bidValue);\n            }\n        }\n        items[itemID].price = maxBidValue;\n        items[itemID].buyerID = winner;\n    }\n    \n    /**\n     * This function is used by a seller to stop the auction and declare the winner.\n     * @param itemID is the id of the item\n     */\n    function stopAuction(uint256 itemID) \n        public\n        onlyValidItemID(itemID)\n        onlySeller(itemID)\n    {\n        require(\n            items[itemID].itemStatus == status.PAY_AND_VERIFY,\n            \"Invalid request, bids not verified or auction was already stopped!\"\n        );\n\n        if (items[itemID].buyerID == items[itemID].sellerID)\n            items[itemID].itemStatus = status.DELIVERED;\n        else\n            items[itemID].itemStatus = status.SOLD;\n        declareWinner(itemID);\n    }\n\n    /**\n     * This function is used to get the public Key of the buyer.\n     * @param itemID is the unique ID of the item\n     * @return Public Key of the buyer who bought item with ID = itemID\n     */\n    function getBuyerPublicKey(uint256 itemID)\n        public\n        view\n        onlyValidItemID(itemID)\n        returns (string memory)\n    {\n        require(\n            items[itemID].itemStatus == status.SOLD || items[itemID].itemStatus == status.DELIVERED,\n            \"Buyer not declared yet!\"\n        );\n        return addressToPublicKey[items[itemID].buyerID];\n    }\n\n    /**\n     * This function is used by a seller to transfer encrypted string to the buyer.\n     * @param itemID is the unique ID of the item\n     * @param encryptedItem is the encrypted Secret key sent by the seller using buyers Public Key\n     * @param publicKey is the public key of the seller\n     */\n    function deliverItem(uint256 itemID, string memory encryptedItem, string memory publicKey)\n        public\n        onlyValidItemID(itemID)\n        onlySeller(itemID)\n    {\n        require(\n            items[itemID].itemStatus == status.SOLD,\n            \"Item not sold or already delivered!\"\n        );\n\n        addressToPublicKey[msg.sender] = publicKey;\n        items[itemID].encryptedString = encryptedItem;\n        items[itemID].itemStatus = status.DELIVERED;\n        items[itemID].sellerID.transfer(items[itemID].price);\n    }\n\n    /**\n     * This function is used to get the public Key of the seller.\n     * @param itemID is the unique ID of the item\n     * @return Public Key of the buyer who bought item with ID = itemID\n     */\n    function getSellerPublicKey(uint256 itemID)\n        public\n        view\n        onlyValidItemID(itemID)\n        onlyDeliveredItem(itemID)\n        returns (string memory)\n    {\n        return addressToPublicKey[items[itemID].sellerID];\n    }\n\n    /**\n     * This function is used by the buyer to get the encrypted Secret string.\n     * @param itemID is the unique ID of the item\n     * @return encryptedString provided by the seller which can be decrypted by the buyer using their Private Key\n     */\n    function getItem(uint256 itemID)\n        public\n        view\n        onlyValidItemID(itemID)\n        onlyBuyer(itemID)\n        onlyDeliveredItem(itemID)\n        returns (string memory)\n    {\n        return items[itemID].encryptedString;\n    }\n\n\n    /**\n     * This function is used by a buyer to view the items up for sale.\n     * @return a string containing list of all available Items for bidding\n     */\n    function viewItemsForSale() public view returns (string memory) {\n        string memory itemList = \"\";\n\n        for (uint256 i = 0; i < items.length; i++) {\n            if (items[i].itemStatus == status.FOR_SALE) {\n             itemList = string(abi.encodePacked(itemList, \"ID: \"));\n                itemList = string(\n                    abi.encodePacked(itemList, uint2str(items[i].listingID))\n                );\n                itemList = string(abi.encodePacked(itemList, \"; Name: \"));\n                itemList = string(abi.encodePacked(itemList, items[i].name));\n                itemList = string(\n                    abi.encodePacked(itemList, \"; Description: \")\n                );\n                itemList = string(\n                    abi.encodePacked(itemList, items[i].description)\n                );\n                   itemList = string(\n                    abi.encodePacked(itemList, \"; SellerID: \")\n                );\n                itemList = string(\n                    abi.encodePacked(itemList, toAsciiString(items[i].sellerID))\n                );\n                itemList = string(\n                    abi.encodePacked(itemList, \"; Status: \")\n                );\n                itemList = string(\n                    abi.encodePacked(itemList, items[i].itemStatus)\n                );\n                itemList = string(\n                    abi.encodePacked(itemList, \"; Buyer: \")\n                );\n                itemList = string(\n                    abi.encodePacked(itemList, toAsciiString(items[i].buyerID))\n                );\n                itemList = string(\n                    abi.encodePacked(itemList, \"; Price: \")\n                );\n                itemList = string(\n                    abi.encodePacked(itemList, uint2str(items[i].price))\n                );\n                itemList = string(abi.encodePacked(itemList, \"\\n\"));\n            }\n        }\n\n        return itemList;\n    }\n\n    function toAsciiString(address x) internal view returns (string memory) {\n    bytes memory s = new bytes(40);\n    for (uint i = 0; i < 20; i++) {\n        bytes1 b = bytes1(uint8(uint(uint160(x)) / (2**(8*(19 - i)))));\n        bytes1 hi = bytes1(uint8(b) / 16);\n        bytes1 lo = bytes1(uint8(b) - 16 * uint8(hi));\n        s[2*i] = char(hi);\n        s[2*i+1] = char(lo);            \n    }\n    return string(s);\n}\n\nfunction char(bytes1 b) internal view returns (bytes1 c) {\n    if (uint8(b) < 10) return bytes1(uint8(b) + 0x30);\n    else return bytes1(uint8(b) + 0x57);\n}\n\n    /**\n     * This function is used by a buyer to view the listing.\n     * @return a string containing list of all available Items for bidding\n     */\n    function viewItemsForAuction() public view returns (string memory) {\n        string memory itemList = \"\";\n\n        for (uint256 i = 0; i < items.length; i++) {\n            if (items[i].itemStatus ==  status.FOR_AUCTION || items[i].itemStatus == status.PAY_AND_VERIFY) {\n                itemList = string(abi.encodePacked(itemList, \"ID: \"));\n                itemList = string(\n                    abi.encodePacked(itemList, uint2str(items[i].listingID))\n                );\n                itemList = string(abi.encodePacked(itemList, \"; Name: \"));\n                itemList = string(abi.encodePacked(itemList, items[i].name));\n                itemList = string(\n                    abi.encodePacked(itemList, \"; Description: \")\n                );\n                itemList = string(\n                    abi.encodePacked(itemList, items[i].description)\n                );\n                   itemList = string(\n                    abi.encodePacked(itemList, \"; SellerID: \")\n                );\n                itemList = string(\n                    abi.encodePacked(itemList, toAsciiString(items[i].sellerID))\n                );\n                itemList = string(\n                    abi.encodePacked(itemList, \"; Status: \")\n                );\n                itemList = string(\n                    abi.encodePacked(itemList, items[i].itemStatus)\n                );\n                itemList = string(\n                    abi.encodePacked(itemList, \"; Buyer: \")\n                );\n                itemList = string(\n                    abi.encodePacked(itemList, toAsciiString(items[i].buyerID))\n                );\n                itemList = string(abi.encodePacked(itemList, \"\\n\"));\n            }\n        }\n\n        return itemList;\n    }\n\n     /**\n     * This function is used by a buyer to view the listing.\n     * @return a string containing list of all available Items for bidding\n     */\n    function viewAllItems() public view returns (string memory) {\n        string memory itemList = \"\";\n\n        for (uint256 i = 0; i < items.length; i++) {\n            itemList = string(abi.encodePacked(itemList, \"ID: \"));\n            itemList = string(\n                abi.encodePacked(itemList, uint2str(items[i].listingID))\n            );\n            itemList = string(abi.encodePacked(itemList, \"; Name: \"));\n            itemList = string(abi.encodePacked(itemList, items[i].name));\n            itemList = string(\n                abi.encodePacked(itemList, \"; Description: \")\n            );\n            itemList = string(\n                abi.encodePacked(itemList, items[i].description)\n            );\n                itemList = string(\n                abi.encodePacked(itemList, \"; SellerID: \")\n            );\n            itemList = string(\n                abi.encodePacked(itemList, toAsciiString(items[i].sellerID))\n            );\n            itemList = string(\n                abi.encodePacked(itemList, \"; Status: \")\n            );\n            itemList = string(\n                abi.encodePacked(itemList, items[i].itemStatus)\n            );\n            itemList = string(\n                abi.encodePacked(itemList, \"; Buyer: \")\n            );\n            itemList = string(\n                abi.encodePacked(itemList, toAsciiString(items[i].buyerID))\n            );\n            itemList = string(\n                abi.encodePacked(itemList, \"; Price: \")\n            );\n            itemList = string(\n                abi.encodePacked(itemList, uint2str(items[i].price))\n            );\n             itemList = string(\n                abi.encodePacked(itemList, \"; SecretString: \")\n            );\n            itemList = string(\n                abi.encodePacked(itemList, items[i].encryptedString)\n            );\n            itemList = string(abi.encodePacked(itemList, \"\\n\"));\n            \n        }\n\n        return itemList;\n    }\n\n\n}",
  "sourcePath": "/home/manish/blockchain/lad/Blockchain_Auction/2018114005/contracts/AModernWay.sol",
  "compiler": {
    "name": "solc",
    "version": "0.5.16+commit.9c3226ce.Emscripten.clang"
  },
  "schemaVersion": "3.4.3",
  "updatedAt": "2021-10-12T14:37:24.157Z",
  "networkType": "ethereum",
  "devdoc": {
    "details": "Smart contract to facilitate buying, selling, auction of items securely",
    "methods": {
      "addItemForAuction(string,string,string)": {
        "params": {
          "auctionType": "describes the type of auction",
          "itemDescription": "describes the item the seller wants to sell",
          "itemName": "is the name of the item"
        }
      },
      "addItemForSale(string,string,uint256)": {
        "params": {
          "itemDescription": "describes the item the seller wants to sell",
          "itemName": "is the name of the item",
          "itemPrice": "is the price of the item with which the seller wants to sell it"
        }
      },
      "bidAtAuction(uint256,bytes32)": {
        "params": {
          "hashedBid": "is the hashed value of the bid to keep the bid sealed",
          "itemID": "is the id of the item"
        }
      },
      "buyItem(uint256,string)": {
        "params": {
          "itemID": "is the unique ID of the item",
          "publicKey": "is the unique publick key of the buyer"
        }
      },
      "deliverItem(uint256,string,string)": {
        "params": {
          "encryptedItem": "is the encrypted Secret key sent by the seller using buyers Public Key",
          "itemID": "is the unique ID of the item",
          "publicKey": "is the public key of the seller"
        }
      },
      "getBuyerPublicKey(uint256)": {
        "params": {
          "itemID": "is the unique ID of the item"
        },
        "return": "Public Key of the buyer who bought item with ID = itemID"
      },
      "getItem(uint256)": {
        "params": {
          "itemID": "is the unique ID of the item"
        },
        "return": "encryptedString provided by the seller which can be decrypted by the buyer using their Private Key"
      },
      "getSellerPublicKey(uint256)": {
        "params": {
          "itemID": "is the unique ID of the item"
        },
        "return": "Public Key of the buyer who bought item with ID = itemID"
      },
      "payAndVerifyBid(uint256,string,string)": {
        "params": {
          "itemID": "is the id of the item",
          "publicKey": "is the public key of the bidder"
        }
      },
      "stopAuction(uint256)": {
        "params": {
          "itemID": "is the id of the item"
        }
      },
      "stopBidding(uint256)": {
        "params": {
          "itemID": "is the id of the item"
        }
      },
      "viewAllItems()": {
        "return": "a string containing list of all available Items for bidding"
      },
      "viewItemsForAuction()": {
        "return": "a string containing list of all available Items for bidding"
      },
      "viewItemsForSale()": {
        "return": "a string containing list of all available Items for bidding"
      }
    },
    "title": "A Modern Way"
  },
  "userdoc": {
    "methods": {
      "addItemForAuction(string,string,string)": {
        "notice": "This function is used by a seller to add a new item for the auction."
      },
      "addItemForSale(string,string,uint256)": {
        "notice": "This function is used by a seller to add a new item for sale."
      },
      "bidAtAuction(uint256,bytes32)": {
        "notice": "This function is called by the bidders to bid on the item."
      },
      "buyItem(uint256,string)": {
        "notice": "This function is used by a buyer to buy an item."
      },
      "deliverItem(uint256,string,string)": {
        "notice": "This function is used by a seller to transfer encrypted string to the buyer."
      },
      "getBuyerPublicKey(uint256)": {
        "notice": "This function is used to get the public Key of the buyer."
      },
      "getItem(uint256)": {
        "notice": "This function is used by the buyer to get the encrypted Secret string."
      },
      "getSellerPublicKey(uint256)": {
        "notice": "This function is used to get the public Key of the seller."
      },
      "payAndVerifyBid(uint256,string,string)": {
        "notice": "This function is used by the bidders to pay and verify their bidding."
      },
      "stopAuction(uint256)": {
        "notice": "This function is used by a seller to stop the auction and declare the winner."
      },
      "stopBidding(uint256)": {
        "notice": "This function is used by a seller to stop the bidding."
      },
      "viewAllItems()": {
        "notice": "This function is used by a buyer to view the listing."
      },
      "viewItemsForAuction()": {
        "notice": "This function is used by a buyer to view the listing."
      },
      "viewItemsForSale()": {
        "notice": "This function is used by a buyer to view the items up for sale."
      }
    }
  }
}