{
  "contractName": "AModernWay",
  "abi": [
    {
      "constant": false,
      "inputs": [
        {
          "internalType": "string",
          "name": "itemName",
          "type": "string"
        },
        {
          "internalType": "string",
          "name": "itemDescription",
          "type": "string"
        },
        {
          "internalType": "uint256",
          "name": "itemPrice",
          "type": "uint256"
        }
      ],
      "name": "addItemForSale",
      "outputs": [],
      "payable": false,
      "stateMutability": "nonpayable",
      "type": "function"
    },
    {
      "constant": false,
      "inputs": [
        {
          "internalType": "string",
          "name": "itemName",
          "type": "string"
        },
        {
          "internalType": "string",
          "name": "itemDescription",
          "type": "string"
        },
        {
          "internalType": "string",
          "name": "auctionType",
          "type": "string"
        }
      ],
      "name": "addItemForAuction",
      "outputs": [],
      "payable": false,
      "stateMutability": "nonpayable",
      "type": "function"
    },
    {
      "constant": false,
      "inputs": [
        {
          "internalType": "uint256",
          "name": "itemID",
          "type": "uint256"
        },
        {
          "internalType": "bytes32",
          "name": "hashedBid",
          "type": "bytes32"
        }
      ],
      "name": "bidAtAuction",
      "outputs": [],
      "payable": false,
      "stateMutability": "nonpayable",
      "type": "function"
    },
    {
      "constant": false,
      "inputs": [
        {
          "internalType": "uint256",
          "name": "itemID",
          "type": "uint256"
        }
      ],
      "name": "stopBidding",
      "outputs": [],
      "payable": false,
      "stateMutability": "nonpayable",
      "type": "function"
    },
    {
      "constant": false,
      "inputs": [
        {
          "internalType": "uint256",
          "name": "itemID",
          "type": "uint256"
        },
        {
          "internalType": "string",
          "name": "publicKey",
          "type": "string"
        },
        {
          "internalType": "string",
          "name": "password",
          "type": "string"
        }
      ],
      "name": "payAndVerifyBid",
      "outputs": [],
      "payable": true,
      "stateMutability": "payable",
      "type": "function"
    },
    {
      "constant": false,
      "inputs": [
        {
          "internalType": "uint256",
          "name": "itemID",
          "type": "uint256"
        },
        {
          "internalType": "string",
          "name": "publicKey",
          "type": "string"
        }
      ],
      "name": "buyItem",
      "outputs": [],
      "payable": true,
      "stateMutability": "payable",
      "type": "function"
    },
    {
      "constant": true,
      "inputs": [
        {
          "internalType": "string",
          "name": "a",
          "type": "string"
        },
        {
          "internalType": "string",
          "name": "b",
          "type": "string"
        }
      ],
      "name": "compareStrings",
      "outputs": [
        {
          "internalType": "bool",
          "name": "",
          "type": "bool"
        }
      ],
      "payable": false,
      "stateMutability": "pure",
      "type": "function"
    },
    {
      "constant": false,
      "inputs": [
        {
          "internalType": "uint256",
          "name": "itemID",
          "type": "uint256"
        }
      ],
      "name": "stopAuction",
      "outputs": [],
      "payable": false,
      "stateMutability": "nonpayable",
      "type": "function"
    },
    {
      "constant": true,
      "inputs": [
        {
          "internalType": "uint256",
          "name": "itemID",
          "type": "uint256"
        }
      ],
      "name": "getBuyerPublicKey",
      "outputs": [
        {
          "internalType": "string",
          "name": "",
          "type": "string"
        }
      ],
      "payable": false,
      "stateMutability": "view",
      "type": "function"
    },
    {
      "constant": false,
      "inputs": [
        {
          "internalType": "uint256",
          "name": "itemID",
          "type": "uint256"
        },
        {
          "internalType": "string",
          "name": "encryptedItem",
          "type": "string"
        },
        {
          "internalType": "string",
          "name": "publicKey",
          "type": "string"
        }
      ],
      "name": "deliverItem",
      "outputs": [],
      "payable": false,
      "stateMutability": "nonpayable",
      "type": "function"
    },
    {
      "constant": true,
      "inputs": [
        {
          "internalType": "uint256",
          "name": "itemID",
          "type": "uint256"
        }
      ],
      "name": "getSellerPublicKey",
      "outputs": [
        {
          "internalType": "string",
          "name": "",
          "type": "string"
        }
      ],
      "payable": false,
      "stateMutability": "view",
      "type": "function"
    },
    {
      "constant": true,
      "inputs": [
        {
          "internalType": "uint256",
          "name": "itemID",
          "type": "uint256"
        }
      ],
      "name": "getItem",
      "outputs": [
        {
          "internalType": "string",
          "name": "",
          "type": "string"
        }
      ],
      "payable": false,
      "stateMutability": "view",
      "type": "function"
    },
    {
      "constant": true,
      "inputs": [],
      "name": "viewItemsForSale",
      "outputs": [
        {
          "internalType": "string",
          "name": "",
          "type": "string"
        }
      ],
      "payable": false,
      "stateMutability": "view",
      "type": "function"
    },
    {
      "constant": true,
      "inputs": [],
      "name": "viewItemsForAuction",
      "outputs": [
        {
          "internalType": "string",
          "name": "",
          "type": "string"
        }
      ],
      "payable": false,
      "stateMutability": "view",
      "type": "function"
    },
    {
      "constant": true,
      "inputs": [],
      "name": "viewAllItems",
      "outputs": [
        {
          "internalType": "string",
          "name": "",
          "type": "string"
        }
      ],
      "payable": false,
      "stateMutability": "view",
      "type": "function"
    }
  ],
  "bytecode": "0x60806040526000805534801561001457600080fd5b5061738380620000256000396000f3fe6080604052600436106100e75760003560e01c806365022f1e1161008a578063d36244b011610059578063d36244b014610b1c578063ed0c0d4f14610c78578063f510f6ae14610d08578063fc57579d14610d43576100e7565b806365022f1e14610743578063b583b30514610788578063bed34bba146108f1578063c06882b214610a68576100e7565b80631859dc24116100c65780631859dc24146103ad5780633129e773146104615780634e71b35c1461051557806364096a18146105da576100e7565b80620ad21c146100ec578063021baa161461017c578063082ab3e0146101b7575b600080fd5b3480156100f857600080fd5b50610101610dd3565b6040518080602001828103825283818151815260200191508051906020019080838360005b83811015610141578082015181840152602081019050610126565b50505050905090810190601f16801561016e5780820380516001836020036101000a031916815260200191505b509250505060405180910390f35b34801561018857600080fd5b506101b56004803603602081101561019f57600080fd5b81019080803590602001909291905050506119a4565b005b3480156101c357600080fd5b506103ab600480360360608110156101da57600080fd5b81019080803590602001906401000000008111156101f757600080fd5b82018360208201111561020957600080fd5b8035906020019184600183028401116401000000008311171561022b57600080fd5b91908080601f016020809104026020016040519081016040528093929190818152602001838380828437600081840152601f19601f8201169050808301925050505050505091929192908035906020019064010000000081111561028e57600080fd5b8201836020820111156102a057600080fd5b803590602001918460018302840111640100000000831117156102c257600080fd5b91908080601f016020809104026020016040519081016040528093929190818152602001838380828437600081840152601f19601f8201169050808301925050505050505091929192908035906020019064010000000081111561032557600080fd5b82018360208201111561033757600080fd5b8035906020019184600183028401116401000000008311171561035957600080fd5b91908080601f016020809104026020016040519081016040528093929190818152602001838380828437600081840152601f19601f820116905080830192505050505050509192919290505050611bda565b005b3480156103b957600080fd5b506103e6600480360360208110156103d057600080fd5b8101908080359060200190929190505050611e44565b6040518080602001828103825283818151815260200191508051906020019080838360005b8381101561042657808201518184015260208101905061040b565b50505050905090810190601f1680156104535780820380516001836020036101000a031916815260200191505b509250505060405180910390f35b34801561046d57600080fd5b5061049a6004803603602081101561048457600080fd5b81019080803590602001909291905050506120df565b6040518080602001828103825283818151815260200191508051906020019080838360005b838110156104da5780820151818401526020810190506104bf565b50505050905090810190601f1680156105075780820380516001836020036101000a031916815260200191505b509250505060405180910390f35b6105d86004803603604081101561052b57600080fd5b81019080803590602001909291908035906020019064010000000081111561055257600080fd5b82018360208201111561056457600080fd5b8035906020019184600183028401116401000000008311171561058657600080fd5b91908080601f016020809104026020016040519081016040528093929190818152602001838380828437600081840152601f19601f820116905080830192505050505050509192919290505050612395565b005b3480156105e657600080fd5b50610741600480360360608110156105fd57600080fd5b810190808035906020019064010000000081111561061a57600080fd5b82018360208201111561062c57600080fd5b8035906020019184600183028401116401000000008311171561064e57600080fd5b91908080601f016020809104026020016040519081016040528093929190818152602001838380828437600081840152601f19601f820116905080830192505050505050509192919290803590602001906401000000008111156106b157600080fd5b8201836020820111156106c357600080fd5b803590602001918460018302840111640100000000831117156106e557600080fd5b91908080601f016020809104026020016040519081016040528093929190818152602001838380828437600081840152601f19601f82011690508083019250505050505050919291929080359060200190929190505050612717565b005b34801561074f57600080fd5b506107866004803603604081101561076657600080fd5b81019080803590602001909291908035906020019092919050505061296f565b005b34801561079457600080fd5b506108ef600480360360608110156107ab57600080fd5b8101908080359060200190929190803590602001906401000000008111156107d257600080fd5b8201836020820111156107e457600080fd5b8035906020019184600183028401116401000000008311171561080657600080fd5b91908080601f016020809104026020016040519081016040528093929190818152602001838380828437600081840152601f19601f8201169050808301925050505050505091929192908035906020019064010000000081111561086957600080fd5b82018360208201111561087b57600080fd5b8035906020019184600183028401116401000000008311171561089d57600080fd5b91908080601f016020809104026020016040519081016040528093929190818152602001838380828437600081840152601f19601f820116905080830192505050505050509192919290505050612db9565b005b3480156108fd57600080fd5b50610a4e6004803603604081101561091457600080fd5b810190808035906020019064010000000081111561093157600080fd5b82018360208201111561094357600080fd5b8035906020019184600183028401116401000000008311171561096557600080fd5b91908080601f016020809104026020016040519081016040528093929190818152602001838380828437600081840152601f19601f820116905080830192505050505050509192919290803590602001906401000000008111156109c857600080fd5b8201836020820111156109da57600080fd5b803590602001918460018302840111640100000000831117156109fc57600080fd5b91908080601f016020809104026020016040519081016040528093929190818152602001838380828437600081840152601f19601f82011690508083019250505050505050919291929050505061311c565b604051808215151515815260200191505060405180910390f35b348015610a7457600080fd5b50610aa160048036036020811015610a8b57600080fd5b810190808035906020019092919050505061320b565b6040518080602001828103825283818151815260200191508051906020019080838360005b83811015610ae1578082015181840152602081019050610ac6565b50505050905090810190601f168015610b0e5780820380516001836020036101000a031916815260200191505b509250505060405180910390f35b610c7660048036036060811015610b3257600080fd5b810190808035906020019092919080359060200190640100000000811115610b5957600080fd5b820183602082011115610b6b57600080fd5b80359060200191846001830284011164010000000083111715610b8d57600080fd5b91908080601f016020809104026020016040519081016040528093929190818152602001838380828437600081840152601f19601f82011690508083019250505050505050919291929080359060200190640100000000811115610bf057600080fd5b820183602082011115610c0257600080fd5b80359060200191846001830284011164010000000083111715610c2457600080fd5b91908080601f016020809104026020016040519081016040528093929190818152602001838380828437600081840152601f19601f82011690508083019250505050505050919291929050505061343f565b005b348015610c8457600080fd5b50610c8d613992565b6040518080602001828103825283818151815260200191508051906020019080838360005b83811015610ccd578082015181840152602081019050610cb2565b50505050905090810190601f168015610cfa5780820380516001836020036101000a031916815260200191505b509250505060405180910390f35b348015610d1457600080fd5b50610d4160048036036020811015610d2b57600080fd5b81019080803590602001909291905050506147c1565b005b348015610d4f57600080fd5b50610d58614afb565b6040518080602001828103825283818151815260200191508051906020019080838360005b83811015610d98578082015181840152602081019050610d7d565b50505050905090810190601f168015610dc55780820380516001836020036101000a031916815260200191505b509250505060405180910390f35b60608060405180602001604052806000815250905060008090505b60028054905081101561199c5760006005811115610e0857fe5b60028281548110610e1557fe5b90600052602060002090600a020160040160149054906101000a900460ff166005811115610e3f57fe5b1480610e8c575060026005811115610e5357fe5b60028281548110610e6057fe5b90600052602060002090600a020160040160149054906101000a900460ff166005811115610e8a57fe5b145b1561198f57816040516020018082805190602001908083835b60208310610ec85780518252602082019150602081019050602083039250610ea5565b6001836020036101000a038019825116818451168082178552505050505050905001807f49443a2000000000000000000000000000000000000000000000000000000000815250600401915050604051602081830303815290604052915081610f4e60028381548110610f3757fe5b90600052602060002090600a0201600001546157fb565b6040516020018083805190602001908083835b60208310610f845780518252602082019150602081019050602083039250610f61565b6001836020036101000a03801982511681845116808217855250505050505090500182805190602001908083835b60208310610fd55780518252602082019150602081019050602083039250610fb2565b6001836020036101000a038019825116818451168082178552505050505050905001925050506040516020818303038152906040529150816040516020018082805190602001908083835b602083106110435780518252602082019150602081019050602083039250611020565b6001836020036101000a038019825116818451168082178552505050505050905001807f3b204e616d653a20000000000000000000000000000000000000000000000000815250600801915050604051602081830303815290604052915081600282815481106110af57fe5b90600052602060002090600a02016001016040516020018083805190602001908083835b602083106110f657805182526020820191506020810190506020830392506110d3565b6001836020036101000a0380198251168184511680821785525050505050509050018280546001816001161561010002031660029004801561116f5780601f1061114d57610100808354040283529182019161116f565b820191906000526020600020905b81548152906001019060200180831161115b575b5050925050506040516020818303038152906040529150816040516020018082805190602001908083835b602083106111bd578051825260208201915060208101905060208303925061119a565b6001836020036101000a038019825116818451168082178552505050505050905001807f3b204465736372697074696f6e3a200000000000000000000000000000000000815250600f019150506040516020818303038152906040529150816002828154811061122957fe5b90600052602060002090600a02016002016040516020018083805190602001908083835b60208310611270578051825260208201915060208101905060208303925061124d565b6001836020036101000a038019825116818451168082178552505050505050905001828054600181600116156101000203166002900480156112e95780601f106112c75761010080835404028352918201916112e9565b820191906000526020600020905b8154815290600101906020018083116112d5575b5050925050506040516020818303038152906040529150816040516020018082805190602001908083835b602083106113375780518252602082019150602081019050602083039250611314565b6001836020036101000a038019825116818451168082178552505050505050905001807f3b2053656c6c657249443a200000000000000000000000000000000000000000815250600c019150506040516020818303038152906040529150816113dd600283815481106113a657fe5b90600052602060002090600a020160040160009054906101000a900473ffffffffffffffffffffffffffffffffffffffff16615934565b6040516020018083805190602001908083835b6020831061141357805182526020820191506020810190506020830392506113f0565b6001836020036101000a03801982511681845116808217855250505050505090500182805190602001908083835b602083106114645780518252602082019150602081019050602083039250611441565b6001836020036101000a038019825116818451168082178552505050505050905001925050506040516020818303038152906040529150816040516020018082805190602001908083835b602083106114d257805182526020820191506020810190506020830392506114af565b6001836020036101000a038019825116818451168082178552505050505050905001807f3b205374617475733a2000000000000000000000000000000000000000000000815250600a019150506040516020818303038152906040529150816002828154811061153e57fe5b90600052602060002090600a020160040160149054906101000a900460ff166040516020018083805190602001908083835b602083106115935780518252602082019150602081019050602083039250611570565b6001836020036101000a0380198251168184511680821785525050505050509050018260058111156115c157fe5b60ff1660f81b8152600101925050506040516020818303038152906040529150816040516020018082805190602001908083835b6020831061161857805182526020820191506020810190506020830392506115f5565b6001836020036101000a038019825116818451168082178552505050505050905001807f3b2042757965723a2000000000000000000000000000000000000000000000008152506009019150506040516020818303038152906040529150816116be6002838154811061168757fe5b90600052602060002090600a020160050160009054906101000a900473ffffffffffffffffffffffffffffffffffffffff16615934565b6040516020018083805190602001908083835b602083106116f457805182526020820191506020810190506020830392506116d1565b6001836020036101000a03801982511681845116808217855250505050505090500182805190602001908083835b602083106117455780518252602082019150602081019050602083039250611722565b6001836020036101000a038019825116818451168082178552505050505050905001925050506040516020818303038152906040529150816040516020018082805190602001908083835b602083106117b35780518252602082019150602081019050602083039250611790565b6001836020036101000a038019825116818451168082178552505050505050905001807f3b2041756374696f6e547970653a200000000000000000000000000000000000815250600f019150506040516020818303038152906040529150816002828154811061181f57fe5b90600052602060002090600a02016007016000016040516020018083805190602001908083835b602083106118695780518252602082019150602081019050602083039250611846565b6001836020036101000a038019825116818451168082178552505050505050905001828054600181600116156101000203166002900480156118e25780601f106118c05761010080835404028352918201916118e2565b820191906000526020600020905b8154815290600101906020018083116118ce575b5050925050506040516020818303038152906040529150816040516020018082805190602001908083835b60208310611930578051825260208201915060208101905060208303925061190d565b6001836020036101000a038019825116818451168082178552505050505050905001807f0a0000000000000000000000000000000000000000000000000000000000000081525060010191505060405160208183030381529060405291505b8080600101915050610dee565b508091505090565b806000548110611a1c576040517f08c379a00000000000000000000000000000000000000000000000000000000081526004018080602001828103825260108152602001807f496e76616c6964206974656d204944210000000000000000000000000000000081525060200191505060405180910390fd5b8160028181548110611a2a57fe5b90600052602060002090600a020160040160009054906101000a900473ffffffffffffffffffffffffffffffffffffffff1673ffffffffffffffffffffffffffffffffffffffff163373ffffffffffffffffffffffffffffffffffffffff1614611afc576040517f08c379a00000000000000000000000000000000000000000000000000000000081526004018080602001828103825260188152602001807f596f7520646f206e6f74206f776e20746865206974656d21000000000000000081525060200191505060405180910390fd5b60006005811115611b0957fe5b60028481548110611b1657fe5b90600052602060002090600a020160040160149054906101000a900460ff166005811115611b4057fe5b14611b96576040517f08c379a000000000000000000000000000000000000000000000000000000000815260040180806020018281038252602d815260200180617229602d913960400191505060405180910390fd5b6002808481548110611ba457fe5b90600052602060002090600a020160040160146101000a81548160ff02191690836005811115611bd057fe5b0217905550505050565b611be2616f21565b6000808154809291906001019190505581600001818152505083816020018190525082816040018190525033816080019073ffffffffffffffffffffffffffffffffffffffff16908173ffffffffffffffffffffffffffffffffffffffff168152505060008160a001906005811115611c5757fe5b90816005811115611c6457fe5b81525050611c70616faa565b828160000181905250808261010001819052506040518060800160405280604181526020016172cc604191398260e001819052506002829080600181540180825580915050906001820390600052602060002090600a020160009091929091909150600082015181600001556020820151816001019080519060200190611cf8929190616fc4565b506040820151816002019080519060200190611d15929190616fc4565b506060820151816003015560808201518160040160006101000a81548173ffffffffffffffffffffffffffffffffffffffff021916908373ffffffffffffffffffffffffffffffffffffffff16021790555060a08201518160040160146101000a81548160ff02191690836005811115611d8b57fe5b021790555060c08201518160050160006101000a81548173ffffffffffffffffffffffffffffffffffffffff021916908373ffffffffffffffffffffffffffffffffffffffff16021790555060e0820151816006019080519060200190611df3929190616fc4565b50610100820151816007016000820151816000019080519060200190611e1a929190616fc4565b506020820151816002019080519060200190611e37929190617044565b5050505050505050505050565b6060816000548110611ebe576040517f08c379a00000000000000000000000000000000000000000000000000000000081526004018080602001828103825260108152602001807f496e76616c6964206974656d204944210000000000000000000000000000000081525060200191505060405180910390fd5b60036005811115611ecb57fe5b60028481548110611ed857fe5b90600052602060002090600a020160040160149054906101000a900460ff166005811115611f0257fe5b1480611f4f575060046005811115611f1657fe5b60028481548110611f2357fe5b90600052602060002090600a020160040160149054906101000a900460ff166005811115611f4d57fe5b145b611fc1576040517f08c379a00000000000000000000000000000000000000000000000000000000081526004018080602001828103825260178152602001807f4275796572206e6f74206465636c61726564207965742100000000000000000081525060200191505060405180910390fd5b6001600060028581548110611fd257fe5b90600052602060002090600a020160050160009054906101000a900473ffffffffffffffffffffffffffffffffffffffff1673ffffffffffffffffffffffffffffffffffffffff1673ffffffffffffffffffffffffffffffffffffffff1681526020019081526020016000208054600181600116156101000203166002900480601f0160208091040260200160405190810160405280929190818152602001828054600181600116156101000203166002900480156120d25780601f106120a7576101008083540402835291602001916120d2565b820191906000526020600020905b8154815290600101906020018083116120b557829003601f168201915b5050505050915050919050565b6060816000548110612159576040517f08c379a00000000000000000000000000000000000000000000000000000000081526004018080602001828103825260108152602001807f496e76616c6964206974656d204944210000000000000000000000000000000081525060200191505060405180910390fd5b826002818154811061216757fe5b90600052602060002090600a020160050160009054906101000a900473ffffffffffffffffffffffffffffffffffffffff1673ffffffffffffffffffffffffffffffffffffffff163373ffffffffffffffffffffffffffffffffffffffff1614612239576040517f08c379a00000000000000000000000000000000000000000000000000000000081526004018080602001828103825260188152602001807f596f7520646f206e6f74206f776e20746865206974656d21000000000000000081525060200191505060405180910390fd5b836004600581111561224757fe5b6002828154811061225457fe5b90600052602060002090600a020160040160149054906101000a900460ff16600581111561227e57fe5b146122d4576040517f08c379a00000000000000000000000000000000000000000000000000000000081526004018080602001828103825260418152602001806172cc6041913960600191505060405180910390fd5b600285815481106122e157fe5b90600052602060002090600a02016006018054600181600116156101000203166002900480601f0160208091040260200160405190810160405280929190818152602001828054600181600116156101000203166002900480156123865780601f1061235b57610100808354040283529160200191612386565b820191906000526020600020905b81548152906001019060200180831161236957829003601f168201915b50505050509350505050919050565b81600054811061240d576040517f08c379a00000000000000000000000000000000000000000000000000000000081526004018080602001828103825260108152602001807f496e76616c6964206974656d204944210000000000000000000000000000000081525060200191505060405180910390fd5b6001600581111561241a57fe5b6002848154811061242757fe5b90600052602060002090600a020160040160149054906101000a900460ff16600581111561245157fe5b146124c4576040517f08c379a000000000000000000000000000000000000000000000000000000000815260040180806020018281038252601c8152602001807f4974656d206e6f7420617661696c61626c6520666f722073616c65210000000081525060200191505060405180910390fd5b600283815481106124d157fe5b90600052602060002090600a020160040160009054906101000a900473ffffffffffffffffffffffffffffffffffffffff1673ffffffffffffffffffffffffffffffffffffffff163373ffffffffffffffffffffffffffffffffffffffff1614156125a4576040517f08c379a000000000000000000000000000000000000000000000000000000000815260040180806020018281038252601e8152602001807f53656c6c65722063616e206e6f7420627579207468656972206974656d21000081525060200191505060405180910390fd5b600283815481106125b157fe5b90600052602060002090600a02016003015434101561261b576040517f08c379a00000000000000000000000000000000000000000000000000000000081526004018080602001828103825260228152602001806172076022913960400191505060405180910390fd5b600033905060036002858154811061262f57fe5b90600052602060002090600a020160040160146101000a81548160ff0219169083600581111561265b57fe5b0217905550806002858154811061266e57fe5b90600052602060002090600a020160050160006101000a81548173ffffffffffffffffffffffffffffffffffffffff021916908373ffffffffffffffffffffffffffffffffffffffff16021790555082600160008373ffffffffffffffffffffffffffffffffffffffff1673ffffffffffffffffffffffffffffffffffffffff16815260200190815260200160002090805190602001906127109291906170ce565b5050505050565b61271f616f21565b600080815480929190600101919050558160000181815250508381602001819052508281604001819052508181606001818152505033816080019073ffffffffffffffffffffffffffffffffffffffff16908173ffffffffffffffffffffffffffffffffffffffff168152505060018160a00190600581111561279e57fe5b908160058111156127ab57fe5b815250506040518060800160405280604181526020016172cc604191398160e001819052506002819080600181540180825580915050906001820390600052602060002090600a020160009091929091909150600082015181600001556020820151816001019080519060200190612824929190616fc4565b506040820151816002019080519060200190612841929190616fc4565b506060820151816003015560808201518160040160006101000a81548173ffffffffffffffffffffffffffffffffffffffff021916908373ffffffffffffffffffffffffffffffffffffffff16021790555060a08201518160040160146101000a81548160ff021916908360058111156128b757fe5b021790555060c08201518160050160006101000a81548173ffffffffffffffffffffffffffffffffffffffff021916908373ffffffffffffffffffffffffffffffffffffffff16021790555060e082015181600601908051906020019061291f929190616fc4565b50610100820151816007016000820151816000019080519060200190612946929190616fc4565b506020820151816002019080519060200190612963929190617044565b50505050505050505050565b8160005481106129e7576040517f08c379a00000000000000000000000000000000000000000000000000000000081526004018080602001828103825260108152602001807f496e76616c6964206974656d204944210000000000000000000000000000000081525060200191505060405180910390fd5b600060058111156129f457fe5b60028481548110612a0157fe5b90600052602060002090600a020160040160149054906101000a900460ff166005811115612a2b57fe5b14612a9e576040517f08c379a000000000000000000000000000000000000000000000000000000000815260040180806020018281038252601f8152602001807f4974656d206e6f7420617661696c61626c6520666f722062696464696e67210081525060200191505060405180910390fd5b60028381548110612aab57fe5b90600052602060002090600a020160040160009054906101000a900473ffffffffffffffffffffffffffffffffffffffff1673ffffffffffffffffffffffffffffffffffffffff163373ffffffffffffffffffffffffffffffffffffffff161415612b61576040517f08c379a00000000000000000000000000000000000000000000000000000000081526004018080602001828103825260218152602001806172ab6021913960400191505060405180910390fd5b6000151560028481548110612b7257fe5b90600052602060002090600a020160070160010160003373ffffffffffffffffffffffffffffffffffffffff1673ffffffffffffffffffffffffffffffffffffffff16815260200190815260200160002060030160009054906101000a900460ff16151514612c49576040517f08c379a00000000000000000000000000000000000000000000000000000000081526004018080602001828103825260128152602001807f43616e206f6e6c7920626964206f6e636521000000000000000000000000000081525060200191505060405180910390fd5b60003390508260028581548110612c5c57fe5b90600052602060002090600a020160070160010160008373ffffffffffffffffffffffffffffffffffffffff1673ffffffffffffffffffffffffffffffffffffffff16815260200190815260200160002060000181905550600160028581548110612cc357fe5b90600052602060002090600a020160070160010160008373ffffffffffffffffffffffffffffffffffffffff1673ffffffffffffffffffffffffffffffffffffffff16815260200190815260200160002060030160006101000a81548160ff02191690831515021790555060028481548110612d3b57fe5b90600052602060002090600a02016007016002013390806001815401808255809150509060018203906000526020600020016000909192909190916101000a81548173ffffffffffffffffffffffffffffffffffffffff021916908373ffffffffffffffffffffffffffffffffffffffff1602179055505050505050565b826000548110612e31576040517f08c379a00000000000000000000000000000000000000000000000000000000081526004018080602001828103825260108152602001807f496e76616c6964206974656d204944210000000000000000000000000000000081525060200191505060405180910390fd5b8360028181548110612e3f57fe5b90600052602060002090600a020160040160009054906101000a900473ffffffffffffffffffffffffffffffffffffffff1673ffffffffffffffffffffffffffffffffffffffff163373ffffffffffffffffffffffffffffffffffffffff1614612f11576040517f08c379a00000000000000000000000000000000000000000000000000000000081526004018080602001828103825260188152602001807f596f7520646f206e6f74206f776e20746865206974656d21000000000000000081525060200191505060405180910390fd5b60036005811115612f1e57fe5b60028681548110612f2b57fe5b90600052602060002090600a020160040160149054906101000a900460ff166005811115612f5557fe5b14612fab576040517f08c379a00000000000000000000000000000000000000000000000000000000081526004018080602001828103825260238152602001806172886023913960400191505060405180910390fd5b82600160003373ffffffffffffffffffffffffffffffffffffffff1673ffffffffffffffffffffffffffffffffffffffff1681526020019081526020016000209080519060200190612ffe9291906170ce565b50836002868154811061300d57fe5b90600052602060002090600a020160060190805190602001906130319291906170ce565b5060046002868154811061304157fe5b90600052602060002090600a020160040160146101000a81548160ff0219169083600581111561306d57fe5b02179055506002858154811061307f57fe5b90600052602060002090600a020160040160009054906101000a900473ffffffffffffffffffffffffffffffffffffffff1673ffffffffffffffffffffffffffffffffffffffff166108fc600287815481106130d757fe5b90600052602060002090600a0201600301549081150290604051600060405180830381858888f19350505050158015613114573d6000803e3d6000fd5b505050505050565b6000816040516020018082805190602001908083835b602083106131555780518252602082019150602081019050602083039250613132565b6001836020036101000a03801982511681845116808217855250505050505090500191505060405160208183030381529060405280519060200120836040516020018082805190602001908083835b602083106131c757805182526020820191506020810190506020830392506131a4565b6001836020036101000a0380198251168184511680821785525050505050509050019150506040516020818303038152906040528051906020012014905092915050565b6060816000548110613285576040517f08c379a00000000000000000000000000000000000000000000000000000000081526004018080602001828103825260108152602001807f496e76616c6964206974656d204944210000000000000000000000000000000081525060200191505060405180910390fd5b826004600581111561329357fe5b600282815481106132a057fe5b90600052602060002090600a020160040160149054906101000a900460ff1660058111156132ca57fe5b14613320576040517f08c379a00000000000000000000000000000000000000000000000000000000081526004018080602001828103825260418152602001806172cc6041913960600191505060405180910390fd5b600160006002868154811061333157fe5b90600052602060002090600a020160040160009054906101000a900473ffffffffffffffffffffffffffffffffffffffff1673ffffffffffffffffffffffffffffffffffffffff1673ffffffffffffffffffffffffffffffffffffffff1681526020019081526020016000208054600181600116156101000203166002900480601f0160208091040260200160405190810160405280929190818152602001828054600181600116156101000203166002900480156134315780601f1061340657610100808354040283529160200191613431565b820191906000526020600020905b81548152906001019060200180831161341457829003601f168201915b505050505092505050919050565b8260005481106134b7576040517f08c379a00000000000000000000000000000000000000000000000000000000081526004018080602001828103825260108152602001807f496e76616c6964206974656d204944210000000000000000000000000000000081525060200191505060405180910390fd5b600260058111156134c457fe5b600285815481106134d157fe5b90600052602060002090600a020160040160149054906101000a900460ff1660058111156134fb57fe5b14613551576040517f08c379a00000000000000000000000000000000000000000000000000000000081526004018080602001828103825260328152602001806172566032913960400191505060405180910390fd5b6002848154811061355e57fe5b90600052602060002090600a020160070160010160003373ffffffffffffffffffffffffffffffffffffffff1673ffffffffffffffffffffffffffffffffffffffff16815260200190815260200160002060000154826135bd346157fb565b6040516020018083805190602001908083835b602083106135f357805182526020820191506020810190506020830392506135d0565b6001836020036101000a03801982511681845116808217855250505050505090500182805190602001908083835b602083106136445780518252602082019150602081019050602083039250613621565b6001836020036101000a038019825116818451168082178552505050505050905001925050506040516020818303038152906040528051906020012014156136f4576040517f08c379a000000000000000000000000000000000000000000000000000000000815260040180806020018281038252600b8152602001807f57726f6e6720486173682100000000000000000000000000000000000000000081525060200191505060405180910390fd5b600015156002858154811061370557fe5b90600052602060002090600a020160070160010160003373ffffffffffffffffffffffffffffffffffffffff1673ffffffffffffffffffffffffffffffffffffffff16815260200190815260200160002060030160019054906101000a900460ff161515146137dc576040517f08c379a00000000000000000000000000000000000000000000000000000000081526004018080602001828103825260118152602001807f416c72656164792076657269666965642100000000000000000000000000000081525060200191505060405180910390fd5b600033905082600286815481106137ef57fe5b90600052602060002090600a020160070160010160008373ffffffffffffffffffffffffffffffffffffffff1673ffffffffffffffffffffffffffffffffffffffff16815260200190815260200160002060010190805190602001906138569291906170ce565b50346002868154811061386557fe5b90600052602060002090600a020160070160010160008373ffffffffffffffffffffffffffffffffffffffff1673ffffffffffffffffffffffffffffffffffffffff168152602001908152602001600020600201819055506001600286815481106138cc57fe5b90600052602060002090600a020160070160010160008373ffffffffffffffffffffffffffffffffffffffff1673ffffffffffffffffffffffffffffffffffffffff16815260200190815260200160002060030160016101000a81548160ff02191690831515021790555083600160008373ffffffffffffffffffffffffffffffffffffffff1673ffffffffffffffffffffffffffffffffffffffff168152602001908152602001600020908051906020019061398a9291906170ce565b505050505050565b60608060405180602001604052806000815250905060008090505b6002805490508110156147b957816040516020018082805190602001908083835b602083106139f157805182526020820191506020810190506020830392506139ce565b6001836020036101000a038019825116818451168082178552505050505050905001807f49443a2000000000000000000000000000000000000000000000000000000000815250600401915050604051602081830303815290604052915081613a7760028381548110613a6057fe5b90600052602060002090600a0201600001546157fb565b6040516020018083805190602001908083835b60208310613aad5780518252602082019150602081019050602083039250613a8a565b6001836020036101000a03801982511681845116808217855250505050505090500182805190602001908083835b60208310613afe5780518252602082019150602081019050602083039250613adb565b6001836020036101000a038019825116818451168082178552505050505050905001925050506040516020818303038152906040529150816040516020018082805190602001908083835b60208310613b6c5780518252602082019150602081019050602083039250613b49565b6001836020036101000a038019825116818451168082178552505050505050905001807f3b204e616d653a2000000000000000000000000000000000000000000000000081525060080191505060405160208183030381529060405291508160028281548110613bd857fe5b90600052602060002090600a02016001016040516020018083805190602001908083835b60208310613c1f5780518252602082019150602081019050602083039250613bfc565b6001836020036101000a03801982511681845116808217855250505050505090500182805460018160011615610100020316600290048015613c985780601f10613c76576101008083540402835291820191613c98565b820191906000526020600020905b815481529060010190602001808311613c84575b5050925050506040516020818303038152906040529150816040516020018082805190602001908083835b60208310613ce65780518252602082019150602081019050602083039250613cc3565b6001836020036101000a038019825116818451168082178552505050505050905001807f3b204465736372697074696f6e3a200000000000000000000000000000000000815250600f0191505060405160208183030381529060405291508160028281548110613d5257fe5b90600052602060002090600a02016002016040516020018083805190602001908083835b60208310613d995780518252602082019150602081019050602083039250613d76565b6001836020036101000a03801982511681845116808217855250505050505090500182805460018160011615610100020316600290048015613e125780601f10613df0576101008083540402835291820191613e12565b820191906000526020600020905b815481529060010190602001808311613dfe575b5050925050506040516020818303038152906040529150816040516020018082805190602001908083835b60208310613e605780518252602082019150602081019050602083039250613e3d565b6001836020036101000a038019825116818451168082178552505050505050905001807f3b2053656c6c657249443a200000000000000000000000000000000000000000815250600c01915050604051602081830303815290604052915081613f0660028381548110613ecf57fe5b90600052602060002090600a020160040160009054906101000a900473ffffffffffffffffffffffffffffffffffffffff16615934565b6040516020018083805190602001908083835b60208310613f3c5780518252602082019150602081019050602083039250613f19565b6001836020036101000a03801982511681845116808217855250505050505090500182805190602001908083835b60208310613f8d5780518252602082019150602081019050602083039250613f6a565b6001836020036101000a038019825116818451168082178552505050505050905001925050506040516020818303038152906040529150816040516020018082805190602001908083835b60208310613ffb5780518252602082019150602081019050602083039250613fd8565b6001836020036101000a038019825116818451168082178552505050505050905001807f3b205374617475733a2000000000000000000000000000000000000000000000815250600a019150506040516020818303038152906040529150816002828154811061406757fe5b90600052602060002090600a020160040160149054906101000a900460ff166040516020018083805190602001908083835b602083106140bc5780518252602082019150602081019050602083039250614099565b6001836020036101000a0380198251168184511680821785525050505050509050018260058111156140ea57fe5b60ff1660f81b8152600101925050506040516020818303038152906040529150816040516020018082805190602001908083835b60208310614141578051825260208201915060208101905060208303925061411e565b6001836020036101000a038019825116818451168082178552505050505050905001807f3b2042757965723a2000000000000000000000000000000000000000000000008152506009019150506040516020818303038152906040529150816141e7600283815481106141b057fe5b90600052602060002090600a020160050160009054906101000a900473ffffffffffffffffffffffffffffffffffffffff16615934565b6040516020018083805190602001908083835b6020831061421d57805182526020820191506020810190506020830392506141fa565b6001836020036101000a03801982511681845116808217855250505050505090500182805190602001908083835b6020831061426e578051825260208201915060208101905060208303925061424b565b6001836020036101000a038019825116818451168082178552505050505050905001925050506040516020818303038152906040529150816040516020018082805190602001908083835b602083106142dc57805182526020820191506020810190506020830392506142b9565b6001836020036101000a038019825116818451168082178552505050505050905001807f3b2050726963653a2000000000000000000000000000000000000000000000008152506009019150506040516020818303038152906040529150816143626002838154811061434b57fe5b90600052602060002090600a0201600301546157fb565b6040516020018083805190602001908083835b602083106143985780518252602082019150602081019050602083039250614375565b6001836020036101000a03801982511681845116808217855250505050505090500182805190602001908083835b602083106143e957805182526020820191506020810190506020830392506143c6565b6001836020036101000a038019825116818451168082178552505050505050905001925050506040516020818303038152906040529150816040516020018082805190602001908083835b602083106144575780518252602082019150602081019050602083039250614434565b6001836020036101000a038019825116818451168082178552505050505050905001807f3b20536563726574537472696e673a2000000000000000000000000000000000815250601001915050604051602081830303815290604052915081600282815481106144c357fe5b90600052602060002090600a02016006016040516020018083805190602001908083835b6020831061450a57805182526020820191506020810190506020830392506144e7565b6001836020036101000a038019825116818451168082178552505050505050905001828054600181600116156101000203166002900480156145835780601f10614561576101008083540402835291820191614583565b820191906000526020600020905b81548152906001019060200180831161456f575b5050925050506040516020818303038152906040529150816040516020018082805190602001908083835b602083106145d157805182526020820191506020810190506020830392506145ae565b6001836020036101000a038019825116818451168082178552505050505050905001807f3b2041756374696f6e547970653a200000000000000000000000000000000000815250600f019150506040516020818303038152906040529150816002828154811061463d57fe5b90600052602060002090600a02016007016000016040516020018083805190602001908083835b602083106146875780518252602082019150602081019050602083039250614664565b6001836020036101000a038019825116818451168082178552505050505050905001828054600181600116156101000203166002900480156147005780601f106146de576101008083540402835291820191614700565b820191906000526020600020905b8154815290600101906020018083116146ec575b5050925050506040516020818303038152906040529150816040516020018082805190602001908083835b6020831061474e578051825260208201915060208101905060208303925061472b565b6001836020036101000a038019825116818451168082178552505050505050905001807f0a00000000000000000000000000000000000000000000000000000000000000815250600101915050604051602081830303815290604052915080806001019150506139ad565b508091505090565b806000548110614839576040517f08c379a00000000000000000000000000000000000000000000000000000000081526004018080602001828103825260108152602001807f496e76616c6964206974656d204944210000000000000000000000000000000081525060200191505060405180910390fd5b816002818154811061484757fe5b90600052602060002090600a020160040160009054906101000a900473ffffffffffffffffffffffffffffffffffffffff1673ffffffffffffffffffffffffffffffffffffffff163373ffffffffffffffffffffffffffffffffffffffff1614614919576040517f08c379a00000000000000000000000000000000000000000000000000000000081526004018080602001828103825260188152602001807f596f7520646f206e6f74206f776e20746865206974656d21000000000000000081525060200191505060405180910390fd5b6002600581111561492657fe5b6002848154811061493357fe5b90600052602060002090600a020160040160149054906101000a900460ff16600581111561495d57fe5b146149b3576040517f08c379a000000000000000000000000000000000000000000000000000000000815260040180806020018281038252604281526020018061730d6042913960600191505060405180910390fd5b6003600284815481106149c257fe5b90600052602060002090600a020160040160146101000a81548160ff021916908360058111156149ee57fe5b02179055506149fc83615a83565b614a0583615d20565b60028381548110614a1257fe5b90600052602060002090600a020160040160009054906101000a900473ffffffffffffffffffffffffffffffffffffffff1673ffffffffffffffffffffffffffffffffffffffff1660028481548110614a6757fe5b90600052602060002090600a020160050160009054906101000a900473ffffffffffffffffffffffffffffffffffffffff1673ffffffffffffffffffffffffffffffffffffffff161415614af657600560028481548110614ac457fe5b90600052602060002090600a020160040160146101000a81548160ff02191690836005811115614af057fe5b02179055505b505050565b60608060405180602001604052806000815250905060008090505b6002805490508110156157f35760016005811115614b3057fe5b60028281548110614b3d57fe5b90600052602060002090600a020160040160149054906101000a900460ff166005811115614b6757fe5b14156157e657816040516020018082805190602001908083835b60208310614ba45780518252602082019150602081019050602083039250614b81565b6001836020036101000a038019825116818451168082178552505050505050905001807f49443a2000000000000000000000000000000000000000000000000000000000815250600401915050604051602081830303815290604052915081614c2a60028381548110614c1357fe5b90600052602060002090600a0201600001546157fb565b6040516020018083805190602001908083835b60208310614c605780518252602082019150602081019050602083039250614c3d565b6001836020036101000a03801982511681845116808217855250505050505090500182805190602001908083835b60208310614cb15780518252602082019150602081019050602083039250614c8e565b6001836020036101000a038019825116818451168082178552505050505050905001925050506040516020818303038152906040529150816040516020018082805190602001908083835b60208310614d1f5780518252602082019150602081019050602083039250614cfc565b6001836020036101000a038019825116818451168082178552505050505050905001807f3b204e616d653a2000000000000000000000000000000000000000000000000081525060080191505060405160208183030381529060405291508160028281548110614d8b57fe5b90600052602060002090600a02016001016040516020018083805190602001908083835b60208310614dd25780518252602082019150602081019050602083039250614daf565b6001836020036101000a03801982511681845116808217855250505050505090500182805460018160011615610100020316600290048015614e4b5780601f10614e29576101008083540402835291820191614e4b565b820191906000526020600020905b815481529060010190602001808311614e37575b5050925050506040516020818303038152906040529150816040516020018082805190602001908083835b60208310614e995780518252602082019150602081019050602083039250614e76565b6001836020036101000a038019825116818451168082178552505050505050905001807f3b204465736372697074696f6e3a200000000000000000000000000000000000815250600f0191505060405160208183030381529060405291508160028281548110614f0557fe5b90600052602060002090600a02016002016040516020018083805190602001908083835b60208310614f4c5780518252602082019150602081019050602083039250614f29565b6001836020036101000a03801982511681845116808217855250505050505090500182805460018160011615610100020316600290048015614fc55780601f10614fa3576101008083540402835291820191614fc5565b820191906000526020600020905b815481529060010190602001808311614fb1575b5050925050506040516020818303038152906040529150816040516020018082805190602001908083835b602083106150135780518252602082019150602081019050602083039250614ff0565b6001836020036101000a038019825116818451168082178552505050505050905001807f3b2053656c6c657249443a200000000000000000000000000000000000000000815250600c019150506040516020818303038152906040529150816150b96002838154811061508257fe5b90600052602060002090600a020160040160009054906101000a900473ffffffffffffffffffffffffffffffffffffffff16615934565b6040516020018083805190602001908083835b602083106150ef57805182526020820191506020810190506020830392506150cc565b6001836020036101000a03801982511681845116808217855250505050505090500182805190602001908083835b60208310615140578051825260208201915060208101905060208303925061511d565b6001836020036101000a038019825116818451168082178552505050505050905001925050506040516020818303038152906040529150816040516020018082805190602001908083835b602083106151ae578051825260208201915060208101905060208303925061518b565b6001836020036101000a038019825116818451168082178552505050505050905001807f3b205374617475733a2000000000000000000000000000000000000000000000815250600a019150506040516020818303038152906040529150816002828154811061521a57fe5b90600052602060002090600a020160040160149054906101000a900460ff166040516020018083805190602001908083835b6020831061526f578051825260208201915060208101905060208303925061524c565b6001836020036101000a03801982511681845116808217855250505050505090500182600581111561529d57fe5b60ff1660f81b8152600101925050506040516020818303038152906040529150816040516020018082805190602001908083835b602083106152f457805182526020820191506020810190506020830392506152d1565b6001836020036101000a038019825116818451168082178552505050505050905001807f3b2042757965723a20000000000000000000000000000000000000000000000081525060090191505060405160208183030381529060405291508161539a6002838154811061536357fe5b90600052602060002090600a020160050160009054906101000a900473ffffffffffffffffffffffffffffffffffffffff16615934565b6040516020018083805190602001908083835b602083106153d057805182526020820191506020810190506020830392506153ad565b6001836020036101000a03801982511681845116808217855250505050505090500182805190602001908083835b6020831061542157805182526020820191506020810190506020830392506153fe565b6001836020036101000a038019825116818451168082178552505050505050905001925050506040516020818303038152906040529150816040516020018082805190602001908083835b6020831061548f578051825260208201915060208101905060208303925061546c565b6001836020036101000a038019825116818451168082178552505050505050905001807f3b2050726963653a200000000000000000000000000000000000000000000000815250600901915050604051602081830303815290604052915081615515600283815481106154fe57fe5b90600052602060002090600a0201600301546157fb565b6040516020018083805190602001908083835b6020831061554b5780518252602082019150602081019050602083039250615528565b6001836020036101000a03801982511681845116808217855250505050505090500182805190602001908083835b6020831061559c5780518252602082019150602081019050602083039250615579565b6001836020036101000a038019825116818451168082178552505050505050905001925050506040516020818303038152906040529150816040516020018082805190602001908083835b6020831061560a57805182526020820191506020810190506020830392506155e7565b6001836020036101000a038019825116818451168082178552505050505050905001807f3b2041756374696f6e547970653a200000000000000000000000000000000000815250600f019150506040516020818303038152906040529150816002828154811061567657fe5b90600052602060002090600a02016007016000016040516020018083805190602001908083835b602083106156c0578051825260208201915060208101905060208303925061569d565b6001836020036101000a038019825116818451168082178552505050505050905001828054600181600116156101000203166002900480156157395780601f10615717576101008083540402835291820191615739565b820191906000526020600020905b815481529060010190602001808311615725575b5050925050506040516020818303038152906040529150816040516020018082805190602001908083835b602083106157875780518252602082019150602081019050602083039250615764565b6001836020036101000a038019825116818451168082178552505050505050905001807f0a0000000000000000000000000000000000000000000000000000000000000081525060010191505060405160208183030381529060405291505b8080600101915050614b16565b508091505090565b60606000821415615843576040518060400160405280600181526020017f3000000000000000000000000000000000000000000000000000000000000000815250905061592f565b600082905060005b6000821461586d578080600101915050600a828161586557fe5b04915061584b565b6060816040519080825280601f01601f1916602001820160405280156158a25781602001600182028038833980820191505090505b50905060008290505b60008614615927576001810390506000600a8088816158c657fe5b04028703603001905060008160f81b9050808484815181106158e457fe5b60200101907effffffffffffffffffffffffffffffffffffffffffffffffffffffffffffff1916908160001a905350600a888161591d57fe5b04975050506158ab565b819450505050505b919050565b60608060286040519080825280601f01601f19166020018201604052801561596b5781602001600182028038833980820191505090505b50905060008090505b6014811015615a795760008160130360080260020a8573ffffffffffffffffffffffffffffffffffffffff16816159a757fe5b0460f81b9050600060108260f81c60ff16816159bf57fe5b0460f81b905060008160f81c6010028360f81c0360f81b90506159e182616179565b8585600202815181106159f057fe5b60200101907effffffffffffffffffffffffffffffffffffffffffffffffffffffffffffff1916908160001a905350615a2881616179565b856001866002020181518110615a3a57fe5b60200101907effffffffffffffffffffffffffffffffffffffffffffffffffffffffffffff1916908160001a9053505050508080600101915050615974565b5080915050919050565b806000548110615afb576040517f08c379a00000000000000000000000000000000000000000000000000000000081526004018080602001828103825260108152602001807f496e76616c6964206974656d204944210000000000000000000000000000000081525060200191505060405180910390fd5b615bf360028381548110615b0b57fe5b90600052602060002090600a02016007016000018054600181600116156101000203166002900480601f016020809104026020016040519081016040528092919081815260200182805460018160011615610100020316600290048015615bb35780601f10615b8857610100808354040283529160200191615bb3565b820191906000526020600020905b815481529060010190602001808311615b9657829003601f168201915b50505050506040518060400160405280600a81526020017f466972737450726963650000000000000000000000000000000000000000000081525061311c565b15615c0657615c01826161ad565b615d1c565b615cfe60028381548110615c1657fe5b90600052602060002090600a02016007016000018054600181600116156101000203166002900480601f016020809104026020016040519081016040528092919081815260200182805460018160011615610100020316600290048015615cbe5780601f10615c9357610100808354040283529160200191615cbe565b820191906000526020600020905b815481529060010190602001808311615ca157829003601f168201915b50505050506040518060400160405280600b81526020017f5365636f6e64507269636500000000000000000000000000000000000000000081525061311c565b15615d1157615d0c8261656d565b615d1b565b615d1a82616964565b5b5b5050565b806000548110615d98576040517f08c379a00000000000000000000000000000000000000000000000000000000081526004018080602001828103825260108152602001807f496e76616c6964206974656d204944210000000000000000000000000000000081525060200191505060405180910390fd5b606060028381548110615da757fe5b90600052602060002090600a0201600701600201805480602002602001604051908101604052809291908181526020018280548015615e3b57602002820191906000526020600020905b8160009054906101000a900473ffffffffffffffffffffffffffffffffffffffff1673ffffffffffffffffffffffffffffffffffffffff1681526020019060010190808311615df1575b5050505050905060008090505b815181101561617357615e5961714e565b60028581548110615e6657fe5b90600052602060002090600a02016007016001016000848481518110615e8857fe5b602002602001015173ffffffffffffffffffffffffffffffffffffffff1673ffffffffffffffffffffffffffffffffffffffff1681526020019081526020016000206040518060a001604052908160008201548152602001600182018054600181600116156101000203166002900480601f016020809104026020016040519081016040528092919081815260200182805460018160011615610100020316600290048015615f785780601f10615f4d57610100808354040283529160200191615f78565b820191906000526020600020905b815481529060010190602001808311615f5b57829003601f168201915b50505050508152602001600282015481526020016003820160009054906101000a900460ff161515151581526020016003820160019054906101000a900460ff1615151515815250509050600115158160800151151514156161655760028581548110615fe157fe5b90600052602060002090600a020160050160009054906101000a900473ffffffffffffffffffffffffffffffffffffffff1673ffffffffffffffffffffffffffffffffffffffff1683838151811061603557fe5b602002602001015173ffffffffffffffffffffffffffffffffffffffff16146160bb5782828151811061606457fe5b602002602001015173ffffffffffffffffffffffffffffffffffffffff166108fc82604001519081150290604051600060405180830381858888f193505050501580156160b5573d6000803e3d6000fd5b50616164565b600285815481106160c857fe5b90600052602060002090600a020160030154816040015114616163578282815181106160f057fe5b602002602001015173ffffffffffffffffffffffffffffffffffffffff166108fc6002878154811061611e57fe5b90600052602060002090600a0201600301548360400151039081150290604051600060405180830381858888f19350505050158015616161573d6000803e3d6000fd5b505b5b5b508080600101915050615e48565b50505050565b6000600a8260f81c60ff16101561619b5760308260f81c0160f81b90506161a8565b60578260f81c0160f81b90505b919050565b806000548110616225576040517f08c379a00000000000000000000000000000000000000000000000000000000081526004018080602001828103825260108152602001807f496e76616c6964206974656d204944210000000000000000000000000000000081525060200191505060405180910390fd5b60606002838154811061623457fe5b90600052602060002090600a02016007016002018054806020026020016040519081016040528092919081815260200182805480156162c857602002820191906000526020600020905b8160009054906101000a900473ffffffffffffffffffffffffffffffffffffffff1673ffffffffffffffffffffffffffffffffffffffff168152602001906001019080831161627e575b505050505090506000600284815481106162de57fe5b90600052602060002090600a020160040160009054906101000a900473ffffffffffffffffffffffffffffffffffffffff169050600080905060008090505b83518110156164e55761632e61714e565b6002878154811061633b57fe5b90600052602060002090600a0201600701600101600086848151811061635d57fe5b602002602001015173ffffffffffffffffffffffffffffffffffffffff1673ffffffffffffffffffffffffffffffffffffffff1681526020019081526020016000206040518060a001604052908160008201548152602001600182018054600181600116156101000203166002900480601f01602080910402602001604051908101604052809291908181526020018280546001816001161561010002031660029004801561644d5780601f106164225761010080835404028352916020019161644d565b820191906000526020600020905b81548152906001019060200180831161643057829003601f168201915b50505050508152602001600282015481526020016003820160009054906101000a900460ff161515151581526020016003820160019054906101000a900460ff161515151581525050905060011515816080015115151480156164b4575082816040015110155b156164d7578482815181106164c557fe5b60200260200101519350806040015192505b50808060010191505061631d565b5080600286815481106164f457fe5b90600052602060002090600a020160030181905550816002868154811061651757fe5b90600052602060002090600a020160050160006101000a81548173ffffffffffffffffffffffffffffffffffffffff021916908373ffffffffffffffffffffffffffffffffffffffff1602179055505050505050565b8060005481106165e5576040517f08c379a00000000000000000000000000000000000000000000000000000000081526004018080602001828103825260108152602001807f496e76616c6964206974656d204944210000000000000000000000000000000081525060200191505060405180910390fd5b6060600283815481106165f457fe5b90600052602060002090600a020160070160020180548060200260200160405190810160405280929190818152602001828054801561668857602002820191906000526020600020905b8160009054906101000a900473ffffffffffffffffffffffffffffffffffffffff1673ffffffffffffffffffffffffffffffffffffffff168152602001906001019080831161663e575b5050505050905060006002848154811061669e57fe5b90600052602060002090600a020160040160009054906101000a900473ffffffffffffffffffffffffffffffffffffffff1690506000809050600080905060008090505b84518110156168db576166f361714e565b6002888154811061670057fe5b90600052602060002090600a0201600701600101600087848151811061672257fe5b602002602001015173ffffffffffffffffffffffffffffffffffffffff1673ffffffffffffffffffffffffffffffffffffffff1681526020019081526020016000206040518060a001604052908160008201548152602001600182018054600181600116156101000203166002900480601f0160208091040260200160405190810160405280929190818152602001828054600181600116156101000203166002900480156168125780601f106167e757610100808354040283529160200191616812565b820191906000526020600020905b8154815290600101906020018083116167f557829003601f168201915b50505050508152602001600282015481526020016003820160009054906101000a900460ff161515151581526020016003820160019054906101000a900460ff16151515158152505090506001151581608001511515148015616879575083816040015110155b156168a3578392508060400151935085828151811061689457fe5b602002602001015194506168cd565b60011515816080015115151480156168bf575082816040015110155b156168cc57806040015192505b5b5080806001019150506166e2565b5082600287815481106168ea57fe5b90600052602060002090600a020160050160006101000a81548173ffffffffffffffffffffffffffffffffffffffff021916908373ffffffffffffffffffffffffffffffffffffffff160217905550806002878154811061694757fe5b90600052602060002090600a020160030181905550505050505050565b8060005481106169dc576040517f08c379a00000000000000000000000000000000000000000000000000000000081526004018080602001828103825260108152602001807f496e76616c6964206974656d204944210000000000000000000000000000000081525060200191505060405180910390fd5b6060600283815481106169eb57fe5b90600052602060002090600a0201600701600201805480602002602001604051908101604052809291908181526020018280548015616a7f57602002820191906000526020600020905b8160009054906101000a900473ffffffffffffffffffffffffffffffffffffffff1673ffffffffffffffffffffffffffffffffffffffff1681526020019060010190808311616a35575b505050505090506000809050600080905060008090505b8351811015616c4057616aa761714e565b60028781548110616ab457fe5b90600052602060002090600a02016007016001016000868481518110616ad657fe5b602002602001015173ffffffffffffffffffffffffffffffffffffffff1673ffffffffffffffffffffffffffffffffffffffff1681526020019081526020016000206040518060a001604052908160008201548152602001600182018054600181600116156101000203166002900480601f016020809104026020016040519081016040528092919081815260200182805460018160011615610100020316600290048015616bc65780601f10616b9b57610100808354040283529160200191616bc6565b820191906000526020600020905b815481529060010190602001808311616ba957829003601f168201915b50505050508152602001600282015481526020016003820160009054906101000a900460ff161515151581526020016003820160019054906101000a900460ff161515151581525050905060011515816080015115151415616c32578060400151840193506001830192505b508080600101915050616a96565b50600060028681548110616c5057fe5b90600052602060002090600a020160040160009054906101000a900473ffffffffffffffffffffffffffffffffffffffff1690506000809050600084905060008090505b8651811015616e7957616ca561714e565b60028a81548110616cb257fe5b90600052602060002090600a02016007016001016000898481518110616cd457fe5b602002602001015173ffffffffffffffffffffffffffffffffffffffff1673ffffffffffffffffffffffffffffffffffffffff1681526020019081526020016000206040518060a001604052908160008201548152602001600182018054600181600116156101000203166002900480601f016020809104026020016040519081016040528092919081815260200182805460018160011615610100020316600290048015616dc45780601f10616d9957610100808354040283529160200191616dc4565b820191906000526020600020905b815481529060010190602001808311616da757829003601f168201915b50505050508152602001600282015481526020016003820160009054906101000a900460ff161515151581526020016003820160019054906101000a900460ff16151515158152505090506001151581608001511515148015616e36575082616e338783604001510289616f04565b11155b15616e6b57616e4b8682604001510288616f04565b925080604001519350878281518110616e6057fe5b602002602001015194505b508080600101915050616c94565b508260028981548110616e8857fe5b90600052602060002090600a020160050160006101000a81548173ffffffffffffffffffffffffffffffffffffffff021916908373ffffffffffffffffffffffffffffffffffffffff1602179055508160028981548110616ee557fe5b90600052602060002090600a0201600301819055505050505050505050565b6000818310616f1557818303616f19565b8282035b905092915050565b60405180610120016040528060008152602001606081526020016060815260200160008152602001600073ffffffffffffffffffffffffffffffffffffffff16815260200160006005811115616f7357fe5b8152602001600073ffffffffffffffffffffffffffffffffffffffff16815260200160608152602001616fa4617184565b81525090565b604051806040016040528060608152602001606081525090565b828054600181600116156101000203166002900490600052602060002090601f016020900481019282601f1061700557805160ff1916838001178555617033565b82800160010185558215617033579182015b82811115617032578251825591602001919060010190617017565b5b509050617040919061719e565b5090565b8280548282559060005260206000209081019282156170bd579160200282015b828111156170bc5782518260006101000a81548173ffffffffffffffffffffffffffffffffffffffff021916908373ffffffffffffffffffffffffffffffffffffffff16021790555091602001919060010190617064565b5b5090506170ca91906171c3565b5090565b828054600181600116156101000203166002900490600052602060002090601f016020900481019282601f1061710f57805160ff191683800117855561713d565b8280016001018555821561713d579182015b8281111561713c578251825591602001919060010190617121565b5b50905061714a919061719e565b5090565b6040518060a001604052806000801916815260200160608152602001600081526020016000151581526020016000151581525090565b604051806040016040528060608152602001606081525090565b6171c091905b808211156171bc5760008160009055506001016171a4565b5090565b90565b61720391905b808211156171ff57600081816101000a81549073ffffffffffffffffffffffffffffffffffffffff0219169055506001016171c9565b5090565b9056fe4d6f6e6579206c657373207468616e20746865206c697374696e6720707269636521496e76616c696420726571756573742c206974656d20776173206e6f7420757020666f722062696464696e6721496e76616c696420726571756573742c206974656d2773206e6f7420757020666f722070617920616e6420766572696679214974656d206e6f7420736f6c64206f7220616c72656164792064656c6976657265642153656c6c65722063616e206e6f7420626964206174207468656972206974656d214974656d206e6f7420617661696c61626c65207965742c20706c65617365207761697420666f72207468652073656c6c657220746f2064656c6976657220697421496e76616c696420726571756573742c2062696473206e6f74207665726966696564206f722061756374696f6e2077617320616c72656164792073746f7070656421a265627a7a723158200ebc1d05ae0d51baa206f136fc13471a727a7e3b34f520eb5c1e0bae7c60adfc64736f6c63430005100032",
  "source": "// SPDX-License-Identifier: GPL-3.0\npragma solidity >=0.4.22 <0.9.0;\n\n/**\n * @title A Modern Way\n * @dev Smart contract to facilitate buying, selling, auction of items securely\n */\ncontract AModernWay {\n    /**\n     * This is an enum which will help to keep the current status of an item.\n     * The status FOR_AUCTION signifies that the buyers can bid at auction to buy the item\n     * The status FOR_SALE signifies that the buyers can buy the item at the price specified by the seller\n     * The status PAY_AND_VERIFY signifies that the bidders can pay to verify their bid\n     * The status SOLD signifies that the item is sold to the buyer\n     * The status DELIVERED signifies that the item is delivered to the buyer\n     */\n    enum status {\n        FOR_AUCTION,\n        FOR_SALE,\n        PAY_AND_VERIFY,\n        SOLD,\n        DELIVERED,\n        NO_BIDS\n    }\n\n    // enum AuctionType {\n    //     FIRST_PRICE,\n    //     SECOND_PRICE,\n    //     AVERAGE_PRICE\n    // }\n\n    struct Bid {\n        bytes32 hashedBid;\n        string password;\n        uint256 bidValue;\n        bool hasBid;\n        bool isVerified;\n    }\n\n    struct Auction {\n        string auctionType;\n        mapping(address => Bid) addressToBid;\n        address payable[] bidders;\n    }\n\n    /**\n     * This is our main item struct.\n     * listingID is the the unique ID for each item\n     * price is the price set by buyer for sale or paid by the winner of the auction\n     * sellerID is the address of the seller who wants to sell the item\n     * buyerID is the address of the buyer who paid for the item\n     * itemStatus tells the current status of the item. It uses the enum status defined above\n     */\n    struct Item {\n        uint256 listingID;\n        string name;\n        string description;\n        uint256 price;\n        address payable sellerID;\n        status itemStatus;\n        address buyerID;\n        string encryptedString;\n        Auction auction;\n    }\n\n    uint256 numOfItems = 0;\n\n    /**\n     * This mapping takes an address of a user as the input and returns the public key of that corresponding user.\n     * The public key will be required by the seller so that he can encrypt the item string and send the encrypted string to the buyer.\n     * The buyer will then decrpyt the encrypted string using their private key.\n     */\n    mapping(address => string) addressToPublicKey;\n\n    /**\n     * This array stores the list of all items\n     */\n    Item[] items;\n\n    /**\n     * This modifier is used by a function to check if the item with ID = itemID is accessed only by the seller of that item\n     * @param itemID is the unique ID of the item\n     */\n    modifier onlyValidItemID(uint256 itemID) {\n        require(itemID < numOfItems, \"Invalid item ID!\");\n        _;\n    }\n\n    /**\n     * This modifier is used by a function to check if the item with ID = itemID is accessed only by the seller of that item\n     * @param itemID is the unique ID of the item\n     */\n    modifier onlySeller(uint256 itemID) {\n        require(\n            msg.sender == items[itemID].sellerID,\n            \"You do not own the item!\"\n        );\n        _;\n    }\n\n    /**\n     * This modifier is used by a function to check if the item with ID = itemID is accessed only by the buyer of that item\n     * @param itemID is the unique ID of the item\n     */\n    modifier onlyBuyer(uint256 itemID) {\n        require(\n            msg.sender == items[itemID].buyerID,\n            \"You do not own the item!\"\n        );\n        _;\n    }\n\n    /**\n     * This modifier is used by a function to check if the item with ID = itemID is delivered\n     * @param itemID is the unique ID of the item\n     */\n    modifier onlyDeliveredItem(uint256 itemID) {\n        require(\n            items[itemID].itemStatus == status.DELIVERED,\n            \"Item not available yet, please wait for the seller to deliver it!\"\n        );\n        _;\n    }\n\n    /**\n     * This function is used by a seller to add a new item for sale.\n     * @param itemName is the name of the item\n     * @param itemDescription describes the item the seller wants to sell\n     * @param itemPrice is the price of the item with which the seller wants to sell it\n     */\n    function addItemForSale(\n        string memory itemName,\n        string memory itemDescription,\n        uint256 itemPrice\n    ) public {\n        Item memory newItem;\n        newItem.listingID = numOfItems++;\n        newItem.name = itemName;\n        newItem.description = itemDescription;\n        newItem.price = itemPrice;\n        newItem.sellerID = msg.sender;\n        newItem.itemStatus = status.FOR_SALE;\n        newItem\n            .encryptedString = \"Item not available yet, please wait for the seller to deliver it!\";\n        items.push(newItem);\n    }\n\n    /**\n     * This function is used by a seller to add a new item for the auction.\n     * @param itemName is the name of the item\n     * @param itemDescription describes the item the seller wants to sell\n     * @param auctionType describes the type of auction\n     */\n    function addItemForAuction(\n        string memory itemName,\n        string memory itemDescription,\n        string memory auctionType\n    ) public {\n        Item memory newItem;\n        newItem.listingID = numOfItems++;\n        newItem.name = itemName;\n        newItem.description = itemDescription;\n        newItem.sellerID = msg.sender;\n        newItem.itemStatus = status.FOR_AUCTION;\n        Auction memory auction;\n        auction.auctionType = auctionType;\n        newItem.auction = auction;\n        newItem\n            .encryptedString = \"Item not available yet, please wait for the seller to deliver it!\";\n        items.push(newItem);\n    }\n\n    /**\n     * This function is called by the bidders to bid on the item.\n     * @param itemID is the id of the item\n     * @param hashedBid is the hashed value of the bid to keep the bid sealed\n     */\n    function bidAtAuction(uint256 itemID, bytes32 hashedBid)\n        public\n        onlyValidItemID(itemID)\n    {\n        require(\n            items[itemID].itemStatus == status.FOR_AUCTION,\n            \"Item not available for bidding!\"\n        );\n        require(\n            msg.sender != items[itemID].sellerID,\n            \"Seller can not bid at their item!\"\n        );\n        require(\n            items[itemID].auction.addressToBid[msg.sender].hasBid == false,\n            \"Can only bid once!\"\n        );\n\n        address buyerAddress = msg.sender;\n        items[itemID].auction.addressToBid[buyerAddress].hashedBid = hashedBid;\n        items[itemID].auction.addressToBid[buyerAddress].hasBid = true;\n        items[itemID].auction.bidders.push(msg.sender);\n    }\n\n    /**\n     * This function is used by a seller to stop the bidding.\n     * @param itemID is the id of the item\n     */\n    function stopBidding(uint256 itemID)\n        public\n        onlyValidItemID(itemID)\n        onlySeller(itemID)\n    {\n        require(\n            items[itemID].itemStatus == status.FOR_AUCTION,\n            \"Invalid request, item was not up for bidding!\"\n        );\n\n        items[itemID].itemStatus = status.PAY_AND_VERIFY;\n    }\n\n    //  function checkHash(string memory password)\n    //     public view\n    //     returns (uint256)\n    // {\n    //     return  keccak256(abi.encodePacked(msg.value));\n    // }\n\n    /**\n     * This function is used to convert uint256 to string\n     * Taken from here: https://stackoverflow.com/questions/47129173/how-to-convert-uint-to-string-in-solidity\n     * @param _i is a variable of type uint\n     * @return _uintAsString the string representation of _i\n     */\n    function uint2str(uint256 _i)\n        internal\n        pure\n        returns (string memory _uintAsString)\n    {\n        if (_i == 0) {\n            return \"0\";\n        }\n        uint256 j = _i;\n        uint256 len;\n        while (j != 0) {\n            len++;\n            j /= 10;\n        }\n        bytes memory bstr = new bytes(len);\n        uint256 k = len;\n        while (_i != 0) {\n            k = k - 1;\n            uint8 temp = (48 + uint8(_i - (_i / 10) * 10));\n            bytes1 b1 = bytes1(temp);\n            bstr[k] = b1;\n            _i /= 10;\n        }\n        return string(bstr);\n    }\n\n    /**\n     * This function is used by the bidders to pay and verify their bidding.\n     * @param itemID is the id of the item\n     * @param publicKey is the public key of the bidder\n     */\n    function payAndVerifyBid(\n        uint256 itemID,\n        string memory publicKey,\n        string memory password\n    ) public payable onlyValidItemID(itemID) {\n        require(\n            items[itemID].itemStatus == status.PAY_AND_VERIFY,\n            \"Invalid request, item's not up for pay and verify!\"\n        );\n        require(\n            keccak256(abi.encodePacked(password, uint2str(msg.value))) !=\n                items[itemID].auction.addressToBid[msg.sender].hashedBid,\n            \"Wrong Hash!\"\n        );\n        require(\n            items[itemID].auction.addressToBid[msg.sender].isVerified == false,\n            \"Already verified!\"\n        );\n\n        address buyerAddress = msg.sender;\n        items[itemID].auction.addressToBid[buyerAddress].password = password;\n        items[itemID].auction.addressToBid[buyerAddress].bidValue = msg.value;\n        items[itemID].auction.addressToBid[buyerAddress].isVerified = true;\n        addressToPublicKey[buyerAddress] = publicKey;\n    }\n\n    /**\n     * This function is used by a buyer to buy an item.\n     * @param itemID is the unique ID of the item\n     * @param publicKey is the unique publick key of the buyer\n     */\n    function buyItem(uint256 itemID, string memory publicKey)\n        public\n        payable\n        onlyValidItemID(itemID)\n    {\n        require(\n            items[itemID].itemStatus == status.FOR_SALE,\n            \"Item not available for sale!\"\n        );\n        require(\n            msg.sender != items[itemID].sellerID,\n            \"Seller can not buy their item!\"\n        );\n        require(\n            msg.value >= items[itemID].price,\n            \"Money less than the listing price!\"\n        );\n\n        address buyerAddress = msg.sender;\n        items[itemID].itemStatus = status.SOLD;\n        items[itemID].buyerID = buyerAddress;\n        addressToPublicKey[buyerAddress] = publicKey;\n    }\n\n    /**\n     * This function is used to find the bidder with highest bid.\n     * @param itemID is the id of the item\n     */\n    function firstPriceAuctionWinner(uint256 itemID)\n        private\n        onlyValidItemID(itemID)\n    {\n        address payable[] memory bidders = items[itemID].auction.bidders;\n        address winner = items[itemID].sellerID;\n        uint256 maxBidValue = 0;\n        for (uint256 i = 0; i < bidders.length; i++) {\n            Bid memory bid = items[itemID].auction.addressToBid[bidders[i]];\n            if (bid.isVerified == true && bid.bidValue >= maxBidValue) {\n                winner = bidders[i];\n                maxBidValue = bid.bidValue;\n            }\n        }\n        items[itemID].price = maxBidValue;\n        items[itemID].buyerID = winner;\n    }\n\n    /**\n     * This function is used to find the bidder with highest bid and second highest bid value.\n     * @param itemID is the id of the item\n     */\n    function secondPriceAuctionWinner(uint256 itemID)\n        private\n        onlyValidItemID(itemID)\n    {\n        address payable[] memory bidders = items[itemID].auction.bidders;\n        address winner = items[itemID].sellerID;\n        uint256 maxBidValue = 0;\n        uint256 secondMaxBidValue = 0;\n        for (uint256 i = 0; i < bidders.length; i++) {\n            Bid memory bid = items[itemID].auction.addressToBid[bidders[i]];\n            if (bid.isVerified == true && bid.bidValue >= maxBidValue) {\n                secondMaxBidValue = maxBidValue;\n                maxBidValue = bid.bidValue;\n                winner = bidders[i];\n            } else if (\n                bid.isVerified == true && bid.bidValue >= secondMaxBidValue\n            ) {\n                secondMaxBidValue = bid.bidValue;\n            }\n        }\n        items[itemID].buyerID = winner;\n        items[itemID].price = secondMaxBidValue;\n    }\n\n    /**\n     * @return absolute difference of @param a and @param b\n     */\n    function absDiff(uint256 a, uint256 b) internal pure returns (uint256) {\n        return a < b ? b - a : a - b;\n    }\n\n    /**\n     * This function is used to find the bidder with bid closest to average bid.\n     * @param itemID is the id of the item\n     */\n    function averagePriceAuctionWinner(uint256 itemID)\n        private\n        onlyValidItemID(itemID)\n    {\n        address payable[] memory bidders = items[itemID].auction.bidders;\n        uint256 totalBidValue = 0;\n        uint256 totalBidders = 0;\n        for (uint256 i = 0; i < bidders.length; i++) {\n            Bid memory bid = items[itemID].auction.addressToBid[bidders[i]];\n            if (bid.isVerified == true) {\n                totalBidValue += bid.bidValue;\n                totalBidders += 1;\n            }\n        }\n        address winner = items[itemID].sellerID;\n        uint256 winnerBidValue = 0;\n        uint256 diff = totalBidValue;\n        for (uint256 i = 0; i < bidders.length; i++) {\n            Bid memory bid = items[itemID].auction.addressToBid[bidders[i]];\n            if (\n                bid.isVerified == true &&\n                absDiff(bid.bidValue * totalBidders, totalBidValue) <= diff\n            ) {\n                diff = absDiff(bid.bidValue * totalBidders, totalBidValue);\n                winnerBidValue = bid.bidValue;\n                winner = bidders[i];\n            }\n        }\n        items[itemID].buyerID = winner;\n        items[itemID].price = winnerBidValue;\n    }\n\n    function compareStrings(string memory a, string memory b)\n        public\n        pure\n        returns (bool)\n    {\n        return (keccak256(abi.encodePacked((a))) ==\n            keccak256(abi.encodePacked((b))));\n    }\n\n    /**\n     * This function is used to find the winner of the auction and refund the bidders' money.\n     * @param itemID is the id of the item\n     */\n\n    function declareWinner(uint256 itemID) private onlyValidItemID(itemID) {\n        if (compareStrings(items[itemID].auction.auctionType, \"FirstPrice\"))\n            firstPriceAuctionWinner(itemID);\n        else if (\n            compareStrings(items[itemID].auction.auctionType, \"SecondPrice\")\n        ) secondPriceAuctionWinner(itemID);\n        else averagePriceAuctionWinner(itemID);\n    }\n\n    /**\n     * This function is used to refund bidders' money.\n     * @param itemID is the id of the item\n     */\n    function refundMoney(uint256 itemID) private onlyValidItemID(itemID) {\n        address payable[] memory bidders = items[itemID].auction.bidders;\n        for (uint256 i = 0; i < bidders.length; i++) {\n            Bid memory bid = items[itemID].auction.addressToBid[bidders[i]];\n            if (bid.isVerified == true) {\n                if (bidders[i] != items[itemID].buyerID)\n                    bidders[i].transfer(bid.bidValue);\n                else if (bid.bidValue != items[itemID].price)\n                    bidders[i].transfer(bid.bidValue - items[itemID].price);\n            }\n        }\n    }\n\n    /**\n     * This function is used by a seller to stop the auction and declare the winner.\n     * @param itemID is the id of the item\n     */\n    function stopAuction(uint256 itemID)\n        public\n        onlyValidItemID(itemID)\n        onlySeller(itemID)\n    {\n        require(\n            items[itemID].itemStatus == status.PAY_AND_VERIFY,\n            \"Invalid request, bids not verified or auction was already stopped!\"\n        );\n\n        items[itemID].itemStatus = status.SOLD;\n        declareWinner(itemID);\n        refundMoney(itemID);\n        if (items[itemID].buyerID == items[itemID].sellerID)\n            items[itemID].itemStatus = status.NO_BIDS;\n    }\n\n    /**\n     * This function is used to get the public Key of the buyer.\n     * @param itemID is the unique ID of the item\n     * @return Public Key of the buyer who bought item with ID = itemID\n     */\n    function getBuyerPublicKey(uint256 itemID)\n        public\n        view\n        onlyValidItemID(itemID)\n        returns (string memory)\n    {\n        require(\n            items[itemID].itemStatus == status.SOLD ||\n                items[itemID].itemStatus == status.DELIVERED,\n            \"Buyer not declared yet!\"\n        );\n        return addressToPublicKey[items[itemID].buyerID];\n    }\n\n    /**\n     * This function is used by a seller to transfer encrypted string to the buyer.\n     * @param itemID is the unique ID of the item\n     * @param encryptedItem is the encrypted Secret key sent by the seller using buyers Public Key\n     * @param publicKey is the public key of the seller\n     */\n    function deliverItem(\n        uint256 itemID,\n        string memory encryptedItem,\n        string memory publicKey\n    ) public onlyValidItemID(itemID) onlySeller(itemID) {\n        require(\n            items[itemID].itemStatus == status.SOLD,\n            \"Item not sold or already delivered!\"\n        );\n\n        addressToPublicKey[msg.sender] = publicKey;\n        items[itemID].encryptedString = encryptedItem;\n        items[itemID].itemStatus = status.DELIVERED;\n        items[itemID].sellerID.transfer(items[itemID].price);\n    }\n\n    /**\n     * This function is used to get the public Key of the seller.\n     * @param itemID is the unique ID of the item\n     * @return Public Key of the buyer who bought item with ID = itemID\n     */\n    function getSellerPublicKey(uint256 itemID)\n        public\n        view\n        onlyValidItemID(itemID)\n        onlyDeliveredItem(itemID)\n        returns (string memory)\n    {\n        return addressToPublicKey[items[itemID].sellerID];\n    }\n\n    /**\n     * This function is used by the buyer to get the encrypted Secret string.\n     * @param itemID is the unique ID of the item\n     * @return encryptedString provided by the seller which can be decrypted by the buyer using their Private Key\n     */\n    function getItem(uint256 itemID)\n        public\n        view\n        onlyValidItemID(itemID)\n        onlyBuyer(itemID)\n        onlyDeliveredItem(itemID)\n        returns (string memory)\n    {\n        return items[itemID].encryptedString;\n    }\n\n    function toAsciiString(address x) internal pure returns (string memory) {\n        bytes memory s = new bytes(40);\n        for (uint256 i = 0; i < 20; i++) {\n            bytes1 b = bytes1(uint8(uint256(uint160(x)) / (2**(8 * (19 - i)))));\n            bytes1 hi = bytes1(uint8(b) / 16);\n            bytes1 lo = bytes1(uint8(b) - 16 * uint8(hi));\n            s[2 * i] = char(hi);\n            s[2 * i + 1] = char(lo);\n        }\n        return string(s);\n    }\n\n    function char(bytes1 b) internal pure returns (bytes1 c) {\n        if (uint8(b) < 10) return bytes1(uint8(b) + 0x30);\n        else return bytes1(uint8(b) + 0x57);\n    }\n\n    /**\n     * This function is used by a buyer to view the items up for sale.\n     * @return a string containing list of all available Items for bidding\n     */\n    function viewItemsForSale() public view returns (string memory) {\n        string memory itemList = \"\";\n\n        for (uint256 i = 0; i < items.length; i++) {\n            if (items[i].itemStatus == status.FOR_SALE) {\n                itemList = string(abi.encodePacked(itemList, \"ID: \"));\n                itemList = string(\n                    abi.encodePacked(itemList, uint2str(items[i].listingID))\n                );\n                itemList = string(abi.encodePacked(itemList, \"; Name: \"));\n                itemList = string(abi.encodePacked(itemList, items[i].name));\n                itemList = string(\n                    abi.encodePacked(itemList, \"; Description: \")\n                );\n                itemList = string(\n                    abi.encodePacked(itemList, items[i].description)\n                );\n                itemList = string(abi.encodePacked(itemList, \"; SellerID: \"));\n                itemList = string(\n                    abi.encodePacked(itemList, toAsciiString(items[i].sellerID))\n                );\n                itemList = string(abi.encodePacked(itemList, \"; Status: \"));\n                itemList = string(\n                    abi.encodePacked(itemList, items[i].itemStatus)\n                );\n                itemList = string(abi.encodePacked(itemList, \"; Buyer: \"));\n                itemList = string(\n                    abi.encodePacked(itemList, toAsciiString(items[i].buyerID))\n                );\n                itemList = string(abi.encodePacked(itemList, \"; Price: \"));\n                itemList = string(\n                    abi.encodePacked(itemList, uint2str(items[i].price))\n                );\n                itemList = string(\n                    abi.encodePacked(itemList, \"; AuctionType: \")\n                );\n                itemList = string(\n                    abi.encodePacked(itemList, items[i].auction.auctionType)\n                );\n                itemList = string(abi.encodePacked(itemList, \"\\n\"));\n            }\n        }\n\n        return itemList;\n    }\n\n    /**\n     * This function is used by a buyer to view the listing.\n     * @return a string containing list of all available Items for bidding\n     */\n    function viewItemsForAuction() public view returns (string memory) {\n        string memory itemList = \"\";\n\n        for (uint256 i = 0; i < items.length; i++) {\n            if (\n                items[i].itemStatus == status.FOR_AUCTION ||\n                items[i].itemStatus == status.PAY_AND_VERIFY\n            ) {\n                itemList = string(abi.encodePacked(itemList, \"ID: \"));\n                itemList = string(\n                    abi.encodePacked(itemList, uint2str(items[i].listingID))\n                );\n                itemList = string(abi.encodePacked(itemList, \"; Name: \"));\n                itemList = string(abi.encodePacked(itemList, items[i].name));\n                itemList = string(\n                    abi.encodePacked(itemList, \"; Description: \")\n                );\n                itemList = string(\n                    abi.encodePacked(itemList, items[i].description)\n                );\n                itemList = string(abi.encodePacked(itemList, \"; SellerID: \"));\n                itemList = string(\n                    abi.encodePacked(itemList, toAsciiString(items[i].sellerID))\n                );\n                itemList = string(abi.encodePacked(itemList, \"; Status: \"));\n                itemList = string(\n                    abi.encodePacked(itemList, items[i].itemStatus)\n                );\n                itemList = string(abi.encodePacked(itemList, \"; Buyer: \"));\n                itemList = string(\n                    abi.encodePacked(itemList, toAsciiString(items[i].buyerID))\n                );\n                itemList = string(\n                    abi.encodePacked(itemList, \"; AuctionType: \")\n                );\n                itemList = string(\n                    abi.encodePacked(itemList, items[i].auction.auctionType)\n                );\n                itemList = string(abi.encodePacked(itemList, \"\\n\"));\n            }\n        }\n\n        return itemList;\n    }\n\n    /**\n     * This function is used by a buyer to view the listing.\n     * @return a string containing list of all available Items for bidding\n     */\n    function viewAllItems() public view returns (string memory) {\n        string memory itemList = \"\";\n\n        for (uint256 i = 0; i < items.length; i++) {\n            itemList = string(abi.encodePacked(itemList, \"ID: \"));\n            itemList = string(\n                abi.encodePacked(itemList, uint2str(items[i].listingID))\n            );\n            itemList = string(abi.encodePacked(itemList, \"; Name: \"));\n            itemList = string(abi.encodePacked(itemList, items[i].name));\n            itemList = string(abi.encodePacked(itemList, \"; Description: \"));\n            itemList = string(abi.encodePacked(itemList, items[i].description));\n            itemList = string(abi.encodePacked(itemList, \"; SellerID: \"));\n            itemList = string(\n                abi.encodePacked(itemList, toAsciiString(items[i].sellerID))\n            );\n            itemList = string(abi.encodePacked(itemList, \"; Status: \"));\n            itemList = string(abi.encodePacked(itemList, items[i].itemStatus));\n            itemList = string(abi.encodePacked(itemList, \"; Buyer: \"));\n            itemList = string(\n                abi.encodePacked(itemList, toAsciiString(items[i].buyerID))\n            );\n            itemList = string(abi.encodePacked(itemList, \"; Price: \"));\n            itemList = string(\n                abi.encodePacked(itemList, uint2str(items[i].price))\n            );\n            itemList = string(abi.encodePacked(itemList, \"; SecretString: \"));\n            itemList = string(\n                abi.encodePacked(itemList, items[i].encryptedString)\n            );\n            itemList = string(abi.encodePacked(itemList, \"; AuctionType: \"));\n            itemList = string(\n                abi.encodePacked(itemList, items[i].auction.auctionType)\n            );\n            itemList = string(abi.encodePacked(itemList, \"\\n\"));\n        }\n\n        return itemList;\n    }\n}\n",
  "sourcePath": "/Users/tanish/Documents/Semester 7/Distributing Trust and Blockchains/Assignments/2/Blockchain_Auction/2018114005/contracts/AModernWay.sol",
  "compiler": {
    "name": "solc",
    "version": "0.5.16+commit.9c3226ce.Emscripten.clang"
  },
  "schemaVersion": "3.4.3",
  "updatedAt": "2021-10-12T17:44:26.584Z",
  "devdoc": {
    "details": "Smart contract to facilitate buying, selling, auction of items securely",
    "methods": {
      "addItemForAuction(string,string,string)": {
        "params": {
          "auctionType": "describes the type of auction",
          "itemDescription": "describes the item the seller wants to sell",
          "itemName": "is the name of the item"
        }
      },
      "addItemForSale(string,string,uint256)": {
        "params": {
          "itemDescription": "describes the item the seller wants to sell",
          "itemName": "is the name of the item",
          "itemPrice": "is the price of the item with which the seller wants to sell it"
        }
      },
      "bidAtAuction(uint256,bytes32)": {
        "params": {
          "hashedBid": "is the hashed value of the bid to keep the bid sealed",
          "itemID": "is the id of the item"
        }
      },
      "buyItem(uint256,string)": {
        "params": {
          "itemID": "is the unique ID of the item",
          "publicKey": "is the unique publick key of the buyer"
        }
      },
      "deliverItem(uint256,string,string)": {
        "params": {
          "encryptedItem": "is the encrypted Secret key sent by the seller using buyers Public Key",
          "itemID": "is the unique ID of the item",
          "publicKey": "is the public key of the seller"
        }
      },
      "getBuyerPublicKey(uint256)": {
        "params": {
          "itemID": "is the unique ID of the item"
        },
        "return": "Public Key of the buyer who bought item with ID = itemID"
      },
      "getItem(uint256)": {
        "params": {
          "itemID": "is the unique ID of the item"
        },
        "return": "encryptedString provided by the seller which can be decrypted by the buyer using their Private Key"
      },
      "getSellerPublicKey(uint256)": {
        "params": {
          "itemID": "is the unique ID of the item"
        },
        "return": "Public Key of the buyer who bought item with ID = itemID"
      },
      "payAndVerifyBid(uint256,string,string)": {
        "params": {
          "itemID": "is the id of the item",
          "publicKey": "is the public key of the bidder"
        }
      },
      "stopAuction(uint256)": {
        "params": {
          "itemID": "is the id of the item"
        }
      },
      "stopBidding(uint256)": {
        "params": {
          "itemID": "is the id of the item"
        }
      },
      "viewAllItems()": {
        "return": "a string containing list of all available Items for bidding"
      },
      "viewItemsForAuction()": {
        "return": "a string containing list of all available Items for bidding"
      },
      "viewItemsForSale()": {
        "return": "a string containing list of all available Items for bidding"
      }
    },
    "title": "A Modern Way"
  },
  "userdoc": {
    "methods": {
      "addItemForAuction(string,string,string)": {
        "notice": "This function is used by a seller to add a new item for the auction."
      },
      "addItemForSale(string,string,uint256)": {
        "notice": "This function is used by a seller to add a new item for sale."
      },
      "bidAtAuction(uint256,bytes32)": {
        "notice": "This function is called by the bidders to bid on the item."
      },
      "buyItem(uint256,string)": {
        "notice": "This function is used by a buyer to buy an item."
      },
      "deliverItem(uint256,string,string)": {
        "notice": "This function is used by a seller to transfer encrypted string to the buyer."
      },
      "getBuyerPublicKey(uint256)": {
        "notice": "This function is used to get the public Key of the buyer."
      },
      "getItem(uint256)": {
        "notice": "This function is used by the buyer to get the encrypted Secret string."
      },
      "getSellerPublicKey(uint256)": {
        "notice": "This function is used to get the public Key of the seller."
      },
      "payAndVerifyBid(uint256,string,string)": {
        "notice": "This function is used by the bidders to pay and verify their bidding."
      },
      "stopAuction(uint256)": {
        "notice": "This function is used by a seller to stop the auction and declare the winner."
      },
      "stopBidding(uint256)": {
        "notice": "This function is used by a seller to stop the bidding."
      },
      "viewAllItems()": {
        "notice": "This function is used by a buyer to view the listing."
      },
      "viewItemsForAuction()": {
        "notice": "This function is used by a buyer to view the listing."
      },
      "viewItemsForSale()": {
        "notice": "This function is used by a buyer to view the items up for sale."
      }
    }
  }
}