{
  "contractName": "AModernWay",
  "abi": [
    {
      "constant": false,
      "inputs": [
        {
          "internalType": "string",
          "name": "itemName",
          "type": "string"
        },
        {
          "internalType": "string",
          "name": "itemDescription",
          "type": "string"
        },
        {
          "internalType": "uint256",
          "name": "itemPrice",
          "type": "uint256"
        }
      ],
      "name": "addItemForSale",
      "outputs": [],
      "payable": false,
      "stateMutability": "nonpayable",
      "type": "function"
    },
    {
      "constant": false,
      "inputs": [
        {
          "internalType": "string",
          "name": "itemName",
          "type": "string"
        },
        {
          "internalType": "string",
          "name": "itemDescription",
          "type": "string"
        },
        {
          "internalType": "enum AModernWay.AuctionType",
          "name": "auctionType",
          "type": "uint8"
        }
      ],
      "name": "addItemForAuction",
      "outputs": [],
      "payable": false,
      "stateMutability": "nonpayable",
      "type": "function"
    },
    {
      "constant": false,
      "inputs": [
        {
          "internalType": "uint256",
          "name": "itemID",
          "type": "uint256"
        },
        {
          "internalType": "bytes32",
          "name": "hashedBid",
          "type": "bytes32"
        }
      ],
      "name": "bidAtAuction",
      "outputs": [],
      "payable": false,
      "stateMutability": "nonpayable",
      "type": "function"
    },
    {
      "constant": false,
      "inputs": [
        {
          "internalType": "uint256",
          "name": "itemID",
          "type": "uint256"
        }
      ],
      "name": "stopBidding",
      "outputs": [],
      "payable": false,
      "stateMutability": "nonpayable",
      "type": "function"
    },
    {
      "constant": false,
      "inputs": [
        {
          "internalType": "uint256",
          "name": "itemID",
          "type": "uint256"
        },
        {
          "internalType": "string",
          "name": "publicKey",
          "type": "string"
        },
        {
          "internalType": "string",
          "name": "password",
          "type": "string"
        }
      ],
      "name": "payAndVerifyBid",
      "outputs": [],
      "payable": true,
      "stateMutability": "payable",
      "type": "function"
    },
    {
      "constant": false,
      "inputs": [
        {
          "internalType": "uint256",
          "name": "itemID",
          "type": "uint256"
        },
        {
          "internalType": "string",
          "name": "publicKey",
          "type": "string"
        }
      ],
      "name": "buyItem",
      "outputs": [],
      "payable": true,
      "stateMutability": "payable",
      "type": "function"
    },
    {
      "constant": false,
      "inputs": [
        {
          "internalType": "uint256",
          "name": "itemID",
          "type": "uint256"
        }
      ],
      "name": "stopAuction",
      "outputs": [],
      "payable": false,
      "stateMutability": "nonpayable",
      "type": "function"
    },
    {
      "constant": true,
      "inputs": [
        {
          "internalType": "uint256",
          "name": "itemID",
          "type": "uint256"
        }
      ],
      "name": "getBuyerPublicKey",
      "outputs": [
        {
          "internalType": "string",
          "name": "",
          "type": "string"
        }
      ],
      "payable": false,
      "stateMutability": "view",
      "type": "function"
    },
    {
      "constant": false,
      "inputs": [
        {
          "internalType": "uint256",
          "name": "itemID",
          "type": "uint256"
        },
        {
          "internalType": "string",
          "name": "encryptedItem",
          "type": "string"
        },
        {
          "internalType": "string",
          "name": "publicKey",
          "type": "string"
        }
      ],
      "name": "deliverItem",
      "outputs": [],
      "payable": false,
      "stateMutability": "nonpayable",
      "type": "function"
    },
    {
      "constant": true,
      "inputs": [
        {
          "internalType": "uint256",
          "name": "itemID",
          "type": "uint256"
        }
      ],
      "name": "getSellerPublicKey",
      "outputs": [
        {
          "internalType": "string",
          "name": "",
          "type": "string"
        }
      ],
      "payable": false,
      "stateMutability": "view",
      "type": "function"
    },
    {
      "constant": true,
      "inputs": [
        {
          "internalType": "uint256",
          "name": "itemID",
          "type": "uint256"
        }
      ],
      "name": "getItem",
      "outputs": [
        {
          "internalType": "string",
          "name": "",
          "type": "string"
        }
      ],
      "payable": false,
      "stateMutability": "view",
      "type": "function"
    },
    {
      "constant": true,
      "inputs": [],
      "name": "viewItemsForSale",
      "outputs": [
        {
          "internalType": "string",
          "name": "",
          "type": "string"
        }
      ],
      "payable": false,
      "stateMutability": "view",
      "type": "function"
    },
    {
      "constant": true,
      "inputs": [],
      "name": "viewItemsForAuction",
      "outputs": [
        {
          "internalType": "string",
          "name": "",
          "type": "string"
        }
      ],
      "payable": false,
      "stateMutability": "view",
      "type": "function"
    },
    {
      "constant": true,
      "inputs": [],
      "name": "viewAllItems",
      "outputs": [
        {
          "internalType": "string",
          "name": "",
          "type": "string"
        }
      ],
      "payable": false,
      "stateMutability": "view",
      "type": "function"
    }
  ],
  "bytecode": "0x60806040526000805534801561001457600080fd5b50616af880620000256000396000f3fe6080604052600436106100dc5760003560e01c8063b583b3051161007f578063d36244b011610059578063d36244b014610910578063ed0c0d4f14610a6c578063f510f6ae14610afc578063fc57579d14610b37576100dc565b8063b583b30514610587578063c06882b2146106f0578063cdefb762146107a4576100dc565b80633129e773116100bb5780633129e773146102605780634e71b35c1461031457806364096a18146103d957806365022f1e14610542576100dc565b80620ad21c146100e1578063021baa16146101715780631859dc24146101ac575b600080fd5b3480156100ed57600080fd5b506100f6610bc7565b6040518080602001828103825283818151815260200191508051906020019080838360005b8381101561013657808201518184015260208101905061011b565b50505050905090810190601f1680156101635780820380516001836020036101000a031916815260200191505b509250505060405180910390f35b34801561017d57600080fd5b506101aa6004803603602081101561019457600080fd5b810190808035906020019092919050505061161b565b005b3480156101b857600080fd5b506101e5600480360360208110156101cf57600080fd5b8101908080359060200190929190505050611851565b6040518080602001828103825283818151815260200191508051906020019080838360005b8381101561022557808201518184015260208101905061020a565b50505050905090810190601f1680156102525780820380516001836020036101000a031916815260200191505b509250505060405180910390f35b34801561026c57600080fd5b506102996004803603602081101561028357600080fd5b8101908080359060200190929190505050611aec565b6040518080602001828103825283818151815260200191508051906020019080838360005b838110156102d95780820151818401526020810190506102be565b50505050905090810190601f1680156103065780820380516001836020036101000a031916815260200191505b509250505060405180910390f35b6103d76004803603604081101561032a57600080fd5b81019080803590602001909291908035906020019064010000000081111561035157600080fd5b82018360208201111561036357600080fd5b8035906020019184600183028401116401000000008311171561038557600080fd5b91908080601f016020809104026020016040519081016040528093929190818152602001838380828437600081840152601f19601f820116905080830192505050505050509192919290505050611da2565b005b3480156103e557600080fd5b50610540600480360360608110156103fc57600080fd5b810190808035906020019064010000000081111561041957600080fd5b82018360208201111561042b57600080fd5b8035906020019184600183028401116401000000008311171561044d57600080fd5b91908080601f016020809104026020016040519081016040528093929190818152602001838380828437600081840152601f19601f820116905080830192505050505050509192919290803590602001906401000000008111156104b057600080fd5b8201836020820111156104c257600080fd5b803590602001918460018302840111640100000000831117156104e457600080fd5b91908080601f016020809104026020016040519081016040528093929190818152602001838380828437600081840152601f19601f82011690508083019250505050505050919291929080359060200190929190505050612124565b005b34801561054e57600080fd5b506105856004803603604081101561056557600080fd5b810190808035906020019092919080359060200190929190505050612388565b005b34801561059357600080fd5b506106ee600480360360608110156105aa57600080fd5b8101908080359060200190929190803590602001906401000000008111156105d157600080fd5b8201836020820111156105e357600080fd5b8035906020019184600183028401116401000000008311171561060557600080fd5b91908080601f016020809104026020016040519081016040528093929190818152602001838380828437600081840152601f19601f8201169050808301925050505050505091929192908035906020019064010000000081111561066857600080fd5b82018360208201111561067a57600080fd5b8035906020019184600183028401116401000000008311171561069c57600080fd5b91908080601f016020809104026020016040519081016040528093929190818152602001838380828437600081840152601f19601f8201169050808301925050505050505091929192905050506127d2565b005b3480156106fc57600080fd5b506107296004803603602081101561071357600080fd5b8101908080359060200190929190505050612b35565b6040518080602001828103825283818151815260200191508051906020019080838360005b8381101561076957808201518184015260208101905061074e565b50505050905090810190601f1680156107965780820380516001836020036101000a031916815260200191505b509250505060405180910390f35b3480156107b057600080fd5b5061090e600480360360608110156107c757600080fd5b81019080803590602001906401000000008111156107e457600080fd5b8201836020820111156107f657600080fd5b8035906020019184600183028401116401000000008311171561081857600080fd5b91908080601f016020809104026020016040519081016040528093929190818152602001838380828437600081840152601f19601f8201169050808301925050505050505091929192908035906020019064010000000081111561087b57600080fd5b82018360208201111561088d57600080fd5b803590602001918460018302840111640100000000831117156108af57600080fd5b91908080601f016020809104026020016040519081016040528093929190818152602001838380828437600081840152601f19601f820116905080830192505050505050509192919290803560ff169060200190929190505050612d69565b005b610a6a6004803603606081101561092657600080fd5b81019080803590602001909291908035906020019064010000000081111561094d57600080fd5b82018360208201111561095f57600080fd5b8035906020019184600183028401116401000000008311171561098157600080fd5b91908080601f016020809104026020016040519081016040528093929190818152602001838380828437600081840152601f19601f820116905080830192505050505050509192919290803590602001906401000000008111156109e457600080fd5b8201836020820111156109f657600080fd5b80359060200191846001830284011164010000000083111715610a1857600080fd5b91908080601f016020809104026020016040519081016040528093929190818152602001838380828437600081840152601f19601f820116905080830192505050505050509192919290505050612ff8565b005b348015610a7857600080fd5b50610a8161354b565b6040518080602001828103825283818151815260200191508051906020019080838360005b83811015610ac1578082015181840152602081019050610aa6565b50505050905090810190601f168015610aee5780820380516001836020036101000a031916815260200191505b509250505060405180910390f35b348015610b0857600080fd5b50610b3560048036036020811015610b1f57600080fd5b81019080803590602001909291905050506141fd565b005b348015610b4357600080fd5b50610b4c614537565b6040518080602001828103825283818151815260200191508051906020019080838360005b83811015610b8c578082015181840152602081019050610b71565b50505050905090810190601f168015610bb95780820380516001836020036101000a031916815260200191505b509250505060405180910390f35b60608060405180602001604052806000815250905060008090505b6002805490508110156116135760006005811115610bfc57fe5b60028281548110610c0957fe5b90600052602060002090600a020160040160149054906101000a900460ff166005811115610c3357fe5b1480610c80575060026005811115610c4757fe5b60028281548110610c5457fe5b90600052602060002090600a020160040160149054906101000a900460ff166005811115610c7e57fe5b145b1561160657816040516020018082805190602001908083835b60208310610cbc5780518252602082019150602081019050602083039250610c99565b6001836020036101000a038019825116818451168082178552505050505050905001807f49443a2000000000000000000000000000000000000000000000000000000000815250600401915050604051602081830303815290604052915081610d4260028381548110610d2b57fe5b90600052602060002090600a0201600001546150ba565b6040516020018083805190602001908083835b60208310610d785780518252602082019150602081019050602083039250610d55565b6001836020036101000a03801982511681845116808217855250505050505090500182805190602001908083835b60208310610dc95780518252602082019150602081019050602083039250610da6565b6001836020036101000a038019825116818451168082178552505050505050905001925050506040516020818303038152906040529150816040516020018082805190602001908083835b60208310610e375780518252602082019150602081019050602083039250610e14565b6001836020036101000a038019825116818451168082178552505050505050905001807f3b204e616d653a2000000000000000000000000000000000000000000000000081525060080191505060405160208183030381529060405291508160028281548110610ea357fe5b90600052602060002090600a02016001016040516020018083805190602001908083835b60208310610eea5780518252602082019150602081019050602083039250610ec7565b6001836020036101000a03801982511681845116808217855250505050505090500182805460018160011615610100020316600290048015610f635780601f10610f41576101008083540402835291820191610f63565b820191906000526020600020905b815481529060010190602001808311610f4f575b5050925050506040516020818303038152906040529150816040516020018082805190602001908083835b60208310610fb15780518252602082019150602081019050602083039250610f8e565b6001836020036101000a038019825116818451168082178552505050505050905001807f3b204465736372697074696f6e3a200000000000000000000000000000000000815250600f019150506040516020818303038152906040529150816002828154811061101d57fe5b90600052602060002090600a02016002016040516020018083805190602001908083835b602083106110645780518252602082019150602081019050602083039250611041565b6001836020036101000a038019825116818451168082178552505050505050905001828054600181600116156101000203166002900480156110dd5780601f106110bb5761010080835404028352918201916110dd565b820191906000526020600020905b8154815290600101906020018083116110c9575b5050925050506040516020818303038152906040529150816040516020018082805190602001908083835b6020831061112b5780518252602082019150602081019050602083039250611108565b6001836020036101000a038019825116818451168082178552505050505050905001807f3b2053656c6c657249443a200000000000000000000000000000000000000000815250600c019150506040516020818303038152906040529150816111d16002838154811061119a57fe5b90600052602060002090600a020160040160009054906101000a900473ffffffffffffffffffffffffffffffffffffffff166151f3565b6040516020018083805190602001908083835b6020831061120757805182526020820191506020810190506020830392506111e4565b6001836020036101000a03801982511681845116808217855250505050505090500182805190602001908083835b602083106112585780518252602082019150602081019050602083039250611235565b6001836020036101000a038019825116818451168082178552505050505050905001925050506040516020818303038152906040529150816040516020018082805190602001908083835b602083106112c657805182526020820191506020810190506020830392506112a3565b6001836020036101000a038019825116818451168082178552505050505050905001807f3b205374617475733a2000000000000000000000000000000000000000000000815250600a019150506040516020818303038152906040529150816002828154811061133257fe5b90600052602060002090600a020160040160149054906101000a900460ff166040516020018083805190602001908083835b602083106113875780518252602082019150602081019050602083039250611364565b6001836020036101000a0380198251168184511680821785525050505050509050018260058111156113b557fe5b60ff1660f81b8152600101925050506040516020818303038152906040529150816040516020018082805190602001908083835b6020831061140c57805182526020820191506020810190506020830392506113e9565b6001836020036101000a038019825116818451168082178552505050505050905001807f3b2042757965723a2000000000000000000000000000000000000000000000008152506009019150506040516020818303038152906040529150816114b26002838154811061147b57fe5b90600052602060002090600a020160050160009054906101000a900473ffffffffffffffffffffffffffffffffffffffff166151f3565b6040516020018083805190602001908083835b602083106114e857805182526020820191506020810190506020830392506114c5565b6001836020036101000a03801982511681845116808217855250505050505090500182805190602001908083835b602083106115395780518252602082019150602081019050602083039250611516565b6001836020036101000a038019825116818451168082178552505050505050905001925050506040516020818303038152906040529150816040516020018082805190602001908083835b602083106115a75780518252602082019150602081019050602083039250611584565b6001836020036101000a038019825116818451168082178552505050505050905001807f0a0000000000000000000000000000000000000000000000000000000000000081525060010191505060405160208183030381529060405291505b8080600101915050610be2565b508091505090565b806000548110611693576040517f08c379a00000000000000000000000000000000000000000000000000000000081526004018080602001828103825260108152602001807f496e76616c6964206974656d204944210000000000000000000000000000000081525060200191505060405180910390fd5b81600281815481106116a157fe5b90600052602060002090600a020160040160009054906101000a900473ffffffffffffffffffffffffffffffffffffffff1673ffffffffffffffffffffffffffffffffffffffff163373ffffffffffffffffffffffffffffffffffffffff1614611773576040517f08c379a00000000000000000000000000000000000000000000000000000000081526004018080602001828103825260188152602001807f596f7520646f206e6f74206f776e20746865206974656d21000000000000000081525060200191505060405180910390fd5b6000600581111561178057fe5b6002848154811061178d57fe5b90600052602060002090600a020160040160149054906101000a900460ff1660058111156117b757fe5b1461180d576040517f08c379a000000000000000000000000000000000000000000000000000000000815260040180806020018281038252602d81526020018061699e602d913960400191505060405180910390fd5b600280848154811061181b57fe5b90600052602060002090600a020160040160146101000a81548160ff0219169083600581111561184757fe5b0217905550505050565b60608160005481106118cb576040517f08c379a00000000000000000000000000000000000000000000000000000000081526004018080602001828103825260108152602001807f496e76616c6964206974656d204944210000000000000000000000000000000081525060200191505060405180910390fd5b600360058111156118d857fe5b600284815481106118e557fe5b90600052602060002090600a020160040160149054906101000a900460ff16600581111561190f57fe5b148061195c57506004600581111561192357fe5b6002848154811061193057fe5b90600052602060002090600a020160040160149054906101000a900460ff16600581111561195a57fe5b145b6119ce576040517f08c379a00000000000000000000000000000000000000000000000000000000081526004018080602001828103825260178152602001807f4275796572206e6f74206465636c61726564207965742100000000000000000081525060200191505060405180910390fd5b60016000600285815481106119df57fe5b90600052602060002090600a020160050160009054906101000a900473ffffffffffffffffffffffffffffffffffffffff1673ffffffffffffffffffffffffffffffffffffffff1673ffffffffffffffffffffffffffffffffffffffff1681526020019081526020016000208054600181600116156101000203166002900480601f016020809104026020016040519081016040528092919081815260200182805460018160011615610100020316600290048015611adf5780601f10611ab457610100808354040283529160200191611adf565b820191906000526020600020905b815481529060010190602001808311611ac257829003601f168201915b5050505050915050919050565b6060816000548110611b66576040517f08c379a00000000000000000000000000000000000000000000000000000000081526004018080602001828103825260108152602001807f496e76616c6964206974656d204944210000000000000000000000000000000081525060200191505060405180910390fd5b8260028181548110611b7457fe5b90600052602060002090600a020160050160009054906101000a900473ffffffffffffffffffffffffffffffffffffffff1673ffffffffffffffffffffffffffffffffffffffff163373ffffffffffffffffffffffffffffffffffffffff1614611c46576040517f08c379a00000000000000000000000000000000000000000000000000000000081526004018080602001828103825260188152602001807f596f7520646f206e6f74206f776e20746865206974656d21000000000000000081525060200191505060405180910390fd5b8360046005811115611c5457fe5b60028281548110611c6157fe5b90600052602060002090600a020160040160149054906101000a900460ff166005811115611c8b57fe5b14611ce1576040517f08c379a0000000000000000000000000000000000000000000000000000000008152600401808060200182810382526041815260200180616a416041913960600191505060405180910390fd5b60028581548110611cee57fe5b90600052602060002090600a02016006018054600181600116156101000203166002900480601f016020809104026020016040519081016040528092919081815260200182805460018160011615610100020316600290048015611d935780601f10611d6857610100808354040283529160200191611d93565b820191906000526020600020905b815481529060010190602001808311611d7657829003601f168201915b50505050509350505050919050565b816000548110611e1a576040517f08c379a00000000000000000000000000000000000000000000000000000000081526004018080602001828103825260108152602001807f496e76616c6964206974656d204944210000000000000000000000000000000081525060200191505060405180910390fd5b60016005811115611e2757fe5b60028481548110611e3457fe5b90600052602060002090600a020160040160149054906101000a900460ff166005811115611e5e57fe5b14611ed1576040517f08c379a000000000000000000000000000000000000000000000000000000000815260040180806020018281038252601c8152602001807f4974656d206e6f7420617661696c61626c6520666f722073616c65210000000081525060200191505060405180910390fd5b60028381548110611ede57fe5b90600052602060002090600a020160040160009054906101000a900473ffffffffffffffffffffffffffffffffffffffff1673ffffffffffffffffffffffffffffffffffffffff163373ffffffffffffffffffffffffffffffffffffffff161415611fb1576040517f08c379a000000000000000000000000000000000000000000000000000000000815260040180806020018281038252601e8152602001807f53656c6c65722063616e206e6f7420627579207468656972206974656d21000081525060200191505060405180910390fd5b60028381548110611fbe57fe5b90600052602060002090600a020160030154341015612028576040517f08c379a000000000000000000000000000000000000000000000000000000000815260040180806020018281038252602281526020018061697c6022913960400191505060405180910390fd5b600033905060036002858154811061203c57fe5b90600052602060002090600a020160040160146101000a81548160ff0219169083600581111561206857fe5b0217905550806002858154811061207b57fe5b90600052602060002090600a020160050160006101000a81548173ffffffffffffffffffffffffffffffffffffffff021916908373ffffffffffffffffffffffffffffffffffffffff16021790555082600160008373ffffffffffffffffffffffffffffffffffffffff1673ffffffffffffffffffffffffffffffffffffffff168152602001908152602001600020908051906020019061211d929190616680565b5050505050565b61212c616700565b600080815480929190600101919050558160000181815250508381602001819052508281604001819052508181606001818152505033816080019073ffffffffffffffffffffffffffffffffffffffff16908173ffffffffffffffffffffffffffffffffffffffff168152505060018160a0019060058111156121ab57fe5b908160058111156121b857fe5b81525050604051806080016040528060418152602001616a41604191398160e001819052506002819080600181540180825580915050906001820390600052602060002090600a020160009091929091909150600082015181600001556020820151816001019080519060200190612231929190616789565b50604082015181600201908051906020019061224e929190616789565b506060820151816003015560808201518160040160006101000a81548173ffffffffffffffffffffffffffffffffffffffff021916908373ffffffffffffffffffffffffffffffffffffffff16021790555060a08201518160040160146101000a81548160ff021916908360058111156122c457fe5b021790555060c08201518160050160006101000a81548173ffffffffffffffffffffffffffffffffffffffff021916908373ffffffffffffffffffffffffffffffffffffffff16021790555060e082015181600601908051906020019061232c929190616789565b506101008201518160070160008201518160000160006101000a81548160ff0219169083600281111561235b57fe5b0217905550602082015181600201908051906020019061237c929190616809565b50505050505050505050565b816000548110612400576040517f08c379a00000000000000000000000000000000000000000000000000000000081526004018080602001828103825260108152602001807f496e76616c6964206974656d204944210000000000000000000000000000000081525060200191505060405180910390fd5b6000600581111561240d57fe5b6002848154811061241a57fe5b90600052602060002090600a020160040160149054906101000a900460ff16600581111561244457fe5b146124b7576040517f08c379a000000000000000000000000000000000000000000000000000000000815260040180806020018281038252601f8152602001807f4974656d206e6f7420617661696c61626c6520666f722062696464696e67210081525060200191505060405180910390fd5b600283815481106124c457fe5b90600052602060002090600a020160040160009054906101000a900473ffffffffffffffffffffffffffffffffffffffff1673ffffffffffffffffffffffffffffffffffffffff163373ffffffffffffffffffffffffffffffffffffffff16141561257a576040517f08c379a0000000000000000000000000000000000000000000000000000000008152600401808060200182810382526021815260200180616a206021913960400191505060405180910390fd5b600015156002848154811061258b57fe5b90600052602060002090600a020160070160010160003373ffffffffffffffffffffffffffffffffffffffff1673ffffffffffffffffffffffffffffffffffffffff16815260200190815260200160002060030160009054906101000a900460ff16151514612662576040517f08c379a00000000000000000000000000000000000000000000000000000000081526004018080602001828103825260128152602001807f43616e206f6e6c7920626964206f6e636521000000000000000000000000000081525060200191505060405180910390fd5b6000339050826002858154811061267557fe5b90600052602060002090600a020160070160010160008373ffffffffffffffffffffffffffffffffffffffff1673ffffffffffffffffffffffffffffffffffffffff168152602001908152602001600020600001819055506001600285815481106126dc57fe5b90600052602060002090600a020160070160010160008373ffffffffffffffffffffffffffffffffffffffff1673ffffffffffffffffffffffffffffffffffffffff16815260200190815260200160002060030160006101000a81548160ff0219169083151502179055506002848154811061275457fe5b90600052602060002090600a02016007016002013390806001815401808255809150509060018203906000526020600020016000909192909190916101000a81548173ffffffffffffffffffffffffffffffffffffffff021916908373ffffffffffffffffffffffffffffffffffffffff1602179055505050505050565b82600054811061284a576040517f08c379a00000000000000000000000000000000000000000000000000000000081526004018080602001828103825260108152602001807f496e76616c6964206974656d204944210000000000000000000000000000000081525060200191505060405180910390fd5b836002818154811061285857fe5b90600052602060002090600a020160040160009054906101000a900473ffffffffffffffffffffffffffffffffffffffff1673ffffffffffffffffffffffffffffffffffffffff163373ffffffffffffffffffffffffffffffffffffffff161461292a576040517f08c379a00000000000000000000000000000000000000000000000000000000081526004018080602001828103825260188152602001807f596f7520646f206e6f74206f776e20746865206974656d21000000000000000081525060200191505060405180910390fd5b6003600581111561293757fe5b6002868154811061294457fe5b90600052602060002090600a020160040160149054906101000a900460ff16600581111561296e57fe5b146129c4576040517f08c379a00000000000000000000000000000000000000000000000000000000081526004018080602001828103825260238152602001806169fd6023913960400191505060405180910390fd5b82600160003373ffffffffffffffffffffffffffffffffffffffff1673ffffffffffffffffffffffffffffffffffffffff1681526020019081526020016000209080519060200190612a17929190616680565b508360028681548110612a2657fe5b90600052602060002090600a02016006019080519060200190612a4a929190616680565b50600460028681548110612a5a57fe5b90600052602060002090600a020160040160146101000a81548160ff02191690836005811115612a8657fe5b021790555060028581548110612a9857fe5b90600052602060002090600a020160040160009054906101000a900473ffffffffffffffffffffffffffffffffffffffff1673ffffffffffffffffffffffffffffffffffffffff166108fc60028781548110612af057fe5b90600052602060002090600a0201600301549081150290604051600060405180830381858888f19350505050158015612b2d573d6000803e3d6000fd5b505050505050565b6060816000548110612baf576040517f08c379a00000000000000000000000000000000000000000000000000000000081526004018080602001828103825260108152602001807f496e76616c6964206974656d204944210000000000000000000000000000000081525060200191505060405180910390fd5b8260046005811115612bbd57fe5b60028281548110612bca57fe5b90600052602060002090600a020160040160149054906101000a900460ff166005811115612bf457fe5b14612c4a576040517f08c379a0000000000000000000000000000000000000000000000000000000008152600401808060200182810382526041815260200180616a416041913960600191505060405180910390fd5b6001600060028681548110612c5b57fe5b90600052602060002090600a020160040160009054906101000a900473ffffffffffffffffffffffffffffffffffffffff1673ffffffffffffffffffffffffffffffffffffffff1673ffffffffffffffffffffffffffffffffffffffff1681526020019081526020016000208054600181600116156101000203166002900480601f016020809104026020016040519081016040528092919081815260200182805460018160011615610100020316600290048015612d5b5780601f10612d3057610100808354040283529160200191612d5b565b820191906000526020600020905b815481529060010190602001808311612d3e57829003601f168201915b505050505092505050919050565b612d71616700565b6000808154809291906001019190505581600001818152505083816020018190525082816040018190525033816080019073ffffffffffffffffffffffffffffffffffffffff16908173ffffffffffffffffffffffffffffffffffffffff168152505060008160a001906005811115612de657fe5b90816005811115612df357fe5b81525050612dff616893565b8281600001906002811115612e1057fe5b90816002811115612e1d57fe5b8152505080826101000181905250604051806080016040528060418152602001616a41604191398260e001819052506002829080600181540180825580915050906001820390600052602060002090600a020160009091929091909150600082015181600001556020820151816001019080519060200190612ea0929190616789565b506040820151816002019080519060200190612ebd929190616789565b506060820151816003015560808201518160040160006101000a81548173ffffffffffffffffffffffffffffffffffffffff021916908373ffffffffffffffffffffffffffffffffffffffff16021790555060a08201518160040160146101000a81548160ff02191690836005811115612f3357fe5b021790555060c08201518160050160006101000a81548173ffffffffffffffffffffffffffffffffffffffff021916908373ffffffffffffffffffffffffffffffffffffffff16021790555060e0820151816006019080519060200190612f9b929190616789565b506101008201518160070160008201518160000160006101000a81548160ff02191690836002811115612fca57fe5b02179055506020820151816002019080519060200190612feb929190616809565b5050505050505050505050565b826000548110613070576040517f08c379a00000000000000000000000000000000000000000000000000000000081526004018080602001828103825260108152602001807f496e76616c6964206974656d204944210000000000000000000000000000000081525060200191505060405180910390fd5b6002600581111561307d57fe5b6002858154811061308a57fe5b90600052602060002090600a020160040160149054906101000a900460ff1660058111156130b457fe5b1461310a576040517f08c379a00000000000000000000000000000000000000000000000000000000081526004018080602001828103825260328152602001806169cb6032913960400191505060405180910390fd5b6002848154811061311757fe5b90600052602060002090600a020160070160010160003373ffffffffffffffffffffffffffffffffffffffff1673ffffffffffffffffffffffffffffffffffffffff1681526020019081526020016000206000015482613176346150ba565b6040516020018083805190602001908083835b602083106131ac5780518252602082019150602081019050602083039250613189565b6001836020036101000a03801982511681845116808217855250505050505090500182805190602001908083835b602083106131fd57805182526020820191506020810190506020830392506131da565b6001836020036101000a038019825116818451168082178552505050505050905001925050506040516020818303038152906040528051906020012014156132ad576040517f08c379a000000000000000000000000000000000000000000000000000000000815260040180806020018281038252600b8152602001807f57726f6e6720486173682100000000000000000000000000000000000000000081525060200191505060405180910390fd5b60001515600285815481106132be57fe5b90600052602060002090600a020160070160010160003373ffffffffffffffffffffffffffffffffffffffff1673ffffffffffffffffffffffffffffffffffffffff16815260200190815260200160002060030160019054906101000a900460ff16151514613395576040517f08c379a00000000000000000000000000000000000000000000000000000000081526004018080602001828103825260118152602001807f416c72656164792076657269666965642100000000000000000000000000000081525060200191505060405180910390fd5b600033905082600286815481106133a857fe5b90600052602060002090600a020160070160010160008373ffffffffffffffffffffffffffffffffffffffff1673ffffffffffffffffffffffffffffffffffffffff168152602001908152602001600020600101908051906020019061340f929190616680565b50346002868154811061341e57fe5b90600052602060002090600a020160070160010160008373ffffffffffffffffffffffffffffffffffffffff1673ffffffffffffffffffffffffffffffffffffffff1681526020019081526020016000206002018190555060016002868154811061348557fe5b90600052602060002090600a020160070160010160008373ffffffffffffffffffffffffffffffffffffffff1673ffffffffffffffffffffffffffffffffffffffff16815260200190815260200160002060030160016101000a81548160ff02191690831515021790555083600160008373ffffffffffffffffffffffffffffffffffffffff1673ffffffffffffffffffffffffffffffffffffffff1681526020019081526020016000209080519060200190613543929190616680565b505050505050565b60608060405180602001604052806000815250905060008090505b6002805490508110156141f557816040516020018082805190602001908083835b602083106135aa5780518252602082019150602081019050602083039250613587565b6001836020036101000a038019825116818451168082178552505050505050905001807f49443a20000000000000000000000000000000000000000000000000000000008152506004019150506040516020818303038152906040529150816136306002838154811061361957fe5b90600052602060002090600a0201600001546150ba565b6040516020018083805190602001908083835b602083106136665780518252602082019150602081019050602083039250613643565b6001836020036101000a03801982511681845116808217855250505050505090500182805190602001908083835b602083106136b75780518252602082019150602081019050602083039250613694565b6001836020036101000a038019825116818451168082178552505050505050905001925050506040516020818303038152906040529150816040516020018082805190602001908083835b602083106137255780518252602082019150602081019050602083039250613702565b6001836020036101000a038019825116818451168082178552505050505050905001807f3b204e616d653a200000000000000000000000000000000000000000000000008152506008019150506040516020818303038152906040529150816002828154811061379157fe5b90600052602060002090600a02016001016040516020018083805190602001908083835b602083106137d857805182526020820191506020810190506020830392506137b5565b6001836020036101000a038019825116818451168082178552505050505050905001828054600181600116156101000203166002900480156138515780601f1061382f576101008083540402835291820191613851565b820191906000526020600020905b81548152906001019060200180831161383d575b5050925050506040516020818303038152906040529150816040516020018082805190602001908083835b6020831061389f578051825260208201915060208101905060208303925061387c565b6001836020036101000a038019825116818451168082178552505050505050905001807f3b204465736372697074696f6e3a200000000000000000000000000000000000815250600f019150506040516020818303038152906040529150816002828154811061390b57fe5b90600052602060002090600a02016002016040516020018083805190602001908083835b60208310613952578051825260208201915060208101905060208303925061392f565b6001836020036101000a038019825116818451168082178552505050505050905001828054600181600116156101000203166002900480156139cb5780601f106139a95761010080835404028352918201916139cb565b820191906000526020600020905b8154815290600101906020018083116139b7575b5050925050506040516020818303038152906040529150816040516020018082805190602001908083835b60208310613a1957805182526020820191506020810190506020830392506139f6565b6001836020036101000a038019825116818451168082178552505050505050905001807f3b2053656c6c657249443a200000000000000000000000000000000000000000815250600c01915050604051602081830303815290604052915081613abf60028381548110613a8857fe5b90600052602060002090600a020160040160009054906101000a900473ffffffffffffffffffffffffffffffffffffffff166151f3565b6040516020018083805190602001908083835b60208310613af55780518252602082019150602081019050602083039250613ad2565b6001836020036101000a03801982511681845116808217855250505050505090500182805190602001908083835b60208310613b465780518252602082019150602081019050602083039250613b23565b6001836020036101000a038019825116818451168082178552505050505050905001925050506040516020818303038152906040529150816040516020018082805190602001908083835b60208310613bb45780518252602082019150602081019050602083039250613b91565b6001836020036101000a038019825116818451168082178552505050505050905001807f3b205374617475733a2000000000000000000000000000000000000000000000815250600a0191505060405160208183030381529060405291508160028281548110613c2057fe5b90600052602060002090600a020160040160149054906101000a900460ff166040516020018083805190602001908083835b60208310613c755780518252602082019150602081019050602083039250613c52565b6001836020036101000a038019825116818451168082178552505050505050905001826005811115613ca357fe5b60ff1660f81b8152600101925050506040516020818303038152906040529150816040516020018082805190602001908083835b60208310613cfa5780518252602082019150602081019050602083039250613cd7565b6001836020036101000a038019825116818451168082178552505050505050905001807f3b2042757965723a200000000000000000000000000000000000000000000000815250600901915050604051602081830303815290604052915081613da060028381548110613d6957fe5b90600052602060002090600a020160050160009054906101000a900473ffffffffffffffffffffffffffffffffffffffff166151f3565b6040516020018083805190602001908083835b60208310613dd65780518252602082019150602081019050602083039250613db3565b6001836020036101000a03801982511681845116808217855250505050505090500182805190602001908083835b60208310613e275780518252602082019150602081019050602083039250613e04565b6001836020036101000a038019825116818451168082178552505050505050905001925050506040516020818303038152906040529150816040516020018082805190602001908083835b60208310613e955780518252602082019150602081019050602083039250613e72565b6001836020036101000a038019825116818451168082178552505050505050905001807f3b2050726963653a200000000000000000000000000000000000000000000000815250600901915050604051602081830303815290604052915081613f1b60028381548110613f0457fe5b90600052602060002090600a0201600301546150ba565b6040516020018083805190602001908083835b60208310613f515780518252602082019150602081019050602083039250613f2e565b6001836020036101000a03801982511681845116808217855250505050505090500182805190602001908083835b60208310613fa25780518252602082019150602081019050602083039250613f7f565b6001836020036101000a038019825116818451168082178552505050505050905001925050506040516020818303038152906040529150816040516020018082805190602001908083835b602083106140105780518252602082019150602081019050602083039250613fed565b6001836020036101000a038019825116818451168082178552505050505050905001807f3b20536563726574537472696e673a20000000000000000000000000000000008152506010019150506040516020818303038152906040529150816002828154811061407c57fe5b90600052602060002090600a02016006016040516020018083805190602001908083835b602083106140c357805182526020820191506020810190506020830392506140a0565b6001836020036101000a0380198251168184511680821785525050505050509050018280546001816001161561010002031660029004801561413c5780601f1061411a57610100808354040283529182019161413c565b820191906000526020600020905b815481529060010190602001808311614128575b5050925050506040516020818303038152906040529150816040516020018082805190602001908083835b6020831061418a5780518252602082019150602081019050602083039250614167565b6001836020036101000a038019825116818451168082178552505050505050905001807f0a0000000000000000000000000000000000000000000000000000000000000081525060010191505060405160208183030381529060405291508080600101915050613566565b508091505090565b806000548110614275576040517f08c379a00000000000000000000000000000000000000000000000000000000081526004018080602001828103825260108152602001807f496e76616c6964206974656d204944210000000000000000000000000000000081525060200191505060405180910390fd5b816002818154811061428357fe5b90600052602060002090600a020160040160009054906101000a900473ffffffffffffffffffffffffffffffffffffffff1673ffffffffffffffffffffffffffffffffffffffff163373ffffffffffffffffffffffffffffffffffffffff1614614355576040517f08c379a00000000000000000000000000000000000000000000000000000000081526004018080602001828103825260188152602001807f596f7520646f206e6f74206f776e20746865206974656d21000000000000000081525060200191505060405180910390fd5b6002600581111561436257fe5b6002848154811061436f57fe5b90600052602060002090600a020160040160149054906101000a900460ff16600581111561439957fe5b146143ef576040517f08c379a0000000000000000000000000000000000000000000000000000000008152600401808060200182810382526042815260200180616a826042913960600191505060405180910390fd5b6003600284815481106143fe57fe5b90600052602060002090600a020160040160146101000a81548160ff0219169083600581111561442a57fe5b021790555061443883615342565b6144418361547f565b6002838154811061444e57fe5b90600052602060002090600a020160040160009054906101000a900473ffffffffffffffffffffffffffffffffffffffff1673ffffffffffffffffffffffffffffffffffffffff16600284815481106144a357fe5b90600052602060002090600a020160050160009054906101000a900473ffffffffffffffffffffffffffffffffffffffff1673ffffffffffffffffffffffffffffffffffffffff1614156145325760056002848154811061450057fe5b90600052602060002090600a020160040160146101000a81548160ff0219169083600581111561452c57fe5b02179055505b505050565b60608060405180602001604052806000815250905060008090505b6002805490508110156150b2576001600581111561456c57fe5b6002828154811061457957fe5b90600052602060002090600a020160040160149054906101000a900460ff1660058111156145a357fe5b14156150a557816040516020018082805190602001908083835b602083106145e057805182526020820191506020810190506020830392506145bd565b6001836020036101000a038019825116818451168082178552505050505050905001807f49443a20000000000000000000000000000000000000000000000000000000008152506004019150506040516020818303038152906040529150816146666002838154811061464f57fe5b90600052602060002090600a0201600001546150ba565b6040516020018083805190602001908083835b6020831061469c5780518252602082019150602081019050602083039250614679565b6001836020036101000a03801982511681845116808217855250505050505090500182805190602001908083835b602083106146ed57805182526020820191506020810190506020830392506146ca565b6001836020036101000a038019825116818451168082178552505050505050905001925050506040516020818303038152906040529150816040516020018082805190602001908083835b6020831061475b5780518252602082019150602081019050602083039250614738565b6001836020036101000a038019825116818451168082178552505050505050905001807f3b204e616d653a20000000000000000000000000000000000000000000000000815250600801915050604051602081830303815290604052915081600282815481106147c757fe5b90600052602060002090600a02016001016040516020018083805190602001908083835b6020831061480e57805182526020820191506020810190506020830392506147eb565b6001836020036101000a038019825116818451168082178552505050505050905001828054600181600116156101000203166002900480156148875780601f10614865576101008083540402835291820191614887565b820191906000526020600020905b815481529060010190602001808311614873575b5050925050506040516020818303038152906040529150816040516020018082805190602001908083835b602083106148d557805182526020820191506020810190506020830392506148b2565b6001836020036101000a038019825116818451168082178552505050505050905001807f3b204465736372697074696f6e3a200000000000000000000000000000000000815250600f019150506040516020818303038152906040529150816002828154811061494157fe5b90600052602060002090600a02016002016040516020018083805190602001908083835b602083106149885780518252602082019150602081019050602083039250614965565b6001836020036101000a03801982511681845116808217855250505050505090500182805460018160011615610100020316600290048015614a015780601f106149df576101008083540402835291820191614a01565b820191906000526020600020905b8154815290600101906020018083116149ed575b5050925050506040516020818303038152906040529150816040516020018082805190602001908083835b60208310614a4f5780518252602082019150602081019050602083039250614a2c565b6001836020036101000a038019825116818451168082178552505050505050905001807f3b2053656c6c657249443a200000000000000000000000000000000000000000815250600c01915050604051602081830303815290604052915081614af560028381548110614abe57fe5b90600052602060002090600a020160040160009054906101000a900473ffffffffffffffffffffffffffffffffffffffff166151f3565b6040516020018083805190602001908083835b60208310614b2b5780518252602082019150602081019050602083039250614b08565b6001836020036101000a03801982511681845116808217855250505050505090500182805190602001908083835b60208310614b7c5780518252602082019150602081019050602083039250614b59565b6001836020036101000a038019825116818451168082178552505050505050905001925050506040516020818303038152906040529150816040516020018082805190602001908083835b60208310614bea5780518252602082019150602081019050602083039250614bc7565b6001836020036101000a038019825116818451168082178552505050505050905001807f3b205374617475733a2000000000000000000000000000000000000000000000815250600a0191505060405160208183030381529060405291508160028281548110614c5657fe5b90600052602060002090600a020160040160149054906101000a900460ff166040516020018083805190602001908083835b60208310614cab5780518252602082019150602081019050602083039250614c88565b6001836020036101000a038019825116818451168082178552505050505050905001826005811115614cd957fe5b60ff1660f81b8152600101925050506040516020818303038152906040529150816040516020018082805190602001908083835b60208310614d305780518252602082019150602081019050602083039250614d0d565b6001836020036101000a038019825116818451168082178552505050505050905001807f3b2042757965723a200000000000000000000000000000000000000000000000815250600901915050604051602081830303815290604052915081614dd660028381548110614d9f57fe5b90600052602060002090600a020160050160009054906101000a900473ffffffffffffffffffffffffffffffffffffffff166151f3565b6040516020018083805190602001908083835b60208310614e0c5780518252602082019150602081019050602083039250614de9565b6001836020036101000a03801982511681845116808217855250505050505090500182805190602001908083835b60208310614e5d5780518252602082019150602081019050602083039250614e3a565b6001836020036101000a038019825116818451168082178552505050505050905001925050506040516020818303038152906040529150816040516020018082805190602001908083835b60208310614ecb5780518252602082019150602081019050602083039250614ea8565b6001836020036101000a038019825116818451168082178552505050505050905001807f3b2050726963653a200000000000000000000000000000000000000000000000815250600901915050604051602081830303815290604052915081614f5160028381548110614f3a57fe5b90600052602060002090600a0201600301546150ba565b6040516020018083805190602001908083835b60208310614f875780518252602082019150602081019050602083039250614f64565b6001836020036101000a03801982511681845116808217855250505050505090500182805190602001908083835b60208310614fd85780518252602082019150602081019050602083039250614fb5565b6001836020036101000a038019825116818451168082178552505050505050905001925050506040516020818303038152906040529150816040516020018082805190602001908083835b602083106150465780518252602082019150602081019050602083039250615023565b6001836020036101000a038019825116818451168082178552505050505050905001807f0a0000000000000000000000000000000000000000000000000000000000000081525060010191505060405160208183030381529060405291505b8080600101915050614552565b508091505090565b60606000821415615102576040518060400160405280600181526020017f300000000000000000000000000000000000000000000000000000000000000081525090506151ee565b600082905060005b6000821461512c578080600101915050600a828161512457fe5b04915061510a565b6060816040519080825280601f01601f1916602001820160405280156151615781602001600182028038833980820191505090505b50905060008290505b600086146151e6576001810390506000600a80888161518557fe5b04028703603001905060008160f81b9050808484815181106151a357fe5b60200101907effffffffffffffffffffffffffffffffffffffffffffffffffffffffffffff1916908160001a905350600a88816151dc57fe5b049750505061516a565b819450505050505b919050565b60608060286040519080825280601f01601f19166020018201604052801561522a5781602001600182028038833980820191505090505b50905060008090505b60148110156153385760008160130360080260020a8573ffffffffffffffffffffffffffffffffffffffff168161526657fe5b0460f81b9050600060108260f81c60ff168161527e57fe5b0460f81b905060008160f81c6010028360f81c0360f81b90506152a0826158d8565b8585600202815181106152af57fe5b60200101907effffffffffffffffffffffffffffffffffffffffffffffffffffffffffffff1916908160001a9053506152e7816158d8565b8560018660020201815181106152f957fe5b60200101907effffffffffffffffffffffffffffffffffffffffffffffffffffffffffffff1916908160001a9053505050508080600101915050615233565b5080915050919050565b8060005481106153ba576040517f08c379a00000000000000000000000000000000000000000000000000000000081526004018080602001828103825260108152602001807f496e76616c6964206974656d204944210000000000000000000000000000000081525060200191505060405180910390fd5b600060028111156153c757fe5b600283815481106153d457fe5b90600052602060002090600a020160070160000160009054906101000a900460ff16600281111561540157fe5b1415615415576154108261590c565b61547b565b6001600281111561542257fe5b6002838154811061542f57fe5b90600052602060002090600a020160070160000160009054906101000a900460ff16600281111561545c57fe5b14156154705761546b82615ccc565b61547a565b615479826160c3565b5b5b5050565b8060005481106154f7576040517f08c379a00000000000000000000000000000000000000000000000000000000081526004018080602001828103825260108152602001807f496e76616c6964206974656d204944210000000000000000000000000000000081525060200191505060405180910390fd5b60606002838154811061550657fe5b90600052602060002090600a020160070160020180548060200260200160405190810160405280929190818152602001828054801561559a57602002820191906000526020600020905b8160009054906101000a900473ffffffffffffffffffffffffffffffffffffffff1673ffffffffffffffffffffffffffffffffffffffff1681526020019060010190808311615550575b5050505050905060008090505b81518110156158d2576155b86168b8565b600285815481106155c557fe5b90600052602060002090600a020160070160010160008484815181106155e757fe5b602002602001015173ffffffffffffffffffffffffffffffffffffffff1673ffffffffffffffffffffffffffffffffffffffff1681526020019081526020016000206040518060a001604052908160008201548152602001600182018054600181600116156101000203166002900480601f0160208091040260200160405190810160405280929190818152602001828054600181600116156101000203166002900480156156d75780601f106156ac576101008083540402835291602001916156d7565b820191906000526020600020905b8154815290600101906020018083116156ba57829003601f168201915b50505050508152602001600282015481526020016003820160009054906101000a900460ff161515151581526020016003820160019054906101000a900460ff1615151515815250509050600115158160800151151514156158c4576002858154811061574057fe5b90600052602060002090600a020160050160009054906101000a900473ffffffffffffffffffffffffffffffffffffffff1673ffffffffffffffffffffffffffffffffffffffff1683838151811061579457fe5b602002602001015173ffffffffffffffffffffffffffffffffffffffff161461581a578282815181106157c357fe5b602002602001015173ffffffffffffffffffffffffffffffffffffffff166108fc82604001519081150290604051600060405180830381858888f19350505050158015615814573d6000803e3d6000fd5b506158c3565b6002858154811061582757fe5b90600052602060002090600a0201600301548160400151146158c25782828151811061584f57fe5b602002602001015173ffffffffffffffffffffffffffffffffffffffff166108fc6002878154811061587d57fe5b90600052602060002090600a0201600301548360400151039081150290604051600060405180830381858888f193505050501580156158c0573d6000803e3d6000fd5b505b5b5b5080806001019150506155a7565b50505050565b6000600a8260f81c60ff1610156158fa5760308260f81c0160f81b9050615907565b60578260f81c0160f81b90505b919050565b806000548110615984576040517f08c379a00000000000000000000000000000000000000000000000000000000081526004018080602001828103825260108152602001807f496e76616c6964206974656d204944210000000000000000000000000000000081525060200191505060405180910390fd5b60606002838154811061599357fe5b90600052602060002090600a0201600701600201805480602002602001604051908101604052809291908181526020018280548015615a2757602002820191906000526020600020905b8160009054906101000a900473ffffffffffffffffffffffffffffffffffffffff1673ffffffffffffffffffffffffffffffffffffffff16815260200190600101908083116159dd575b50505050509050600060028481548110615a3d57fe5b90600052602060002090600a020160040160009054906101000a900473ffffffffffffffffffffffffffffffffffffffff169050600080905060008090505b8351811015615c4457615a8d6168b8565b60028781548110615a9a57fe5b90600052602060002090600a02016007016001016000868481518110615abc57fe5b602002602001015173ffffffffffffffffffffffffffffffffffffffff1673ffffffffffffffffffffffffffffffffffffffff1681526020019081526020016000206040518060a001604052908160008201548152602001600182018054600181600116156101000203166002900480601f016020809104026020016040519081016040528092919081815260200182805460018160011615610100020316600290048015615bac5780601f10615b8157610100808354040283529160200191615bac565b820191906000526020600020905b815481529060010190602001808311615b8f57829003601f168201915b50505050508152602001600282015481526020016003820160009054906101000a900460ff161515151581526020016003820160019054906101000a900460ff16151515158152505090506001151581608001511515148015615c13575082816040015110155b15615c3657848281518110615c2457fe5b60200260200101519350806040015192505b508080600101915050615a7c565b508060028681548110615c5357fe5b90600052602060002090600a0201600301819055508160028681548110615c7657fe5b90600052602060002090600a020160050160006101000a81548173ffffffffffffffffffffffffffffffffffffffff021916908373ffffffffffffffffffffffffffffffffffffffff1602179055505050505050565b806000548110615d44576040517f08c379a00000000000000000000000000000000000000000000000000000000081526004018080602001828103825260108152602001807f496e76616c6964206974656d204944210000000000000000000000000000000081525060200191505060405180910390fd5b606060028381548110615d5357fe5b90600052602060002090600a0201600701600201805480602002602001604051908101604052809291908181526020018280548015615de757602002820191906000526020600020905b8160009054906101000a900473ffffffffffffffffffffffffffffffffffffffff1673ffffffffffffffffffffffffffffffffffffffff1681526020019060010190808311615d9d575b50505050509050600060028481548110615dfd57fe5b90600052602060002090600a020160040160009054906101000a900473ffffffffffffffffffffffffffffffffffffffff1690506000809050600080905060008090505b845181101561603a57615e526168b8565b60028881548110615e5f57fe5b90600052602060002090600a02016007016001016000878481518110615e8157fe5b602002602001015173ffffffffffffffffffffffffffffffffffffffff1673ffffffffffffffffffffffffffffffffffffffff1681526020019081526020016000206040518060a001604052908160008201548152602001600182018054600181600116156101000203166002900480601f016020809104026020016040519081016040528092919081815260200182805460018160011615610100020316600290048015615f715780601f10615f4657610100808354040283529160200191615f71565b820191906000526020600020905b815481529060010190602001808311615f5457829003601f168201915b50505050508152602001600282015481526020016003820160009054906101000a900460ff161515151581526020016003820160019054906101000a900460ff16151515158152505090506001151581608001511515148015615fd8575083816040015110155b156160025783925080604001519350858281518110615ff357fe5b6020026020010151945061602c565b600115158160800151151514801561601e575082816040015110155b1561602b57806040015192505b5b508080600101915050615e41565b50826002878154811061604957fe5b90600052602060002090600a020160050160006101000a81548173ffffffffffffffffffffffffffffffffffffffff021916908373ffffffffffffffffffffffffffffffffffffffff16021790555080600287815481106160a657fe5b90600052602060002090600a020160030181905550505050505050565b80600054811061613b576040517f08c379a00000000000000000000000000000000000000000000000000000000081526004018080602001828103825260108152602001807f496e76616c6964206974656d204944210000000000000000000000000000000081525060200191505060405180910390fd5b60606002838154811061614a57fe5b90600052602060002090600a02016007016002018054806020026020016040519081016040528092919081815260200182805480156161de57602002820191906000526020600020905b8160009054906101000a900473ffffffffffffffffffffffffffffffffffffffff1673ffffffffffffffffffffffffffffffffffffffff1681526020019060010190808311616194575b505050505090506000809050600080905060008090505b835181101561639f576162066168b8565b6002878154811061621357fe5b90600052602060002090600a0201600701600101600086848151811061623557fe5b602002602001015173ffffffffffffffffffffffffffffffffffffffff1673ffffffffffffffffffffffffffffffffffffffff1681526020019081526020016000206040518060a001604052908160008201548152602001600182018054600181600116156101000203166002900480601f0160208091040260200160405190810160405280929190818152602001828054600181600116156101000203166002900480156163255780601f106162fa57610100808354040283529160200191616325565b820191906000526020600020905b81548152906001019060200180831161630857829003601f168201915b50505050508152602001600282015481526020016003820160009054906101000a900460ff161515151581526020016003820160019054906101000a900460ff161515151581525050905060011515816080015115151415616391578060400151840193506001830192505b5080806001019150506161f5565b506000600286815481106163af57fe5b90600052602060002090600a020160040160009054906101000a900473ffffffffffffffffffffffffffffffffffffffff1690506000809050600084905060008090505b86518110156165d8576164046168b8565b60028a8154811061641157fe5b90600052602060002090600a0201600701600101600089848151811061643357fe5b602002602001015173ffffffffffffffffffffffffffffffffffffffff1673ffffffffffffffffffffffffffffffffffffffff1681526020019081526020016000206040518060a001604052908160008201548152602001600182018054600181600116156101000203166002900480601f0160208091040260200160405190810160405280929190818152602001828054600181600116156101000203166002900480156165235780601f106164f857610100808354040283529160200191616523565b820191906000526020600020905b81548152906001019060200180831161650657829003601f168201915b50505050508152602001600282015481526020016003820160009054906101000a900460ff161515151581526020016003820160019054906101000a900460ff161515151581525050905060011515816080015115151480156165955750826165928783604001510289616663565b11155b156165ca576165aa8682604001510288616663565b9250806040015193508782815181106165bf57fe5b602002602001015194505b5080806001019150506163f3565b5082600289815481106165e757fe5b90600052602060002090600a020160050160006101000a81548173ffffffffffffffffffffffffffffffffffffffff021916908373ffffffffffffffffffffffffffffffffffffffff160217905550816002898154811061664457fe5b90600052602060002090600a0201600301819055505050505050505050565b600081831061667457818303616678565b8282035b905092915050565b828054600181600116156101000203166002900490600052602060002090601f016020900481019282601f106166c157805160ff19168380011785556166ef565b828001600101855582156166ef579182015b828111156166ee5782518255916020019190600101906166d3565b5b5090506166fc91906168ee565b5090565b60405180610120016040528060008152602001606081526020016060815260200160008152602001600073ffffffffffffffffffffffffffffffffffffffff1681526020016000600581111561675257fe5b8152602001600073ffffffffffffffffffffffffffffffffffffffff16815260200160608152602001616783616913565b81525090565b828054600181600116156101000203166002900490600052602060002090601f016020900481019282601f106167ca57805160ff19168380011785556167f8565b828001600101855582156167f8579182015b828111156167f75782518255916020019190600101906167dc565b5b50905061680591906168ee565b5090565b828054828255906000526020600020908101928215616882579160200282015b828111156168815782518260006101000a81548173ffffffffffffffffffffffffffffffffffffffff021916908373ffffffffffffffffffffffffffffffffffffffff16021790555091602001919060010190616829565b5b50905061688f9190616938565b5090565b6040518060400160405280600060028111156168ab57fe5b8152602001606081525090565b6040518060a001604052806000801916815260200160608152602001600081526020016000151581526020016000151581525090565b61691091905b8082111561690c5760008160009055506001016168f4565b5090565b90565b60405180604001604052806000600281111561692b57fe5b8152602001606081525090565b61697891905b8082111561697457600081816101000a81549073ffffffffffffffffffffffffffffffffffffffff02191690555060010161693e565b5090565b9056fe4d6f6e6579206c657373207468616e20746865206c697374696e6720707269636521496e76616c696420726571756573742c206974656d20776173206e6f7420757020666f722062696464696e6721496e76616c696420726571756573742c206974656d2773206e6f7420757020666f722070617920616e6420766572696679214974656d206e6f7420736f6c64206f7220616c72656164792064656c6976657265642153656c6c65722063616e206e6f7420626964206174207468656972206974656d214974656d206e6f7420617661696c61626c65207965742c20706c65617365207761697420666f72207468652073656c6c657220746f2064656c6976657220697421496e76616c696420726571756573742c2062696473206e6f74207665726966696564206f722061756374696f6e2077617320616c72656164792073746f7070656421a265627a7a72315820ab5248468aa3992f5c2f5a355959cd385a2e07ef93854a2515f5af1c432298d464736f6c63430005100032",
  "source": "// SPDX-License-Identifier: GPL-3.0\npragma solidity >=0.4.22 <0.9.0;\n\n/**\n * @title A Modern Way\n * @dev Smart contract to facilitate buying, selling, auction of items securely\n */\ncontract AModernWay {\n    /**\n     * This is an enum which will help to keep the current status of an item.\n     * The status FOR_AUCTION signifies that the buyers can bid at auction to buy the item\n     * The status FOR_SALE signifies that the buyers can buy the item at the price specified by the seller\n     * The status PAY_AND_VERIFY signifies that the bidders can pay to verify their bid\n     * The status SOLD signifies that the item is sold to the buyer \n     * The status DELIVERED signifies that the item is delivered to the buyer\n     */\n    enum status {\n        FOR_AUCTION,\n        FOR_SALE,\n        PAY_AND_VERIFY,\n        SOLD,\n        DELIVERED,\n        NO_BIDS\n    }\n\n    enum AuctionType {\n        FIRST_PRICE,\n        SECOND_PRICE,\n        AVERAGE_PRICE\n    }\n\n    struct Bid{\n        bytes32 hashedBid;\n        string password;\n        uint256 bidValue;\n        bool hasBid;\n        bool isVerified;\n    }\n\n   \n    struct Auction{\n        AuctionType auctionType;\n        mapping(address => Bid) addressToBid;\n        address payable[] bidders;\n    }\n\n     /**\n     * This is our main item struct.\n     * listingID is the the unique ID for each item\n     * price is the price set by buyer for sale or paid by the winner of the auction\n     * sellerID is the address of the seller who wants to sell the item\n     * buyerID is the address of the buyer who paid for the item\n     * itemStatus tells the current status of the item. It uses the enum status defined above\n     */\n    struct Item {\n        uint256 listingID;\n        string name;\n        string description;\n        uint256 price;\n        address payable sellerID;\n        status itemStatus;\n        address buyerID;\n        string encryptedString;\n        Auction auction;\n    }\n\n\n    uint256 numOfItems = 0;\n\n    /**\n     * This mapping takes an address of a user as the input and returns the public key of that corresponding user.\n     * The public key will be required by the seller so that he can encrypt the item string and send the encrypted string to the buyer.\n     * The buyer will then decrpyt the encrypted string using their private key.\n     */\n    mapping(address => string) addressToPublicKey;\n\n    /**\n     * This array stores the list of all items\n     */\n    Item[] items;\n\n    /**\n     * This modifier is used by a function to check if the item with ID = itemID is accessed only by the seller of that item\n     * @param itemID is the unique ID of the item\n     */\n    modifier onlyValidItemID(uint256 itemID) {\n        require(\n            itemID < numOfItems,\n            \"Invalid item ID!\"\n        );\n        _;\n    }\n\n    /**\n     * This modifier is used by a function to check if the item with ID = itemID is accessed only by the seller of that item\n     * @param itemID is the unique ID of the item\n     */\n    modifier onlySeller(uint256 itemID) {\n        require(\n            msg.sender == items[itemID].sellerID,\n            \"You do not own the item!\"\n        );\n        _;\n    }\n\n    /**\n     * This modifier is used by a function to check if the item with ID = itemID is accessed only by the buyer of that item\n     * @param itemID is the unique ID of the item\n     */\n    modifier onlyBuyer(uint256 itemID) {\n        require(\n            msg.sender == items[itemID].buyerID,\n            \"You do not own the item!\"\n        );\n        _;\n    }\n\n    /**\n     * This modifier is used by a function to check if the item with ID = itemID is delivered\n     * @param itemID is the unique ID of the item\n     */\n    modifier onlyDeliveredItem(uint256 itemID) {\n        require(\n            items[itemID].itemStatus == status.DELIVERED,\n            \"Item not available yet, please wait for the seller to deliver it!\"\n        );\n        _;\n    }\n\n    /**\n     * This function is used by a seller to add a new item for sale.\n     * @param itemName is the name of the item\n     * @param itemDescription describes the item the seller wants to sell\n     * @param itemPrice is the price of the item with which the seller wants to sell it\n     */\n    function addItemForSale(\n        string memory itemName,\n        string memory itemDescription,\n        uint256 itemPrice\n    ) public{\n        Item memory newItem;\n        newItem.listingID = numOfItems++;\n        newItem.name = itemName;\n        newItem.description = itemDescription;\n        newItem.price = itemPrice;\n        newItem.sellerID = msg.sender;\n        newItem.itemStatus = status.FOR_SALE;\n        newItem.encryptedString = \"Item not available yet, please wait for the seller to deliver it!\";\n        items.push(newItem);\n    }\n\n    /**\n     * This function is used by a seller to add a new item for the auction.\n     * @param itemName is the name of the item\n     * @param itemDescription describes the item the seller wants to sell\n     * @param auctionType describes the type of auction\n     */\n    function addItemForAuction(\n        string memory itemName,\n        string memory itemDescription,\n        AuctionType auctionType\n    ) public {\n        Item memory newItem;\n        newItem.listingID = numOfItems++;\n        newItem.name = itemName;\n        newItem.description = itemDescription;\n        newItem.sellerID = msg.sender;\n        newItem.itemStatus = status.FOR_AUCTION;\n        Auction memory auction;\n        auction.auctionType = auctionType;\n        newItem.auction = auction;\n        newItem.encryptedString = \"Item not available yet, please wait for the seller to deliver it!\";\n        items.push(newItem);\n    }\n\n    /**\n     * This function is called by the bidders to bid on the item.\n     * @param itemID is the id of the item\n     * @param hashedBid is the hashed value of the bid to keep the bid sealed\n     */\n    function bidAtAuction(uint256 itemID, bytes32 hashedBid)\n        public\n        onlyValidItemID(itemID)\n    {\n        require(\n            items[itemID].itemStatus == status.FOR_AUCTION,\n            \"Item not available for bidding!\"\n        );\n        require(\n            msg.sender != items[itemID].sellerID,\n            \"Seller can not bid at their item!\"\n        );\n        require(\n            items[itemID].auction.addressToBid[msg.sender].hasBid == false,\n            \"Can only bid once!\"\n        );\n\n        address buyerAddress = msg.sender;\n        items[itemID].auction.addressToBid[buyerAddress].hashedBid = hashedBid;\n        items[itemID].auction.addressToBid[buyerAddress].hasBid = true;\n        items[itemID].auction.bidders.push(msg.sender);\n    }\n\n\n    /**\n     * This function is used by a seller to stop the bidding.\n     * @param itemID is the id of the item\n     */\n    function stopBidding(uint256 itemID)\n        public\n        onlyValidItemID(itemID)\n        onlySeller(itemID)\n    {\n        require(\n            items[itemID].itemStatus == status.FOR_AUCTION,\n            \"Invalid request, item was not up for bidding!\"\n        );\n        \n        items[itemID].itemStatus = status.PAY_AND_VERIFY;\n    }\n\n\n    //  function checkHash(string memory password)\n    //     public view\n    //     returns (uint256)\n    // {\n    //     return  keccak256(abi.encodePacked(msg.value));\n    // }\n\n    /**\n     * This function is used to convert uint256 to string\n     * Taken from here: https://stackoverflow.com/questions/47129173/how-to-convert-uint-to-string-in-solidity\n     * @param _i is a variable of type uint\n     * @return _uintAsString the string representation of _i\n     */\n    function uint2str(uint256 _i)\n        internal\n        pure\n        returns (string memory _uintAsString)\n    {\n        if (_i == 0) {\n            return \"0\";\n        }\n        uint256 j = _i;\n        uint256 len;\n        while (j != 0) {\n            len++;\n            j /= 10;\n        }\n        bytes memory bstr = new bytes(len);\n        uint256 k = len;\n        while (_i != 0) {\n            k = k - 1;\n            uint8 temp = (48 + uint8(_i - (_i / 10) * 10));\n            bytes1 b1 = bytes1(temp);\n            bstr[k] = b1;\n            _i /= 10;\n        }\n        return string(bstr);\n    }\n\n    /**\n     * This function is used by the bidders to pay and verify their bidding.\n     * @param itemID is the id of the item\n     * @param publicKey is the public key of the bidder\n     */\n    function payAndVerifyBid(uint256 itemID, string memory publicKey, string memory password)\n        public payable\n        onlyValidItemID(itemID)\n    {\n        require(\n            items[itemID].itemStatus == status.PAY_AND_VERIFY,\n            \"Invalid request, item's not up for pay and verify!\"\n        );\n        require(\n            keccak256(abi.encodePacked(password, uint2str(msg.value))) != items[itemID].auction.addressToBid[msg.sender].hashedBid,\n            \"Wrong Hash!\"\n        );\n        require(\n            items[itemID].auction.addressToBid[msg.sender].isVerified == false,\n            \"Already verified!\"\n        );\n        \n        address buyerAddress = msg.sender;\n        items[itemID].auction.addressToBid[buyerAddress].password = password;\n        items[itemID].auction.addressToBid[buyerAddress].bidValue = msg.value;\n        items[itemID].auction.addressToBid[buyerAddress].isVerified = true;\n        addressToPublicKey[buyerAddress] = publicKey;\n    }\n\n    /**\n     * This function is used by a buyer to buy an item.\n     * @param itemID is the unique ID of the item\n     * @param publicKey is the unique publick key of the buyer\n     */\n    function buyItem(uint256 itemID, string memory publicKey) \n        public payable\n        onlyValidItemID(itemID)\n    {\n        require(\n            items[itemID].itemStatus == status.FOR_SALE,\n            \"Item not available for sale!\"\n        );\n        require(\n            msg.sender != items[itemID].sellerID,\n            \"Seller can not buy their item!\"\n        );\n        require(\n            msg.value >= items[itemID].price,\n            \"Money less than the listing price!\"\n        );\n\n        address buyerAddress = msg.sender;\n        items[itemID].itemStatus = status.SOLD;\n        items[itemID].buyerID = buyerAddress;\n        addressToPublicKey[buyerAddress] = publicKey;\n    }\n\n    /**\n     * This function is used to find the bidder with highest bid.\n     * @param itemID is the id of the item\n     */\n    function firstPriceAuctionWinner(uint256 itemID)\n        private\n        onlyValidItemID(itemID)\n    { \n        address payable[] memory bidders = items[itemID].auction.bidders;\n        address winner = items[itemID].sellerID;\n        uint256 maxBidValue = 0;\n        for (uint256 i = 0; i < bidders.length; i++) \n        {\n            Bid memory bid = items[itemID].auction.addressToBid[bidders[i]];\n            if(bid.isVerified == true && bid.bidValue >= maxBidValue) \n            {\n                winner = bidders[i];\n                maxBidValue = bid.bidValue;\n            }\n        }\n        items[itemID].price = maxBidValue;\n        items[itemID].buyerID = winner;\n    }\n\n    /**\n     * This function is used to find the bidder with highest bid and second highest bid value.\n     * @param itemID is the id of the item\n     */\n    function secondPriceAuctionWinner(uint256 itemID)\n        private\n        onlyValidItemID(itemID)\n    { \n        address payable[] memory bidders = items[itemID].auction.bidders;\n        address winner = items[itemID].sellerID;\n        uint256 maxBidValue = 0;\n        uint256 secondMaxBidValue = 0;\n        for (uint256 i = 0; i < bidders.length; i++) \n        {\n            Bid memory bid = items[itemID].auction.addressToBid[bidders[i]];\n            if(bid.isVerified == true && bid.bidValue >= maxBidValue) \n            {\n                secondMaxBidValue = maxBidValue;\n                maxBidValue = bid.bidValue;\n                winner = bidders[i];\n            }\n            else if(bid.isVerified == true && bid.bidValue >= secondMaxBidValue) \n            {\n                secondMaxBidValue = bid.bidValue;\n            }\n        }\n        items[itemID].buyerID = winner;\n        items[itemID].price = secondMaxBidValue;\n    }\n\n    /**\n     * @return absolute difference of @param a and @param b\n     */\n    function absDiff(uint256 a, uint256 b) internal pure returns (uint256) \n    {\n        return a < b ? b - a : a - b;\n    }\n\n    /**\n     * This function is used to find the bidder with bid closest to average bid.\n     * @param itemID is the id of the item\n     */\n    function averagePriceAuctionWinner(uint256 itemID)\n        private\n        onlyValidItemID(itemID)\n    { \n        address payable[] memory bidders = items[itemID].auction.bidders;\n        uint256 totalBidValue = 0;\n        uint256 totalBidders = 0;\n        for (uint256 i = 0; i < bidders.length; i++) \n        {\n            Bid memory bid = items[itemID].auction.addressToBid[bidders[i]];\n            if(bid.isVerified == true) \n            {\n                totalBidValue += bid.bidValue;\n                totalBidders += 1;\n            }\n        }\n        address winner = items[itemID].sellerID;\n        uint256 winnerBidValue = 0;\n        uint256 diff = totalBidValue;\n        for (uint256 i = 0; i < bidders.length; i++) \n        {\n            Bid memory bid = items[itemID].auction.addressToBid[bidders[i]];\n            if(bid.isVerified == true && absDiff(bid.bidValue * totalBidders, totalBidValue) <= diff) \n            {\n                diff = absDiff(bid.bidValue * totalBidders, totalBidValue);\n                winnerBidValue = bid.bidValue;\n                winner = bidders[i];\n            }\n        }\n        items[itemID].buyerID = winner;\n        items[itemID].price = winnerBidValue;\n    }\n\n    /**\n     * This function is used to find the winner of the auction and refund the bidders' money.\n     * @param itemID is the id of the item\n     */\n    function declareWinner(uint256 itemID)\n        private\n        onlyValidItemID(itemID)\n    {  \n        if(items[itemID].auction.auctionType == AuctionType.FIRST_PRICE)\n            firstPriceAuctionWinner(itemID);\n        else if(items[itemID].auction.auctionType == AuctionType.SECOND_PRICE)\n            secondPriceAuctionWinner(itemID);\n        else\n            averagePriceAuctionWinner(itemID);\n    }\n    \n    /**\n     * This function is used to refund bidders' money.\n     * @param itemID is the id of the item\n     */\n    function refundMoney(uint256 itemID)\n        private\n        onlyValidItemID(itemID)\n    {       \n        address payable[] memory bidders = items[itemID].auction.bidders;\n        for (uint256 i = 0; i < bidders.length; i++) \n        {\n            Bid memory bid = items[itemID].auction.addressToBid[bidders[i]];\n            if(bid.isVerified == true) \n            {\n                if(bidders[i] != items[itemID].buyerID)\n                    bidders[i].transfer(bid.bidValue);\n                else if(bid.bidValue != items[itemID].price)\n                    bidders[i].transfer(bid.bidValue - items[itemID].price);\n            }\n        }\n    }\n\n    /**\n     * This function is used by a seller to stop the auction and declare the winner.\n     * @param itemID is the id of the item\n     */\n    function stopAuction(uint256 itemID) \n        public\n        onlyValidItemID(itemID)\n        onlySeller(itemID)\n    {\n        require(\n            items[itemID].itemStatus == status.PAY_AND_VERIFY,\n            \"Invalid request, bids not verified or auction was already stopped!\"\n        );\n\n        items[itemID].itemStatus = status.SOLD;\n        declareWinner(itemID);\n        refundMoney(itemID);\n        if (items[itemID].buyerID == items[itemID].sellerID)\n            items[itemID].itemStatus = status.NO_BIDS;\n    }\n\n    /**\n     * This function is used to get the public Key of the buyer.\n     * @param itemID is the unique ID of the item\n     * @return Public Key of the buyer who bought item with ID = itemID\n     */\n    function getBuyerPublicKey(uint256 itemID)\n        public\n        view\n        onlyValidItemID(itemID)\n        returns (string memory)\n    {\n        require(\n            items[itemID].itemStatus == status.SOLD || items[itemID].itemStatus == status.DELIVERED,\n            \"Buyer not declared yet!\"\n        );\n        return addressToPublicKey[items[itemID].buyerID];\n    }\n\n    /**\n     * This function is used by a seller to transfer encrypted string to the buyer.\n     * @param itemID is the unique ID of the item\n     * @param encryptedItem is the encrypted Secret key sent by the seller using buyers Public Key\n     * @param publicKey is the public key of the seller\n     */\n    function deliverItem(uint256 itemID, string memory encryptedItem, string memory publicKey)\n        public\n        onlyValidItemID(itemID)\n        onlySeller(itemID)\n    {\n        require(\n            items[itemID].itemStatus == status.SOLD,\n            \"Item not sold or already delivered!\"\n        );\n\n        addressToPublicKey[msg.sender] = publicKey;\n        items[itemID].encryptedString = encryptedItem;\n        items[itemID].itemStatus = status.DELIVERED;\n        items[itemID].sellerID.transfer(items[itemID].price);\n    }\n\n    /**\n     * This function is used to get the public Key of the seller.\n     * @param itemID is the unique ID of the item\n     * @return Public Key of the buyer who bought item with ID = itemID\n     */\n    function getSellerPublicKey(uint256 itemID)\n        public\n        view\n        onlyValidItemID(itemID)\n        onlyDeliveredItem(itemID)\n        returns (string memory)\n    {\n        return addressToPublicKey[items[itemID].sellerID];\n    }\n\n    /**\n     * This function is used by the buyer to get the encrypted Secret string.\n     * @param itemID is the unique ID of the item\n     * @return encryptedString provided by the seller which can be decrypted by the buyer using their Private Key\n     */\n    function getItem(uint256 itemID)\n        public\n        view\n        onlyValidItemID(itemID)\n        onlyBuyer(itemID)\n        onlyDeliveredItem(itemID)\n        returns (string memory)\n    {\n        return items[itemID].encryptedString;\n    }\n\n    function toAsciiString(address x) internal pure returns (string memory) {\n        bytes memory s = new bytes(40);\n        for (uint i = 0; i < 20; i++) {\n            bytes1 b = bytes1(uint8(uint(uint160(x)) / (2**(8*(19 - i)))));\n            bytes1 hi = bytes1(uint8(b) / 16);\n            bytes1 lo = bytes1(uint8(b) - 16 * uint8(hi));\n            s[2*i] = char(hi);\n            s[2*i+1] = char(lo);            \n        }\n        return string(s);\n    }\n\n    function char(bytes1 b) internal pure returns (bytes1 c) {\n        if (uint8(b) < 10) return bytes1(uint8(b) + 0x30);\n        else return bytes1(uint8(b) + 0x57);\n    }\n\n    /**\n     * This function is used by a buyer to view the items up for sale.\n     * @return a string containing list of all available Items for bidding\n     */\n    function viewItemsForSale() public view returns (string memory) {\n        string memory itemList = \"\";\n\n        for (uint256 i = 0; i < items.length; i++) {\n            if (items[i].itemStatus == status.FOR_SALE) {\n             itemList = string(abi.encodePacked(itemList, \"ID: \"));\n                itemList = string(\n                    abi.encodePacked(itemList, uint2str(items[i].listingID))\n                );\n                itemList = string(abi.encodePacked(itemList, \"; Name: \"));\n                itemList = string(abi.encodePacked(itemList, items[i].name));\n                itemList = string(\n                    abi.encodePacked(itemList, \"; Description: \")\n                );\n                itemList = string(\n                    abi.encodePacked(itemList, items[i].description)\n                );\n                   itemList = string(\n                    abi.encodePacked(itemList, \"; SellerID: \")\n                );\n                itemList = string(\n                    abi.encodePacked(itemList, toAsciiString(items[i].sellerID))\n                );\n                itemList = string(\n                    abi.encodePacked(itemList, \"; Status: \")\n                );\n                itemList = string(\n                    abi.encodePacked(itemList, items[i].itemStatus)\n                );\n                itemList = string(\n                    abi.encodePacked(itemList, \"; Buyer: \")\n                );\n                itemList = string(\n                    abi.encodePacked(itemList, toAsciiString(items[i].buyerID))\n                );\n                itemList = string(\n                    abi.encodePacked(itemList, \"; Price: \")\n                );\n                itemList = string(\n                    abi.encodePacked(itemList, uint2str(items[i].price))\n                );\n                itemList = string(abi.encodePacked(itemList, \"\\n\"));\n            }\n        }\n\n        return itemList;\n    }\n\n    /**\n     * This function is used by a buyer to view the listing.\n     * @return a string containing list of all available Items for bidding\n     */\n    function viewItemsForAuction() public view returns (string memory) {\n        string memory itemList = \"\";\n\n        for (uint256 i = 0; i < items.length; i++) {\n            if (items[i].itemStatus ==  status.FOR_AUCTION || items[i].itemStatus == status.PAY_AND_VERIFY) {\n                itemList = string(abi.encodePacked(itemList, \"ID: \"));\n                itemList = string(\n                    abi.encodePacked(itemList, uint2str(items[i].listingID))\n                );\n                itemList = string(abi.encodePacked(itemList, \"; Name: \"));\n                itemList = string(abi.encodePacked(itemList, items[i].name));\n                itemList = string(\n                    abi.encodePacked(itemList, \"; Description: \")\n                );\n                itemList = string(\n                    abi.encodePacked(itemList, items[i].description)\n                );\n                   itemList = string(\n                    abi.encodePacked(itemList, \"; SellerID: \")\n                );\n                itemList = string(\n                    abi.encodePacked(itemList, toAsciiString(items[i].sellerID))\n                );\n                itemList = string(\n                    abi.encodePacked(itemList, \"; Status: \")\n                );\n                itemList = string(\n                    abi.encodePacked(itemList, items[i].itemStatus)\n                );\n                itemList = string(\n                    abi.encodePacked(itemList, \"; Buyer: \")\n                );\n                itemList = string(\n                    abi.encodePacked(itemList, toAsciiString(items[i].buyerID))\n                );\n                itemList = string(abi.encodePacked(itemList, \"\\n\"));\n            }\n        }\n\n        return itemList;\n    }\n\n    /**\n     * This function is used by a buyer to view the listing.\n     * @return a string containing list of all available Items for bidding\n     */\n    function viewAllItems() public view returns (string memory) {\n        string memory itemList = \"\";\n\n        for (uint256 i = 0; i < items.length; i++) {\n            itemList = string(abi.encodePacked(itemList, \"ID: \"));\n            itemList = string(\n                abi.encodePacked(itemList, uint2str(items[i].listingID))\n            );\n            itemList = string(abi.encodePacked(itemList, \"; Name: \"));\n            itemList = string(abi.encodePacked(itemList, items[i].name));\n            itemList = string(\n                abi.encodePacked(itemList, \"; Description: \")\n            );\n            itemList = string(\n                abi.encodePacked(itemList, items[i].description)\n            );\n                itemList = string(\n                abi.encodePacked(itemList, \"; SellerID: \")\n            );\n            itemList = string(\n                abi.encodePacked(itemList, toAsciiString(items[i].sellerID))\n            );\n            itemList = string(\n                abi.encodePacked(itemList, \"; Status: \")\n            );\n            itemList = string(\n                abi.encodePacked(itemList, items[i].itemStatus)\n            );\n            itemList = string(\n                abi.encodePacked(itemList, \"; Buyer: \")\n            );\n            itemList = string(\n                abi.encodePacked(itemList, toAsciiString(items[i].buyerID))\n            );\n            itemList = string(\n                abi.encodePacked(itemList, \"; Price: \")\n            );\n            itemList = string(\n                abi.encodePacked(itemList, uint2str(items[i].price))\n            );\n             itemList = string(\n                abi.encodePacked(itemList, \"; SecretString: \")\n            );\n            itemList = string(\n                abi.encodePacked(itemList, items[i].encryptedString)\n            );\n            itemList = string(abi.encodePacked(itemList, \"\\n\"));\n            \n        }\n\n        return itemList;\n    }\n}",
  "sourcePath": "/Users/tanish/Documents/Semester 7/Distributing Trust and Blockchains/Assignments/2/Blockchain_Auction/2018114005/contracts/AModernWay.sol",
  "compiler": {
    "name": "solc",
    "version": "0.5.16+commit.9c3226ce.Emscripten.clang"
  },
  "schemaVersion": "3.4.3",
  "updatedAt": "2021-10-14T05:09:41.185Z",
  "devdoc": {
    "details": "Smart contract to facilitate buying, selling, auction of items securely",
    "methods": {
      "addItemForAuction(string,string,uint8)": {
        "params": {
          "auctionType": "describes the type of auction",
          "itemDescription": "describes the item the seller wants to sell",
          "itemName": "is the name of the item"
        }
      },
      "addItemForSale(string,string,uint256)": {
        "params": {
          "itemDescription": "describes the item the seller wants to sell",
          "itemName": "is the name of the item",
          "itemPrice": "is the price of the item with which the seller wants to sell it"
        }
      },
      "bidAtAuction(uint256,bytes32)": {
        "params": {
          "hashedBid": "is the hashed value of the bid to keep the bid sealed",
          "itemID": "is the id of the item"
        }
      },
      "buyItem(uint256,string)": {
        "params": {
          "itemID": "is the unique ID of the item",
          "publicKey": "is the unique publick key of the buyer"
        }
      },
      "deliverItem(uint256,string,string)": {
        "params": {
          "encryptedItem": "is the encrypted Secret key sent by the seller using buyers Public Key",
          "itemID": "is the unique ID of the item",
          "publicKey": "is the public key of the seller"
        }
      },
      "getBuyerPublicKey(uint256)": {
        "params": {
          "itemID": "is the unique ID of the item"
        },
        "return": "Public Key of the buyer who bought item with ID = itemID"
      },
      "getItem(uint256)": {
        "params": {
          "itemID": "is the unique ID of the item"
        },
        "return": "encryptedString provided by the seller which can be decrypted by the buyer using their Private Key"
      },
      "getSellerPublicKey(uint256)": {
        "params": {
          "itemID": "is the unique ID of the item"
        },
        "return": "Public Key of the buyer who bought item with ID = itemID"
      },
      "payAndVerifyBid(uint256,string,string)": {
        "params": {
          "itemID": "is the id of the item",
          "publicKey": "is the public key of the bidder"
        }
      },
      "stopAuction(uint256)": {
        "params": {
          "itemID": "is the id of the item"
        }
      },
      "stopBidding(uint256)": {
        "params": {
          "itemID": "is the id of the item"
        }
      },
      "viewAllItems()": {
        "return": "a string containing list of all available Items for bidding"
      },
      "viewItemsForAuction()": {
        "return": "a string containing list of all available Items for bidding"
      },
      "viewItemsForSale()": {
        "return": "a string containing list of all available Items for bidding"
      }
    },
    "title": "A Modern Way"
  },
  "userdoc": {
    "methods": {
      "addItemForAuction(string,string,uint8)": {
        "notice": "This function is used by a seller to add a new item for the auction."
      },
      "addItemForSale(string,string,uint256)": {
        "notice": "This function is used by a seller to add a new item for sale."
      },
      "bidAtAuction(uint256,bytes32)": {
        "notice": "This function is called by the bidders to bid on the item."
      },
      "buyItem(uint256,string)": {
        "notice": "This function is used by a buyer to buy an item."
      },
      "deliverItem(uint256,string,string)": {
        "notice": "This function is used by a seller to transfer encrypted string to the buyer."
      },
      "getBuyerPublicKey(uint256)": {
        "notice": "This function is used to get the public Key of the buyer."
      },
      "getItem(uint256)": {
        "notice": "This function is used by the buyer to get the encrypted Secret string."
      },
      "getSellerPublicKey(uint256)": {
        "notice": "This function is used to get the public Key of the seller."
      },
      "payAndVerifyBid(uint256,string,string)": {
        "notice": "This function is used by the bidders to pay and verify their bidding."
      },
      "stopAuction(uint256)": {
        "notice": "This function is used by a seller to stop the auction and declare the winner."
      },
      "stopBidding(uint256)": {
        "notice": "This function is used by a seller to stop the bidding."
      },
      "viewAllItems()": {
        "notice": "This function is used by a buyer to view the listing."
      },
      "viewItemsForAuction()": {
        "notice": "This function is used by a buyer to view the listing."
      },
      "viewItemsForSale()": {
        "notice": "This function is used by a buyer to view the items up for sale."
      }
    }
  }
}