{
  "contractName": "AModernWay",
  "abi": [
    {
      "constant": false,
      "inputs": [
        {
          "internalType": "string",
          "name": "itemName",
          "type": "string"
        },
        {
          "internalType": "string",
          "name": "itemDescription",
          "type": "string"
        },
        {
          "internalType": "uint256",
          "name": "itemPrice",
          "type": "uint256"
        }
      ],
      "name": "addItemForSale",
      "outputs": [],
      "payable": false,
      "stateMutability": "nonpayable",
      "type": "function"
    },
    {
      "constant": false,
      "inputs": [
        {
          "internalType": "string",
          "name": "itemName",
          "type": "string"
        },
        {
          "internalType": "string",
          "name": "itemDescription",
          "type": "string"
        },
        {
          "internalType": "enum AModernWay.AuctionType",
          "name": "auctionType",
          "type": "uint8"
        }
      ],
      "name": "addItemForAuction",
      "outputs": [],
      "payable": false,
      "stateMutability": "nonpayable",
      "type": "function"
    },
    {
      "constant": false,
      "inputs": [
        {
          "internalType": "uint256",
          "name": "itemID",
          "type": "uint256"
        },
        {
          "internalType": "bytes32",
          "name": "hashedBid",
          "type": "bytes32"
        }
      ],
      "name": "bidAtAuction",
      "outputs": [],
      "payable": false,
      "stateMutability": "nonpayable",
      "type": "function"
    },
    {
      "constant": false,
      "inputs": [
        {
          "internalType": "uint256",
          "name": "itemID",
          "type": "uint256"
        }
      ],
      "name": "stopBidding",
      "outputs": [],
      "payable": false,
      "stateMutability": "nonpayable",
      "type": "function"
    },
    {
      "constant": false,
      "inputs": [
        {
          "internalType": "uint256",
          "name": "itemID",
          "type": "uint256"
        },
        {
          "internalType": "string",
          "name": "publicKey",
          "type": "string"
        },
        {
          "internalType": "string",
          "name": "password",
          "type": "string"
        }
      ],
      "name": "payAndVerifyBid",
      "outputs": [],
      "payable": true,
      "stateMutability": "payable",
      "type": "function"
    },
    {
      "constant": false,
      "inputs": [
        {
          "internalType": "uint256",
          "name": "itemID",
          "type": "uint256"
        },
        {
          "internalType": "string",
          "name": "publicKey",
          "type": "string"
        }
      ],
      "name": "buyItem",
      "outputs": [],
      "payable": true,
      "stateMutability": "payable",
      "type": "function"
    },
    {
      "constant": false,
      "inputs": [
        {
          "internalType": "uint256",
          "name": "itemID",
          "type": "uint256"
        }
      ],
      "name": "stopAuction",
      "outputs": [],
      "payable": false,
      "stateMutability": "nonpayable",
      "type": "function"
    },
    {
      "constant": true,
      "inputs": [
        {
          "internalType": "uint256",
          "name": "itemID",
          "type": "uint256"
        }
      ],
      "name": "getBuyerPublicKey",
      "outputs": [
        {
          "internalType": "string",
          "name": "",
          "type": "string"
        }
      ],
      "payable": false,
      "stateMutability": "view",
      "type": "function"
    },
    {
      "constant": false,
      "inputs": [
        {
          "internalType": "uint256",
          "name": "itemID",
          "type": "uint256"
        },
        {
          "internalType": "string",
          "name": "encryptedItem",
          "type": "string"
        }
      ],
      "name": "deliverItem",
      "outputs": [],
      "payable": false,
      "stateMutability": "nonpayable",
      "type": "function"
    },
    {
      "constant": true,
      "inputs": [
        {
          "internalType": "uint256",
          "name": "itemID",
          "type": "uint256"
        }
      ],
      "name": "getItem",
      "outputs": [
        {
          "internalType": "string",
          "name": "",
          "type": "string"
        }
      ],
      "payable": false,
      "stateMutability": "view",
      "type": "function"
    },
    {
      "constant": true,
      "inputs": [],
      "name": "viewItemsForSale",
      "outputs": [
        {
          "internalType": "string",
          "name": "",
          "type": "string"
        }
      ],
      "payable": false,
      "stateMutability": "view",
      "type": "function"
    },
    {
      "constant": true,
      "inputs": [],
      "name": "viewItemsForAuction",
      "outputs": [
        {
          "internalType": "string",
          "name": "",
          "type": "string"
        }
      ],
      "payable": false,
      "stateMutability": "view",
      "type": "function"
    },
    {
      "constant": true,
      "inputs": [],
      "name": "viewAllItems",
      "outputs": [
        {
          "internalType": "string",
          "name": "",
          "type": "string"
        }
      ],
      "payable": false,
      "stateMutability": "view",
      "type": "function"
    }
  ],
  "bytecode": "0x60806040526000805534801561001457600080fd5b5061670980620000256000396000f3fe6080604052600436106100c15760003560e01c806365022f1e1161007f578063d36244b011610059578063d36244b0146107aa578063ed0c0d4f14610906578063f510f6ae14610996578063fc57579d146109d1576100c1565b806365022f1e146105275780637d0d278b1461056c578063cdefb7621461063e576100c1565b80620ad21c146100c6578063021baa16146101565780631859dc24146101915780633129e773146102455780634e71b35c146102f957806364096a18146103be575b600080fd5b3480156100d257600080fd5b506100db610a61565b6040518080602001828103825283818151815260200191508051906020019080838360005b8381101561011b578082015181840152602081019050610100565b50505050905090810190601f1680156101485780820380516001836020036101000a031916815260200191505b509250505060405180910390f35b34801561016257600080fd5b5061018f6004803603602081101561017957600080fd5b81019080803590602001909291905050506114b5565b005b34801561019d57600080fd5b506101ca600480360360208110156101b457600080fd5b81019080803590602001909291905050506116eb565b6040518080602001828103825283818151815260200191508051906020019080838360005b8381101561020a5780820151818401526020810190506101ef565b50505050905090810190601f1680156102375780820380516001836020036101000a031916815260200191505b509250505060405180910390f35b34801561025157600080fd5b5061027e6004803603602081101561026857600080fd5b8101908080359060200190929190505050611986565b6040518080602001828103825283818151815260200191508051906020019080838360005b838110156102be5780820151818401526020810190506102a3565b50505050905090810190601f1680156102eb5780820380516001836020036101000a031916815260200191505b509250505060405180910390f35b6103bc6004803603604081101561030f57600080fd5b81019080803590602001909291908035906020019064010000000081111561033657600080fd5b82018360208201111561034857600080fd5b8035906020019184600183028401116401000000008311171561036a57600080fd5b91908080601f016020809104026020016040519081016040528093929190818152602001838380828437600081840152601f19601f820116905080830192505050505050509192919290505050611c3c565b005b3480156103ca57600080fd5b50610525600480360360608110156103e157600080fd5b81019080803590602001906401000000008111156103fe57600080fd5b82018360208201111561041057600080fd5b8035906020019184600183028401116401000000008311171561043257600080fd5b91908080601f016020809104026020016040519081016040528093929190818152602001838380828437600081840152601f19601f8201169050808301925050505050505091929192908035906020019064010000000081111561049557600080fd5b8201836020820111156104a757600080fd5b803590602001918460018302840111640100000000831117156104c957600080fd5b91908080601f016020809104026020016040519081016040528093929190818152602001838380828437600081840152601f19601f82011690508083019250505050505050919291929080359060200190929190505050611fbe565b005b34801561053357600080fd5b5061056a6004803603604081101561054a57600080fd5b810190808035906020019092919080359060200190929190505050612222565b005b34801561057857600080fd5b5061063c6004803603604081101561058f57600080fd5b8101908080359060200190929190803590602001906401000000008111156105b657600080fd5b8201836020820111156105c857600080fd5b803590602001918460018302840111640100000000831117156105ea57600080fd5b91908080601f016020809104026020016040519081016040528093929190818152602001838380828437600081840152601f19601f82011690508083019250505050505050919291929050505061266c565b005b34801561064a57600080fd5b506107a86004803603606081101561066157600080fd5b810190808035906020019064010000000081111561067e57600080fd5b82018360208201111561069057600080fd5b803590602001918460018302840111640100000000831117156106b257600080fd5b91908080601f016020809104026020016040519081016040528093929190818152602001838380828437600081840152601f19601f8201169050808301925050505050505091929192908035906020019064010000000081111561071557600080fd5b82018360208201111561072757600080fd5b8035906020019184600183028401116401000000008311171561074957600080fd5b91908080601f016020809104026020016040519081016040528093929190818152602001838380828437600081840152601f19601f820116905080830192505050505050509192919290803560ff16906020019092919050505061297a565b005b610904600480360360608110156107c057600080fd5b8101908080359060200190929190803590602001906401000000008111156107e757600080fd5b8201836020820111156107f957600080fd5b8035906020019184600183028401116401000000008311171561081b57600080fd5b91908080601f016020809104026020016040519081016040528093929190818152602001838380828437600081840152601f19601f8201169050808301925050505050505091929192908035906020019064010000000081111561087e57600080fd5b82018360208201111561089057600080fd5b803590602001918460018302840111640100000000831117156108b257600080fd5b91908080601f016020809104026020016040519081016040528093929190818152602001838380828437600081840152601f19601f820116905080830192505050505050509192919290505050612c09565b005b34801561091257600080fd5b5061091b61315c565b6040518080602001828103825283818151815260200191508051906020019080838360005b8381101561095b578082015181840152602081019050610940565b50505050905090810190601f1680156109885780820380516001836020036101000a031916815260200191505b509250505060405180910390f35b3480156109a257600080fd5b506109cf600480360360208110156109b957600080fd5b8101908080359060200190929190505050613e0e565b005b3480156109dd57600080fd5b506109e6614148565b6040518080602001828103825283818151815260200191508051906020019080838360005b83811015610a26578082015181840152602081019050610a0b565b50505050905090810190601f168015610a535780820380516001836020036101000a031916815260200191505b509250505060405180910390f35b60608060405180602001604052806000815250905060008090505b6002805490508110156114ad5760006005811115610a9657fe5b60028281548110610aa357fe5b90600052602060002090600a020160040160149054906101000a900460ff166005811115610acd57fe5b1480610b1a575060026005811115610ae157fe5b60028281548110610aee57fe5b90600052602060002090600a020160040160149054906101000a900460ff166005811115610b1857fe5b145b156114a057816040516020018082805190602001908083835b60208310610b565780518252602082019150602081019050602083039250610b33565b6001836020036101000a038019825116818451168082178552505050505050905001807f49443a2000000000000000000000000000000000000000000000000000000000815250600401915050604051602081830303815290604052915081610bdc60028381548110610bc557fe5b90600052602060002090600a020160000154614ccb565b6040516020018083805190602001908083835b60208310610c125780518252602082019150602081019050602083039250610bef565b6001836020036101000a03801982511681845116808217855250505050505090500182805190602001908083835b60208310610c635780518252602082019150602081019050602083039250610c40565b6001836020036101000a038019825116818451168082178552505050505050905001925050506040516020818303038152906040529150816040516020018082805190602001908083835b60208310610cd15780518252602082019150602081019050602083039250610cae565b6001836020036101000a038019825116818451168082178552505050505050905001807f3b204e616d653a2000000000000000000000000000000000000000000000000081525060080191505060405160208183030381529060405291508160028281548110610d3d57fe5b90600052602060002090600a02016001016040516020018083805190602001908083835b60208310610d845780518252602082019150602081019050602083039250610d61565b6001836020036101000a03801982511681845116808217855250505050505090500182805460018160011615610100020316600290048015610dfd5780601f10610ddb576101008083540402835291820191610dfd565b820191906000526020600020905b815481529060010190602001808311610de9575b5050925050506040516020818303038152906040529150816040516020018082805190602001908083835b60208310610e4b5780518252602082019150602081019050602083039250610e28565b6001836020036101000a038019825116818451168082178552505050505050905001807f3b204465736372697074696f6e3a200000000000000000000000000000000000815250600f0191505060405160208183030381529060405291508160028281548110610eb757fe5b90600052602060002090600a02016002016040516020018083805190602001908083835b60208310610efe5780518252602082019150602081019050602083039250610edb565b6001836020036101000a03801982511681845116808217855250505050505090500182805460018160011615610100020316600290048015610f775780601f10610f55576101008083540402835291820191610f77565b820191906000526020600020905b815481529060010190602001808311610f63575b5050925050506040516020818303038152906040529150816040516020018082805190602001908083835b60208310610fc55780518252602082019150602081019050602083039250610fa2565b6001836020036101000a038019825116818451168082178552505050505050905001807f3b2053656c6c657249443a200000000000000000000000000000000000000000815250600c0191505060405160208183030381529060405291508161106b6002838154811061103457fe5b90600052602060002090600a020160040160009054906101000a900473ffffffffffffffffffffffffffffffffffffffff16614e04565b6040516020018083805190602001908083835b602083106110a1578051825260208201915060208101905060208303925061107e565b6001836020036101000a03801982511681845116808217855250505050505090500182805190602001908083835b602083106110f257805182526020820191506020810190506020830392506110cf565b6001836020036101000a038019825116818451168082178552505050505050905001925050506040516020818303038152906040529150816040516020018082805190602001908083835b60208310611160578051825260208201915060208101905060208303925061113d565b6001836020036101000a038019825116818451168082178552505050505050905001807f3b205374617475733a2000000000000000000000000000000000000000000000815250600a01915050604051602081830303815290604052915081600282815481106111cc57fe5b90600052602060002090600a020160040160149054906101000a900460ff166040516020018083805190602001908083835b6020831061122157805182526020820191506020810190506020830392506111fe565b6001836020036101000a03801982511681845116808217855250505050505090500182600581111561124f57fe5b60ff1660f81b8152600101925050506040516020818303038152906040529150816040516020018082805190602001908083835b602083106112a65780518252602082019150602081019050602083039250611283565b6001836020036101000a038019825116818451168082178552505050505050905001807f3b2042757965723a20000000000000000000000000000000000000000000000081525060090191505060405160208183030381529060405291508161134c6002838154811061131557fe5b90600052602060002090600a020160050160009054906101000a900473ffffffffffffffffffffffffffffffffffffffff16614e04565b6040516020018083805190602001908083835b60208310611382578051825260208201915060208101905060208303925061135f565b6001836020036101000a03801982511681845116808217855250505050505090500182805190602001908083835b602083106113d357805182526020820191506020810190506020830392506113b0565b6001836020036101000a038019825116818451168082178552505050505050905001925050506040516020818303038152906040529150816040516020018082805190602001908083835b60208310611441578051825260208201915060208101905060208303925061141e565b6001836020036101000a038019825116818451168082178552505050505050905001807f0a0000000000000000000000000000000000000000000000000000000000000081525060010191505060405160208183030381529060405291505b8080600101915050610a7c565b508091505090565b80600054811061152d576040517f08c379a00000000000000000000000000000000000000000000000000000000081526004018080602001828103825260108152602001807f496e76616c6964206974656d204944210000000000000000000000000000000081525060200191505060405180910390fd5b816002818154811061153b57fe5b90600052602060002090600a020160040160009054906101000a900473ffffffffffffffffffffffffffffffffffffffff1673ffffffffffffffffffffffffffffffffffffffff163373ffffffffffffffffffffffffffffffffffffffff161461160d576040517f08c379a00000000000000000000000000000000000000000000000000000000081526004018080602001828103825260188152602001807f596f7520646f206e6f74206f776e20746865206974656d21000000000000000081525060200191505060405180910390fd5b6000600581111561161a57fe5b6002848154811061162757fe5b90600052602060002090600a020160040160149054906101000a900460ff16600581111561165157fe5b146116a7576040517f08c379a000000000000000000000000000000000000000000000000000000000815260040180806020018281038252602d8152602001806165af602d913960400191505060405180910390fd5b60028084815481106116b557fe5b90600052602060002090600a020160040160146101000a81548160ff021916908360058111156116e157fe5b0217905550505050565b6060816000548110611765576040517f08c379a00000000000000000000000000000000000000000000000000000000081526004018080602001828103825260108152602001807f496e76616c6964206974656d204944210000000000000000000000000000000081525060200191505060405180910390fd5b6003600581111561177257fe5b6002848154811061177f57fe5b90600052602060002090600a020160040160149054906101000a900460ff1660058111156117a957fe5b14806117f65750600460058111156117bd57fe5b600284815481106117ca57fe5b90600052602060002090600a020160040160149054906101000a900460ff1660058111156117f457fe5b145b611868576040517f08c379a00000000000000000000000000000000000000000000000000000000081526004018080602001828103825260178152602001807f4275796572206e6f74206465636c61726564207965742100000000000000000081525060200191505060405180910390fd5b600160006002858154811061187957fe5b90600052602060002090600a020160050160009054906101000a900473ffffffffffffffffffffffffffffffffffffffff1673ffffffffffffffffffffffffffffffffffffffff1673ffffffffffffffffffffffffffffffffffffffff1681526020019081526020016000208054600181600116156101000203166002900480601f0160208091040260200160405190810160405280929190818152602001828054600181600116156101000203166002900480156119795780601f1061194e57610100808354040283529160200191611979565b820191906000526020600020905b81548152906001019060200180831161195c57829003601f168201915b5050505050915050919050565b6060816000548110611a00576040517f08c379a00000000000000000000000000000000000000000000000000000000081526004018080602001828103825260108152602001807f496e76616c6964206974656d204944210000000000000000000000000000000081525060200191505060405180910390fd5b8260028181548110611a0e57fe5b90600052602060002090600a020160050160009054906101000a900473ffffffffffffffffffffffffffffffffffffffff1673ffffffffffffffffffffffffffffffffffffffff163373ffffffffffffffffffffffffffffffffffffffff1614611ae0576040517f08c379a00000000000000000000000000000000000000000000000000000000081526004018080602001828103825260188152602001807f596f7520646f206e6f74206f776e20746865206974656d21000000000000000081525060200191505060405180910390fd5b8360046005811115611aee57fe5b60028281548110611afb57fe5b90600052602060002090600a020160040160149054906101000a900460ff166005811115611b2557fe5b14611b7b576040517f08c379a00000000000000000000000000000000000000000000000000000000081526004018080602001828103825260418152602001806166526041913960600191505060405180910390fd5b60028581548110611b8857fe5b90600052602060002090600a02016006018054600181600116156101000203166002900480601f016020809104026020016040519081016040528092919081815260200182805460018160011615610100020316600290048015611c2d5780601f10611c0257610100808354040283529160200191611c2d565b820191906000526020600020905b815481529060010190602001808311611c1057829003601f168201915b50505050509350505050919050565b816000548110611cb4576040517f08c379a00000000000000000000000000000000000000000000000000000000081526004018080602001828103825260108152602001807f496e76616c6964206974656d204944210000000000000000000000000000000081525060200191505060405180910390fd5b60016005811115611cc157fe5b60028481548110611cce57fe5b90600052602060002090600a020160040160149054906101000a900460ff166005811115611cf857fe5b14611d6b576040517f08c379a000000000000000000000000000000000000000000000000000000000815260040180806020018281038252601c8152602001807f4974656d206e6f7420617661696c61626c6520666f722073616c65210000000081525060200191505060405180910390fd5b60028381548110611d7857fe5b90600052602060002090600a020160040160009054906101000a900473ffffffffffffffffffffffffffffffffffffffff1673ffffffffffffffffffffffffffffffffffffffff163373ffffffffffffffffffffffffffffffffffffffff161415611e4b576040517f08c379a000000000000000000000000000000000000000000000000000000000815260040180806020018281038252601e8152602001807f53656c6c65722063616e206e6f7420627579207468656972206974656d21000081525060200191505060405180910390fd5b60028381548110611e5857fe5b90600052602060002090600a020160030154341015611ec2576040517f08c379a000000000000000000000000000000000000000000000000000000000815260040180806020018281038252602281526020018061658d6022913960400191505060405180910390fd5b6000339050600360028581548110611ed657fe5b90600052602060002090600a020160040160146101000a81548160ff02191690836005811115611f0257fe5b02179055508060028581548110611f1557fe5b90600052602060002090600a020160050160006101000a81548173ffffffffffffffffffffffffffffffffffffffff021916908373ffffffffffffffffffffffffffffffffffffffff16021790555082600160008373ffffffffffffffffffffffffffffffffffffffff1673ffffffffffffffffffffffffffffffffffffffff1681526020019081526020016000209080519060200190611fb7929190616291565b5050505050565b611fc6616311565b600080815480929190600101919050558160000181815250508381602001819052508281604001819052508181606001818152505033816080019073ffffffffffffffffffffffffffffffffffffffff16908173ffffffffffffffffffffffffffffffffffffffff168152505060018160a00190600581111561204557fe5b9081600581111561205257fe5b81525050604051806080016040528060418152602001616652604191398160e001819052506002819080600181540180825580915050906001820390600052602060002090600a0201600090919290919091506000820151816000015560208201518160010190805190602001906120cb92919061639a565b5060408201518160020190805190602001906120e892919061639a565b506060820151816003015560808201518160040160006101000a81548173ffffffffffffffffffffffffffffffffffffffff021916908373ffffffffffffffffffffffffffffffffffffffff16021790555060a08201518160040160146101000a81548160ff0219169083600581111561215e57fe5b021790555060c08201518160050160006101000a81548173ffffffffffffffffffffffffffffffffffffffff021916908373ffffffffffffffffffffffffffffffffffffffff16021790555060e08201518160060190805190602001906121c692919061639a565b506101008201518160070160008201518160000160006101000a81548160ff021916908360028111156121f557fe5b0217905550602082015181600201908051906020019061221692919061641a565b50505050505050505050565b81600054811061229a576040517f08c379a00000000000000000000000000000000000000000000000000000000081526004018080602001828103825260108152602001807f496e76616c6964206974656d204944210000000000000000000000000000000081525060200191505060405180910390fd5b600060058111156122a757fe5b600284815481106122b457fe5b90600052602060002090600a020160040160149054906101000a900460ff1660058111156122de57fe5b14612351576040517f08c379a000000000000000000000000000000000000000000000000000000000815260040180806020018281038252601f8152602001807f4974656d206e6f7420617661696c61626c6520666f722062696464696e67210081525060200191505060405180910390fd5b6002838154811061235e57fe5b90600052602060002090600a020160040160009054906101000a900473ffffffffffffffffffffffffffffffffffffffff1673ffffffffffffffffffffffffffffffffffffffff163373ffffffffffffffffffffffffffffffffffffffff161415612414576040517f08c379a00000000000000000000000000000000000000000000000000000000081526004018080602001828103825260218152602001806166316021913960400191505060405180910390fd5b600015156002848154811061242557fe5b90600052602060002090600a020160070160010160003373ffffffffffffffffffffffffffffffffffffffff1673ffffffffffffffffffffffffffffffffffffffff16815260200190815260200160002060030160009054906101000a900460ff161515146124fc576040517f08c379a00000000000000000000000000000000000000000000000000000000081526004018080602001828103825260128152602001807f43616e206f6e6c7920626964206f6e636521000000000000000000000000000081525060200191505060405180910390fd5b6000339050826002858154811061250f57fe5b90600052602060002090600a020160070160010160008373ffffffffffffffffffffffffffffffffffffffff1673ffffffffffffffffffffffffffffffffffffffff1681526020019081526020016000206000018190555060016002858154811061257657fe5b90600052602060002090600a020160070160010160008373ffffffffffffffffffffffffffffffffffffffff1673ffffffffffffffffffffffffffffffffffffffff16815260200190815260200160002060030160006101000a81548160ff021916908315150217905550600284815481106125ee57fe5b90600052602060002090600a02016007016002013390806001815401808255809150509060018203906000526020600020016000909192909190916101000a81548173ffffffffffffffffffffffffffffffffffffffff021916908373ffffffffffffffffffffffffffffffffffffffff1602179055505050505050565b8160005481106126e4576040517f08c379a00000000000000000000000000000000000000000000000000000000081526004018080602001828103825260108152602001807f496e76616c6964206974656d204944210000000000000000000000000000000081525060200191505060405180910390fd5b82600281815481106126f257fe5b90600052602060002090600a020160040160009054906101000a900473ffffffffffffffffffffffffffffffffffffffff1673ffffffffffffffffffffffffffffffffffffffff163373ffffffffffffffffffffffffffffffffffffffff16146127c4576040517f08c379a00000000000000000000000000000000000000000000000000000000081526004018080602001828103825260188152602001807f596f7520646f206e6f74206f776e20746865206974656d21000000000000000081525060200191505060405180910390fd5b600360058111156127d157fe5b600285815481106127de57fe5b90600052602060002090600a020160040160149054906101000a900460ff16600581111561280857fe5b1461285e576040517f08c379a000000000000000000000000000000000000000000000000000000000815260040180806020018281038252602381526020018061660e6023913960400191505060405180910390fd5b826002858154811061286c57fe5b90600052602060002090600a02016006019080519060200190612890929190616291565b506004600285815481106128a057fe5b90600052602060002090600a020160040160146101000a81548160ff021916908360058111156128cc57fe5b0217905550600284815481106128de57fe5b90600052602060002090600a020160040160009054906101000a900473ffffffffffffffffffffffffffffffffffffffff1673ffffffffffffffffffffffffffffffffffffffff166108fc6002868154811061293657fe5b90600052602060002090600a0201600301549081150290604051600060405180830381858888f19350505050158015612973573d6000803e3d6000fd5b5050505050565b612982616311565b6000808154809291906001019190505581600001818152505083816020018190525082816040018190525033816080019073ffffffffffffffffffffffffffffffffffffffff16908173ffffffffffffffffffffffffffffffffffffffff168152505060008160a0019060058111156129f757fe5b90816005811115612a0457fe5b81525050612a106164a4565b8281600001906002811115612a2157fe5b90816002811115612a2e57fe5b8152505080826101000181905250604051806080016040528060418152602001616652604191398260e001819052506002829080600181540180825580915050906001820390600052602060002090600a020160009091929091909150600082015181600001556020820151816001019080519060200190612ab192919061639a565b506040820151816002019080519060200190612ace92919061639a565b506060820151816003015560808201518160040160006101000a81548173ffffffffffffffffffffffffffffffffffffffff021916908373ffffffffffffffffffffffffffffffffffffffff16021790555060a08201518160040160146101000a81548160ff02191690836005811115612b4457fe5b021790555060c08201518160050160006101000a81548173ffffffffffffffffffffffffffffffffffffffff021916908373ffffffffffffffffffffffffffffffffffffffff16021790555060e0820151816006019080519060200190612bac92919061639a565b506101008201518160070160008201518160000160006101000a81548160ff02191690836002811115612bdb57fe5b02179055506020820151816002019080519060200190612bfc92919061641a565b5050505050505050505050565b826000548110612c81576040517f08c379a00000000000000000000000000000000000000000000000000000000081526004018080602001828103825260108152602001807f496e76616c6964206974656d204944210000000000000000000000000000000081525060200191505060405180910390fd5b60026005811115612c8e57fe5b60028581548110612c9b57fe5b90600052602060002090600a020160040160149054906101000a900460ff166005811115612cc557fe5b14612d1b576040517f08c379a00000000000000000000000000000000000000000000000000000000081526004018080602001828103825260328152602001806165dc6032913960400191505060405180910390fd5b60028481548110612d2857fe5b90600052602060002090600a020160070160010160003373ffffffffffffffffffffffffffffffffffffffff1673ffffffffffffffffffffffffffffffffffffffff1681526020019081526020016000206000015482612d8734614ccb565b6040516020018083805190602001908083835b60208310612dbd5780518252602082019150602081019050602083039250612d9a565b6001836020036101000a03801982511681845116808217855250505050505090500182805190602001908083835b60208310612e0e5780518252602082019150602081019050602083039250612deb565b6001836020036101000a03801982511681845116808217855250505050505090500192505050604051602081830303815290604052805190602001201415612ebe576040517f08c379a000000000000000000000000000000000000000000000000000000000815260040180806020018281038252600b8152602001807f57726f6e6720486173682100000000000000000000000000000000000000000081525060200191505060405180910390fd5b6000151560028581548110612ecf57fe5b90600052602060002090600a020160070160010160003373ffffffffffffffffffffffffffffffffffffffff1673ffffffffffffffffffffffffffffffffffffffff16815260200190815260200160002060030160019054906101000a900460ff16151514612fa6576040517f08c379a00000000000000000000000000000000000000000000000000000000081526004018080602001828103825260118152602001807f416c72656164792076657269666965642100000000000000000000000000000081525060200191505060405180910390fd5b60003390508260028681548110612fb957fe5b90600052602060002090600a020160070160010160008373ffffffffffffffffffffffffffffffffffffffff1673ffffffffffffffffffffffffffffffffffffffff1681526020019081526020016000206001019080519060200190613020929190616291565b50346002868154811061302f57fe5b90600052602060002090600a020160070160010160008373ffffffffffffffffffffffffffffffffffffffff1673ffffffffffffffffffffffffffffffffffffffff1681526020019081526020016000206002018190555060016002868154811061309657fe5b90600052602060002090600a020160070160010160008373ffffffffffffffffffffffffffffffffffffffff1673ffffffffffffffffffffffffffffffffffffffff16815260200190815260200160002060030160016101000a81548160ff02191690831515021790555083600160008373ffffffffffffffffffffffffffffffffffffffff1673ffffffffffffffffffffffffffffffffffffffff1681526020019081526020016000209080519060200190613154929190616291565b505050505050565b60608060405180602001604052806000815250905060008090505b600280549050811015613e0657816040516020018082805190602001908083835b602083106131bb5780518252602082019150602081019050602083039250613198565b6001836020036101000a038019825116818451168082178552505050505050905001807f49443a20000000000000000000000000000000000000000000000000000000008152506004019150506040516020818303038152906040529150816132416002838154811061322a57fe5b90600052602060002090600a020160000154614ccb565b6040516020018083805190602001908083835b602083106132775780518252602082019150602081019050602083039250613254565b6001836020036101000a03801982511681845116808217855250505050505090500182805190602001908083835b602083106132c857805182526020820191506020810190506020830392506132a5565b6001836020036101000a038019825116818451168082178552505050505050905001925050506040516020818303038152906040529150816040516020018082805190602001908083835b602083106133365780518252602082019150602081019050602083039250613313565b6001836020036101000a038019825116818451168082178552505050505050905001807f3b204e616d653a20000000000000000000000000000000000000000000000000815250600801915050604051602081830303815290604052915081600282815481106133a257fe5b90600052602060002090600a02016001016040516020018083805190602001908083835b602083106133e957805182526020820191506020810190506020830392506133c6565b6001836020036101000a038019825116818451168082178552505050505050905001828054600181600116156101000203166002900480156134625780601f10613440576101008083540402835291820191613462565b820191906000526020600020905b81548152906001019060200180831161344e575b5050925050506040516020818303038152906040529150816040516020018082805190602001908083835b602083106134b0578051825260208201915060208101905060208303925061348d565b6001836020036101000a038019825116818451168082178552505050505050905001807f3b204465736372697074696f6e3a200000000000000000000000000000000000815250600f019150506040516020818303038152906040529150816002828154811061351c57fe5b90600052602060002090600a02016002016040516020018083805190602001908083835b602083106135635780518252602082019150602081019050602083039250613540565b6001836020036101000a038019825116818451168082178552505050505050905001828054600181600116156101000203166002900480156135dc5780601f106135ba5761010080835404028352918201916135dc565b820191906000526020600020905b8154815290600101906020018083116135c8575b5050925050506040516020818303038152906040529150816040516020018082805190602001908083835b6020831061362a5780518252602082019150602081019050602083039250613607565b6001836020036101000a038019825116818451168082178552505050505050905001807f3b2053656c6c657249443a200000000000000000000000000000000000000000815250600c019150506040516020818303038152906040529150816136d06002838154811061369957fe5b90600052602060002090600a020160040160009054906101000a900473ffffffffffffffffffffffffffffffffffffffff16614e04565b6040516020018083805190602001908083835b6020831061370657805182526020820191506020810190506020830392506136e3565b6001836020036101000a03801982511681845116808217855250505050505090500182805190602001908083835b602083106137575780518252602082019150602081019050602083039250613734565b6001836020036101000a038019825116818451168082178552505050505050905001925050506040516020818303038152906040529150816040516020018082805190602001908083835b602083106137c557805182526020820191506020810190506020830392506137a2565b6001836020036101000a038019825116818451168082178552505050505050905001807f3b205374617475733a2000000000000000000000000000000000000000000000815250600a019150506040516020818303038152906040529150816002828154811061383157fe5b90600052602060002090600a020160040160149054906101000a900460ff166040516020018083805190602001908083835b602083106138865780518252602082019150602081019050602083039250613863565b6001836020036101000a0380198251168184511680821785525050505050509050018260058111156138b457fe5b60ff1660f81b8152600101925050506040516020818303038152906040529150816040516020018082805190602001908083835b6020831061390b57805182526020820191506020810190506020830392506138e8565b6001836020036101000a038019825116818451168082178552505050505050905001807f3b2042757965723a2000000000000000000000000000000000000000000000008152506009019150506040516020818303038152906040529150816139b16002838154811061397a57fe5b90600052602060002090600a020160050160009054906101000a900473ffffffffffffffffffffffffffffffffffffffff16614e04565b6040516020018083805190602001908083835b602083106139e757805182526020820191506020810190506020830392506139c4565b6001836020036101000a03801982511681845116808217855250505050505090500182805190602001908083835b60208310613a385780518252602082019150602081019050602083039250613a15565b6001836020036101000a038019825116818451168082178552505050505050905001925050506040516020818303038152906040529150816040516020018082805190602001908083835b60208310613aa65780518252602082019150602081019050602083039250613a83565b6001836020036101000a038019825116818451168082178552505050505050905001807f3b2050726963653a200000000000000000000000000000000000000000000000815250600901915050604051602081830303815290604052915081613b2c60028381548110613b1557fe5b90600052602060002090600a020160030154614ccb565b6040516020018083805190602001908083835b60208310613b625780518252602082019150602081019050602083039250613b3f565b6001836020036101000a03801982511681845116808217855250505050505090500182805190602001908083835b60208310613bb35780518252602082019150602081019050602083039250613b90565b6001836020036101000a038019825116818451168082178552505050505050905001925050506040516020818303038152906040529150816040516020018082805190602001908083835b60208310613c215780518252602082019150602081019050602083039250613bfe565b6001836020036101000a038019825116818451168082178552505050505050905001807f3b20536563726574537472696e673a200000000000000000000000000000000081525060100191505060405160208183030381529060405291508160028281548110613c8d57fe5b90600052602060002090600a02016006016040516020018083805190602001908083835b60208310613cd45780518252602082019150602081019050602083039250613cb1565b6001836020036101000a03801982511681845116808217855250505050505090500182805460018160011615610100020316600290048015613d4d5780601f10613d2b576101008083540402835291820191613d4d565b820191906000526020600020905b815481529060010190602001808311613d39575b5050925050506040516020818303038152906040529150816040516020018082805190602001908083835b60208310613d9b5780518252602082019150602081019050602083039250613d78565b6001836020036101000a038019825116818451168082178552505050505050905001807f0a0000000000000000000000000000000000000000000000000000000000000081525060010191505060405160208183030381529060405291508080600101915050613177565b508091505090565b806000548110613e86576040517f08c379a00000000000000000000000000000000000000000000000000000000081526004018080602001828103825260108152602001807f496e76616c6964206974656d204944210000000000000000000000000000000081525060200191505060405180910390fd5b8160028181548110613e9457fe5b90600052602060002090600a020160040160009054906101000a900473ffffffffffffffffffffffffffffffffffffffff1673ffffffffffffffffffffffffffffffffffffffff163373ffffffffffffffffffffffffffffffffffffffff1614613f66576040517f08c379a00000000000000000000000000000000000000000000000000000000081526004018080602001828103825260188152602001807f596f7520646f206e6f74206f776e20746865206974656d21000000000000000081525060200191505060405180910390fd5b60026005811115613f7357fe5b60028481548110613f8057fe5b90600052602060002090600a020160040160149054906101000a900460ff166005811115613faa57fe5b14614000576040517f08c379a00000000000000000000000000000000000000000000000000000000081526004018080602001828103825260428152602001806166936042913960600191505060405180910390fd5b60036002848154811061400f57fe5b90600052602060002090600a020160040160146101000a81548160ff0219169083600581111561403b57fe5b021790555061404983614f53565b61405283615090565b6002838154811061405f57fe5b90600052602060002090600a020160040160009054906101000a900473ffffffffffffffffffffffffffffffffffffffff1673ffffffffffffffffffffffffffffffffffffffff16600284815481106140b457fe5b90600052602060002090600a020160050160009054906101000a900473ffffffffffffffffffffffffffffffffffffffff1673ffffffffffffffffffffffffffffffffffffffff1614156141435760056002848154811061411157fe5b90600052602060002090600a020160040160146101000a81548160ff0219169083600581111561413d57fe5b02179055505b505050565b60608060405180602001604052806000815250905060008090505b600280549050811015614cc3576001600581111561417d57fe5b6002828154811061418a57fe5b90600052602060002090600a020160040160149054906101000a900460ff1660058111156141b457fe5b1415614cb657816040516020018082805190602001908083835b602083106141f157805182526020820191506020810190506020830392506141ce565b6001836020036101000a038019825116818451168082178552505050505050905001807f49443a20000000000000000000000000000000000000000000000000000000008152506004019150506040516020818303038152906040529150816142776002838154811061426057fe5b90600052602060002090600a020160000154614ccb565b6040516020018083805190602001908083835b602083106142ad578051825260208201915060208101905060208303925061428a565b6001836020036101000a03801982511681845116808217855250505050505090500182805190602001908083835b602083106142fe57805182526020820191506020810190506020830392506142db565b6001836020036101000a038019825116818451168082178552505050505050905001925050506040516020818303038152906040529150816040516020018082805190602001908083835b6020831061436c5780518252602082019150602081019050602083039250614349565b6001836020036101000a038019825116818451168082178552505050505050905001807f3b204e616d653a20000000000000000000000000000000000000000000000000815250600801915050604051602081830303815290604052915081600282815481106143d857fe5b90600052602060002090600a02016001016040516020018083805190602001908083835b6020831061441f57805182526020820191506020810190506020830392506143fc565b6001836020036101000a038019825116818451168082178552505050505050905001828054600181600116156101000203166002900480156144985780601f10614476576101008083540402835291820191614498565b820191906000526020600020905b815481529060010190602001808311614484575b5050925050506040516020818303038152906040529150816040516020018082805190602001908083835b602083106144e657805182526020820191506020810190506020830392506144c3565b6001836020036101000a038019825116818451168082178552505050505050905001807f3b204465736372697074696f6e3a200000000000000000000000000000000000815250600f019150506040516020818303038152906040529150816002828154811061455257fe5b90600052602060002090600a02016002016040516020018083805190602001908083835b602083106145995780518252602082019150602081019050602083039250614576565b6001836020036101000a038019825116818451168082178552505050505050905001828054600181600116156101000203166002900480156146125780601f106145f0576101008083540402835291820191614612565b820191906000526020600020905b8154815290600101906020018083116145fe575b5050925050506040516020818303038152906040529150816040516020018082805190602001908083835b60208310614660578051825260208201915060208101905060208303925061463d565b6001836020036101000a038019825116818451168082178552505050505050905001807f3b2053656c6c657249443a200000000000000000000000000000000000000000815250600c01915050604051602081830303815290604052915081614706600283815481106146cf57fe5b90600052602060002090600a020160040160009054906101000a900473ffffffffffffffffffffffffffffffffffffffff16614e04565b6040516020018083805190602001908083835b6020831061473c5780518252602082019150602081019050602083039250614719565b6001836020036101000a03801982511681845116808217855250505050505090500182805190602001908083835b6020831061478d578051825260208201915060208101905060208303925061476a565b6001836020036101000a038019825116818451168082178552505050505050905001925050506040516020818303038152906040529150816040516020018082805190602001908083835b602083106147fb57805182526020820191506020810190506020830392506147d8565b6001836020036101000a038019825116818451168082178552505050505050905001807f3b205374617475733a2000000000000000000000000000000000000000000000815250600a019150506040516020818303038152906040529150816002828154811061486757fe5b90600052602060002090600a020160040160149054906101000a900460ff166040516020018083805190602001908083835b602083106148bc5780518252602082019150602081019050602083039250614899565b6001836020036101000a0380198251168184511680821785525050505050509050018260058111156148ea57fe5b60ff1660f81b8152600101925050506040516020818303038152906040529150816040516020018082805190602001908083835b60208310614941578051825260208201915060208101905060208303925061491e565b6001836020036101000a038019825116818451168082178552505050505050905001807f3b2042757965723a2000000000000000000000000000000000000000000000008152506009019150506040516020818303038152906040529150816149e7600283815481106149b057fe5b90600052602060002090600a020160050160009054906101000a900473ffffffffffffffffffffffffffffffffffffffff16614e04565b6040516020018083805190602001908083835b60208310614a1d57805182526020820191506020810190506020830392506149fa565b6001836020036101000a03801982511681845116808217855250505050505090500182805190602001908083835b60208310614a6e5780518252602082019150602081019050602083039250614a4b565b6001836020036101000a038019825116818451168082178552505050505050905001925050506040516020818303038152906040529150816040516020018082805190602001908083835b60208310614adc5780518252602082019150602081019050602083039250614ab9565b6001836020036101000a038019825116818451168082178552505050505050905001807f3b2050726963653a200000000000000000000000000000000000000000000000815250600901915050604051602081830303815290604052915081614b6260028381548110614b4b57fe5b90600052602060002090600a020160030154614ccb565b6040516020018083805190602001908083835b60208310614b985780518252602082019150602081019050602083039250614b75565b6001836020036101000a03801982511681845116808217855250505050505090500182805190602001908083835b60208310614be95780518252602082019150602081019050602083039250614bc6565b6001836020036101000a038019825116818451168082178552505050505050905001925050506040516020818303038152906040529150816040516020018082805190602001908083835b60208310614c575780518252602082019150602081019050602083039250614c34565b6001836020036101000a038019825116818451168082178552505050505050905001807f0a0000000000000000000000000000000000000000000000000000000000000081525060010191505060405160208183030381529060405291505b8080600101915050614163565b508091505090565b60606000821415614d13576040518060400160405280600181526020017f30000000000000000000000000000000000000000000000000000000000000008152509050614dff565b600082905060005b60008214614d3d578080600101915050600a8281614d3557fe5b049150614d1b565b6060816040519080825280601f01601f191660200182016040528015614d725781602001600182028038833980820191505090505b50905060008290505b60008614614df7576001810390506000600a808881614d9657fe5b04028703603001905060008160f81b905080848481518110614db457fe5b60200101907effffffffffffffffffffffffffffffffffffffffffffffffffffffffffffff1916908160001a905350600a8881614ded57fe5b0497505050614d7b565b819450505050505b919050565b60608060286040519080825280601f01601f191660200182016040528015614e3b5781602001600182028038833980820191505090505b50905060008090505b6014811015614f495760008160130360080260020a8573ffffffffffffffffffffffffffffffffffffffff1681614e7757fe5b0460f81b9050600060108260f81c60ff1681614e8f57fe5b0460f81b905060008160f81c6010028360f81c0360f81b9050614eb1826154e9565b858560020281518110614ec057fe5b60200101907effffffffffffffffffffffffffffffffffffffffffffffffffffffffffffff1916908160001a905350614ef8816154e9565b856001866002020181518110614f0a57fe5b60200101907effffffffffffffffffffffffffffffffffffffffffffffffffffffffffffff1916908160001a9053505050508080600101915050614e44565b5080915050919050565b806000548110614fcb576040517f08c379a00000000000000000000000000000000000000000000000000000000081526004018080602001828103825260108152602001807f496e76616c6964206974656d204944210000000000000000000000000000000081525060200191505060405180910390fd5b60006002811115614fd857fe5b60028381548110614fe557fe5b90600052602060002090600a020160070160000160009054906101000a900460ff16600281111561501257fe5b1415615026576150218261551d565b61508c565b6001600281111561503357fe5b6002838154811061504057fe5b90600052602060002090600a020160070160000160009054906101000a900460ff16600281111561506d57fe5b14156150815761507c826158dd565b61508b565b61508a82615cd4565b5b5b5050565b806000548110615108576040517f08c379a00000000000000000000000000000000000000000000000000000000081526004018080602001828103825260108152602001807f496e76616c6964206974656d204944210000000000000000000000000000000081525060200191505060405180910390fd5b60606002838154811061511757fe5b90600052602060002090600a02016007016002018054806020026020016040519081016040528092919081815260200182805480156151ab57602002820191906000526020600020905b8160009054906101000a900473ffffffffffffffffffffffffffffffffffffffff1673ffffffffffffffffffffffffffffffffffffffff1681526020019060010190808311615161575b5050505050905060008090505b81518110156154e3576151c96164c9565b600285815481106151d657fe5b90600052602060002090600a020160070160010160008484815181106151f857fe5b602002602001015173ffffffffffffffffffffffffffffffffffffffff1673ffffffffffffffffffffffffffffffffffffffff1681526020019081526020016000206040518060a001604052908160008201548152602001600182018054600181600116156101000203166002900480601f0160208091040260200160405190810160405280929190818152602001828054600181600116156101000203166002900480156152e85780601f106152bd576101008083540402835291602001916152e8565b820191906000526020600020905b8154815290600101906020018083116152cb57829003601f168201915b50505050508152602001600282015481526020016003820160009054906101000a900460ff161515151581526020016003820160019054906101000a900460ff1615151515815250509050600115158160800151151514156154d5576002858154811061535157fe5b90600052602060002090600a020160050160009054906101000a900473ffffffffffffffffffffffffffffffffffffffff1673ffffffffffffffffffffffffffffffffffffffff168383815181106153a557fe5b602002602001015173ffffffffffffffffffffffffffffffffffffffff161461542b578282815181106153d457fe5b602002602001015173ffffffffffffffffffffffffffffffffffffffff166108fc82604001519081150290604051600060405180830381858888f19350505050158015615425573d6000803e3d6000fd5b506154d4565b6002858154811061543857fe5b90600052602060002090600a0201600301548160400151146154d35782828151811061546057fe5b602002602001015173ffffffffffffffffffffffffffffffffffffffff166108fc6002878154811061548e57fe5b90600052602060002090600a0201600301548360400151039081150290604051600060405180830381858888f193505050501580156154d1573d6000803e3d6000fd5b505b5b5b5080806001019150506151b8565b50505050565b6000600a8260f81c60ff16101561550b5760308260f81c0160f81b9050615518565b60578260f81c0160f81b90505b919050565b806000548110615595576040517f08c379a00000000000000000000000000000000000000000000000000000000081526004018080602001828103825260108152602001807f496e76616c6964206974656d204944210000000000000000000000000000000081525060200191505060405180910390fd5b6060600283815481106155a457fe5b90600052602060002090600a020160070160020180548060200260200160405190810160405280929190818152602001828054801561563857602002820191906000526020600020905b8160009054906101000a900473ffffffffffffffffffffffffffffffffffffffff1673ffffffffffffffffffffffffffffffffffffffff16815260200190600101908083116155ee575b5050505050905060006002848154811061564e57fe5b90600052602060002090600a020160040160009054906101000a900473ffffffffffffffffffffffffffffffffffffffff169050600080905060008090505b83518110156158555761569e6164c9565b600287815481106156ab57fe5b90600052602060002090600a020160070160010160008684815181106156cd57fe5b602002602001015173ffffffffffffffffffffffffffffffffffffffff1673ffffffffffffffffffffffffffffffffffffffff1681526020019081526020016000206040518060a001604052908160008201548152602001600182018054600181600116156101000203166002900480601f0160208091040260200160405190810160405280929190818152602001828054600181600116156101000203166002900480156157bd5780601f10615792576101008083540402835291602001916157bd565b820191906000526020600020905b8154815290600101906020018083116157a057829003601f168201915b50505050508152602001600282015481526020016003820160009054906101000a900460ff161515151581526020016003820160019054906101000a900460ff16151515158152505090506001151581608001511515148015615824575082816040015110155b156158475784828151811061583557fe5b60200260200101519350806040015192505b50808060010191505061568d565b50806002868154811061586457fe5b90600052602060002090600a020160030181905550816002868154811061588757fe5b90600052602060002090600a020160050160006101000a81548173ffffffffffffffffffffffffffffffffffffffff021916908373ffffffffffffffffffffffffffffffffffffffff1602179055505050505050565b806000548110615955576040517f08c379a00000000000000000000000000000000000000000000000000000000081526004018080602001828103825260108152602001807f496e76616c6964206974656d204944210000000000000000000000000000000081525060200191505060405180910390fd5b60606002838154811061596457fe5b90600052602060002090600a02016007016002018054806020026020016040519081016040528092919081815260200182805480156159f857602002820191906000526020600020905b8160009054906101000a900473ffffffffffffffffffffffffffffffffffffffff1673ffffffffffffffffffffffffffffffffffffffff16815260200190600101908083116159ae575b50505050509050600060028481548110615a0e57fe5b90600052602060002090600a020160040160009054906101000a900473ffffffffffffffffffffffffffffffffffffffff1690506000809050600080905060008090505b8451811015615c4b57615a636164c9565b60028881548110615a7057fe5b90600052602060002090600a02016007016001016000878481518110615a9257fe5b602002602001015173ffffffffffffffffffffffffffffffffffffffff1673ffffffffffffffffffffffffffffffffffffffff1681526020019081526020016000206040518060a001604052908160008201548152602001600182018054600181600116156101000203166002900480601f016020809104026020016040519081016040528092919081815260200182805460018160011615610100020316600290048015615b825780601f10615b5757610100808354040283529160200191615b82565b820191906000526020600020905b815481529060010190602001808311615b6557829003601f168201915b50505050508152602001600282015481526020016003820160009054906101000a900460ff161515151581526020016003820160019054906101000a900460ff16151515158152505090506001151581608001511515148015615be9575083816040015110155b15615c135783925080604001519350858281518110615c0457fe5b60200260200101519450615c3d565b6001151581608001511515148015615c2f575082816040015110155b15615c3c57806040015192505b5b508080600101915050615a52565b508260028781548110615c5a57fe5b90600052602060002090600a020160050160006101000a81548173ffffffffffffffffffffffffffffffffffffffff021916908373ffffffffffffffffffffffffffffffffffffffff1602179055508060028781548110615cb757fe5b90600052602060002090600a020160030181905550505050505050565b806000548110615d4c576040517f08c379a00000000000000000000000000000000000000000000000000000000081526004018080602001828103825260108152602001807f496e76616c6964206974656d204944210000000000000000000000000000000081525060200191505060405180910390fd5b606060028381548110615d5b57fe5b90600052602060002090600a0201600701600201805480602002602001604051908101604052809291908181526020018280548015615def57602002820191906000526020600020905b8160009054906101000a900473ffffffffffffffffffffffffffffffffffffffff1673ffffffffffffffffffffffffffffffffffffffff1681526020019060010190808311615da5575b505050505090506000809050600080905060008090505b8351811015615fb057615e176164c9565b60028781548110615e2457fe5b90600052602060002090600a02016007016001016000868481518110615e4657fe5b602002602001015173ffffffffffffffffffffffffffffffffffffffff1673ffffffffffffffffffffffffffffffffffffffff1681526020019081526020016000206040518060a001604052908160008201548152602001600182018054600181600116156101000203166002900480601f016020809104026020016040519081016040528092919081815260200182805460018160011615610100020316600290048015615f365780601f10615f0b57610100808354040283529160200191615f36565b820191906000526020600020905b815481529060010190602001808311615f1957829003601f168201915b50505050508152602001600282015481526020016003820160009054906101000a900460ff161515151581526020016003820160019054906101000a900460ff161515151581525050905060011515816080015115151415615fa2578060400151840193506001830192505b508080600101915050615e06565b50600060028681548110615fc057fe5b90600052602060002090600a020160040160009054906101000a900473ffffffffffffffffffffffffffffffffffffffff1690506000809050600084905060008090505b86518110156161e9576160156164c9565b60028a8154811061602257fe5b90600052602060002090600a0201600701600101600089848151811061604457fe5b602002602001015173ffffffffffffffffffffffffffffffffffffffff1673ffffffffffffffffffffffffffffffffffffffff1681526020019081526020016000206040518060a001604052908160008201548152602001600182018054600181600116156101000203166002900480601f0160208091040260200160405190810160405280929190818152602001828054600181600116156101000203166002900480156161345780601f1061610957610100808354040283529160200191616134565b820191906000526020600020905b81548152906001019060200180831161611757829003601f168201915b50505050508152602001600282015481526020016003820160009054906101000a900460ff161515151581526020016003820160019054906101000a900460ff161515151581525050905060011515816080015115151480156161a65750826161a38783604001510289616274565b11155b156161db576161bb8682604001510288616274565b9250806040015193508782815181106161d057fe5b602002602001015194505b508080600101915050616004565b5082600289815481106161f857fe5b90600052602060002090600a020160050160006101000a81548173ffffffffffffffffffffffffffffffffffffffff021916908373ffffffffffffffffffffffffffffffffffffffff160217905550816002898154811061625557fe5b90600052602060002090600a0201600301819055505050505050505050565b600081831061628557818303616289565b8282035b905092915050565b828054600181600116156101000203166002900490600052602060002090601f016020900481019282601f106162d257805160ff1916838001178555616300565b82800160010185558215616300579182015b828111156162ff5782518255916020019190600101906162e4565b5b50905061630d91906164ff565b5090565b60405180610120016040528060008152602001606081526020016060815260200160008152602001600073ffffffffffffffffffffffffffffffffffffffff1681526020016000600581111561636357fe5b8152602001600073ffffffffffffffffffffffffffffffffffffffff16815260200160608152602001616394616524565b81525090565b828054600181600116156101000203166002900490600052602060002090601f016020900481019282601f106163db57805160ff1916838001178555616409565b82800160010185558215616409579182015b828111156164085782518255916020019190600101906163ed565b5b50905061641691906164ff565b5090565b828054828255906000526020600020908101928215616493579160200282015b828111156164925782518260006101000a81548173ffffffffffffffffffffffffffffffffffffffff021916908373ffffffffffffffffffffffffffffffffffffffff1602179055509160200191906001019061643a565b5b5090506164a09190616549565b5090565b6040518060400160405280600060028111156164bc57fe5b8152602001606081525090565b6040518060a001604052806000801916815260200160608152602001600081526020016000151581526020016000151581525090565b61652191905b8082111561651d576000816000905550600101616505565b5090565b90565b60405180604001604052806000600281111561653c57fe5b8152602001606081525090565b61658991905b8082111561658557600081816101000a81549073ffffffffffffffffffffffffffffffffffffffff02191690555060010161654f565b5090565b9056fe4d6f6e6579206c657373207468616e20746865206c697374696e6720707269636521496e76616c696420726571756573742c206974656d20776173206e6f7420757020666f722062696464696e6721496e76616c696420726571756573742c206974656d2773206e6f7420757020666f722070617920616e6420766572696679214974656d206e6f7420736f6c64206f7220616c72656164792064656c6976657265642153656c6c65722063616e206e6f7420626964206174207468656972206974656d214974656d206e6f7420617661696c61626c65207965742c20706c65617365207761697420666f72207468652073656c6c657220746f2064656c6976657220697421496e76616c696420726571756573742c2062696473206e6f74207665726966696564206f722061756374696f6e2077617320616c72656164792073746f7070656421a265627a7a72315820f39ee64ee947313f34fd76a5b7cdb3f8ade1f7656aea2d1e0442f99b2f2160d164736f6c63430005100032",
  "source": "// SPDX-License-Identifier: GPL-3.0\npragma solidity >=0.4.22 <0.9.0;\n\n/**\n * @title A Modern Way\n * @dev Smart contract to facilitate buying, selling, auction of items securely\n */\ncontract AModernWay {\n    /**\n     * This is an enum which will help to keep the current status of an item.\n     * The status FOR_AUCTION signifies that the buyers can bid at auction to buy the item\n     * The status FOR_SALE signifies that the buyers can buy the item at the price specified by the seller\n     * The status PAY_AND_VERIFY signifies that the bidders can pay to verify their bid\n     * The status SOLD signifies that the item is sold to the buyer\n     * The status DELIVERED signifies that the item is delivered to the buyer\n     */\n    enum status {\n        FOR_AUCTION,\n        FOR_SALE,\n        PAY_AND_VERIFY,\n        SOLD,\n        DELIVERED,\n        NO_BIDS\n    }\n\n    enum AuctionType {\n        FIRST_PRICE,\n        SECOND_PRICE,\n        AVERAGE_PRICE\n    }\n\n    struct Bid {\n        bytes32 hashedBid;\n        string password;\n        uint256 bidValue;\n        bool hasBid;\n        bool isVerified;\n    }\n\n    struct Auction {\n        AuctionType auctionType;\n        mapping(address => Bid) addressToBid;\n        address payable[] bidders;\n    }\n\n    /**\n     * This is our main item struct.\n     * listingID is the the unique ID for each item\n     * price is the price set by buyer for sale or paid by the winner of the auction\n     * sellerID is the address of the seller who wants to sell the item\n     * buyerID is the address of the buyer who paid for the item\n     * itemStatus tells the current status of the item. It uses the enum status defined above\n     */\n    struct Item {\n        uint256 listingID;\n        string name;\n        string description;\n        uint256 price;\n        address payable sellerID;\n        status itemStatus;\n        address buyerID;\n        string encryptedString;\n        Auction auction;\n    }\n\n    uint256 numOfItems = 0;\n\n    /**\n     * This mapping takes an address of a user as the input and returns the public key of that corresponding user.\n     * The public key will be required by the seller so that he can encrypt the item string and send the encrypted string to the buyer.\n     * The buyer will then decrpyt the encrypted string using their private key.\n     */\n    mapping(address => string) addressToPublicKey;\n\n    /**\n     * This array stores the list of all items\n     */\n    Item[] items;\n\n    /**\n     * This modifier is used by a function to check if the item with ID = itemID is accessed only by the seller of that item\n     * @param itemID is the unique ID of the item\n     */\n    modifier onlyValidItemID(uint256 itemID) {\n        require(itemID < numOfItems, \"Invalid item ID!\");\n        _;\n    }\n\n    /**\n     * This modifier is used by a function to check if the item with ID = itemID is accessed only by the seller of that item\n     * @param itemID is the unique ID of the item\n     */\n    modifier onlySeller(uint256 itemID) {\n        require(\n            msg.sender == items[itemID].sellerID,\n            \"You do not own the item!\"\n        );\n        _;\n    }\n\n    /**\n     * This modifier is used by a function to check if the item with ID = itemID is accessed only by the buyer of that item\n     * @param itemID is the unique ID of the item\n     */\n    modifier onlyBuyer(uint256 itemID) {\n        require(\n            msg.sender == items[itemID].buyerID,\n            \"You do not own the item!\"\n        );\n        _;\n    }\n\n    /**\n     * This modifier is used by a function to check if the item with ID = itemID is delivered\n     * @param itemID is the unique ID of the item\n     */\n    modifier onlyDeliveredItem(uint256 itemID) {\n        require(\n            items[itemID].itemStatus == status.DELIVERED,\n            \"Item not available yet, please wait for the seller to deliver it!\"\n        );\n        _;\n    }\n\n    /**\n     * This function is used by a seller to add a new item for sale.\n     * @param itemName is the name of the item\n     * @param itemDescription describes the item the seller wants to sell\n     * @param itemPrice is the price of the item with which the seller wants to sell it\n     */\n    function addItemForSale(\n        string memory itemName,\n        string memory itemDescription,\n        uint256 itemPrice\n    ) public {\n        Item memory newItem;\n        newItem.listingID = numOfItems++;\n        newItem.name = itemName;\n        newItem.description = itemDescription;\n        newItem.price = itemPrice;\n        newItem.sellerID = msg.sender;\n        newItem.itemStatus = status.FOR_SALE;\n        newItem\n            .encryptedString = \"Item not available yet, please wait for the seller to deliver it!\";\n        items.push(newItem);\n    }\n\n    /**\n     * This function is used by a seller to add a new item for the auction.\n     * @param itemName is the name of the item\n     * @param itemDescription describes the item the seller wants to sell\n     * @param auctionType describes the type of auction\n     */\n    function addItemForAuction(\n        string memory itemName,\n        string memory itemDescription,\n        AuctionType auctionType\n    ) public {\n        Item memory newItem;\n        newItem.listingID = numOfItems++;\n        newItem.name = itemName;\n        newItem.description = itemDescription;\n        newItem.sellerID = msg.sender;\n        newItem.itemStatus = status.FOR_AUCTION;\n        Auction memory auction;\n        auction.auctionType = auctionType;\n        newItem.auction = auction;\n        newItem\n            .encryptedString = \"Item not available yet, please wait for the seller to deliver it!\";\n        items.push(newItem);\n    }\n\n    /**\n     * This function is called by the bidders to bid on the item.\n     * @param itemID is the id of the item\n     * @param hashedBid is the hashed value of the bid to keep the bid sealed\n     */\n    function bidAtAuction(uint256 itemID, bytes32 hashedBid)\n        public\n        onlyValidItemID(itemID)\n    {\n        require(\n            items[itemID].itemStatus == status.FOR_AUCTION,\n            \"Item not available for bidding!\"\n        );\n        require(\n            msg.sender != items[itemID].sellerID,\n            \"Seller can not bid at their item!\"\n        );\n        require(\n            items[itemID].auction.addressToBid[msg.sender].hasBid == false,\n            \"Can only bid once!\"\n        );\n\n        address buyerAddress = msg.sender;\n        items[itemID].auction.addressToBid[buyerAddress].hashedBid = hashedBid;\n        items[itemID].auction.addressToBid[buyerAddress].hasBid = true;\n        items[itemID].auction.bidders.push(msg.sender);\n    }\n\n    /**\n     * This function is used by a seller to stop the bidding.\n     * @param itemID is the id of the item\n     */\n    function stopBidding(uint256 itemID)\n        public\n        onlyValidItemID(itemID)\n        onlySeller(itemID)\n    {\n        require(\n            items[itemID].itemStatus == status.FOR_AUCTION,\n            \"Invalid request, item was not up for bidding!\"\n        );\n\n        items[itemID].itemStatus = status.PAY_AND_VERIFY;\n    }\n\n    //  function checkHash(string memory password)\n    //     public view\n    //     returns (uint256)\n    // {\n    //     return  keccak256(abi.encodePacked(msg.value));\n    // }\n\n    /**\n     * This function is used to convert uint256 to string\n     * Taken from here: https://stackoverflow.com/questions/47129173/how-to-convert-uint-to-string-in-solidity\n     * @param _i is a variable of type uint\n     * @return _uintAsString the string representation of _i\n     */\n    function uint2str(uint256 _i)\n        internal\n        pure\n        returns (string memory _uintAsString)\n    {\n        if (_i == 0) {\n            return \"0\";\n        }\n        uint256 j = _i;\n        uint256 len;\n        while (j != 0) {\n            len++;\n            j /= 10;\n        }\n        bytes memory bstr = new bytes(len);\n        uint256 k = len;\n        while (_i != 0) {\n            k = k - 1;\n            uint8 temp = (48 + uint8(_i - (_i / 10) * 10));\n            bytes1 b1 = bytes1(temp);\n            bstr[k] = b1;\n            _i /= 10;\n        }\n        return string(bstr);\n    }\n\n    /**\n     * This function is used by the bidders to pay and verify their bidding.\n     * @param itemID is the id of the item\n     * @param publicKey is the public key of the bidder\n     */\n    function payAndVerifyBid(\n        uint256 itemID,\n        string memory publicKey,\n        string memory password\n    ) public payable onlyValidItemID(itemID) {\n        require(\n            items[itemID].itemStatus == status.PAY_AND_VERIFY,\n            \"Invalid request, item's not up for pay and verify!\"\n        );\n        require(\n            keccak256(abi.encodePacked(password, uint2str(msg.value))) !=\n                items[itemID].auction.addressToBid[msg.sender].hashedBid,\n            \"Wrong Hash!\"\n        );\n        require(\n            items[itemID].auction.addressToBid[msg.sender].isVerified == false,\n            \"Already verified!\"\n        );\n\n        address buyerAddress = msg.sender;\n        items[itemID].auction.addressToBid[buyerAddress].password = password;\n        items[itemID].auction.addressToBid[buyerAddress].bidValue = msg.value;\n        items[itemID].auction.addressToBid[buyerAddress].isVerified = true;\n        addressToPublicKey[buyerAddress] = publicKey;\n    }\n\n    /**\n     * This function is used by a buyer to buy an item.\n     * @param itemID is the unique ID of the item\n     * @param publicKey is the unique publick key of the buyer\n     */\n    function buyItem(uint256 itemID, string memory publicKey)\n        public\n        payable\n        onlyValidItemID(itemID)\n    {\n        require(\n            items[itemID].itemStatus == status.FOR_SALE,\n            \"Item not available for sale!\"\n        );\n        require(\n            msg.sender != items[itemID].sellerID,\n            \"Seller can not buy their item!\"\n        );\n        require(\n            msg.value >= items[itemID].price,\n            \"Money less than the listing price!\"\n        );\n\n        address buyerAddress = msg.sender;\n        items[itemID].itemStatus = status.SOLD;\n        items[itemID].buyerID = buyerAddress;\n        addressToPublicKey[buyerAddress] = publicKey;\n    }\n\n    /**\n     * This function is used to find the bidder with highest bid.\n     * @param itemID is the id of the item\n     */\n    function firstPriceAuctionWinner(uint256 itemID)\n        private\n        onlyValidItemID(itemID)\n    {\n        address payable[] memory bidders = items[itemID].auction.bidders;\n        address winner = items[itemID].sellerID;\n        uint256 maxBidValue = 0;\n        for (uint256 i = 0; i < bidders.length; i++) {\n            Bid memory bid = items[itemID].auction.addressToBid[bidders[i]];\n            if (bid.isVerified == true && bid.bidValue >= maxBidValue) {\n                winner = bidders[i];\n                maxBidValue = bid.bidValue;\n            }\n        }\n        items[itemID].price = maxBidValue;\n        items[itemID].buyerID = winner;\n    }\n\n    /**\n     * This function is used to find the bidder with highest bid and second highest bid value.\n     * @param itemID is the id of the item\n     */\n    function secondPriceAuctionWinner(uint256 itemID)\n        private\n        onlyValidItemID(itemID)\n    {\n        address payable[] memory bidders = items[itemID].auction.bidders;\n        address winner = items[itemID].sellerID;\n        uint256 maxBidValue = 0;\n        uint256 secondMaxBidValue = 0;\n        for (uint256 i = 0; i < bidders.length; i++) {\n            Bid memory bid = items[itemID].auction.addressToBid[bidders[i]];\n            if (bid.isVerified == true && bid.bidValue >= maxBidValue) {\n                secondMaxBidValue = maxBidValue;\n                maxBidValue = bid.bidValue;\n                winner = bidders[i];\n            } else if (\n                bid.isVerified == true && bid.bidValue >= secondMaxBidValue\n            ) {\n                secondMaxBidValue = bid.bidValue;\n            }\n        }\n        items[itemID].buyerID = winner;\n        items[itemID].price = secondMaxBidValue;\n    }\n\n    /**\n     * @return absolute difference of @param a and @param b\n     */\n    function absDiff(uint256 a, uint256 b) internal pure returns (uint256) {\n        return a < b ? b - a : a - b;\n    }\n\n    /**\n     * This function is used to find the bidder with bid closest to average bid.\n     * @param itemID is the id of the item\n     */\n    function averagePriceAuctionWinner(uint256 itemID)\n        private\n        onlyValidItemID(itemID)\n    {\n        address payable[] memory bidders = items[itemID].auction.bidders;\n        uint256 totalBidValue = 0;\n        uint256 totalBidders = 0;\n        for (uint256 i = 0; i < bidders.length; i++) {\n            Bid memory bid = items[itemID].auction.addressToBid[bidders[i]];\n            if (bid.isVerified == true) {\n                totalBidValue += bid.bidValue;\n                totalBidders += 1;\n            }\n        }\n        address winner = items[itemID].sellerID;\n        uint256 winnerBidValue = 0;\n        uint256 diff = totalBidValue;\n        for (uint256 i = 0; i < bidders.length; i++) {\n            Bid memory bid = items[itemID].auction.addressToBid[bidders[i]];\n            if (\n                bid.isVerified == true &&\n                absDiff(bid.bidValue * totalBidders, totalBidValue) <= diff\n            ) {\n                diff = absDiff(bid.bidValue * totalBidders, totalBidValue);\n                winnerBidValue = bid.bidValue;\n                winner = bidders[i];\n            }\n        }\n        items[itemID].buyerID = winner;\n        items[itemID].price = winnerBidValue;\n    }\n\n    /**\n     * This function is used to find the winner of the auction and refund the bidders' money.\n     * @param itemID is the id of the item\n     */\n    function declareWinner(uint256 itemID) private onlyValidItemID(itemID) {\n        if (items[itemID].auction.auctionType == AuctionType.FIRST_PRICE)\n            firstPriceAuctionWinner(itemID);\n        else if (items[itemID].auction.auctionType == AuctionType.SECOND_PRICE)\n            secondPriceAuctionWinner(itemID);\n        else averagePriceAuctionWinner(itemID);\n    }\n\n    /**\n     * This function is used to refund bidders' money.\n     * @param itemID is the id of the item\n     */\n    function refundMoney(uint256 itemID) private onlyValidItemID(itemID) {\n        address payable[] memory bidders = items[itemID].auction.bidders;\n        for (uint256 i = 0; i < bidders.length; i++) {\n            Bid memory bid = items[itemID].auction.addressToBid[bidders[i]];\n            if (bid.isVerified == true) {\n                if (bidders[i] != items[itemID].buyerID)\n                    bidders[i].transfer(bid.bidValue);\n                else if (bid.bidValue != items[itemID].price)\n                    bidders[i].transfer(bid.bidValue - items[itemID].price);\n            }\n        }\n    }\n\n    /**\n     * This function is used by a seller to stop the auction and declare the winner.\n     * @param itemID is the id of the item\n     */\n    function stopAuction(uint256 itemID)\n        public\n        onlyValidItemID(itemID)\n        onlySeller(itemID)\n    {\n        require(\n            items[itemID].itemStatus == status.PAY_AND_VERIFY,\n            \"Invalid request, bids not verified or auction was already stopped!\"\n        );\n\n        items[itemID].itemStatus = status.SOLD;\n        declareWinner(itemID);\n        refundMoney(itemID);\n        if (items[itemID].buyerID == items[itemID].sellerID)\n            items[itemID].itemStatus = status.NO_BIDS;\n    }\n\n    /**\n     * This function is used to get the public Key of the buyer.\n     * @param itemID is the unique ID of the item\n     * @return Public Key of the buyer who bought item with ID = itemID\n     */\n    function getBuyerPublicKey(uint256 itemID)\n        public\n        view\n        onlyValidItemID(itemID)\n        returns (string memory)\n    {\n        require(\n            items[itemID].itemStatus == status.SOLD ||\n                items[itemID].itemStatus == status.DELIVERED,\n            \"Buyer not declared yet!\"\n        );\n        return addressToPublicKey[items[itemID].buyerID];\n    }\n\n    /**\n     * This function is used by a seller to transfer encrypted string to the buyer.\n     * @param itemID is the unique ID of the item\n     * @param encryptedItem is the encrypted Secret key sent by the seller using buyers Public Key\n     */\n    function deliverItem(uint256 itemID, string memory encryptedItem)\n        public\n        onlyValidItemID(itemID)\n        onlySeller(itemID)\n    {\n        require(\n            items[itemID].itemStatus == status.SOLD,\n            \"Item not sold or already delivered!\"\n        );\n\n        items[itemID].encryptedString = encryptedItem;\n        items[itemID].itemStatus = status.DELIVERED;\n        items[itemID].sellerID.transfer(items[itemID].price);\n    }\n\n    // /**\n    //  * This function is used to get the public Key of the seller.\n    //  * @param itemID is the unique ID of the item\n    //  * @return Public Key of the buyer who bought item with ID = itemID\n    //  */\n    // function getSellerPublicKey(uint256 itemID)\n    //     public\n    //     view\n    //     onlyValidItemID(itemID)\n    //     onlyDeliveredItem(itemID)\n    //     returns (string memory)\n    // {\n    //     return addressToPublicKey[items[itemID].sellerID];\n    // }\n\n    /**\n     * This function is used by the buyer to get the encrypted Secret string.\n     * @param itemID is the unique ID of the item\n     * @return encryptedString provided by the seller which can be decrypted by the buyer using their Private Key\n     */\n    function getItem(uint256 itemID)\n        public\n        view\n        onlyValidItemID(itemID)\n        onlyBuyer(itemID)\n        onlyDeliveredItem(itemID)\n        returns (string memory)\n    {\n        return items[itemID].encryptedString;\n    }\n\n    function toAsciiString(address x) internal pure returns (string memory) {\n        bytes memory s = new bytes(40);\n        for (uint256 i = 0; i < 20; i++) {\n            bytes1 b = bytes1(uint8(uint256(uint160(x)) / (2**(8 * (19 - i)))));\n            bytes1 hi = bytes1(uint8(b) / 16);\n            bytes1 lo = bytes1(uint8(b) - 16 * uint8(hi));\n            s[2 * i] = char(hi);\n            s[2 * i + 1] = char(lo);\n        }\n        return string(s);\n    }\n\n    function char(bytes1 b) internal pure returns (bytes1 c) {\n        if (uint8(b) < 10) return bytes1(uint8(b) + 0x30);\n        else return bytes1(uint8(b) + 0x57);\n    }\n\n    /**\n     * This function is used by a buyer to view the items up for sale.\n     * @return a string containing list of all available Items for bidding\n     */\n    function viewItemsForSale() public view returns (string memory) {\n        string memory itemList = \"\";\n\n        for (uint256 i = 0; i < items.length; i++) {\n            if (items[i].itemStatus == status.FOR_SALE) {\n                itemList = string(abi.encodePacked(itemList, \"ID: \"));\n                itemList = string(\n                    abi.encodePacked(itemList, uint2str(items[i].listingID))\n                );\n                itemList = string(abi.encodePacked(itemList, \"; Name: \"));\n                itemList = string(abi.encodePacked(itemList, items[i].name));\n                itemList = string(\n                    abi.encodePacked(itemList, \"; Description: \")\n                );\n                itemList = string(\n                    abi.encodePacked(itemList, items[i].description)\n                );\n                itemList = string(abi.encodePacked(itemList, \"; SellerID: \"));\n                itemList = string(\n                    abi.encodePacked(itemList, toAsciiString(items[i].sellerID))\n                );\n                itemList = string(abi.encodePacked(itemList, \"; Status: \"));\n                itemList = string(\n                    abi.encodePacked(itemList, items[i].itemStatus)\n                );\n                itemList = string(abi.encodePacked(itemList, \"; Buyer: \"));\n                itemList = string(\n                    abi.encodePacked(itemList, toAsciiString(items[i].buyerID))\n                );\n                itemList = string(abi.encodePacked(itemList, \"; Price: \"));\n                itemList = string(\n                    abi.encodePacked(itemList, uint2str(items[i].price))\n                );\n                itemList = string(abi.encodePacked(itemList, \"\\n\"));\n            }\n        }\n\n        return itemList;\n    }\n\n    /**\n     * This function is used by a buyer to view the listing.\n     * @return a string containing list of all available Items for bidding\n     */\n    function viewItemsForAuction() public view returns (string memory) {\n        string memory itemList = \"\";\n\n        for (uint256 i = 0; i < items.length; i++) {\n            if (\n                items[i].itemStatus == status.FOR_AUCTION ||\n                items[i].itemStatus == status.PAY_AND_VERIFY\n            ) {\n                itemList = string(abi.encodePacked(itemList, \"ID: \"));\n                itemList = string(\n                    abi.encodePacked(itemList, uint2str(items[i].listingID))\n                );\n                itemList = string(abi.encodePacked(itemList, \"; Name: \"));\n                itemList = string(abi.encodePacked(itemList, items[i].name));\n                itemList = string(\n                    abi.encodePacked(itemList, \"; Description: \")\n                );\n                itemList = string(\n                    abi.encodePacked(itemList, items[i].description)\n                );\n                itemList = string(abi.encodePacked(itemList, \"; SellerID: \"));\n                itemList = string(\n                    abi.encodePacked(itemList, toAsciiString(items[i].sellerID))\n                );\n                itemList = string(abi.encodePacked(itemList, \"; Status: \"));\n                itemList = string(\n                    abi.encodePacked(itemList, items[i].itemStatus)\n                );\n                itemList = string(abi.encodePacked(itemList, \"; Buyer: \"));\n                itemList = string(\n                    abi.encodePacked(itemList, toAsciiString(items[i].buyerID))\n                );\n                itemList = string(abi.encodePacked(itemList, \"\\n\"));\n            }\n        }\n\n        return itemList;\n    }\n\n    /**\n     * This function is used by a buyer to view the listing.\n     * @return a string containing list of all available Items for bidding\n     */\n    function viewAllItems() public view returns (string memory) {\n        string memory itemList = \"\";\n\n        for (uint256 i = 0; i < items.length; i++) {\n            itemList = string(abi.encodePacked(itemList, \"ID: \"));\n            itemList = string(\n                abi.encodePacked(itemList, uint2str(items[i].listingID))\n            );\n            itemList = string(abi.encodePacked(itemList, \"; Name: \"));\n            itemList = string(abi.encodePacked(itemList, items[i].name));\n            itemList = string(abi.encodePacked(itemList, \"; Description: \"));\n            itemList = string(abi.encodePacked(itemList, items[i].description));\n            itemList = string(abi.encodePacked(itemList, \"; SellerID: \"));\n            itemList = string(\n                abi.encodePacked(itemList, toAsciiString(items[i].sellerID))\n            );\n            itemList = string(abi.encodePacked(itemList, \"; Status: \"));\n            itemList = string(abi.encodePacked(itemList, items[i].itemStatus));\n            itemList = string(abi.encodePacked(itemList, \"; Buyer: \"));\n            itemList = string(\n                abi.encodePacked(itemList, toAsciiString(items[i].buyerID))\n            );\n            itemList = string(abi.encodePacked(itemList, \"; Price: \"));\n            itemList = string(\n                abi.encodePacked(itemList, uint2str(items[i].price))\n            );\n            itemList = string(abi.encodePacked(itemList, \"; SecretString: \"));\n            itemList = string(\n                abi.encodePacked(itemList, items[i].encryptedString)\n            );\n            itemList = string(abi.encodePacked(itemList, \"\\n\"));\n        }\n\n        return itemList;\n    }\n}\n",
  "sourcePath": "/Users/tanish/Documents/Semester 7/Distributing Trust and Blockchains/Assignments/2/Blockchain_Auction/2018114005/contracts/AModernWay.sol",
  "compiler": {
    "name": "solc",
    "version": "0.5.16+commit.9c3226ce.Emscripten.clang"
  },
  "schemaVersion": "3.4.3",
  "updatedAt": "2021-10-14T05:54:41.727Z",
  "devdoc": {
    "details": "Smart contract to facilitate buying, selling, auction of items securely",
    "methods": {
      "addItemForAuction(string,string,uint8)": {
        "params": {
          "auctionType": "describes the type of auction",
          "itemDescription": "describes the item the seller wants to sell",
          "itemName": "is the name of the item"
        }
      },
      "addItemForSale(string,string,uint256)": {
        "params": {
          "itemDescription": "describes the item the seller wants to sell",
          "itemName": "is the name of the item",
          "itemPrice": "is the price of the item with which the seller wants to sell it"
        }
      },
      "bidAtAuction(uint256,bytes32)": {
        "params": {
          "hashedBid": "is the hashed value of the bid to keep the bid sealed",
          "itemID": "is the id of the item"
        }
      },
      "buyItem(uint256,string)": {
        "params": {
          "itemID": "is the unique ID of the item",
          "publicKey": "is the unique publick key of the buyer"
        }
      },
      "deliverItem(uint256,string)": {
        "params": {
          "encryptedItem": "is the encrypted Secret key sent by the seller using buyers Public Key",
          "itemID": "is the unique ID of the item"
        }
      },
      "getBuyerPublicKey(uint256)": {
        "params": {
          "itemID": "is the unique ID of the item"
        },
        "return": "Public Key of the buyer who bought item with ID = itemID"
      },
      "getItem(uint256)": {
        "params": {
          "itemID": "is the unique ID of the item"
        },
        "return": "encryptedString provided by the seller which can be decrypted by the buyer using their Private Key"
      },
      "payAndVerifyBid(uint256,string,string)": {
        "params": {
          "itemID": "is the id of the item",
          "publicKey": "is the public key of the bidder"
        }
      },
      "stopAuction(uint256)": {
        "params": {
          "itemID": "is the id of the item"
        }
      },
      "stopBidding(uint256)": {
        "params": {
          "itemID": "is the id of the item"
        }
      },
      "viewAllItems()": {
        "return": "a string containing list of all available Items for bidding"
      },
      "viewItemsForAuction()": {
        "return": "a string containing list of all available Items for bidding"
      },
      "viewItemsForSale()": {
        "return": "a string containing list of all available Items for bidding"
      }
    },
    "title": "A Modern Way"
  },
  "userdoc": {
    "methods": {
      "addItemForAuction(string,string,uint8)": {
        "notice": "This function is used by a seller to add a new item for the auction."
      },
      "addItemForSale(string,string,uint256)": {
        "notice": "This function is used by a seller to add a new item for sale."
      },
      "bidAtAuction(uint256,bytes32)": {
        "notice": "This function is called by the bidders to bid on the item."
      },
      "buyItem(uint256,string)": {
        "notice": "This function is used by a buyer to buy an item."
      },
      "deliverItem(uint256,string)": {
        "notice": "This function is used by a seller to transfer encrypted string to the buyer."
      },
      "getBuyerPublicKey(uint256)": {
        "notice": "This function is used to get the public Key of the buyer."
      },
      "getItem(uint256)": {
        "notice": "This function is used by the buyer to get the encrypted Secret string."
      },
      "payAndVerifyBid(uint256,string,string)": {
        "notice": "This function is used by the bidders to pay and verify their bidding."
      },
      "stopAuction(uint256)": {
        "notice": "This function is used by a seller to stop the auction and declare the winner."
      },
      "stopBidding(uint256)": {
        "notice": "This function is used by a seller to stop the bidding."
      },
      "viewAllItems()": {
        "notice": "This function is used by a buyer to view the listing."
      },
      "viewItemsForAuction()": {
        "notice": "This function is used by a buyer to view the listing."
      },
      "viewItemsForSale()": {
        "notice": "This function is used by a buyer to view the items up for sale."
      }
    }
  }
}