{
  "contractName": "AModernWay",
  "abi": [
    {
      "constant": false,
      "inputs": [
        {
          "internalType": "string",
          "name": "itemName",
          "type": "string"
        },
        {
          "internalType": "string",
          "name": "itemDescription",
          "type": "string"
        },
        {
          "internalType": "string",
          "name": "auctionType",
          "type": "string"
        }
      ],
      "name": "addNewItem",
      "outputs": [],
      "payable": false,
      "stateMutability": "nonpayable",
      "type": "function"
    },
    {
      "constant": false,
      "inputs": [
        {
          "internalType": "uint256",
          "name": "itemID",
          "type": "uint256"
        },
        {
          "internalType": "string",
          "name": "auctionType",
          "type": "string"
        }
      ],
      "name": "startAuction",
      "outputs": [],
      "payable": false,
      "stateMutability": "nonpayable",
      "type": "function"
    },
    {
      "constant": false,
      "inputs": [
        {
          "internalType": "uint256",
          "name": "itemID",
          "type": "uint256"
        },
        {
          "internalType": "bytes32",
          "name": "hashedBid",
          "type": "bytes32"
        }
      ],
      "name": "bidAtAuction",
      "outputs": [],
      "payable": false,
      "stateMutability": "nonpayable",
      "type": "function"
    },
    {
      "constant": false,
      "inputs": [
        {
          "internalType": "uint256",
          "name": "itemID",
          "type": "uint256"
        }
      ],
      "name": "stopBidding",
      "outputs": [],
      "payable": false,
      "stateMutability": "nonpayable",
      "type": "function"
    },
    {
      "constant": false,
      "inputs": [
        {
          "internalType": "uint256",
          "name": "itemID",
          "type": "uint256"
        },
        {
          "internalType": "string",
          "name": "publicKey",
          "type": "string"
        }
      ],
      "name": "payAndVerifyBid",
      "outputs": [],
      "payable": true,
      "stateMutability": "payable",
      "type": "function"
    },
    {
      "constant": false,
      "inputs": [
        {
          "internalType": "uint256",
          "name": "itemID",
          "type": "uint256"
        }
      ],
      "name": "stopAuction",
      "outputs": [],
      "payable": false,
      "stateMutability": "nonpayable",
      "type": "function"
    },
    {
      "constant": true,
      "inputs": [
        {
          "internalType": "uint256",
          "name": "itemID",
          "type": "uint256"
        }
      ],
      "name": "getWinnerPublicKey",
      "outputs": [
        {
          "internalType": "string",
          "name": "",
          "type": "string"
        }
      ],
      "payable": false,
      "stateMutability": "view",
      "type": "function"
    },
    {
      "constant": false,
      "inputs": [
        {
          "internalType": "uint256",
          "name": "itemID",
          "type": "uint256"
        },
        {
          "internalType": "string",
          "name": "encryptedItem",
          "type": "string"
        },
        {
          "internalType": "string",
          "name": "publicKey",
          "type": "string"
        }
      ],
      "name": "deliverItem",
      "outputs": [],
      "payable": false,
      "stateMutability": "nonpayable",
      "type": "function"
    },
    {
      "constant": true,
      "inputs": [
        {
          "internalType": "uint256",
          "name": "itemID",
          "type": "uint256"
        }
      ],
      "name": "getSellerPublicKey",
      "outputs": [
        {
          "internalType": "string",
          "name": "",
          "type": "string"
        }
      ],
      "payable": false,
      "stateMutability": "view",
      "type": "function"
    },
    {
      "constant": true,
      "inputs": [
        {
          "internalType": "uint256",
          "name": "itemID",
          "type": "uint256"
        }
      ],
      "name": "getItem",
      "outputs": [
        {
          "internalType": "string",
          "name": "",
          "type": "string"
        }
      ],
      "payable": false,
      "stateMutability": "view",
      "type": "function"
    },
    {
      "constant": true,
      "inputs": [],
      "name": "viewItemsForBidding",
      "outputs": [
        {
          "internalType": "string",
          "name": "",
          "type": "string"
        }
      ],
      "payable": false,
      "stateMutability": "view",
      "type": "function"
    }
  ],
  "bytecode": "0x60806040526000805534801561001457600080fd5b506138b5806100246000396000f3fe60806040526004361061009c5760003560e01c806356bb362b1161006457806356bb362b146104ff57806365022f1e1461058f5780637bb8e8bc146105d4578063b583b305146106a6578063c06882b21461080f578063f510f6ae146108c35761009c565b8063021baa16146100a157806305914701146100dc57806326c3feed146101a15780633129e773146103975780634c2e1e8e1461044b575b600080fd5b3480156100ad57600080fd5b506100da600480360360208110156100c457600080fd5b81019080803590602001909291905050506108fe565b005b61019f600480360360408110156100f257600080fd5b81019080803590602001909291908035906020019064010000000081111561011957600080fd5b82018360208201111561012b57600080fd5b8035906020019184600183028401116401000000008311171561014d57600080fd5b91908080601f016020809104026020016040519081016040528093929190818152602001838380828437600081840152601f19601f820116905080830192505050505050509192919290505050610b13565b005b3480156101ad57600080fd5b50610395600480360360608110156101c457600080fd5b81019080803590602001906401000000008111156101e157600080fd5b8201836020820111156101f357600080fd5b8035906020019184600183028401116401000000008311171561021557600080fd5b91908080601f016020809104026020016040519081016040528093929190818152602001838380828437600081840152601f19601f8201169050808301925050505050505091929192908035906020019064010000000081111561027857600080fd5b82018360208201111561028a57600080fd5b803590602001918460018302840111640100000000831117156102ac57600080fd5b91908080601f016020809104026020016040519081016040528093929190818152602001838380828437600081840152601f19601f8201169050808301925050505050505091929192908035906020019064010000000081111561030f57600080fd5b82018360208201111561032157600080fd5b8035906020019184600183028401116401000000008311171561034357600080fd5b91908080601f016020809104026020016040519081016040528093929190818152602001838380828437600081840152601f19601f820116905080830192505050505050509192919290505050610f7d565b005b3480156103a357600080fd5b506103d0600480360360208110156103ba57600080fd5b8101908080359060200190929190505050611253565b6040518080602001828103825283818151815260200191508051906020019080838360005b838110156104105780820151818401526020810190506103f5565b50505050905090810190601f16801561043d5780820380516001836020036101000a031916815260200191505b509250505060405180910390f35b34801561045757600080fd5b506104846004803603602081101561046e57600080fd5b8101908080359060200190929190505050611502565b6040518080602001828103825283818151815260200191508051906020019080838360005b838110156104c45780820151818401526020810190506104a9565b50505050905090810190601f1680156104f15780820380516001836020036101000a031916815260200191505b509250505060405180910390f35b34801561050b57600080fd5b5061051461179a565b6040518080602001828103825283818151815260200191508051906020019080838360005b83811015610554578082015181840152602081019050610539565b50505050905090810190601f1680156105815780820380516001836020036101000a031916815260200191505b509250505060405180910390f35b34801561059b57600080fd5b506105d2600480360360408110156105b257600080fd5b810190808035906020019092919080359060200190929190505050611fbc565b005b3480156105e057600080fd5b506106a4600480360360408110156105f757600080fd5b81019080803590602001909291908035906020019064010000000081111561061e57600080fd5b82018360208201111561063057600080fd5b8035906020019184600183028401116401000000008311171561065257600080fd5b91908080601f016020809104026020016040519081016040528093929190818152602001838380828437600081840152601f19601f8201169050808301925050505050505091929192905050506121df565b005b3480156106b257600080fd5b5061080d600480360360608110156106c957600080fd5b8101908080359060200190929190803590602001906401000000008111156106f057600080fd5b82018360208201111561070257600080fd5b8035906020019184600183028401116401000000008311171561072457600080fd5b91908080601f016020809104026020016040519081016040528093929190818152602001838380828437600081840152601f19601f8201169050808301925050505050505091929192908035906020019064010000000081111561078757600080fd5b82018360208201111561079957600080fd5b803590602001918460018302840111640100000000831117156107bb57600080fd5b91908080601f016020809104026020016040519081016040528093929190818152602001838380828437600081840152601f19601f820116905080830192505050505050509192919290505050612481565b005b34801561081b57600080fd5b506108486004803603602081101561083257600080fd5b8101908080359060200190929190505050612720565b6040518080602001828103825283818151815260200191508051906020019080838360005b8381101561088857808201518184015260208101905061086d565b50505050905090810190601f1680156108b55780820380516001836020036101000a031916815260200191505b509250505060405180910390f35b3480156108cf57600080fd5b506108fc600480360360208110156108e657600080fd5b810190808035906020019092919050505061294f565b005b6000548110610975576040517f08c379a00000000000000000000000000000000000000000000000000000000081526004018080602001828103825260108152602001807f496e76616c6964206974656d204944210000000000000000000000000000000081525060200191505060405180910390fd5b6001600481111561098257fe5b6002828154811061098f57fe5b906000526020600020906009020160030160149054906101000a900460ff1660048111156109b957fe5b14610a0f576040517f08c379a00000000000000000000000000000000000000000000000000000000081526004018080602001828103825260348152602001806136a66034913960400191505060405180910390fd5b60028181548110610a1c57fe5b906000526020600020906009020160030160009054906101000a900473ffffffffffffffffffffffffffffffffffffffff1673ffffffffffffffffffffffffffffffffffffffff163373ffffffffffffffffffffffffffffffffffffffff1614610ad1576040517f08c379a00000000000000000000000000000000000000000000000000000000081526004018080602001828103825260218152602001806137996021913960400191505060405180910390fd5b6002808281548110610adf57fe5b906000526020600020906009020160030160146101000a81548160ff02191690836004811115610b0b57fe5b021790555050565b6000548210610b8a576040517f08c379a00000000000000000000000000000000000000000000000000000000081526004018080602001828103825260108152602001807f496e76616c6964206974656d204944210000000000000000000000000000000081525060200191505060405180910390fd5b60026004811115610b9757fe5b60028381548110610ba457fe5b906000526020600020906009020160030160149054906101000a900460ff166004811115610bce57fe5b14610c24576040517f08c379a000000000000000000000000000000000000000000000000000000000815260040180806020018281038252603781526020018061384a6037913960400191505060405180910390fd5b60028281548110610c3157fe5b906000526020600020906009020160060160010160003373ffffffffffffffffffffffffffffffffffffffff1673ffffffffffffffffffffffffffffffffffffffff168152602001908152602001600020600001543433604051602001808381526020018273ffffffffffffffffffffffffffffffffffffffff1673ffffffffffffffffffffffffffffffffffffffff1660601b8152601401925050506040516020818303038152906040528051906020012014610d57576040517f08c379a000000000000000000000000000000000000000000000000000000000815260040180806020018281038252600b8152602001807f57726f6e6720486173682100000000000000000000000000000000000000000081525060200191505060405180910390fd5b6000151560028381548110610d6857fe5b906000526020600020906009020160060160010160003373ffffffffffffffffffffffffffffffffffffffff1673ffffffffffffffffffffffffffffffffffffffff16815260200190815260200160002060020160009054906101000a900460ff16151514610e3f576040517f08c379a00000000000000000000000000000000000000000000000000000000081526004018080602001828103825260118152602001807f416c72656164792076657269666965642100000000000000000000000000000081525060200191505060405180910390fd5b60003390503460028481548110610e5257fe5b906000526020600020906009020160060160010160008373ffffffffffffffffffffffffffffffffffffffff1673ffffffffffffffffffffffffffffffffffffffff16815260200190815260200160002060010181905550600160028481548110610eb957fe5b906000526020600020906009020160060160010160008373ffffffffffffffffffffffffffffffffffffffff1673ffffffffffffffffffffffffffffffffffffffff16815260200190815260200160002060020160006101000a81548160ff02191690831515021790555081600160008373ffffffffffffffffffffffffffffffffffffffff1673ffffffffffffffffffffffffffffffffffffffff1681526020019081526020016000209080519060200190610f779291906133b5565b50505050565b610f85613435565b6000808154809291906001019190505581600001818152505083816020018190525082816040018190525033816060019073ffffffffffffffffffffffffffffffffffffffff16908173ffffffffffffffffffffffffffffffffffffffff16815250506040518060800160405280604181526020016137db604191398160c001819052506002819080600181540180825580915050906001820390600052602060002090600902016000909192909190915060008201518160000155602082015181600101908051906020019061105d9291906134b7565b50604082015181600201908051906020019061107a9291906134b7565b5060608201518160030160006101000a81548173ffffffffffffffffffffffffffffffffffffffff021916908373ffffffffffffffffffffffffffffffffffffffff16021790555060808201518160030160146101000a81548160ff021916908360048111156110e657fe5b021790555060a08201518160040160006101000a81548173ffffffffffffffffffffffffffffffffffffffff021916908373ffffffffffffffffffffffffffffffffffffffff16021790555060c082015181600501908051906020019061114e9291906134b7565b5060e08201518160060160008201518160000190805190602001906111749291906134b7565b506020820151816002019080519060200190611191929190613537565b50505050505061119f6135c1565b8281600001819052508060028360000151815481106111ba57fe5b906000526020600020906009020160060160008201518160000190805190602001906111e79291906134b7565b506020820151816002019080519060200190611204929190613537565b509050506001600283600001518154811061121b57fe5b906000526020600020906009020160030160146101000a81548160ff0219169083600481111561124757fe5b02179055505050505050565b606060005482106112cc576040517f08c379a00000000000000000000000000000000000000000000000000000000081526004018080602001828103825260108152602001807f496e76616c6964206974656d204944210000000000000000000000000000000081525060200191505060405180910390fd5b6004808111156112d857fe5b600283815481106112e557fe5b906000526020600020906009020160030160149054906101000a900460ff16600481111561130f57fe5b14611365576040517f08c379a00000000000000000000000000000000000000000000000000000000081526004018080602001828103825260418152602001806137db6041913960600191505060405180910390fd5b6002828154811061137257fe5b906000526020600020906009020160040160009054906101000a900473ffffffffffffffffffffffffffffffffffffffff1673ffffffffffffffffffffffffffffffffffffffff163373ffffffffffffffffffffffffffffffffffffffff1614611444576040517f08c379a000000000000000000000000000000000000000000000000000000000815260040180806020018281038252601d8152602001807f4f6e6c792077696e6e65722063616e2067657420746865206974656d2100000081525060200191505060405180910390fd5b6002828154811061145157fe5b90600052602060002090600902016005018054600181600116156101000203166002900480601f0160208091040260200160405190810160405280929190818152602001828054600181600116156101000203166002900480156114f65780601f106114cb576101008083540402835291602001916114f6565b820191906000526020600020905b8154815290600101906020018083116114d957829003601f168201915b50505050509050919050565b6060600054821061157b576040517f08c379a00000000000000000000000000000000000000000000000000000000081526004018080602001828103825260108152602001807f496e76616c6964206974656d204944210000000000000000000000000000000081525060200191505060405180910390fd5b6003600481111561158857fe5b6002838154811061159557fe5b906000526020600020906009020160030160149054906101000a900460ff1660048111156115bf57fe5b148061160b57506004808111156115d257fe5b600283815481106115df57fe5b906000526020600020906009020160030160149054906101000a900460ff16600481111561160957fe5b145b61167d576040517f08c379a000000000000000000000000000000000000000000000000000000000815260040180806020018281038252601b8152602001807f57696e6e6572206973206e6f74206465636c617265642079657421000000000081525060200191505060405180910390fd5b600160006002848154811061168e57fe5b906000526020600020906009020160040160009054906101000a900473ffffffffffffffffffffffffffffffffffffffff1673ffffffffffffffffffffffffffffffffffffffff1673ffffffffffffffffffffffffffffffffffffffff1681526020019081526020016000208054600181600116156101000203166002900480601f01602080910402602001604051908101604052809291908181526020018280546001816001161561010002031660029004801561178e5780601f106117635761010080835404028352916020019161178e565b820191906000526020600020905b81548152906001019060200180831161177157829003601f168201915b50505050509050919050565b60608060405180602001604052806000815250905060008090505b600280549050811015611fb457816040516020018082805190602001908083835b602083106117f957805182526020820191506020810190506020830392506117d6565b6001836020036101000a038019825116818451168082178552505050505050905001807f49443a200000000000000000000000000000000000000000000000000000000081525060040191505060405160208183030381529060405291508161187f6002838154811061186857fe5b906000526020600020906009020160000154612b6e565b6040516020018083805190602001908083835b602083106118b55780518252602082019150602081019050602083039250611892565b6001836020036101000a03801982511681845116808217855250505050505090500182805190602001908083835b6020831061190657805182526020820191506020810190506020830392506118e3565b6001836020036101000a038019825116818451168082178552505050505050905001925050506040516020818303038152906040529150816040516020018082805190602001908083835b602083106119745780518252602082019150602081019050602083039250611951565b6001836020036101000a038019825116818451168082178552505050505050905001807f3b204e616d653a20000000000000000000000000000000000000000000000000815250600801915050604051602081830303815290604052915081600282815481106119e057fe5b90600052602060002090600902016001016040516020018083805190602001908083835b60208310611a275780518252602082019150602081019050602083039250611a04565b6001836020036101000a03801982511681845116808217855250505050505090500182805460018160011615610100020316600290048015611aa05780601f10611a7e576101008083540402835291820191611aa0565b820191906000526020600020905b815481529060010190602001808311611a8c575b5050925050506040516020818303038152906040529150816040516020018082805190602001908083835b60208310611aee5780518252602082019150602081019050602083039250611acb565b6001836020036101000a038019825116818451168082178552505050505050905001807f3b204465736372697074696f6e3a200000000000000000000000000000000000815250600f0191505060405160208183030381529060405291508160028281548110611b5a57fe5b90600052602060002090600902016002016040516020018083805190602001908083835b60208310611ba15780518252602082019150602081019050602083039250611b7e565b6001836020036101000a03801982511681845116808217855250505050505090500182805460018160011615610100020316600290048015611c1a5780601f10611bf8576101008083540402835291820191611c1a565b820191906000526020600020905b815481529060010190602001808311611c06575b5050925050506040516020818303038152906040529150816040516020018082805190602001908083835b60208310611c685780518252602082019150602081019050602083039250611c45565b6001836020036101000a038019825116818451168082178552505050505050905001807f3b2053656c6c657249443a200000000000000000000000000000000000000000815250600c01915050604051602081830303815290604052915081611d0e60028381548110611cd757fe5b906000526020600020906009020160030160009054906101000a900473ffffffffffffffffffffffffffffffffffffffff16612ca7565b6040516020018083805190602001908083835b60208310611d445780518252602082019150602081019050602083039250611d21565b6001836020036101000a03801982511681845116808217855250505050505090500182805190602001908083835b60208310611d955780518252602082019150602081019050602083039250611d72565b6001836020036101000a038019825116818451168082178552505050505050905001925050506040516020818303038152906040529150816040516020018082805190602001908083835b60208310611e035780518252602082019150602081019050602083039250611de0565b6001836020036101000a038019825116818451168082178552505050505050905001807f3b205374617475733a2000000000000000000000000000000000000000000000815250600a0191505060405160208183030381529060405291508160028281548110611e6f57fe5b906000526020600020906009020160030160149054906101000a900460ff166040516020018083805190602001908083835b60208310611ec45780518252602082019150602081019050602083039250611ea1565b6001836020036101000a038019825116818451168082178552505050505050905001826004811115611ef257fe5b60ff1660f81b8152600101925050506040516020818303038152906040529150816040516020018082805190602001908083835b60208310611f495780518252602082019150602081019050602083039250611f26565b6001836020036101000a038019825116818451168082178552505050505050905001807f0a00000000000000000000000000000000000000000000000000000000000000815250600101915050604051602081830303815290604052915080806001019150506117b5565b508091505090565b6000548210612033576040517f08c379a00000000000000000000000000000000000000000000000000000000081526004018080602001828103825260108152602001807f496e76616c6964206974656d204944210000000000000000000000000000000081525060200191505060405180910390fd5b6001600481111561204057fe5b6002838154811061204d57fe5b906000526020600020906009020160030160149054906101000a900460ff16600481111561207757fe5b146120ea576040517f08c379a000000000000000000000000000000000000000000000000000000000815260040180806020018281038252601f8152602001807f4974656d206e6f7420617661696c61626c6520666f722062696464696e67210081525060200191505060405180910390fd5b600033905081600284815481106120fd57fe5b906000526020600020906009020160060160010160008373ffffffffffffffffffffffffffffffffffffffff1673ffffffffffffffffffffffffffffffffffffffff168152602001908152602001600020600001819055506002838154811061216257fe5b90600052602060002090600902016006016002013390806001815401808255809150509060018203906000526020600020016000909192909190916101000a81548173ffffffffffffffffffffffffffffffffffffffff021916908373ffffffffffffffffffffffffffffffffffffffff16021790555050505050565b6000548210612256576040517f08c379a00000000000000000000000000000000000000000000000000000000081526004018080602001828103825260108152602001807f496e76616c6964206974656d204944210000000000000000000000000000000081525060200191505060405180910390fd5b6000600481111561226357fe5b6002838154811061227057fe5b906000526020600020906009020160030160149054906101000a900460ff16600481111561229a57fe5b1461230d576040517f08c379a000000000000000000000000000000000000000000000000000000000815260040180806020018281038252601f8152602001807f4974656d206e6f7420617661696c61626c6520666f722061756374696f6e210081525060200191505060405180910390fd5b6002828154811061231a57fe5b906000526020600020906009020160030160009054906101000a900473ffffffffffffffffffffffffffffffffffffffff1673ffffffffffffffffffffffffffffffffffffffff163373ffffffffffffffffffffffffffffffffffffffff16146123cf576040517f08c379a00000000000000000000000000000000000000000000000000000000081526004018080602001828103825260228152602001806136846022913960400191505060405180910390fd5b6123d76135c1565b81816000018190525080600284815481106123ee57fe5b9060005260206000209060090201600601600082015181600001908051906020019061241b9291906134b7565b506020820151816002019080519060200190612438929190613537565b5090505060016002848154811061244b57fe5b906000526020600020906009020160030160146101000a81548160ff0219169083600481111561247757fe5b0217905550505050565b60005483106124f8576040517f08c379a00000000000000000000000000000000000000000000000000000000081526004018080602001828103825260108152602001807f496e76616c6964206974656d204944210000000000000000000000000000000081525060200191505060405180910390fd5b6003600481111561250557fe5b6002848154811061251257fe5b906000526020600020906009020160030160149054906101000a900460ff16600481111561253c57fe5b14612592576040517f08c379a00000000000000000000000000000000000000000000000000000000081526004018080602001828103825260238152602001806137766023913960400191505060405180910390fd5b6002838154811061259f57fe5b906000526020600020906009020160030160009054906101000a900473ffffffffffffffffffffffffffffffffffffffff1673ffffffffffffffffffffffffffffffffffffffff163373ffffffffffffffffffffffffffffffffffffffff1614612654576040517f08c379a00000000000000000000000000000000000000000000000000000000081526004018080602001828103825260218152602001806137ba6021913960400191505060405180910390fd5b80600160003373ffffffffffffffffffffffffffffffffffffffff1673ffffffffffffffffffffffffffffffffffffffff16815260200190815260200160002090805190602001906126a79291906133b5565b5081600284815481106126b657fe5b906000526020600020906009020160050190805190602001906126da9291906133b5565b506004600284815481106126ea57fe5b906000526020600020906009020160030160146101000a81548160ff0219169083600481111561271657fe5b0217905550505050565b60606000548210612799576040517f08c379a00000000000000000000000000000000000000000000000000000000081526004018080602001828103825260108152602001807f496e76616c6964206974656d204944210000000000000000000000000000000081525060200191505060405180910390fd5b6004808111156127a557fe5b600283815481106127b257fe5b906000526020600020906009020160030160149054906101000a900460ff1660048111156127dc57fe5b14612832576040517f08c379a000000000000000000000000000000000000000000000000000000000815260040180806020018281038252604c81526020018061372a604c913960600191505060405180910390fd5b600160006002848154811061284357fe5b906000526020600020906009020160030160009054906101000a900473ffffffffffffffffffffffffffffffffffffffff1673ffffffffffffffffffffffffffffffffffffffff1673ffffffffffffffffffffffffffffffffffffffff1681526020019081526020016000208054600181600116156101000203166002900480601f0160208091040260200160405190810160405280929190818152602001828054600181600116156101000203166002900480156129435780601f1061291857610100808354040283529160200191612943565b820191906000526020600020905b81548152906001019060200180831161292657829003601f168201915b50505050509050919050565b60005481106129c6576040517f08c379a00000000000000000000000000000000000000000000000000000000081526004018080602001828103825260108152602001807f496e76616c6964206974656d204944210000000000000000000000000000000081525060200191505060405180910390fd5b600260048111156129d357fe5b600282815481106129e057fe5b906000526020600020906009020160030160149054906101000a900460ff166004811115612a0a57fe5b14612a60576040517f08c379a000000000000000000000000000000000000000000000000000000000815260040180806020018281038252602e81526020018061381c602e913960400191505060405180910390fd5b60028181548110612a6d57fe5b906000526020600020906009020160030160009054906101000a900473ffffffffffffffffffffffffffffffffffffffff1673ffffffffffffffffffffffffffffffffffffffff163373ffffffffffffffffffffffffffffffffffffffff1614612b22576040517f08c379a00000000000000000000000000000000000000000000000000000000081526004018080602001828103825260218152602001806136da6021913960400191505060405180910390fd5b600360028281548110612b3157fe5b906000526020600020906009020160030160146101000a81548160ff02191690836004811115612b5d57fe5b0217905550612b6b81612df6565b50565b60606000821415612bb6576040518060400160405280600181526020017f30000000000000000000000000000000000000000000000000000000000000008152509050612ca2565b600082905060005b60008214612be0578080600101915050600a8281612bd857fe5b049150612bbe565b6060816040519080825280601f01601f191660200182016040528015612c155781602001600182028038833980820191505090505b50905060008290505b60008614612c9a576001810390506000600a808881612c3957fe5b04028703603001905060008160f81b905080848481518110612c5757fe5b60200101907effffffffffffffffffffffffffffffffffffffffffffffffffffffffffffff1916908160001a905350600a8881612c9057fe5b0497505050612c1e565b819450505050505b919050565b60608060286040519080825280601f01601f191660200182016040528015612cde5781602001600182028038833980820191505090505b50905060008090505b6014811015612dec5760008160130360080260020a8573ffffffffffffffffffffffffffffffffffffffff1681612d1a57fe5b0460f81b9050600060108260f81c60ff1681612d3257fe5b0460f81b905060008160f81c6010028360f81c0360f81b9050612d5482613381565b858560020281518110612d6357fe5b60200101907effffffffffffffffffffffffffffffffffffffffffffffffffffffffffffff1916908160001a905350612d9b81613381565b856001866002020181518110612dad57fe5b60200101907effffffffffffffffffffffffffffffffffffffffffffffffffffffffffffff1916908160001a9053505050508080600101915050612ce7565b5080915050919050565b6000548110612e6d576040517f08c379a00000000000000000000000000000000000000000000000000000000081526004018080602001828103825260108152602001807f496e76616c6964206974656d204944210000000000000000000000000000000081525060200191505060405180910390fd5b60036004811115612e7a57fe5b60028281548110612e8757fe5b906000526020600020906009020160030160149054906101000a900460ff166004811115612eb157fe5b14612f07576040517f08c379a000000000000000000000000000000000000000000000000000000000815260040180806020018281038252602f8152602001806136fb602f913960400191505060405180910390fd5b606060028281548110612f1657fe5b9060005260206000209060090201600601600201805480602002602001604051908101604052809291908181526020018280548015612faa57602002820191906000526020600020905b8160009054906101000a900473ffffffffffffffffffffffffffffffffffffffff1673ffffffffffffffffffffffffffffffffffffffff1681526020019060010190808311612f60575b50505050509050600060028381548110612fc057fe5b906000526020600020906009020160030160009054906101000a900473ffffffffffffffffffffffffffffffffffffffff169050600080905060008090505b835181101561310a576130106135db565b6002868154811061301d57fe5b9060005260206000209060090201600601600101600086848151811061303f57fe5b602002602001015173ffffffffffffffffffffffffffffffffffffffff1673ffffffffffffffffffffffffffffffffffffffff16815260200190815260200160002060405180606001604052908160008201548152602001600182015481526020016002820160009054906101000a900460ff161515151581525050905060011515816040015115151480156130d9575082816020015110155b156130fc578482815181106130ea57fe5b60200260200101519350806020015192505b508080600101915050612fff565b5060008090505b8351811015613298576131226135db565b6002868154811061312f57fe5b9060005260206000209060090201600601600101600086848151811061315157fe5b602002602001015173ffffffffffffffffffffffffffffffffffffffff1673ffffffffffffffffffffffffffffffffffffffff16815260200190815260200160002060405180606001604052908160008201548152602001600182015481526020016002820160009054906101000a900460ff1615151515815250509050600115158160400151151514801561322657508373ffffffffffffffffffffffffffffffffffffffff1685838151811061320557fe5b602002602001015173ffffffffffffffffffffffffffffffffffffffff1614155b1561328a5784828151811061323757fe5b602002602001015173ffffffffffffffffffffffffffffffffffffffff166108fc82602001519081150290604051600060405180830381858888f19350505050158015613288573d6000803e3d6000fd5b505b508080600101915050613111565b50600284815481106132a657fe5b906000526020600020906009020160030160009054906101000a900473ffffffffffffffffffffffffffffffffffffffff1673ffffffffffffffffffffffffffffffffffffffff166108fc829081150290604051600060405180830381858888f1935050505015801561331d573d6000803e3d6000fd5b50816002858154811061332c57fe5b906000526020600020906009020160040160006101000a81548173ffffffffffffffffffffffffffffffffffffffff021916908373ffffffffffffffffffffffffffffffffffffffff16021790555050505050565b6000600a8260f81c60ff1610156133a35760308260f81c0160f81b90506133b0565b60578260f81c0160f81b90505b919050565b828054600181600116156101000203166002900490600052602060002090601f016020900481019282601f106133f657805160ff1916838001178555613424565b82800160010185558215613424579182015b82811115613423578251825591602001919060010190613408565b5b5090506134319190613601565b5090565b604051806101000160405280600081526020016060815260200160608152602001600073ffffffffffffffffffffffffffffffffffffffff1681526020016000600481111561348057fe5b8152602001600073ffffffffffffffffffffffffffffffffffffffff168152602001606081526020016134b1613626565b81525090565b828054600181600116156101000203166002900490600052602060002090601f016020900481019282601f106134f857805160ff1916838001178555613526565b82800160010185558215613526579182015b8281111561352557825182559160200191906001019061350a565b5b5090506135339190613601565b5090565b8280548282559060005260206000209081019282156135b0579160200282015b828111156135af5782518260006101000a81548173ffffffffffffffffffffffffffffffffffffffff021916908373ffffffffffffffffffffffffffffffffffffffff16021790555091602001919060010190613557565b5b5090506135bd9190613640565b5090565b604051806040016040528060608152602001606081525090565b604051806060016040528060008019168152602001600081526020016000151581525090565b61362391905b8082111561361f576000816000905550600101613607565b5090565b90565b604051806040016040528060608152602001606081525090565b61368091905b8082111561367c57600081816101000a81549073ffffffffffffffffffffffffffffffffffffffff021916905550600101613646565b5090565b9056fe4f6e6c792073656c6c65722063616e207374617274207468652061756374696f6e21496e76616c696420726571756573742c206974656d20776173206e6f7420617661696c61626c6520666f722062696464696e67214f6e6c792073656c6c65722063616e2073746f70207468652061756374696f6e2141756374696f6e206e6f742073746f70706564206f722077696e6e657220616c7265616479206465636c61726564214974656d206e6f742064656c697665726564207965742c207075626c6963206b65792077696c6c20626520617661696c61626c65206f6e6365206974656d2069732064656c697665726564214974656d206e6f7420736f6c64206f7220616c72656164792064656c697665726564214f6e6c792073656c6c65722063616e2073746f70207468652062696464696e67214f6e6c792073656c6c65722063616e2064656c6976657220746865206974656d214974656d206e6f7420617661696c61626c65207965742c20706c65617365207761697420666f72207468652073656c6c657220746f2064656c6976657220697421496e76616c696420726571756573742c206974656d2773206e6f74206174205041595f414e445f56455249465921496e76616c696420726571756573742c206974656d206e6f7420617661696c61626c6520666f722070617920616e642076657269667921a265627a7a723158203277dd1dba1f7f64b9a414fc82326ac0dd992ef04bc4f9bfb7df3d83141781f664736f6c63430005100032",
  "source": "// SPDX-License-Identifier: GPL-3.0\npragma solidity >=0.4.22 <0.9.0;\n\n/**\n * @title A Modern Way\n * @dev Smart contract to facilitate auctions securely\n */\ncontract AModernWay {\n    /**\n     * This is an enum which will help to keep the current status of an item.\n     * The status WAITING signifies that the item is not yet avaialable for auction\n     * The status STARTED signifies that the auction has started and bidders can start bidding\n     * The status PAY_AND_VERIFY signifies that the bidders can pay to verify their bid\n     * The status SOLD signifies that the item is sold to the winner, and money is transferred \n     * and refunded to the seller and bidders respectively.\n     * The status DELIVERED signifies that the item is delivered to the winner\n     */\n    enum status {\n        WAITING,\n        STARTED,\n        PAY_AND_VERIFY,\n        SOLD,\n        DELIVERED\n    }\n\n    struct Bid{\n        bytes32 hashedBid;\n        uint256 bidValue;\n        bool isVerified;\n    }\n\n   \n    struct Auction{\n        string auctionType;\n        mapping(address => Bid) addressToBid;\n        address payable[] bidders;\n    }\n\n     /**\n     * This is our main item struct.\n     * listingID is the the unique ID for each item\n     * sellerID is the address of the seller who wants to sell the item\n     * winnerID is the address of the buyer who wins the auction\n     * itemStatus tells the current status of the item. It uses the enum status defined above\n     */\n    struct Item {\n        uint256 listingID;\n        string name;\n        string description;\n        address payable sellerID;\n        status itemStatus;\n        address winnerID;\n        string encryptedString;\n        Auction auction;\n    }\n\n\n    uint256 numOfItems = 0;\n\n    /**\n     * This mapping takes an address of a user as the input and returns the public key of that corresponding user.\n     * The public key will be required by the seller so that he can encrypt the item string and send the encrypted string to the buyer.\n     * The buyer will then decrpyt the encrypted string using their private key.\n     */\n    mapping(address => string) addressToPublicKey;\n\n    /**\n     * This array stores the list of all items\n     */\n    Item[] items;\n\n    // /**\n    //  * This modifier is used by a function to check if the item with ID = itemID is accessed only by the seller of that item\n    //  * @param itemID is the unique ID of the item\n    //  */\n    // modifier onlySeller(uint256 itemID) {\n    //     require(\n    //         msg.sender == items[itemID].sellerID,\n    //         \"You do not own the item!\"\n    //     );\n    //     _;\n    // }\n\n    // /**\n    //  * This modifier is used by a function to check if the item with ID = itemID is accessed only by the buyer of that item\n    //  * @param itemID is the unique ID of the item\n    //  */\n    // modifier onlyBuyer(uint256 itemID) {\n    //     require(\n    //         msg.sender == items[itemID].buyerID,\n    //         \"You do not own the item!\"\n    //     );\n    //     _;\n    // }\n\n    // /**\n    //  * This modifier is used by a function to check if the item with ID = itemID is in transit i.e. buyer has paid and is awaiting delivery from seller\n    //  * @param itemID is the unique ID of the item\n    //  */\n    // modifier onlyInTransit(uint256 itemID) {\n    //     require(\n    //         items[itemID].itemStatus == status.IN_TRANSIT,\n    //         \"Item not available for delivery!\"\n    //     );\n    //     _;\n    // }\n\n    /**\n     * This function is used by a seller to add a new item to the listing.\n     * @param itemName is the name of the item\n     * @param itemDescription describes the item the seller wants to sell\n     */\n    function addNewItem(\n        string memory itemName,\n        string memory itemDescription,\n        string memory auctionType\n    ) public {\n        Item memory newItem;\n        newItem.listingID = numOfItems++;\n        newItem.name = itemName;\n        newItem.description = itemDescription;\n        newItem.sellerID = msg.sender;\n        // newItem.itemStatus = status.WAITING;\n        newItem.encryptedString = \"Item not available yet, please wait for the seller to deliver it!\";\n        items.push(newItem);\n        Auction memory auction;\n        auction.auctionType = auctionType;\n        items[newItem.listingID].auction = auction;\n        items[newItem.listingID].itemStatus = status.STARTED;\n    }\n\n    /**\n     * This function is used by a seller to start the auction for the item.\n     * @param itemID is the id of the item\n     * @param auctionType describes the type of the auction\n     */\n    function startAuction(\n        uint256 itemID, string memory auctionType\n    ) public {\n        require(\n            itemID < numOfItems,\n            \"Invalid item ID!\"\n        );\n        require(\n            items[itemID].itemStatus == status.WAITING,\n            \"Item not available for auction!\"\n        );\n        require(\n            msg.sender == items[itemID].sellerID,\n            \"Only seller can start the auction!\"\n        );\n        \n        Auction memory auction;\n        auction.auctionType = auctionType;\n        items[itemID].auction = auction;\n        items[itemID].itemStatus = status.STARTED;\n    }\n\n    /**\n     * This function is called by the bidders to bid on the item.\n     * @param itemID is the id of the item\n     * @param hashedBid is the hashed value of the bid to keep the bid sealed\n     */\n    function bidAtAuction(\n        uint256 itemID, bytes32 hashedBid\n    ) public {\n        require(\n            itemID < numOfItems,\n            \"Invalid item ID!\"\n        );\n        require(\n            items[itemID].itemStatus == status.STARTED,\n            \"Item not available for bidding!\"\n        );\n        // require(\n        //     msg.sender == items[itemID].sellerID,\n        //     \"Seller can not buy their item!\"\n        // );\n        // require(\n        //     items[itemID].auction.addressToBid[msg.sender].hashedBid != keccak256(abi.encodePacked(\"\")),\n        //     \"Can only bid once!\"\n        // );\n\n        address buyerAddress = msg.sender;\n        items[itemID].auction.addressToBid[buyerAddress].hashedBid = hashedBid;\n        items[itemID].auction.bidders.push(msg.sender);\n    }\n\n\n    /**\n     * This function is used by a seller to stop the bidding.\n     * @param itemID is the id of the item\n     */\n    function stopBidding(\n        uint256 itemID\n    ) public {\n        require(\n            itemID < numOfItems,\n            \"Invalid item ID!\"\n        );\n        require(\n            items[itemID].itemStatus == status.STARTED,\n            \"Invalid request, item was not available for bidding!\"\n        );\n        require(\n            msg.sender == items[itemID].sellerID,\n            \"Only seller can stop the bidding!\"\n        );\n        \n        items[itemID].itemStatus = status.PAY_AND_VERIFY;\n    }\n\n\n    /**\n     * This function is used by the bidders to pay and verify their bidding.\n     * @param itemID is the id of the item\n     * @param publicKey is the public key of the bidder\n     */\n    function payAndVerifyBid(\n        uint256 itemID, string memory publicKey\n    ) public payable {\n        require(\n            itemID < numOfItems,\n            \"Invalid item ID!\"\n        );\n        require(\n            items[itemID].itemStatus == status.PAY_AND_VERIFY,\n            \"Invalid request, item not available for pay and verify!\"\n        );\n        require(\n            keccak256(abi.encodePacked(msg.value, msg.sender)) == items[itemID].auction.addressToBid[msg.sender].hashedBid,\n            \"Wrong Hash!\"\n        );\n        require(\n            items[itemID].auction.addressToBid[msg.sender].isVerified == false,\n            \"Already verified!\"\n        );\n        \n        address buyerAddress = msg.sender;\n        items[itemID].auction.addressToBid[buyerAddress].bidValue = msg.value;\n        items[itemID].auction.addressToBid[buyerAddress].isVerified = true;\n        addressToPublicKey[buyerAddress] = publicKey;\n    }\n\n    /**\n     * This function is used to find the winner of the auction, and transfer the money to seller and bidders.\n     * @param itemID is the id of the item\n     */\n    function declareWinnerAndTransferMoney(\n        uint256 itemID\n    ) private {\n        require(\n            itemID < numOfItems,\n            \"Invalid item ID!\"\n        );\n        require(\n            items[itemID].itemStatus == status.SOLD,\n            \"Auction not stopped or winner already declared!\"\n        );\n       \n        address payable[] memory bidders = items[itemID].auction.bidders;\n        address winner = items[itemID].sellerID;\n        uint256 maxBidValue = 0;\n        for (uint256 i = 0; i < bidders.length; i++) \n        {\n            Bid memory bid = items[itemID].auction.addressToBid[bidders[i]];\n            if(bid.isVerified == true && bid.bidValue >= maxBidValue) \n            {\n                winner = bidders[i];\n                maxBidValue = bid.bidValue;\n            }\n        }\n        for (uint256 i = 0; i < bidders.length; i++) \n        {\n            Bid memory bid = items[itemID].auction.addressToBid[bidders[i]];\n            if(bid.isVerified == true && bidders[i] != winner) \n            {\n                bidders[i].transfer(bid.bidValue);\n            }\n        }\n        items[itemID].sellerID.transfer(maxBidValue);\n        items[itemID].winnerID = winner;\n    }\n    \n    /**\n     * This function is used by a seller to stop the auction and declare the winner.\n     * @param itemID is the id of the item\n     */\n    function stopAuction(\n        uint256 itemID\n    ) public {\n        require(\n            itemID < numOfItems,\n            \"Invalid item ID!\"\n        );\n        require(\n            items[itemID].itemStatus == status.PAY_AND_VERIFY,\n            \"Invalid request, item's not at PAY_AND_VERIFY!\"\n        );\n        require(\n            msg.sender == items[itemID].sellerID,\n            \"Only seller can stop the auction!\"\n        );\n\n        items[itemID].itemStatus = status.SOLD;\n        declareWinnerAndTransferMoney(itemID);\n    }\n\n    // /**\n    //  * This function is used by a buyer to buy an item.\n    //  * @param itemID is the unique ID for each item\n    //  * @param publicKey is the unique publick key of the buyer\n    //  */\n    // function buyItem(uint256 itemID, string memory publicKey) public payable {\n    //     require(\n    //         items[itemID].itemStatus == status.AVAILABLE,\n    //         \"Item not available for sale!\"\n    //     );\n\n    //     require(\n    //         items[itemID].price == msg.value,\n    //         \"Money not equal to the listing price!\"\n    //     );\n\n    //     address buyerAddress = msg.sender;\n    //     items[itemID].itemStatus = status.IN_TRANSIT;\n    //     items[itemID].buyerID = buyerAddress;\n    //     addressToPublicKey[buyerAddress] = publicKey;\n       \n    // }\n\n    /**\n     * This function is used to get the public Key of the winner.\n     * @param itemID is the unique ID of the item\n     * @return Public Key of the buyer who bought item with ID = itemID\n     */\n    function getWinnerPublicKey(uint256 itemID)\n        public\n        view\n        returns (string memory)\n    {\n        require(\n            itemID < numOfItems,\n            \"Invalid item ID!\"\n        );\n        require(\n            items[itemID].itemStatus == status.SOLD || items[itemID].itemStatus == status.DELIVERED,\n            \"Winner is not declared yet!\"\n        );\n        return addressToPublicKey[items[itemID].winnerID];\n    }\n\n    /**\n     * This function is used by a seller to transfer encrypted string to the buyer.\n     * @param itemID is the unique ID of the item\n     * @param encryptedItem is the encrypted Secret key sent by the seller using buyers Public Key\n     * @param publicKey is the public key of the seller\n     */\n    function deliverItem(uint256 itemID, string memory encryptedItem, string memory publicKey)\n        public\n    {\n        require(\n            itemID < numOfItems,\n            \"Invalid item ID!\"\n        );\n        require(\n            items[itemID].itemStatus == status.SOLD,\n            \"Item not sold or already delivered!\"\n        );\n        require(\n            msg.sender == items[itemID].sellerID,\n            \"Only seller can deliver the item!\"\n        );\n\n        addressToPublicKey[msg.sender] = publicKey;\n        items[itemID].encryptedString = encryptedItem;\n        items[itemID].itemStatus = status.DELIVERED;\n    }\n\n    /**\n     * This function is used to get the public Key of the seller.\n     * @param itemID is the unique ID of the item\n     * @return Public Key of the buyer who bought item with ID = itemID\n     */\n    function getSellerPublicKey(uint256 itemID)\n        public\n        view\n        returns (string memory)\n    {\n        require(\n            itemID < numOfItems,\n            \"Invalid item ID!\"\n        );\n        require(\n            items[itemID].itemStatus == status.DELIVERED,\n            \"Item not delivered yet, public key will be available once item is delivered!\"\n        );\n        return addressToPublicKey[items[itemID].sellerID];\n    }\n\n    /**\n     * This function is used by the winner of the auction to get the encrypted Secret string.\n     * @param itemID is the unique ID of the item\n     * @return encryptedString provided by the seller which can be decrypted by the buyer using their Private Key\n     */\n    function getItem(uint256 itemID)\n        public\n        view\n        returns (string memory)\n    {\n        require(\n            itemID < numOfItems,\n            \"Invalid item ID!\"\n        );\n        require(\n            items[itemID].itemStatus == status.DELIVERED,\n            \"Item not available yet, please wait for the seller to deliver it!\"\n        );\n        require(\n            msg.sender == items[itemID].winnerID,\n            \"Only winner can get the item!\"\n        );\n\n        return items[itemID].encryptedString;\n    }\n\n    /**\n     * This function is used to convert uint256 to string\n     * Taken from here: https://stackoverflow.com/questions/47129173/how-to-convert-uint-to-string-in-solidity\n     * @param _i is a variable of type uint\n     * @return _uintAsString the string representation of _i\n     */\n    function uint2str(uint256 _i)\n        internal\n        pure\n        returns (string memory _uintAsString)\n    {\n        if (_i == 0) {\n            return \"0\";\n        }\n        uint256 j = _i;\n        uint256 len;\n        while (j != 0) {\n            len++;\n            j /= 10;\n        }\n        bytes memory bstr = new bytes(len);\n        uint256 k = len;\n        while (_i != 0) {\n            k = k - 1;\n            uint8 temp = (48 + uint8(_i - (_i / 10) * 10));\n            bytes1 b1 = bytes1(temp);\n            bstr[k] = b1;\n            _i /= 10;\n        }\n        return string(bstr);\n    }\n\n    function toAsciiString(address x) internal view returns (string memory) {\n    bytes memory s = new bytes(40);\n    for (uint i = 0; i < 20; i++) {\n        bytes1 b = bytes1(uint8(uint(uint160(x)) / (2**(8*(19 - i)))));\n        bytes1 hi = bytes1(uint8(b) / 16);\n        bytes1 lo = bytes1(uint8(b) - 16 * uint8(hi));\n        s[2*i] = char(hi);\n        s[2*i+1] = char(lo);            \n    }\n    return string(s);\n}\n\nfunction char(bytes1 b) internal view returns (bytes1 c) {\n    if (uint8(b) < 10) return bytes1(uint8(b) + 0x30);\n    else return bytes1(uint8(b) + 0x57);\n}\n\n\n    /**\n     * This function is used by a buyer to view the listing.\n     * @return a string containing list of all available Items for bidding\n     */\n    function viewItemsForBidding() public view returns (string memory) {\n        string memory itemList = \"\";\n\n        for (uint256 i = 0; i < items.length; i++) {\n            // if (items[i].itemStatus == status.STARTED) {\n                itemList = string(abi.encodePacked(itemList, \"ID: \"));\n                itemList = string(\n                    abi.encodePacked(itemList, uint2str(items[i].listingID))\n                );\n                itemList = string(abi.encodePacked(itemList, \"; Name: \"));\n                itemList = string(abi.encodePacked(itemList, items[i].name));\n                itemList = string(\n                    abi.encodePacked(itemList, \"; Description: \")\n                );\n                itemList = string(\n                    abi.encodePacked(itemList, items[i].description)\n                );\n                itemList = string(\n                    abi.encodePacked(itemList, \"; SellerID: \")\n                );\n                itemList = string(\n                    abi.encodePacked(itemList, toAsciiString(items[i].sellerID))\n                );\n                itemList = string(\n                    abi.encodePacked(itemList, \"; Status: \")\n                );\n                itemList = string(\n                    abi.encodePacked(itemList, items[i].itemStatus)\n                );\n                itemList = string(abi.encodePacked(itemList, \"\\n\"));\n            // }\n        }\n        return itemList;\n    }\n}\n",
  "sourcePath": "/home/manish/blockchain/Blockchain_Auction/2018114005/contracts/AModernWay.sol",
  "compiler": {
    "name": "solc",
    "version": "0.5.16+commit.9c3226ce.Emscripten.clang"
  },
  "schemaVersion": "3.4.3",
  "updatedAt": "2021-10-11T19:20:44.891Z",
  "networkType": "ethereum",
  "devdoc": {
    "details": "Smart contract to facilitate auctions securely",
    "methods": {
      "addNewItem(string,string,string)": {
        "params": {
          "itemDescription": "describes the item the seller wants to sell",
          "itemName": "is the name of the item"
        }
      },
      "bidAtAuction(uint256,bytes32)": {
        "params": {
          "hashedBid": "is the hashed value of the bid to keep the bid sealed",
          "itemID": "is the id of the item"
        }
      },
      "deliverItem(uint256,string,string)": {
        "params": {
          "encryptedItem": "is the encrypted Secret key sent by the seller using buyers Public Key",
          "itemID": "is the unique ID of the item",
          "publicKey": "is the public key of the seller"
        }
      },
      "getItem(uint256)": {
        "params": {
          "itemID": "is the unique ID of the item"
        },
        "return": "encryptedString provided by the seller which can be decrypted by the buyer using their Private Key"
      },
      "getSellerPublicKey(uint256)": {
        "params": {
          "itemID": "is the unique ID of the item"
        },
        "return": "Public Key of the buyer who bought item with ID = itemID"
      },
      "getWinnerPublicKey(uint256)": {
        "params": {
          "itemID": "is the unique ID of the item"
        },
        "return": "Public Key of the buyer who bought item with ID = itemID"
      },
      "payAndVerifyBid(uint256,string)": {
        "params": {
          "itemID": "is the id of the item",
          "publicKey": "is the public key of the bidder"
        }
      },
      "startAuction(uint256,string)": {
        "params": {
          "auctionType": "describes the type of the auction",
          "itemID": "is the id of the item"
        }
      },
      "stopAuction(uint256)": {
        "params": {
          "itemID": "is the id of the item"
        }
      },
      "stopBidding(uint256)": {
        "params": {
          "itemID": "is the id of the item"
        }
      },
      "viewItemsForBidding()": {
        "return": "a string containing list of all available Items for bidding"
      }
    },
    "title": "A Modern Way"
  },
  "userdoc": {
    "methods": {
      "addNewItem(string,string,string)": {
        "notice": "This function is used by a seller to add a new item to the listing."
      },
      "bidAtAuction(uint256,bytes32)": {
        "notice": "This function is called by the bidders to bid on the item."
      },
      "deliverItem(uint256,string,string)": {
        "notice": "This function is used by a seller to transfer encrypted string to the buyer."
      },
      "getItem(uint256)": {
        "notice": "This function is used by the winner of the auction to get the encrypted Secret string."
      },
      "getSellerPublicKey(uint256)": {
        "notice": "This function is used to get the public Key of the seller."
      },
      "getWinnerPublicKey(uint256)": {
        "notice": "This function is used to get the public Key of the winner."
      },
      "payAndVerifyBid(uint256,string)": {
        "notice": "This function is used by the bidders to pay and verify their bidding."
      },
      "startAuction(uint256,string)": {
        "notice": "This function is used by a seller to start the auction for the item."
      },
      "stopAuction(uint256)": {
        "notice": "This function is used by a seller to stop the auction and declare the winner."
      },
      "stopBidding(uint256)": {
        "notice": "This function is used by a seller to stop the bidding."
      },
      "viewItemsForBidding()": {
        "notice": "This function is used by a buyer to view the listing."
      }
    }
  }
}